:020000040800F2
:1000000000500020319C00087D1B0008811B000867
:10001000851B0008891B00088D1B000800000000DC
:10002000000000000000000000000000E194000853
:10003000911B00080000000071950008B5950008AC
:10004000799C0008799C0008799C0008799C00083C
:10005000799C0008799C0008951B0008799C000891
:10006000799C0008799C0008799C00089D1B000879
:10007000799C0008A91B0008799C0008799C00085D
:10008000799C0008B51B0008799C0008799C000841
:10009000C11B0008799C0008799C0008799C000825
:1000A000799C0008799C0008799C0008799C0008DC
:1000B000799C0008799C0008CD1B0008799C0008F9
:1000C000799C0008799C0008799C0008799C0008BC
:1000D000799C0008799C0008D91B0008799C0008CD
:1000E000E51B0008799C0008799C000800000000CE
:1000F0000000000000000000000000000000000000
:0C01000000000000000000005FF808F1A3
:1001100010B5054C237833B9044B13B10448AFF341
:1001200000800123237010BD740300200000000034
:10013000BCBD000808B5034B1BB103490348AFF32E
:10014000008008BD0000000078030020BCBD00084E
:10015000034613F8012B002AFBD1181A0138704707
:1001600081F0004102E000BF83F0004330B54FEA68
:1001700041044FEA430594EA050F08BF90EA020FD5
:100180001FBF54EA000C55EA020C7FEA645C7FEA68
:10019000655C00F0E2804FEA5454D4EB5555B8BF8B
:1001A0006D420CDD2C4480EA020281EA030382EAFC
:1001B000000083EA010180EA020281EA0303362D8E
:1001C00088BF30BD11F0004F4FEA01314FF4801C61
:1001D0004CEA113102D0404261EB410113F0004F73
:1001E0004FEA03334CEA133302D0524263EB43032A
:1001F00094EA050F00F0A780A4F10104D5F1200EC8
:100200000DDB02FA0EFC22FA05F2801841F1000122
:1002100003FA0EF2801843FA05F359410EE0A5F1F6
:1002200020050EF1200E012A03FA0EFC28BF4CF027
:10023000020C43FA05F3C01851EBE37101F00045DD
:1002400007D54FF0000EDCF1000C7EEB00006EEBEA
:100250000101B1F5801F1BD3B1F5001F0CD3490874
:100260005FEA30004FEA3C0C04F101044FEA4452CB
:1002700012F5800F80F09A80BCF1004F08BF5FEA52
:10028000500C50F1000041EB045141EA050130BD32
:100290005FEA4C0C404141EB010111F4801FA4F1D5
:1002A0000104E9D191F0000F04BF01460020B1FA2A
:1002B00081F308BF2033A3F10B03B3F120020CDA62
:1002C0000C3208DD02F1140CC2F10C0201FA0CF040
:1002D00021FA02F10CE002F11402D8BFC2F1200CA5
:1002E00001FA02F120FA0CFCDCBF41EA0C0190405B
:1002F000E41AA2BF01EB0451294330BD6FEA0404A4
:100300001F3C1CDA0C340EDC04F11404C4F120028E
:1003100020FA04F001FA02F340EA030021FA04F3A0
:1003200045EA030130BDC4F10C04C4F1200220FAF7
:1003300002F001FA04F340EA0300294630BD21FA35
:1003400004F0294630BD94F0000F83F4801306BFFB
:1003500081F480110134013D4EE77FEA645C18BFEF
:100360007FEA655C29D094EA050F08BF90EA020F86
:1003700005D054EA000C04BF1946104630BD91EA7E
:10038000030F1EBF0021002030BD5FEA545C05D181
:100390004000494128BF41F0004130BD14F58004C0
:1003A0003CBF01F5801130BD01F0004545F0FE4134
:1003B00041F470014FF0000030BD7FEA645C1ABF69
:1003C000194610467FEA655C1CBF0B46024650EAA0
:1003D000013406BF52EA033591EA030F41F40021CC
:1003E00030BD00BF90F0000F04BF0021704730B552
:1003F0004FF4806404F132044FF000054FF0000127
:1004000050E700BF90F0000F04BF0021704730B5E7
:100410004FF4806404F1320410F0004548BF4042BC
:100420004FF000013EE700BF42004FEAE2014FEA11
:1004300031014FEA02701FBF12F07F4393F07F4FEC
:1004400081F06051704732F07F4208BF704793F0EF
:100450007F4F04BF41F40021704730B54FF4607402
:1004600001F0004521F000411CE700BF50EA010205
:1004700008BF704730B54FF000050AE050EA0102AE
:1004800008BF704730B511F0004502D5404261EB1E
:1004900041014FF4806404F132045FEA915C3FF45F
:1004A000D8AE4FF003025FEADC0C18BF03325FEAFC
:1004B000DC0C18BF033202EBDC02C2F1200300FAAD
:1004C00003FC20FA02F001FA03FE40EA0E0021FAD2
:1004D00002F11444BDE600BF70B54FF0FF0C4CF4C0
:1004E000E06C1CEA11541DBF1CEA135594EA0C0F72
:1004F00095EA0C0F00F0DEF82C4481EA030621EAAD
:100500004C5123EA4C5350EA013518BF52EA0335E7
:1005100041F4801143F4801338D0A0FB02CE4FF099
:100520000005E1FB02E506F00042E0FB03E54FF0C9
:100530000006E1FB03569CF0000F18BF4EF0010EC1
:10054000A4F1FF04B6F5007F64F5407404D25FEABD
:100550004E0E6D4146EB060642EAC62141EA555170
:100560004FEAC52040EA5E504FEACE2EB4F1FD0CB2
:1005700088BFBCF5E06F1ED8BEF1004F08BF5FEA30
:10058000500E50F1000041EB045170BD06F00046E2
:1005900046EA010140EA020081EA0301B4EB5C048F
:1005A000C2BFD4EB0C0541EA045170BD41F4801187
:1005B0004FF0000E013C00F3AB8014F1360FDEBFAC
:1005C000002001F0004170BDC4F10004203C35DA88
:1005D0000C341BDC04F11404C4F1200500FA05F30B
:1005E00020FA04F001FA05F240EA020001F00042AC
:1005F00021F0004110EBD37021FA04F642EB060122
:100600005EEA430E08BF20EAD37070BDC4F10C044B
:10061000C4F1200500FA04F320FA05F001FA04F20F
:1006200040EA020001F0004110EBD37041F10001FB
:100630005EEA430E08BF20EAD37070BDC4F1200506
:1006400000FA05F24EEA020E20FA04F301FA05F26E
:1006500043EA020321FA04F001F0004121FA04F216
:1006600020EA020000EBD3705EEA430E08BF20EAE6
:10067000D37070BD94F0000F0FD101F00046400020
:1006800041EB010111F4801F08BF013CF7D041EAA2
:10069000060195F0000F18BF704703F000465200A6
:1006A00043EB030313F4801F08BF013DF7D043EA77
:1006B0000603704794EA0C0F0CEA135518BF95EA2D
:1006C0000C0F0CD050EA410618BF52EA4306D1D1B4
:1006D00081EA030101F000414FF0000070BD50EAD3
:1006E000410606BF1046194652EA430619D094EA5D
:1006F0000C0F02D150EA013613D195EA0C0F05D147
:1007000052EA03361CBF104619460AD181EA03019A
:1007100001F0004141F0FE4141F470014FF0000052
:1007200070BD41F0FE4141F4780170BD70B54FF0ED
:10073000FF0C4CF4E06C1CEA11541DBF1CEA13556D
:1007400094EA0C0F95EA0C0F00F0A7F8A4EB05044F
:1007500081EA030E52EA03354FEA013100F0888046
:100760004FEA03334FF0805545EA131343EA12630F
:100770004FEA022245EA111545EA10654FEA0026C4
:100780000EF000419D4208BF964244F1FD0404F57D
:10079000407402D25B084FEA3202B61A65EB0305D9
:1007A0005B084FEA32024FF480104FF4002CB6EB96
:1007B000020E75EB030E22BFB61A754640EA0C0016
:1007C0005B084FEA3202B6EB020E75EB030E22BF56
:1007D000B61A754640EA5C005B084FEA3202B6EB97
:1007E000020E75EB030E22BFB61A754640EA9C0056
:1007F0005B084FEA3202B6EB020E75EB030E22BF26
:10080000B61A754640EADC0055EA060E18D04FEAE3
:10081000051545EA16754FEA06164FEAC30343EA83
:1008200052734FEAC2025FEA1C1CC0D111F4801F50
:100830000BD141EA00014FF000004FF0004CB6E749
:1008400011F4801F04BF01430020B4F1FD0C88BFE8
:10085000BCF5E06F3FF6AFAEB5EB030C04BFB6EBF3
:10086000020C5FEA500C50F1000041EB045170BDE6
:100870000EF0004E4EEA113114EB5C04C2BFD4EB13
:100880000C0541EA045170BD41F480114FF0000E97
:10089000013C90E645EA060E8DE60CEA135594EA13
:1008A0000C0F08BF95EA0C0F3FF43BAF94EA0C0F16
:1008B0000AD150EA01347FF434AF95EA0C0F7FF48B
:1008C00025AF104619462CE795EA0C0F06D152EADF
:1008D00003353FF4FDAE1046194622E750EA4106C3
:1008E00018BF52EA43067FF4C5AE50EA41047FF4D4
:1008F0000DAF52EA43057FF4EBAE12E74FF0FF3C39
:1009000006E000BF4FF0010C02E000BF4FF0010C09
:100910004DF804CD4FEA410C7FEA6C5C4FEA430C82
:1009200018BF7FEA6C5C1BD001B050EA410C0CBFD1
:1009300052EA430C91EA030F02BF90EA020F002033
:10094000704710F1000F91EA030F58BF994208BF9A
:1009500090422CBFD8176FEAE37040F00100704757
:100960004FEA410C7FEA6C5C02D150EA013C07D1AE
:100970004FEA430C7FEA6C5CD6D152EA033CD3D0F9
:100980005DF8040B704700BF8446104662468C46F3
:100990001946634600E000BF01B5FFF7B7FF002826
:1009A00048BF10F1000F01BD4DF808EDFFF7F4FF4F
:1009B0000CBF012000205DF808FB00BF4DF808EDDA
:1009C000FFF7EAFF34BF012000205DF808FB00BFFD
:1009D0004DF808EDFFF7E0FF94BF012000205DF81F
:1009E00008FB00BF4DF808EDFFF7CEFF94BF0120D4
:1009F00000205DF808FB00BF4DF808EDFFF7C4FFCD
:100A000034BF012000205DF808FB00BF4FEA410C15
:100A10007FEA6C5C02D150EA013C0AD14FEA430CF8
:100A20007FEA6C5C02D152EA033C02D14FF0000035
:100A300070474FF0010070474FEA410212F5001273
:100A400015D211D56FF47873B3EB625212D94FEA15
:100A5000C12343F0004343EA505311F0004F23FAFF
:100A600002F018BF404270474FF00000704750EA54
:100A7000013005D111F0004008BF6FF00040704711
:100A80004FF00000704700BF80F0004002E000BF60
:100A900081F0004142001FBF5FEA410392EA030F69
:100AA0007FEA226C7FEA236C6AD04FEA1262D2EBB3
:100AB0001363C1BFD218414048404140B8BF5B42B8
:100AC000192B88BF704710F0004F40F4000020F051
:100AD0007F4018BF404211F0004F41F4000121F067
:100AE0007F4118BF494292EA030F3FD0A2F10102B1
:100AF00041FA03FC10EB0C00C3F1200301FA03F1EF
:100B000000F0004302D5494260EB4000B0F5000F11
:100B100013D3B0F1807F06D340084FEA310102F1D0
:100B20000102FE2A51D2B1F1004F40EBC25008BF82
:100B300020F0010040EA03007047490040EB00004C
:100B400010F4000FA2F10102EDD1B0FA80FCACF17B
:100B5000080CB2EB0C0200FA0CF0AABF00EBC2507A
:100B600052421843BCBFD0401843704792F0000F68
:100B700081F4000106BF80F400000132013BB5E7BB
:100B80004FEA41037FEA226C18BF7FEA236C21D031
:100B900092EA030F04D092F0000F08BF0846704796
:100BA00090EA010F1CBF0020704712F07F4F04D164
:100BB000400028BF40F00040704712F100723CBF77
:100BC00000F50000704700F0004343F0FE4040F4A1
:100BD000000070477FEA226216BF08467FEA23635F
:100BE0000146420206BF5FEA412390EA010F40F44A
:100BF000800070474FF0000304E000BF10F0004396
:100C000048BF40425FEA000C08BF704743F096437C
:100C100001464FF000001CE050EA010208BF704797
:100C20004FF000030AE000BF50EA010208BF70471E
:100C300011F0004302D5404261EB41015FEA010C33
:100C400002BF84460146002043F0B64308BFA3F12B
:100C50008053A3F50003BCFA8CF2083AA3EBC2530D
:100C600010DB01FA02FC634400FA02FCC2F120022C
:100C7000BCF1004F20FA02F243EB020008BF20F063
:100C80000100704702F1200201FA02FCC2F12002C9
:100C900050EA4C0021FA02F243EB020008BF20EABE
:100CA000DC7070474FF0FF0C1CEAD0521EBF1CEAEC
:100CB000D15392EA0C0F93EA0C0F6FD01A4480EADA
:100CC000010C400218BF5FEA41211ED04FF00063C3
:100CD00043EA501043EA5111A0FB01310CF00040EF
:100CE000B1F5000F3EBF490041EAD3715B0040EA15
:100CF000010062F17F02FD2A1DD8B3F1004F40EBE5
:100D0000C25008BF20F00100704790F0000F0CF0B7
:100D1000004C08BF49024CEA502040EA51207F3A7B
:100D2000C2BFD2F1FF0340EAC250704740F4000056
:100D30004FF00003013A5DDC12F1190FDCBF00F047
:100D400000407047C2F10002410021FA02F1C2F1F5
:100D5000200200FA02FC5FEA310040F1000053EA91
:100D60004C0308BF20EADC70704792F0000F00F0DF
:100D7000004C02BF400010F4000F013AF9D040EAE5
:100D80000C0093F0000F01F0004C02BF490011F479
:100D9000000F013BF9D041EA0C018FE70CEAD15377
:100DA00092EA0C0F18BF93EA0C0F0AD030F0004CF7
:100DB00018BF31F0004CD8D180EA010000F00040AB
:100DC000704790F0000F17BF90F0004F084691F069
:100DD000000F91F0004F14D092EA0C0F01D14202A3
:100DE0000FD193EA0C0F03D14B0218BF084608D16C
:100DF00080EA010000F0004040F0FE4040F40000B6
:100E0000704740F0FE4040F4400070474FF0FF0C48
:100E10001CEAD0521EBF1CEAD15392EA0C0F93EA8F
:100E20000C0F69D0A2EB030280EA010C49024FEAE1
:100E3000402037D04FF0805343EA111143EA10139A
:100E40000CF000408B4238BF5B0042F17D024FF452
:100E5000000C8B4224BF5B1A40EA0C00B3EB510F2D
:100E600024BFA3EB510340EA5C00B3EB910F24BF16
:100E7000A3EB910340EA9C00B3EBD10F24BFA3EB9B
:100E8000D10340EADC001B0118BF5FEA1C1CE0D163
:100E9000FD2A3FF650AF8B4240EBC25008BF20F016
:100EA000010070470CF0004C4CEA50207F32C2BF6A
:100EB000D2F1FF0340EAC250704740F400004FF007
:100EC0000003013A37E792F0000F00F0004C02BF38
:100ED000400010F4000F013AF9D040EA0C0093F002
:100EE000000F01F0004C02BF490011F4000F013B5C
:100EF000F9D041EA0C0195E70CEAD15392EA0C0FC4
:100F000008D142027FF47DAF93EA0C0F7FF470AFFB
:100F1000084676E793EA0C0F04D14B023FF44CAF3E
:100F200008466EE730F0004C18BF31F0004CCAD1D3
:100F300030F000427FF45CAF31F000437FF43CAF0F
:100F40005FE700BF4FEA4002B2F1FE4F0FD34FF010
:100F50009E03B3EB12620DD94FEA002343F0004326
:100F600010F0004F23FA02F018BF404270474FF0D4
:100F70000000704712F1610F01D1420205D110F05B
:100F8000004008BF6FF0004070474FF0000070470E
:100F900042000ED2B2F1FE4F0BD34FF09E03B3EBE3
:100FA000126209D44FEA002343F0004323FA02F00F
:100FB00070474FF00000704712F1610F01D14202FB
:100FC00002D14FF0FF3070474FF00000704700BF74
:100FD0007BB972B90029BEBF00204FF0004106E086
:100FE00008BF00281CBF6FF000414FF0FF3000F039
:100FF000A7B9ADF1080C6DE904CE002909DB002B7F
:101000001ADB00F035F8DDF804E0DDE9022304B076
:101010007047404261EB4101002B1BDB00F028F8D8
:10102000DDF804E0DDE9022304B0404261EB410158
:10103000524263EB43037047524263EB430300F0B9
:1010400017F8DDF804E0DDE9022304B0404261EB6B
:1010500041017047524263EB430300F009F8DDF8A9
:1010600004E0DDE9022304B0524263EB430370471E
:101070002DE9F0478C460446089E002B4BD18A424E
:10108000154667D9B2FA82F24AB1C2F1200701FAD5
:1010900002F320FA07F7954047EA030C94404FEA21
:1010A000154EBCFBFEF71FFA85F80EFB17C307FBB6
:1010B00008F9210C41EA0343994509D9EB1807F1D6
:1010C000FF3180F01C81994540F21981023F2B4489
:1010D000A3EB0903B3FBFEF00EFB103300FB08F19A
:1010E000A4B244EA0344A14209D92C1900F1FF3308
:1010F00080F00781A14240F2048102382C4440EA8A
:1011000007400027641A1EB10023D440C6E90043FB
:101110003946BDE8F0878B4209D9002E00F0EC80FB
:101120000027C6E9000138463946BDE8F087B3FA22
:1011300083F7002F48D18B4202D3824200F2FB801A
:10114000841A61EB030301209C46002EE0D0C6E91F
:10115000004CDDE702B9FFDEB2FA82F2002A40F06D
:101160008F800127491B4FEA15481FFA85F9B1FB0B
:10117000F8FE08FB1E1109FB0EF04FEA144C4CEA76
:101180000143984207D9EB180EF1FF3102D2984281
:1011900000F2CD808E461B1AB3FBF8F008FB10332B
:1011A00009FB00F9A4B244EA0344A14507D92C196C
:1011B00000F1FF3302D2A14500F2B6801846A4EB3D
:1011C000090440EA0E409EE7C7F12005BB4022FA21
:1011D00005FC4CEA030C21FA05F44FEA1C4EB4FB63
:1011E000FEF91FFA8CF80EFB194420FA05F3B940FA
:1011F00009FB08FA19430B0C43EA0444A24502FA1E
:1012000007F200FA07F30BD91CEB040409F1FF30D5
:1012100080F08880A24540F28580A9F102096444EB
:10122000A4EB0A04B4FBFEF00EFB104400FB08FA2A
:1012300089B241EA0444A24508D91CEB040400F138
:10124000FF316BD2A24569D90238644440EA0940B3
:10125000A0FB0289A4EB0A044C454146CE4654D378
:1012600051D0002E69D05A1A64EB0E0404FA05F529
:1012700022FA07F3FC401D43C6E90054002747E764
:101280009540C2F1200321FA03F04FEA1548B0FB64
:10129000F8F71FFA85F908FB170024FA03F39140C9
:1012A00007FB09FC0B43190C41EA00418C4504FA89
:1012B00002F407D9691807F1FF3031D28C452FD9D4
:1012C000023F2944A1EB0C01B1FBF8F008FB101C14
:1012D00000FB09FE99B241EA0C418E4507D9691815
:1012E00000F1FF3318D28E4516D902382944A1EBFC
:1012F0000E0140EA07473AE73746304608E70F460F
:10130000E6E61846FBE64345ABD2B8EB020169EBD3
:101310000C0201389646A4E71846E8E7084695E728
:101320000746CFE781467BE702382C4447E7AEF11A
:10133000020E2B442FE7384607E73746E8E600BFA2
:10134000704700BF2DE9F0411A4C86B0DFF8748079
:101350002746194E194D20E0E169B4F90A000591BC
:10136000A169B4F908C004916169B4F90630039128
:101370002169B4F92020CDE90101CDF800C0314642
:10138000284609F0BFF92846FEF7E2FE4FF47A73CB
:1013900082B229460A4805F0E9FB0023502239466B
:1013A000D8F8000007F0A2F80028D5D106B0BDE8B3
:1013B000F08100BF44280020D8CA00089003002014
:1013C000B02D0020C42C00202DE9F04782B002F09F
:1013D00039FD1F4C062002F0D5FE2820A04602F061
:1013E000D1FE0126DFF874A01A4D1B4FDFF8709074
:1013F0000BE0386807F002FA1F2894BF0026012688
:1014000002F060FE012006F019FE4FF0FF3301AA42
:101410001946002007F036FF4146484602F020FEFC
:10142000BAF80010D4F80620638921842A60AB80C2
:10143000002EDED0002341461A46386806F098FE9A
:10144000386807F0DBF9061C18BF0126D8E700BF93
:1014500030040020842E0020C42C00205C040020D6
:1014600070280020FFF7B0BF08B5FFF76BFFFCE75F
:1014700070B5002301244FF4803202254FF480110F
:1014800094B00AA80C93059301930D93CDE90F3303
:10149000CDE90633CDE90833CDE9023304930A944C
:1014A0000E940B92CDE91152139104F0C5FC00B1DA
:1014B000FEE703460F264FF48062214605A8CDE9DA
:1014C000065309930596089204F09EFE00B1FEE7CC
:1014D00010224FF4800301A80192049304F0B8FF96
:1014E00000B1FEE714B070BD002580B596B002F0E3
:1014F000CBFDFFF7BDFFCDE91155CDE91355794C73
:101500000122A3694FF4805143F01003A361A36942
:10151000754803F010030193019BA3694FF48046C3
:1015200043F02003A361A369402703F02003029343
:10153000029BA36943F00403A361A36903F00403BE
:101540000393039BA36943F00803A361A36903F01A
:1015500008030493049B03F06BF848F20102634B09
:1015600011A96348CDE91123139502F071FF0123FE
:101570004FF4805211A95C48CDE9112314931395BF
:1015800002F066FF2A460521062002F0C5FD2A4624
:101590000A21282002F0C0FD8021636943F0010385
:1015A00063616269534B02F001020092524A009853
:1015B0001846C3E90455C3E906551A60C3E9027128
:1015C0005E6002F0EBFD00B1FEE704460246072133
:1015D0000B2002F0A1FD0B2002F0D4FD22460521D4
:1015E0000D2002F099FD0D2002F0CCFD22460521D0
:1015F000112002F091FD112002F0C4FD3F4B404943
:10160000404A1846C3E90244C3E90464C3E90644F6
:101610001C62C3E9001203F013FA00B1FEE74FF4B5
:1016200082760A2218214FF40074374B374DC3E9F4
:101630000160C3E903005861C3E9080098621846D5
:10164000DA621D60C3E9064105F05CF8024600B1AC
:10165000FEE74FF4E1300C212D4B2E4C586018461C
:10166000C3E902221A61C3E906221C60596105F030
:1016700099F9074600B1FEE7274C07AE0FCC254687
:101680000FC655F8043B394607A8336006F0BCFC8A
:10169000224B0CAE18600FCD0FC62B6839460CA834
:1016A000336006F0B1FC1E4B04F1180611AD186052
:1016B0000FCE0FC53368394611A82B6006F0A4FC85
:1016C000184A05AB2C34106094E8030083E803004B
:1016D0001846394606F0BAFC134B186006F08EFC2B
:1016E000FEE700BF00100240000C01400000111096
:1016F00000080140102D002008000240702C00203E
:1017000000540040A0860100582D00200030014008
:10171000B02D002000440040D8BD000868280020FB
:101720006C280020C82C0020C42C002030B50024D8
:1017300085B004AB064A43F8044D064D10682146B7
:101740000093012223462C7007F00EFE05B030BD39
:101750006C28002054040020B0F5004F02D001286E
:1017600000D07047F0B583B000F05EFD041E1ADBB8
:101770002B4DB4F5007F6C8017DC01F00DFFA0420B
:1017800001DC2B7873B34FF6E852264C23880133E3
:101790009BB2934223800DD86B6803F57A7602F0F2
:1017A00091FC86420CD303B0F0BD03B0BDE8F0401D
:1017B00000F05EBD0123238002F084FC6860F2E744
:1017C0004FF47A73248803FB04F402F07BFC6B680B
:1017D000C01AB4FBF0F42C81002BE4D102F072FCAF
:1017E0006860E0E701F0D8FE0127064601F0D4FE6C
:1017F0002F7094FBF0F400F02FFD04FB06F4064676
:1018000000F030FD06FA07F1074EA4B282B289B2A9
:1018100001943B460096054803F05CFCB3E700BF2B
:1018200054040020542D002070280020702C00202B
:1018300038B5084D04244FF48051284602F0FCFED0
:10184000642006F0FBFB013CF5D14FF4FA7006F082
:10185000F5FBEFE7000C014070B508F025F8082211
:101860001B491C4800F0EAF901302ED01A4E1B4DDE
:101870004FF48051284602F0DFFE00242022234648
:1018800011461046013400F0F1F9082CF6D1B6F9F2
:1018900004300024002B0EDD0022234611460134C3
:1018A000202000F0E3F9082CF6D100F0D7F905204C
:1018B00006F0C4FBDCE70021234608460134202261
:1018C00000F0D4F9082CF6D1EFE7FFF7B1FF00BF25
:1018D000F02D0020582D0020842E0020000C014007
:1018E0000268034B9A4200D0704702F0DFBB00BF92
:1018F00000080040FEE700BF114B10B5986982B0A8
:1019000040F0010098619C69002204F001040094F9
:10191000009CDC690F2144F08054DC61DB696FF0CE
:10192000010003F080530193019B02F0F5FB054A8F
:10193000536823F0E06343F00073536002B010BDBE
:101940000010024000000140F0B500240268204B66
:1019500087B09A42CDE90244CDE9044401D007B0F2
:10196000F0BD064612200322C0271A4D02A9AB691A
:1019700043F00803AB61AB69039003F008030093E5
:101980001548009B0592029702F062FD80202021FD
:101990004FF48052EB6943F40013EB61EB690F4D98
:1019A00003F400130193019B0D4BE8602846C5E941
:1019B0000144C5E904442B60C5E9061202F0EEFBC0
:1019C00018B9B5636E6207B0F0BDFFF793FFF8E793
:1019D0000054004000100240000C0140CC2C0020BC
:1019E00080000240F0B500240268214B87B09A4283
:1019F000CDE90244CDE9044401D007B0F0BD06466C
:101A0000A0200325022703F560439A6902A942F446
:101A100080529A619A6902F480520092009A9A69FF
:101A200042F004029A619B69029003F0040301935F
:101A30001048019B0595039702F00AFD10208022B3
:101A40004FF400530C4D0D49C5E901042846C5E982
:101A50000444AC612960EA60EB6102F09FFB18B9B5
:101A6000B5646E6207B0F0BDFFF744FFF8E700BF52
:101A70000030014000080140F02D002030000240FD
:101A800070B5002402681C4B86B09A42CDE902442E
:101A9000CDE9044401D006B070BD0421022603251F
:101AA00003F5E633DA69154842F40032DA61DA699F
:101AB00002F400320092009A9A690A439A619B6983
:101AC00002910B40019302A9019B0396059502F038
:101AD000BFFC082309480DEB03010293CDE9034441
:101AE00002F0B6FC22460521262002F015FB262036
:101AF00002F048FB06B070BD004400400008014001
:101B000030B5014689B000221E2002F005FB1E20E0
:101B100002F038FB154B01A9DA6903A842F0040270
:101B2000DA61DB69124D03F004030293029B04F0B7
:101B30006FFC04F04DFC002240F2E7314300A5FBAE
:101B400003030C4C0C4D9B0C013B2046C4E9005395
:101B5000C4E90312A26004F015FE10B1012009B01F
:101B600030BD204604F05CFE09B030BD00100240DC
:101B700083DE1B43342E002000080040704700BF66
:101B8000FEE700BFFEE700BFFEE700BFFEE700BFC5
:101B9000704700BF012002F053BD00BF014802F0B2
:101BA000C1BB00BF102D0020014802F0BBBB00BF2D
:101BB000F02D0020014802F0B5BB00BFCC2C002066
:101BC000014803F077BD00BF283B0020014804F026
:101BD0003BBE00BF342E0020014805F08DB800BF89
:101BE000B02D00204FF4004002F02ABD30B44FF475
:101BF0001F054FF000640E4B0E4A19680E4841F065
:101C00000101196059680A405A601A6822F084720A
:101C100022F480321A601A6822F480221A605A680C
:101C200022F4FE025A609D60846030BC704700BFA1
:101C3000001002400000FFF800ED00E0064B02EB50
:101C4000C20210B50A3204460021184608F097F87F
:101C50004465002010BD00BF6004002002495222EC
:101C6000486D04F077BC00BF6004002011F0800FC5
:101C7000F0B414BF302520254F064CBF45F00605B3
:101C800045F00405ED008F064CBF45F0060545F014
:101C90000405ED00CF064CBF45F0060545F00405F0
:101CA000ED000F074CBF45F0060545F00405ED00BB
:101CB0004F074CBF45F0060545F00405ED008F07C2
:101CC0004CBF45F0060545F00405ED00CF07464E34
:101CD0004CBF45F0060145F0040103EBC30301339B
:101CE000C1F3074710F0800FF75406EB030414BF4D
:101CF000302320234606C1F307254CBF43F00603DB
:101D000043F004036570DB0085064CBF43F0060317
:101D100043F00403A170DB00C1064CBF43F006038F
:101D200043F00403DB0007074CBF43F0060343F016
:101D30000403DB0046074CBF43F0060343F00403F3
:101D4000DB0085074CBF43F0060343F00403DB00D0
:101D5000C0074CBF43F0060343F0040312F0800FAA
:101D6000C3F30721C3F30740637114BF302320235B
:101D7000217151064CBF43F0060343F00403DB001E
:101D800097064CBF43F0060343F00403DB00D6067E
:101D90004CBF43F0060343F00403DB0015074CBFC0
:101DA00043F0060343F00403DB00E07050074CBF30
:101DB00043F0060343F00403DB0091074CBF43F0FC
:101DC000060343F00403DB00D2074CBF43F00603D5
:101DD00043F00403C3F30741C3F307222372A17145
:101DE000E271F0BC704700BF6004002010B50A2407
:101DF00084B0CDE9003202940A4601234100024832
:101E000002F0AAFE04B010BD702C002010B50A2408
:101E100084B0CDE9003202940A4601234100024811
:101E200002F0A6FF04B010BD702C00202DE9F04F89
:101E30004FF0010AB04C87B00DF11809256817461C
:101E4000626829F80CAD80460E4610784B46697DD5
:101E50000222FFF7CBFF002840F02A810546C82068
:101E600002F036F9D4E900328DF80C501078597C24
:101E700052464B46FFF7BAFF002840F01981D4E9DB
:101E800000235179187852464B46FFF7AFFF0028E0
:101E900040F00E81D4E90023517D187852464B461C
:101EA000FFF7A4FF002840F00381D4E90023917ECE
:101EB000187852464B46FFF799FF002840F0F8800B
:101EC000D4E900231179187852464B46FFF78EFF6C
:101ED000002840F0ED80D4E900230C218DF80C108F
:101EE0001179187852464B46FFF780FF002840F0E2
:101EF000DF800F2002F0ECF8A36A2268597A636849
:101F00008DF80C109178187852464B46FFF76EFF0B
:101F1000002840F0CD80A36A21681A7A63688DF8A2
:101F20000C201878524649784B46FFF75FFF00288F
:101F300040F0BE802268A36A91799B7A6268002F84
:101F400040F0BB808DF80C3010784B460122FFF733
:101F50004DFF002840F0AC80D4E9002318218DF813
:101F60000C10D179187801224B46FFF73FFF00286B
:101F700040F09E80D4E9002340218DF80C101179A7
:101F8000187801224B46FFF731FF002840F090807F
:101F9000D4E9002378218DF80C10517918780122AA
:101FA0004B46FFF723FF0546002840F08180322092
:101FB00002F08EF8D4E900238DF80C50517918788E
:101FC00001224B46FFF712FF002871D1D4E900230C
:101FD000117B187802224B46FFF718FF002867D1C3
:101FE0009DF80C209DF80DA0444B4AEA022AA3FB61
:101FF0000A3ACAF3C70AC8E90100C8F80000C6E9EE
:1020000001003060BAF1000F7AD0834642E09DF8BB
:102010000E709DF810209DF80C509DF80FC09DF893
:1020200011009DF80D104CEA072C40EA0220776859
:10203000B26841EA052135680FFA8CFC00B209B29A
:10204000674402440D447760B26035609DF8141017
:102050009DF816209DF812C09DF813009DF815708C
:102060009DF8175047EA012745EA022540EA0C206F
:10207000D8E901120192D8F8002000B21044019A68
:102080003FB22DB20F4415449A45C8E90007C8F87D
:10209000085039D9D4E90023517B18780C224B46DB
:1020A000FFF7B4FE0BF1010B5FFA8BF30028AED003
:1020B0004FF0FF3007B0BDE8F08F63F01F038DF8DD
:1020C0000C3010784B460122FFF790FE0028EFD12C
:1020D000A36A6268DB7A216863F01F038DF80C3015
:1020E0001078C9794B460122FFF780FE0028DFD126
:1020F000C82001F0EDFF3DE704000020ABAAAAAA2A
:10210000D8F80850D8E900074FF0000BC31719049E
:102110005FFA8AFA41EA1041832200230004FEF7A5
:1021200057FF52465B46FEF753FFFB171904C8F8EA
:1021300000008322002341EA17413804FEF748FFDC
:1021400052465B46FEF744FFEB171904C8F804003B
:1021500041EA1541280483220023FEF739FF524645
:102160005B46FEF735FFC8F808003168CD170A0452
:10217000280440EA1143002A73F100014DDBD00A24
:1021800040EA4350D91252465B46FEF721FF716880
:102190003060CD170A042C0444EA1143002A73F17D
:1021A000000134DBD00A40EA4350D91252465B4664
:1021B000FEF70EFFB36870604FEAE3791C044FEA44
:1021C000094242EA1345002C75F1000319DBE00ACD
:1021D0005B46524640EA4550E912FEF7F9FE0028F8
:1021E0000346B06006DDA0F580330020B36007B081
:1021F000BDE8F08F002003F58033B36007B0BDE881
:10220000F08F40F2FF720023A4185D41DFE740F237
:10221000FF70002112184B41C4E740F2FF7000210B
:1022200012184B41ABE700BF00B50A4A83B0D2E9B0
:10223000001201AB1078097B0222FFF7E7FD30B9ED
:10224000BDF8040040BA80B203B05DF804FB4FF063
:10225000FF30F9E704000020014B5B6818787047F5
:1022600004000020014B1B68587B704704000020CD
:1022700070B5564C82B0A37A002B00F0A080D4E950
:102280000021002302AD05F8013D08782B46517C62
:102290000122FFF7ABFD002840F09180D4E9002334
:1022A0005179187801222B46FFF7A0FD002840F055
:1022B0008680D4E900231179187801222B46FFF794
:1022C00095FD00287BD1D4E9002194F824300878CA
:1022D0001179002B3ED104262B4601228DF8076090
:1022E000FFF784FD00286AD1A37C002B6BD1A37A71
:1022F00013F0010F14BF60214021D4E900328DF8A2
:1023000007101078197901222B46FFF76FFD00287E
:1023100055D1322001F0DCFE637C6168003318BFC8
:10232000012322688DF8073008782B46517C012262
:10233000FFF75CFD002842D1D4E9002318785179D9
:10234000234B0122FFF752FD003018BF012040420D
:1023500002B070BD0C262B4601228DF80760FFF7F6
:1023600045FD60BB322001F0B3FEA37AC022DB073B
:1023700048BFE0238DF8072048BF8DF80730D4E927
:1023800000231179187801222B46FFF72FFDB0B9F1
:10239000637C6168002B18BF022322688DF8073028
:1023A00008782B46517C0122FFF720FD38B9D4E98B
:1023B00000218DF8070008782B465179C1E74FF0CE
:1023C000FF3002B070BD402197E700BF040000203D
:1023D00014000020282800F2038170B5824C82B0DE
:1023E000054694F82330A8B9002B40F0978001AE41
:1023F0004FF4E063D4E90012ADF8043010783346AE
:10240000497D0222FFF7F2FC002840F0E4802075AD
:1024100002B070BD012B56D101AE202263688DF849
:102420000420012D18782168A37A00F0B180052DD1
:1024300040F29180142D60D903228DF80520002BE5
:1024400000F0C5800422E37A8DF80320934200F067
:10245000BE800DF1030389780122FFF7C7FC9DF8C8
:102460000530002840F0A9809DF803106268E172F1
:102470009B0143F0070310782168DBB28DF805302B
:10248000497D33460222FFF7B1FC002840F0A380CB
:102490000821012294F824302073A17222757BB99F
:1024A000617C237461B9D4E9001002AB03F8052DF7
:1024B000497C0078FFF79AFC10B99DF803306374EB
:1024C000002002B070BD3022A37C8DF8042003BB35
:1024D000B02294F822300BB18DF8042001AED4E97B
:1024E0000023D17D187801223346FFF77FFC0028B6
:1024F00093D1012384F823308FE702228DF8052041
:102500002BB10522E37A8DF803209342A1D18723D2
:10251000B4E73223B2228DF80430DAE7A37C8DF8D9
:102520000400002B51D0022382228DF8043094F84D
:1025300022300BB18DF8042001AED4E90023D17D07
:10254000187801223346FFF751FC00287FF450AF82
:1025500084F823004CE701228DF80520002B38D0A9
:102560000625E37A8DF80350AB4232D00DF1030318
:102570008978FFF73BFC9DF8053000283FF474AFE5
:102580006268AB4043F00703DBB21078216875E75F
:1025900000228DF805200BB30622E37A8DF8032084
:1025A00093421BD00DF103032A468978FFF71EFCE6
:1025B0009DF8053000283FF457AF62689B0143F057
:1025C0000703DBB21078216858E78022AFE7C72302
:1025D00054E7472352E74FF0FF3019E707234DE751
:1025E0004FF0FF30704700BF040000200F4A537ABD
:1025F000032B17D8DFE803F0120E0A021023202164
:102600000370D37C03B101700020704708231021B0
:102610000370F6E7042308210370F2E70223042184
:102620000370EEE74FF0FF30704700BF040000205A
:1026300070B5514D82B0AB7A002B00F08B8095F8CD
:102640002460002E40F086802B7D0446002B38D17C
:10265000D5E90021B4F57A7F28BF4FF47A74042CB1
:1026600038BF04244FF47A7696FBF4F402AB013CB5
:1026700003F8054D087851780122FFF7B7FB0028D1
:1026800068D19DF80330AA7A013396FBF3F6EE8108
:1026900076089AB1BB2E2BD901238DF80430EA7A43
:1026A0009A420BD0D5E9002391781878012201AB2A
:1026B000FFF79CFB10B99DF80430EB72002002B0CC
:1026C00070BD431E272B1BD995F8233013BB01AED9
:1026D0004FF4E063D5E90012ADF8043010783346CA
:1026E000497D0222FFF782FB0028B1D12875AFE7B0
:1026F000612E0BD8292E25D903238DF80430CEE77F
:10270000C0B2FFF767FE304602B070BD02238DF8FD
:102710000430C4E7AB7C8DF8046013BB802295F8CD
:1027200022300BB18DF8042001AED5E90023D17D14
:10273000187801223346FFF759FB0028C8D185F8E5
:102740002300C5E7132E08D8092E0FD905238DF8CD
:102750000430A4E74FF0FF30B1E704238DF80430D4
:102760009DE7022382228DF80430D8E70622134623
:102770008DF8042093E700BF040000208023F0B50B
:1027800085B004ADA64C05F8083DD4E900212B46E0
:102790000878517D0122FFF729FB002840F02981AC
:1027A0000646642001F094FCD4E900328DF80860FC
:1027B0001078597D01222B46FFF718FB002840F0C6
:1027C0001881D4E90023517E187806222B46FFF7A2
:1027D0001DFB002840F00D819DF80D209DF80B3069
:1027E00092005B009DF8091002F0040203F002035E
:1027F000134301F00102134300F0E780012B00F0C6
:10280000F580022B40F0F5800023E3744FF6FF7053
:10281000FF22002301274FF0FF364FF0180C8149AB
:102820002074A27404AD20686268C4F81630636234
:102830006784A3824B608B6005F809CDA660E681B2
:10284000277381792B4610783A46FFF7CFFA002894
:1028500040F0B8809DF80730A27ADB082372002A86
:1028600000F0C7800822637A8DF80720BB4212D09F
:10287000D4E900133A461878C9792B46FFF7B6FA1F
:10288000002840F0B6809DF80730A27ADB0863721A
:10289000002A00F0AE800322E37A8DF807209342ED
:1028A0000DD0D4E900239178187801222B46FFF748
:1028B0009DFA002840F09D809DF80730E372C82003
:1028C000FFF7B6FE0646002840F0938094F82430C7
:1028D000C3B9A37A002B00F08C806368227D20743A
:1028E00018782368002A00F08C80627C6AB9012283
:1028F0008DF80720597C2B46FFF778FA10B99DF820
:1029000007306374D4E900321078A27C002A38D0F2
:10291000197901222B46FFF779FA002869D1A27AAA
:102920009DF80730D2074CBF43F0200303F0DF03CC
:102930008DF80730D4E900122B461078097901226E
:10294000FFF754FA002854D1032001F0C1FB94F89A
:102950002230002B52D1302194F823208DF80730FB
:102960000AB18DF80710D4E90023D17D187801222F
:102970002B46FFF73BFA00283BD16368A074187818
:10298000236840228DF80720597D01222B46FFF74E
:102990002DFA002840D13F209DF807306168226859
:1029A00023F0400323738DF807002B460878917DB0
:1029B0000122FFF71BFA034670BB3220A372237576
:1029C00001F086FB304605B0F0BDD4E900122B467D
:1029D0001078C9780122FFF719FA50B99DF808302C
:1029E00013F00F0305D0042B7FF40EAF0123E37423
:1029F0000CE74FF0FF36304605B0F0BDB021802324
:102A0000AAE78DF80760597C01222B46FFF7EEF903
:102A100000283FF474AF75E70023A372D2E700BF2C
:102A2000040000201A0000200F4B1B7A032B17D83C
:102A3000DFE803F0110C070200230C4A026018467D
:102A4000704700230A4A0260184670470023094A6B
:102A50000260184670470023074A02601846704714
:102A60004FF0FF33EBE700BF040000203333834116
:102A7000333303420000834200000343134A537A76
:102A8000032B1FD8DFE803F018120C024FF4006389
:102A90004FF480610380D37C03B101800020704734
:102AA0004FF480534FF400610380F4E741F69C73C8
:102AB00040F6CE710380EEE74FF480434FF40051AF
:102AC0000380E8E74FF0FF30704700BF04000020AC
:102AD000F0B52A4C83B094F82430F3B9A37A002BD4
:102AE00049D000F0FE052B405E1B277C18BF4FF03D
:102AF000FF362374ADB9227D6AB3637C53B9D4E940
:102B00000010012202AB03F8012D497C0078FFF789
:102B10006DF998B1304603B0F0BD0026304603B0E1
:102B2000F0BD637C7BB9D4E90010012202AB03F84D
:102B3000012D497C0078FFF759F920B99DF807303D
:102B40006374002DE6D0FFF793FB0028E2D02774D2
:102B50004FF0FF36DEE702AB03F8012DD4E9001099
:102B60000122497C0078FFF741F90028D2D19DF875
:102B700007306374CEE74FF0FF36CBE70400002048
:102B8000F0B50446484D83B0D5E90023187814F019
:102B90007003517D46D001238DF806300DF10606F5
:102BA00033460122FFF722F9002877D19DF806303D
:102BB0008DF8060023F040032B73630641D53823BC
:102BC000392101224FF03A0E4FF03B0C032702202F
:102BD00014F0200F04D1734661463A468DF8060082
:102BE000E0065CBF0B468DF80620220758BF8DF823
:102BF0000630D5E9001233461078897D0122FFF7AF
:102C0000F5F800284AD114F0F70F02D095F82330D8
:102C10003BBB00263220AC722E7501F059FA3046CB
:102C200003B0F0BDD4B9402302AE06F8023D3346EE
:102C30000122FFF7DBF888BB9DF8063023F0400344
:102C40002B7304223C238DF806203D2105224FF0F2
:102C50003E0E4FF03F0C07270620B9E78DF80630EF
:102C60009CE7AB7C8DF80700B3B1022382228DF87C
:102C7000073095F822300BB18DF80720D5E90023F5
:102C8000D17D187801220DF10703FFF7AFF8002876
:102C9000BFD185F82300BCE78022EAE700234FF08C
:102CA000FF30AB72BCE700BF040000202DE9F04FFD
:102CB000874C93B094F8247080468946002F40F0EA
:102CC00028823A46237A032B8EBF0023814931F8AC
:102CD00013300293637A032B09D8DFE803F015025F
:102CE0001B1808250423E17C002908BF1D46E37A50
:102CF000013B052B00F20482DFE813F0DB000F003C
:102D0000E700E100E400DE0004250223EBE72025D4
:102D10001023E8E710250823E5E7622301930AB9A9
:102D2000E3890593A37A00220393237C4946404616
:102D30000493FFF77BF8002800F0CE80002249467C
:102D40004046FFF773F8002800F0C680494600228D
:102D50004046FFF76BF84FF6FF734FF0FF3101224B
:102D6000E3812374029BA160B3F5FA7F227300F024
:102D7000AC8140F29D81B3F57A7F00F0AA81B3F572
:102D8000FA6F14D118238DF83C30D4E900239179DF
:102D9000187801220FABFFF729F8002840F03D8298
:102DA0009DF83C30A27ADB082372002A3AD0023D1B
:102DB0000E2D21D8DFE805F07420782020206F2028
:102DC0002020202020200800182203238DF83C20FA
:102DD000627A9A4210D0D4E90023D179187801227E
:102DE0000FABFFF703F8002840F022829DF83C303B
:102DF000A27ADB086372AAB1019BBC2B40F0F08081
:102E000001238DF83C30E27A9A420BD0D4E90023BA
:102E10009178187801220FABFEF7E8FF10B99DF802
:102E20003C30E3720598FFF703FC0398FFF7A8FE18
:102E300094F8243043BBA37A002B00F0F081049A6D
:102E400094F8108002F0FE052B402374002D40F012
:102E50004481237D002B00F0C381637CA3B9D4E9B6
:102E60000010012212AE06F80C2D3346497C007882
:102E7000FEF7BCFF40B99DF83C30637425B1FFF705
:102E8000F7F9002840F0C681002F40F0AF800720FE
:102E900013B0BDE8F08F10238DF83C30022397E784
:102EA00000238DF83C3093E708238DF83C30012354
:102EB0008EE7BC23019332E7052301932FE7142308
:102EC00001932CE70A23019329E72A23019326E79C
:102ED0000400002034BE00080CA909A80122FEF756
:102EE000A5FF38B10CA909A80122FEF79FFF002811
:102EF0007FF42CAF626808AB10780D210422FEF736
:102F000085FF002840F028819DF820609DF8211061
:102F10009DF8222083469DF82300F610C910D21098
:102F2000C0F3011CC0F3810E06F01C0601F01C0169
:102F300002F01C0200F0030046EA0C0641EA0E0112
:102F400010438DF81C608DF81D108DF81E000FAE1B
:102F500007AB13F80B30002B40F08E80002346F8AF
:102F60002B300BF1010BBBF1030FF1D1626833463B
:102F700010780D210322FEF749FF00287FF4E6AE0A
:102F80009DF83C209DF83D309DF83E1002F01F0258
:102F900003F01F0301F01F018DF83C208DF83D3038
:102FA0008DF83E108AB933B900293FF4CFAE01390C
:102FB0008DF83E10CAE6013BDBB28DF83D30002BA8
:102FC000F2D000238DF83D30EEE7013AD2B28DF811
:102FD0003C20002AE7D08DF83C00002BE4D0EAE743
:102FE000612B6CD902238DF83C300CE794F8243027
:102FF000012B3FF44CAF94F82520002A3FF447AF53
:1030000013B9A37A0FAE7BB1D4E90012002312AE3C
:1030100006F80C3D10783346497C0122FEF7E6FEA7
:1030200010B99DF83C306374A37C002B40F096806F
:10303000E08CFFF7FDFA002112AB626803F8281D4F
:10304000107823210122FEF7D1FED4E900100223DB
:1030500001228DF83C3084F824203346497C0078E6
:10306000FEF7C4FE10B99DF83C306374FFF700F919
:10307000072013B0BDE8F08F013B5FFA83FA07AB7E
:1030800003F80BA06B4B46F82B30BAF1000F3FF45E
:1030900068AF184668490AF1FF3AFDF703FE1AF0D7
:1030A000FF0AF7D107AB46F82B0003F80BA058E74F
:1030B000FA2B7FF47CAE00238DF83C3065E6292B9B
:1030C00021D903238DF83C309DE608238DF83C3050
:1030D0005BE610238DF83C3057E6637C002B7FF4D1
:1030E000CEAED4E90010012212AE06F80C2D334604
:1030F000497C0078FEF77AFE00283FF4BCAEBEE6BD
:10310000002301930BE6132B64D904238DF83C3084
:1031100079E60023D4E9001212AE06F80C3D1078CF
:103120003346497C0122FEF761FE10B99DF83C3020
:103130006374237C62688DF83C301078334601223A
:103140002321FEF753FE0023012784F82430FFF7E4
:103150008FF894F82420B5E50FAE07E7D4E90023F3
:103160001179187801223346FEF750FE00287FF4CB
:103170005FAFA27A9DF83C30D2074CBF43F02003EA
:1031800003F0DF038DF83C30D4E9001233461078A9
:1031900009790122FEF72AFE00287FF449AF0320B7
:1031A00000F096FF94F8223063BB302194F823207E
:1031B0008DF83C300AB18DF83C10D4E90023D17D64
:1031C000187801223346FEF711FE00287FF430AF55
:1031D000A0742DE7092B18D905238DF83C3012E691
:1031E00012AE06F80C3DD4E9001233461078497C43
:1031F0000122FEF7FBFD00287FF446AE9DF83C302F
:10320000637441E6B0218023D0E7062213468DF88F
:103210003C20F8E584F8108036E6A27AC5E5002F58
:103220003FF435AE94F82530002B7FF4EAAE2EE65D
:10323000A27AE0E57B14AE3E1D5A843F5AB3F0B546
:10324000164C83B0A37A13B36768C3B27D895E1846
:10325000000AAE428DF805308DF8040017DC2368B3
:1032600015460E463878D97E022201ABFEF7BEFD28
:1032700068B9D4E900102B46F2B2097E0078FEF757
:10328000B5FD003018BF0120404203B0F0BD4FF043
:10329000FF3003B0F0BD4FF0FF3070470400002056
:1032A0002DE9F04F4F4D8BB095F82540002C72D191
:1032B000002970D0CDE9022301918146002800F059
:1032C0008D8010280646A8BF1026AB7A1FFA86FB11
:1032D000002B60D06968ADF814404B89B3425ADBCB
:1032E000019F0DF1140A35E02B6808780222D97E7F
:1032F0005346FEF77BFD00284DD1D5E90013424629
:103300001878097E06ABFEF781FD002843D13246CE
:10331000384606A906F000FD002841D15C44A4B25D
:10332000A14542D9A9EB0406102EA8BF1026019B87
:103330001FFA86FB1F192ED0AB7A63B3220AE3B2C1
:1033400069688DF814208DF815304889B2B213449D
:10335000834220DC2B6808780222D97E5346FEF790
:1033600045FDC0B9D5E900235FFA86F8117E1878CB
:1033700042463B46FEF73AFD68B9AB7A5BB1220A9A
:10338000E3B269688DF815308DF81420B6B24A8919
:1033900033449342A8DD4FF0FF300BB0BDE8F08F0F
:1033A0006FF001000BB0BDE8F08F0298030A8DF8B2
:1033B00014308DF81500D5E9001253461078497F76
:1033C0000222FEF713FD0028E5D10123BDF80C20F1
:1033D00085F82530EA840BB0BDE8F08F0DF1140AB2
:1033E0001046E3E70400002070B56A4C82B094F800
:1033F0002420824266D0034600283CD094F8253031
:10340000002B00F0C480002A5FD0D4E90012002312
:1034100002AD05F8013D10782B46497C0122FEF7EC
:10342000E5FC10B99DF807306374A37C002B70D1C4
:10343000E08CFFF7FDF8002102AB626803F8021D83
:10344000107823210122FEF7D1FCD4E900100223D9
:1034500001228DF8073084F824202B46497C00781F
:10346000FEF7C4FC10B99DF807306374FEF700FF47
:10347000002002B070BD61680878002A38D1A37AB4
:103480000DF1070573B102AD216805F8012D2B463A
:10349000497C0122FEF7AAFC10B99DF8073063743D
:1034A000636818780026217C2B4601228DF80710CE
:1034B0002321FEF79BFC84F82460FEF7D9FE3046FA
:1034C00002B070BD002002B070BDA37A0DF10705F7
:1034D000002BAAD0D4E9001002AD05F8012D2B462F
:1034E000497C00780122FEF781FC00289AD09CE7F5
:1034F00002AD226805F8013D517C2B460122FEF702
:1035000075FC0028CCD19DF8072063686274187898
:10351000C8E7D4E900231179187801222B46FEF779
:1035200075FC002884D1A27A9DF80730D2074CBFE1
:1035300043F0200303F0DF038DF80730D4E90012D5
:103540002B46107809790122FEF750FC00287FF401
:103550006FAF032000F0BCFD94F82230ABB1B02176
:10356000802394F823208DF807300AB18DF80710D6
:10357000D4E90023D17D187801222B46FEF736FCD2
:1035800000287FF455AFA07452E73021E9E74FF0EF
:10359000FF306EE704000020014B987B704700BFAE
:1035A000B8040020C8234FF48062024940F6F63088
:1035B000FFF776BE90BE000870B504464CF64C523C
:1035C0006C254CF60C132C2084B004AE04F00301DF
:1035D000ADF8082031448DF80A50ADF80C308DF864
:1035E0000E00C4F3C10211F8080CC4F38113324475
:1035F00033448DF8000011F8046C13F8080C12F82D
:10360000041C12F8085C13F8043C8DF805108DF8C2
:1036100002006A46032140F226408DF804608DF8CE
:1036200001508DF80630FFF709FE00283FD101AAAE
:10363000032140F22A40FFF701FEC0BB762145F28C
:10364000366044F2266266238DF802106107ADF8F9
:103650000000ADF804208DF8063005D53722272369
:103660008DF800208DF80430A20605D55722472397
:103670008DF801208DF80530E30511D46A46032149
:103680004FF48860FFF7DAFD88B901AA032140F200
:103690003140FFF7D3FD50B9074B1C8104B070BD1A
:1036A000772267238DF802208DF80630E6E74FF089
:1036B000FF3004B070BD00BFB8040020314BF0B53E
:1036C0001B8983B003F0030250F82240C3F3C10208
:1036D0005D0750F8222048BF6442990648BF524215
:1036E000C3F38111DB05284B50F8216084FB0345AF
:1036F00082FB030148BF764286FB0367A30F43EAC0
:1037000085031A16840F8DF804201A148DF80730DB
:103710008DF805201B12B50F44EA810401AA04218B
:103720004FF474708DF8063045EA8705FFF786FD83
:1037300020BB2116201423128DF804108DF80500EB
:1037400001AA04214FF475708DF807408DF80630FA
:10375000FFF774FD90B92E162C142B1201AA042128
:103760004FF476708DF807508DF804608DF80540A1
:103770008DF80630FFF762FD03B0F0BD4FF0FF306B
:10378000FAE700BFB804002009E3CA022DE9F04FB0
:10379000054685B00DF10200FFF770F9364BBDF814
:1037A00002601989720C01F0030355F82340C1F33C
:1037B000C1034F0755F82370C1F3811355F8233027
:1037C00048BF6442880648BF7F42C90548BF5B4284
:1037D00004FB02FC07FB02FE03FB02F2F603E11707
:1037E0004FEAE77B4FEAE37906FB01CCA4FB0645F1
:1037F00006FB0BEE06FB0922A7FB0601A3FB0667EF
:10380000654471441744830FA20F43EA810342EADF
:1038100085024FEA967848EA870818161616151496
:1038200011124FEA234E4FEA232C8DF807208DF812
:1038300004608DF805508DF806108DF808004FEAE9
:1038400028674FEA28464FEA282501AA0C214FF4A1
:1038500025708DF80B308DF809E08DF80AC08DF8D1
:103860000F808DF80C708DF80D608DF80E50FFF7FD
:10387000E5FC05B0BDE8F08FB804002070B5044643
:1038800086B0124A03ADC82C07CA85E807001AD8CB
:10389000C82393FBF4F30026013B01AA022140F266
:1038A00016208DF805308DF80460FFF7C7FC50B97D
:1038B0002A460C2140F6C120FFF7C0FC18B9044B82
:1038C0009C8106B070BD4FF0FF30FAE788CA00084F
:1038D000B8040020430700F09980B1F5C86F00F2EA
:1038E000958070B5044682B00846FDF783F94949D2
:1038F000FDF78CFA05460DF10300FEF777FE9DF803
:103900000330023B0E2B56D8DFE803F02A5533551F
:1039100055553C5555555555555508004FF08A415C
:103920002846FDF7BFF9FDF733FB3B4986B2284631
:10393000FDF7B8F9FDF72CFB320A80B2030A8DF8C7
:103940000420E2078DF805608DF807008DF8063039
:1039500021D4A30748D414F0040030D102B070BDC4
:103960004FF08D412846FDF79DF9FDF711FB2B49DE
:10397000DCE74FF08C412846FDF794F9FDF708FB92
:103980002749D3E74FF08B412846FDF78BF9FDF728
:10399000FFFA2449CAE701AA02214FF4EA70FFF7AF
:1039A0004DFC40B90DF1060202214FF49270FFF771
:1039B00045FC0028CDD04FF0FF3002B070BD01AA09
:1039C00002214FF4EE70FFF739FC0028F3D10DF11E
:1039D000060202214FF49670FFF730FC003018BF4A
:1039E0000120404202B070BD01AA02214FF4EC70E8
:1039F000FFF724FC0028DED10DF1060202214FF46E
:103A00009470FFF71BFC0028A5D0D4E74FF0FF30DF
:103A1000704700BF000048430000C044000040461B
:103A20000000C045000040452DE9F0438E4B87B0B3
:103A300006AD45F80C3D04462A4604216820FFF7F0
:103A4000FDFBA32314F040088DF80C3000F0048136
:103A5000C021C822C2238DF80D108DF80E208DF8DC
:103A60000F3014F4C07715BFC623A3234CF6C4420D
:103A70004AF2A3328DF81230A323ADF810200A21A8
:103A80002A4640F6A7208DF813308DF814308DF8B3
:103A90001530FFF7D3FB14F0030914BF2023D823FC
:103AA0002A46012140F6B6208DF80C30FFF7C6FB00
:103AB0006B46A6066E464CBF6C4A6D4A07CA03C3E6
:103AC00009211A704FF497603246FFF7B7FB57B1E0
:103AD000E0054CBF674B684B2A46042140F6A22004
:103AE0000393FFF7ABFBE10740F1AC80F8232A46D4
:103AF00001214FF40B608DF80C30FFF79FFBFA218A
:103B00000720FFF7E7FE3F23324601214FF4A47060
:103B10008DF80030FFF792FB00233246012140F27E
:103B20004F108DF80030FFF789FB4FF4A053324659
:103B300002214FF4EF70ADF80030FFF77FFB4FF438
:103B4000C843324602214FF4ED70ADF80030FFF764
:103B500075FB4A4B324604214FF4AE700093FFF7D9
:103B60006DFB4FF40063324602214FF4AD70ADF8A7
:103B70000030FFF763FB4FF40073324602214FF42D
:103B8000AC70ADF80030FFF759FB14F0020F14BF12
:103B9000D923D8232A46012140F23D708DF80C30FC
:103BA000FFF74CFB620754BF4FF08B33344B324668
:103BB000042140F698200093FFF740FBFEF758FBE6
:103BC000E30654BF4FF0A3332E4B3246042140F698
:103BD0009E202D4D0093FFF731FBFEF749FB44F08B
:103BE00008036B81FEF744FBB8F1000F1CD10423DE
:103BF000142110224FF00A0E4FF01A0C1626062040
:103C000085F80E801FB1734661463246A87314F0E2
:103C1000140F1CBF0B46AA73B9F1000F00D0AB7391
:103C2000002007B0BDE8F0834FF006080A231A21F0
:103C300016224FF0100E4FF0200C1C260C2085F899
:103C40000E80DFE7D8232A4601214FF40B608DF860
:103C50000C30FFF7F3FA98E78DF80D308DF80E3041
:103C60008DF80F30FDE600BF02CAE30994CA0008D0
:103C7000A0CA0008B28BB69BB080B490008EF990B9
:103C8000C0C2C4C620283038B80400202DE9F04F47
:103C900000276B4C87B06489109D14F014060093C4
:103CA0002F80129B78D01E6836BA1660D3F804E0D5
:103CB00036149EFA8EFE4FEA2E4C0CFB0CFCC2F81A
:103CC00004E006FB06CC9E6836BA9660361406FB06
:103CD00006C6D3F80CE09EFA8EFE4FEA2E4C0CFB83
:103CE0000C6606F17146B6F1007FC2F80CE000F2F6
:103CF000A3804FF480724FF01B0E2A801A22CDE968
:103D0000032E19221C260292172214F0400F05964A
:103D100001924FF0180B4FF016094FF015064FF0B7
:103D200014074FF0130C4FF0120E4FF011084FF024
:103D3000100223D013F802A013F808804A4648EA7C
:103D40000A2AA1F800A013F80E8013F80CC0DE4672
:103D50004CEA0828A1F8028013F807B013F806A06F
:103D6000DDF814904AEA0B2AA1F804A02988DDE9BD
:103D7000037641F008012980DDE9018C14F4C07F4D
:103D800028D1A107009D3FD100F09CF900232860B5
:103D9000184607B0BDE8F08F0C2732460B264FF0CF
:103DA0000A0CCDE904670926CDE9026C072614F058
:103DB000400F01964FF0080B4FF006094FF0050633
:103DC0004FF004074FF0030C4FF0020E4FF00108C4
:103DD000D4D0AFE7995C13F808804A4648EA01213D
:103DE000018013F80EE013F80C1041EA0E21418017
:103DF000DF5D995D41EA07218180298841F07001EA
:103E00002980A107009DBFD09C186378E678DA0767
:103E100009D50B4A06F0070112680131C6F3C2004A
:103E20000AB1904763781B07AED5054B5B68002B42
:103E3000AAD0B0099847A7E72F804FF0FF33A7E734
:103E4000B8040020F0B5824C89B0234601227521C8
:103E50006820FDF7DBFF2378682B40F0EC80002022
:103E6000FEF78CFC044608B109B0F0BD7820FEF7DF
:103E700087FE7820FEF72CFEC820FEF7D9FBFFF75F
:103E800091FB744B93F90020002A23DD20200821A8
:103E900028274FF0300C1025382693F90320002AEC
:103EA0002FDD93F90620002A22DDA0B2FFF784FB64
:103EB00040F27310FFF7B8FDC820FFF7DFFC05A93B
:103EC00002A8FEF7F3FE072822D00120FFF78CFAA4
:103ED00009B0F0BD77D193F90120002A50DD2120EF
:103EE000092129274FF0310C112539260124D4E767
:103EF00074D193F90720002A59DD44F0400424B21C
:103F0000D3E769D193F90420002A48DD0C46C8E7BD
:103F100001A8FEF789FD019C0298FCF76FFE21467F
:103F2000FCF7C0FEFDF70EF802900398FCF766FE62
:103F30002146FCF7B7FEFDF705F803900498FCF75F
:103F40005DFE2146FCF7AEFEFCF7FCFF049002A8E4
:103F5000FFF7B4FB0DF10200FEF790FDDDE905125D
:103F6000BDF80230079803FB01F103FB02F203FBEB
:103F700000F305A8CDE905120793FFF707FCA4E7B6
:103F800045D193F90220002A32DC4BD127200F21A2
:103F90002F274FF0370C17253F2607247DE734D114
:103FA00093F90520002A21DC3AD1344679E728D15B
:103FB00093F90830002B15DC14BF44F4C07444F4AA
:103FC000E07424B271E724200C212C274FF0340C2C
:103FD00014253C26042460E7044662E744F4807418
:103FE00024B262E744F0800424B25EE72C4658E72E
:103FF00022200A212A274FF0320C12253A260224C9
:104000004BE744F4A07424B24FE73C4649E725202F
:104010000D212D274FF0350C15253D2605243CE7B5
:1040200064463EE726200E212E274FF0360C16253B
:104030003E26062431E7BFF34F8F0749074BCA6876
:1040400002F4E0621343CB60BFF34F8F00BFFDE784
:10405000942E00203000002000ED00E00400FA055E
:104060000B4610B586B001F10C020DF1130402905D
:104070000092184601F110020194063105ABFFF7DA
:1040800005FE06B010BD00BF074A08B5136803203F
:1040900043F01003136000F02DF80020FDF730FD11
:1040A000FDF72AFC002008BD00200240034A044B13
:1040B00011681B780B441360704700BF302F00203D
:1040C00040000020014B1868704700BF302F0020CF
:1040D00038B50446FFF7F6FF631C054602D0044BD3
:1040E0001B781C44FFF7EEFF401BA042FAD338BDFB
:1040F000400000204FF6FF01064A0002D36800F49A
:10410000E0600B4043F0BF6343F400330343D360EC
:10411000704700BF00ED00E0184B30B4DB68C3F31C
:104120000223C3F10705042D03F1040428BF04256D
:10413000062C19D94FF0FF34033B9C4022EA0404BB
:104140004FF0FF32AA4021EA020101FA03F22243B2
:1041500012010028D2B20ADB00F1604000F5614094
:1041600080F8002330BC704700242346E8E7044B66
:1041700000F00F0003441A7630BC704700ED00E0F9
:10418000FCEC00E0012300F01F01034A40098B40D2
:1041900042F82030704700BF00E100E050B3024613
:1041A000F0B4D0E90136002401253343D668006815
:1041B000334311491669114F014433435669A7FB34
:1041C000017133439669D769334306680909890049
:1041D00026F47F563B4326F03006116408493343EA
:1041E000D16303602046946382F8204082F8215016
:1041F000F0BC704701207047F8FFFDBFCDCCCCCCA0
:1042000000000240F0B590F82040012C32D001248B
:1042100090F8215080F82040A54225D100264FF08B
:10422000020E046886632668076CD0F83CC0BD4067
:1042300026F00106476880F821E02660CCF804509B
:104240006360C36A102F0BBFA260A160E160E260EF
:104250009BB1236843F00E032360002322681846B5
:1042600042F001022260F0BD0022022380F82020EB
:104270001846F0BD02231846F0BD236823F004035E
:104280002360236843F00A032360E6E738B590F81B
:104290002130022B04D0042201248263204638BD41
:1042A00003681D491A688B4222F00E021A601A68D0
:1042B00022F001021A6021D0184A93421CD0143215
:1042C00093421DD0143293421DD0143293421DD01C
:1042D000143293420CBF4FF480134FF080730121CE
:1042E00000240F4D426B6B6080F8211080F8204055
:1042F0007AB19047204638BD1023F0E70123EEE75E
:104300004FF48073EBE74FF48053E8E74FF48033CA
:10431000E5E71446C2E700BF080002401C00024067
:1043200000000240042270B4D0E90F6134680368D1
:104330008A4022421D681FD06A071DD51A6891065F
:1043400003D41A6822F004021A603F4A93425CD0F8
:104350001432934261D01432934268D014329342A3
:104360006BD0143293425DD0143293420CBF4FF4A1
:1043700080034FF0806349E002228A40224222D02B
:10438000AA0720D51A68910606D401211A6822F0DE
:104390000A021A6080F821102B4A93422BD0143263
:1043A000934242D01432934244D01432934236D0D6
:1043B0001432934244D0143293420CBF4FF4001392
:1043C0004FF0007318E008228A4022421BD02A07CF
:1043D00019D5012200251C6802FA01F124F00E040F
:1043E0001C60036B7160826380F8212080F820508C
:1043F0004BB170BC184702230021144C826A6360E1
:1044000080F820103AB970BC704704230F49C26A83
:104410004B60002AF7D070BC10474023F6E74FF4FA
:104420000053E9E74FF48023F0E72023E4E74FF45B
:104430008063EBE74FF40073DEE74FF48043E5E77A
:104440004FF40033D8E700BF0800024000000240EC
:104450002DE9F04F4FF0000883B04446DFF8C0C1AB
:10446000694EDFF8C0E102E00134102C78D001235E
:104470000A68A3401A409342F6D14D68122D00F00D
:104480009C807ED8022D00F0948074D9032D00F01A
:104490008D80112D02D1CB6803F10408FF2A62D868
:1044A00082460368A5004FF00F0909FA05FB23EACD
:1044B0000B0308FA05F52B43CAF80030D1F804A025
:1044C0001AF0805FD0D0514F24F00305BB6905F18D
:1044D000804543F00103BB61BB6905F5803503F0FE
:1044E0000103019304F0030B019B4FEA8B0BAB68B4
:1044F00009FA0BF9604523EA09030FD0704560D033
:10450000434FB84278D0434FB8420CBF4FF0030935
:104510004FF0040909FA0BFB43EA0B03AB60336865
:104520001AF4803F14BF13439343336073681AF443
:10453000003F14BF134393437360B3681AF4801FA2
:1045400014BF13439343B360F3681AF4001F04F1DC
:10455000010414BF1A4323EA0202102CF26086D130
:1045600003B0BDE8F08F04F18045083D4368AD001D
:1045700000F1040A97E7A5B1012D8FD1D1F80C8085
:104580008CE7254FBD420CD029D9244FBD4208D01D
:1045900007F58037BD4204D0DFF88C904D457FF49D
:1045A0007DAF8D68A5B94FF0040877E74FF000089C
:1045B00074E7CB6803F1080870E7CB6803F10C08D7
:1045C0006CE74FF0010909FA0BFB43EA0B03A5E77F
:1045D000012D0CBF036143614FF008085EE7DFF86F
:1045E0004C904D45DDD009F580394D457FF456AFEF
:1045F0008D68002DD7D0EBE74FF0020909FA0BFBCD
:1046000043EA0B038AE700BF0004014000100240A8
:104610000010014000140140000021100000311082
:1046200000080140000C01400000221000001110A1
:1046300002B9090401617047C3685940C1607047FD
:10464000044A5169014200D1704708B55061FDF735
:1046500083F808BD000401402DE9F0428946164662
:104660001F460546006882B0046844F48074046004
:10467000089C621C2FD14369DB07FCD509F0FE01C1
:104680000161631C03D033E043695A0540D4436998
:104690009907F9D500230193436901938369019335
:1046A000019B621C03D064E0436959054BD4436904
:1046B0001B06F9D5012F0AD0330A0361671C03D00A
:1046C00071E043695A053ED443691906F9D5F6B23B
:1046D0000661002034E04369D907CFD4002C57D0BD
:1046E000FFF7F0FC099BC01A844251D32868C0E749
:1046F00043699B07CED443695A0509D4002C61D085
:10470000FFF7E0FC099BC01A84425BD32868B8E736
:1047100000226FF4806604242021036843F40073B0
:10472000036046612C6485F83C202A6385F83D10BF
:104730002B6C042B03D1012002B0BDE8F0820320D2
:1047400002B0BDE8F08200236FF4806404212022CF
:104750004461296485F83C302B6385F83D202B6C3F
:10476000042BECD12A680120136843F40073136012
:10477000E6E743691A069DD443695905E3D44CB36F
:10478000FFF7A0FC099BC01A844223D3286888E75E
:10479000002320222B6385F83C3085F83D20032040
:1047A00085F83E30CCE743691B0690D443695B052E
:1047B000C9D47CB1FFF786FC099BC01A844209D397
:1047C00028687BE7002320222B6385F83C3085F89E
:1047D0003D20ADE7202100222B6C85F83C200B43C7
:1047E0002B642A6385F83D10B9E700BF2DE9F0423C
:1047F0001F460546006889460168164641F48061F7
:104800000160026882B042F48072089C0260611C00
:1048100049D14369DA07FCD55FFA89F909F0FE034B
:104820000361621C03D04BE0436959055AD44369C4
:104830009B07F9D500230193436901938369019391
:10484000019B611C03D07EE043695B0565D443692D
:104850001A06F9D5012F40F09180F6B20661671C67
:1048600003D098E04369590557D443691E06F9D52A
:10487000036843F480730360631C40F0AC804369B9
:10488000DF07FCD549F00109C0F81090621C03D085
:10489000C2E043695B0525D44369DB4313F002039F
:1048A000F7D1184636E04369DB07B5D4002C5AD05F
:1048B000FFF708FC099BC01A844254D32868A6E776
:1048C00043699A07B6D4436959050BD4002C00F00C
:1048D0009080FFF7F7FB099BC01A8442C0F08980E3
:1048E00028689EE700226FF4806604242021036874
:1048F00043F40073036046612C6485F83C202A630E
:1049000085F83D102B6C042B03D1012002B0BDE8CB
:10491000F082032002B0BDE8F08200236FF48064CF
:10492000042120224461296485F83C302B6385F8FA
:104930003D202B6C042BECD12A680120136843F432
:1049400000731360E6E74369190683D443695B0586
:10495000E3D4002C55D0FFF7B5FB099BC01A844265
:104960004FD328686DE7002320222B6385F83C3065
:1049700085F83D20032085F83E30CBE7330A0361FC
:10498000631C03D017E043695905C6D443691F0669
:104990003FF563AFF7E743691A063FF569AF43692F
:1049A0005B05BAD46CB3FFF78DFB099BC01A844238
:1049B00027D3286853E743691A063FF54EAF43698A
:1049C0005A05AAD4ECB1FFF77DFB099BC01A8442BB
:1049D00017D32868D4E74369DE073FF553AF002CAF
:1049E000C1D0FFF76FFB099BC01A8442BBD3286874
:1049F00042E7002320222B6385F83C3085F83D20D8
:104A000080E7202100222B6C85F83C200B432B648F
:104A10002A6385F83D108CE74369DB4313F00203FA
:104A20003FF43FAF436959053FF55CAF002CE0D040
:104A3000FFF748FB099BC01A8442DAD3286825E7B0
:104A400000286CD090F83D3070B503F0FF020446AA
:104A5000002B5DD02423226884F83D30136823F0B6
:104A60000103136001F0B4FC6268364B9A422FD800
:104A7000354B984251D95300421EB2FBF3F23349F1
:104A80000132A1FB0030810CC2F30B00042838BFB7
:104A9000042023684A1C59601A620022D4E90716D0
:104AA00020253143D861D4E9036019603043D4E94B
:104AB000051631439860D9601968104641F001012C
:104AC0001960226484F83D50226384F83E2070BD52
:104AD0001F4B984221D94FF496711C4D1D4BA5FBDD
:104AE0000065AD0C01FB05F1A3FB0131A66823684D
:104AF000890901315D600138196296B902EB420201
:104B0000B0FBF2F00130C0F30B00C0B90120C4E7E4
:104B100080F83C20FCF718FF9CE7012070BD0120C5
:104B2000704702EB820202EB8202B0FBF2F001302E
:104B3000C0F30B000028E9D040F44040ADE740F45A
:104B40000040AAE7A08601007F841E0083DE1B438D
:104B5000FF083D00D34D62102DE9F04F044683B0AD
:104B60009A460F469046BDF834900E9EFFF7AAFA7B
:104B700094F83D30202B04D00227384603B0BDE81E
:104B8000F08F054605E0FFF79DFA401B192800F25B
:104B9000A58022689369DB4313F0020BF3D094F8ED
:104BA0003C30012BE8D00121136884F83C10D80771
:104BB00002D413680B4313604FF0210C40204FF0D8
:104BC000000B1168534621F400611160674A84F8B4
:104BD0003DC084F83E00C4F840B0A4F82A90E262D8
:104BE000608D39460C9F42466762CDE9006520859D
:104BF0002046FFF731FD074630B1236C84F83CB006
:104C0000042B5CD10127B8E72368228DE2B1701C28
:104C100003D02FE05A6952053BD45A691106F9D5E1
:104C2000606AB4F828C0421C626201780CF1FF325D
:104C30001961618D92B2013989B261855969228504
:104C40004907E3D5002A3CD1721C03D054E05A69CD
:104C500051055FD45A695007F9D5002120201A6800
:104C600042F400721A6084F83D0084F83C1084F825
:104C70003E1082E75A691006D2D45A69520508D408
:104C8000002E5DD0FFF71EFA401B864258D32368E2
:104C9000BDE700226FF48065042020215D6120645F
:104CA00084F83C20226384F83D10236C042B06D149
:104CB00022680127136843F4007313605DE703273C
:104CC0005BE7821C62624178ACF102021961618D7E
:104CD00092B2013989B22285618597E702272023A4
:104CE0003846C4F830B084F83CB084F83D3084F8DD
:104CF0003EB003B0BDE8F08F5A695207ADD45A698F
:104D0000510507D43EB3FFF7DDF9401B864222D39D
:104D1000236899E700226FF48065042020215D61FB
:104D2000206484F83C20226384F83D10236C042B1B
:104D3000C5D122680127136843F4007313601CE790
:104D400020210022236C84F83C200B43236422633F
:104D500084F83D10A9E720210022236C84F83C2030
:104D60000B432364226384F83D10DFE70000FFFF5C
:104D70002DE9F04F044687B09A460F469046BDF89D
:104D80004490129DFFF79EF994F83D30202B04D0FB
:104D90000227384607B0BDE8F08F064604E0FFF76B
:104DA00091F9801B192851D822689369DB4313F0CD
:104DB000020BF4D094F83C30012BE9D001211368A8
:104DC00084F83C10D80702D413680B4313604FF0EB
:104DD000220C40204FF0000B1168534621F4006173
:104DE00011609F4A84F83DC084F83E00C4F840B08A
:104DF000A4F82A90E262608D3946109F42466762AD
:104E0000CDE9005620852046FFF7F0FC0746B0B9F3
:104E1000238D2268002B3ED102905369029393693F
:104E20000293029B136843F4007313600023202253
:104E300084F83C3084F83D2084F83E30A9E7236CA8
:104E400084F83CB0042B24D10127A2E702272023B9
:104E50003846C4F830B084F83CB084F83D3084F86B
:104E60003EB007B0BDE8F08F23685A69510600F1E3
:104E7000AF805A69D10600F1088120220021236CFD
:104E800084F83C101343236484F83D20236C202BCA
:104E9000DAD103277DE7012B78D0022B00F00781C0
:104EA000116841F480611160059051690591926922
:104EB0000592059A002BB9D0032B7AD8012B00F06C
:104EC000CD80022B49D0691C226840F0A180536933
:104ED0005B07FCD5136823F48063136072B6226805
:104EE000636A1269591C61621A70638D228D013BDD
:104EF000013A9BB222856385691C226840F0A1803B
:104F000053695B07FCD51368616A43F4007313604F
:104F100013694A1C62620B70638D228D013B9BB248
:104F2000013A6385228562B62268636A1269591C58
:104F300061621A70628D238D013A013B92B29BB27D
:104F400062852385B6E7536958070CD4002D6AD0D3
:104F5000FFF7B8F8801B854265D3691C2268F2D13F
:104F600053695B07FCD572B62368616A1A68481CEE
:104F700042F400721A601B6960620B70638D228DAF
:104F8000013B013A9BB222856385CCE7136823F489
:104F90008063136072B6236803905A6903929A691A
:104FA0000392039A1A6842F400721A6062B6238D63
:104FB00080E74DB958E75A69D00666D4FFF782F802
:104FC000801B8542FFF459AF23685A695206F2D517
:104FD000626A1B69511C61621370628D2168013A1B
:104FE00092B2238D62854A69013B9BB252072385A9
:104FF0007FF560AF636A0A69591C61621A70238D7C
:10500000628D013B013A9BB292B22385628551E7E2
:10501000536958073FF55EAF2DB1FFF753F8801B7A
:105020008542BFF450AF0327002320223846236374
:1050300084F83C3084F83D2084F83E3007B0BDE869
:10504000F08F536958073FF55EAF002DEBD0FFF7A7
:1050500039F8801B8542BFF44FAFE4E75DB920E02B
:105060000000FFFF5A69D2060FD4FFF72BF8801B10
:105070008542FFF402AF23685A695106F2D5626A8D
:105080001B69511C61621370B9E700226FF01000B8
:1050900020215861226484F83C20226384F83D106A
:1050A000F4E623685A6950067FF5E3AEE7E7136834
:1050B00043F40063136072B6236804905A69049243
:1050C0009A690492049A1A6822F480621A6062B69D
:1050D000238DEFE62DE9F0430446002087B0984683
:1050E0000E4617460390BDF83C50FEF7EBFF94F8D0
:1050F0003D30202B20D1544B544A1B688146DB089D
:10510000A2FB03231B0A03EB830303EB8303039339
:1051100003E021688B699A0712D5039B5A1E0392FC
:10512000002BF6D120220320236384F83C3084F83E
:105130003D2007B0BDE8F083022007B0BDE8F08352
:1051400094F83C30012BF7D001220B6884F83C2006
:10515000DB0702D40B6813430B604FF0220E4FF0B5
:10516000400C00220B683A4823F400630B6084F87B
:105170003DE084F83EC022646585E062638D0E9850
:105180009BB260622385002B30D0A06BDFF8C8C0D3
:105190004263304A10310263C0F828C00E9AFFF70C
:1051A00031F82320CDF80490009043463A4631462A
:1051B0002046FFF71BFB002834D1012D23683ED089
:1051C0005A6842F480525A6000220492596904914C
:1051D000996984F83C200491049A5A6842F48072D8
:1051E0005A605A6842F400625A60A6E72320CDF85C
:1051F0000490009043463A4631462046FFF7F6FABF
:1052000080B92021236805905A6905929A69059210
:10521000059A1A6842F400721A6084F83C0084F817
:105220003D108AE7236C042B08BF01204FF00003D8
:1052300018BF032084F83C3007B0BDE8F0831A683B
:1052400022F480621A60BFE70000002089B5F814DC
:105250000000FFFF6552000891520008704700BF30
:10526000704700BF38B500212025436A1C681846E6
:10527000226822F480622260598583F83D5083F8C9
:105280003E101A6C42F010021A64FFF7E9FF38BDB5
:10529000406A08B590F83D3090F83E20DBB2212BF3
:1052A00025D0222B20D0002103681A6822F48062C6
:1052B0001A601A6842F400721A605A6822F4805226
:1052C0005A605A6822F400625A604185036CD3B96F
:1052D000202280F83D2090F83E2080F83E30402A81
:1052E00014D0FFF7BBFF08BDD2B2202ADBD10021CA
:1052F00003685A6822F400625A6041855A6842F491
:1053000040725A6008BDFFF7ABFF08BDFCF70EFA0C
:1053100008BD00BF002800F0B2812DE9F04F90F8E1
:10532000293487B0044603F0FF02002B00F0A2816D
:105330004FF0030926466D4684F82994206801F051
:10534000B9FD56F8107B04F1040A0FCE0FC533687F
:1053500038462B609AE80E0001F09AFD0021206883
:1053600001F0B2FD4FF48073238540F20113A4F8DD
:1053700048304FF48173A4F8683040F20313A4F866
:1053800088304FF48273A4F8A83040F20513A4F8D3
:10539000C8304FF483730025A4F8E83040F20713B7
:1053A00084F82B50C4E90E55256484F84B50C4E9A9
:1053B0001655256684F86B50C4E91E55C4F8805014
:1053C00084F88B50C4E92655C4F8A05084F8AB503B
:1053D000C4E92E55C4F8C05084F8CB50C4E9365502
:1053E000C4F8E05084F8EB50C4E93E55A4F8083105
:1053F0004FF48473A4F8283140F20913A4F848311B
:105400004FF48573A4F8683140F20B13A4F8883187
:105410004FF48673A4F8A83140F20D13C4F800517C
:1054200084F80B51C4F81851C4F81C51C4F8205129
:1054300084F82B51C4F83851C4F83C51C4F8405199
:1054400084F84B51C4F85851C4F85C51C4F8605109
:1054500084F86B51C4F87851C4F87C51C4F8805179
:1054600084F88B51C4F89851C4F89C51C4F8A051E9
:1054700084F8AB51C4F8B851C4F8BC51C4F8C05159
:10548000A4F8C831A4F88892A4F894904FF00209C7
:105490004FF00108A4F86892A4F874904FF4877351
:1054A0004FF00409A4F8E83184F8CB51C4F8D8517E
:1054B000C4F8DC51C4F8E05184F8EB51C4F8F85159
:1054C000C4F8FC51C4F80052A4F82852A58684F808
:1054D0002B52C4F83852C4F83C52C4F8405284F8F5
:1054E0004B52C4F85852C4F85C52C4F8605284F865
:1054F0006B52C4F87852C4F87C52C4F8805284F8D5
:105500008B52C4F89852C4F89C52A4F84882A4F86C
:105510005480C4F8A052A4F8A892A4F8B4904FF014
:105520000509A4F8C892A4F8D4904FF00609A4F88D
:10553000E892A4F8F4904FF007094FF0090B4FF0F0
:105540000A0E0B200C210D222746A4F80893A4F87C
:1055500014914FF00E034FF00809EC4684F8AB525B
:10556000C4F8B852C4F8BC52C4F8C05284F8CB5244
:10557000C4F8D852C4F8DC52C4F8E05284F8EB52B4
:10558000C4F8F852C4F8FC52C4F8005384F80B5322
:10559000C4F81853C4F81C53C4F8205384F82B5390
:1055A000C4F83853C4F83C53C4F84053A4F82893C3
:1055B000A4F83491A4F848B3A4F854B184F84B5338
:1055C000A4F868E3A4F874E1A4F88803A4F89401AB
:1055D000A4F8A813A4F8B411A4F8C823A4F8D421FB
:1055E000A4F8E833A4F8F431C4F85853C4F85C5371
:1055F000C4F8605384F86B53C4F87853C4F87C53F0
:10560000C4F8805384F88B53C4F89853C4F89C535F
:10561000C4F8A05384F8AB53C4F8B853C4F8BC53CF
:10562000C4F8C05384F8CB53C4F8D853C4F8DC533F
:10563000C4F8E05384F8EB53C4F8F853C4F8FC53AF
:10564000C4F8005457F810EB0FCFACE80F003368E4
:105650007046CCF800309AE80E0001F037FC84F870
:105660002450206884F8298402F000F8284607B006
:10567000BDE8F08F80F8282404F0AAF958E601204C
:10568000704700BF90F82834012B10D0012110B5CD
:10569000044680F8281404F0C9FA206801F0E4FFF9
:1056A000206801F0FDFB002084F8280410BD0220D2
:1056B000704700BF2DE9F04F044683B0006801F049
:1056C000D7FF020445D42268104601F0D1FF4605F9
:1056D00000F18481206801F0CBFF10F4804F206836
:1056E00007D0B0F8443023F480431B041B0CA0F80F
:1056F000443001F0BDFF10F4005F206807D0B0F81F
:10570000443023F400531B041B0CA0F8443001F078
:10571000AFFFC50400F14481206801F0A9FF000536
:1057200000F11F81206801F0A3FF820500F10C81C8
:10573000206801F09DFFC30508D52268B2F8443007
:1057400023F480731B041B0CA2F8443003B0BDE8A3
:10575000F08F00232268DFF8DC94DFF8DCA4DFF8A8
:10576000DCB4ADF80430ADF80630B2F844309BB28A
:105770001F04ADF80430A7D5BDF8045015F00F058F
:105780004FD1BDF80410138811F0100100F04481CE
:105790009BB2ADF80630BDF806301B0500F1A081C4
:1057A000BDF806301F04E0D540F68F7311880B401A
:1057B0001380B2F8503094F8281203EBC10302EBC7
:1057C0004303D3F80C34C3F30903C4F84432002B69
:1057D00040F012822046002104F020F92268D4F81B
:1057E0003802B2F850303E2802F5806503F1060316
:1057F00040F2E081C0F34F11C60604BF01F1FF3152
:1058000089B24BEA812189B245F8131013880AEA5C
:10581000030383F4405343F4004343F080031380B5
:10582000A3E732F825309BB2ADF80630BDF806305C
:1058300019043CD4BDF806301B0696D532F8253045
:105840006E0109EA030322F82530A11991F83230DC
:1058500002F58060002B40F01E81B2F8503091F8C4
:10586000287003EBC703023350F81330C3F3090366
:105870004B64002B40F07C812644B2F8503096F8FF
:105880002850F16B03EBC503023350F81330356C2D
:10589000C3F3090319447364F163002D40F0E380FE
:1058A00096F82810204604F0C1F822685DE740F61B
:1058B0008F7332F825106E010B4022F8253004EB6F
:1058C000060898F8323202F58060002B00F028813B
:1058D00098F8283232F8237002EB830117F4804FD6
:1058E000B2F850704FEAC3033B4400F04D810233DD
:1058F00050F81370C7F30907002F40F0958140F668
:105900000F730A88134043F4004343F0C0030B8035
:105910002644D6F84432D6F83C22D6F840023B441E
:105920003A44C6F84432C6F83C22002800F02981E7
:10593000D6F8383296F828129F4280F046812046E9
:1059400004F06CF8226875E722682046B2F844300B
:1059500023F400731B041B0CA2F8443004F06EF80F
:10596000E6E62368B3F84020184642F00802A3F8A0
:105970004020B3F8442022F400621204120CA3F871
:105980004420B3F8402042F00402A3F8402001F084
:105990006FFEC1043FF5C6AE204604F061F8C1E6D3
:1059A00022682046B2F8403023F004031B041B0C8D
:1059B000A2F84030B2F8403023F008031B041B0C5F
:1059C000A2F8403004F05CF82068B0F8443023F4CA
:1059D00080531B041B0CA0F844309EE6226820462E
:1059E000B2F8443023F480631B041B0CA2F844304B
:1059F00004F028F894F82834012B3FF46BAE00250E
:105A0000012384F8245084F828342946206801F0C2
:105A100025FE84F828545DE609EA03031380B2F8F2
:105A2000500094F82850E36B00EBC50002EB4002F5
:105A3000D2F804242046C2F309021344E3636264EB
:105A400003F0F4FF94F824301BB3236C2268002B7E
:105A50007FF48BAE94F8241041F08001A2F84C1032
:105A600084F8243081E64FF0000C012796F8286076
:105A7000104606F07F067201A3182832C3E90F15FD
:105A800083F82860A118C3F844C083F8297001F096
:105A900071FC226869E691F8283004EB451532F86C
:105AA0002370DB0017F0400FB2F850703B444ED12A
:105AB000063350F81330C3F309036B64002B40F036
:105AC000AA8040F60F73A11991F8281032F82150DE
:105AD0002B4043F4404343F0800322F82130CBE6CF
