:020000040800F2
:1000000000500020A99D0008191D00081B1D0008B4
:100010001D1D00081F1D0008211D00080000000014
:10002000000000000000000000000000C195000872
:10003000231D00080000000061960008251D00082F
:10004000F19D0008F19D0008F19D0008F19D000858
:10005000F19D0008F19D0008F19D0008F19D000848
:10006000F19D0008F19D0008F19D00082D1D00087C
:10007000F19D00083D1D0008F19D0008F19D00085C
:10008000F19D00084D1D0008F19D0008F19D00083C
:100090005D1D0008F19D0008F19D0008F19D00081C
:1000A000F19D0008F19D0008F19D0008F19D0008F8
:1000B000F19D0008F19D00086D1D0008F19D0008EC
:1000C000F19D0008F19D0008F19D0008F19D0008D8
:1000D000F19D0008F19D00087D1D0008F19D0008BC
:1000E0008D1D0008F19D0008F19D00080000000032
:1000F0000000000000000000000000000000000000
:0C01000000000000000000005FF808F1A3
:1001100010B5054C237833B9044B13B10448AFF341
:1001200000800123237010BD740300200000000034
:1001300034BF000808B5034B1BB103490348AFF3B4
:10014000008008BD000000007803002034BF0008D4
:10015000034613F8012B002AFBD1181A0138704707
:1001600081F0004102E000BF83F0004330B54FEA68
:1001700041044FEA430594EA050F08BF90EA020FD5
:100180001FBF54EA000C55EA020C7FEA645C7FEA68
:10019000655C00F0E2804FEA5454D4EB5555B8BF8B
:1001A0006D420CDD2C4480EA020281EA030382EAFC
:1001B000000083EA010180EA020281EA0303362D8E
:1001C00088BF30BD11F0004F4FEA01314FF4801C61
:1001D0004CEA113102D0404261EB410113F0004F73
:1001E0004FEA03334CEA133302D0524263EB43032A
:1001F00094EA050F00F0A780A4F10104D5F1200EC8
:100200000DDB02FA0EFC22FA05F2801841F1000122
:1002100003FA0EF2801843FA05F359410EE0A5F1F6
:1002200020050EF1200E012A03FA0EFC28BF4CF027
:10023000020C43FA05F3C01851EBE37101F00045DD
:1002400007D54FF0000EDCF1000C7EEB00006EEBEA
:100250000101B1F5801F1BD3B1F5001F0CD3490874
:100260005FEA30004FEA3C0C04F101044FEA4452CB
:1002700012F5800F80F09A80BCF1004F08BF5FEA52
:10028000500C50F1000041EB045141EA050130BD32
:100290005FEA4C0C404141EB010111F4801FA4F1D5
:1002A0000104E9D191F0000F04BF01460020B1FA2A
:1002B00081F308BF2033A3F10B03B3F120020CDA62
:1002C0000C3208DD02F1140CC2F10C0201FA0CF040
:1002D00021FA02F10CE002F11402D8BFC2F1200CA5
:1002E00001FA02F120FA0CFCDCBF41EA0C0190405B
:1002F000E41AA2BF01EB0451294330BD6FEA0404A4
:100300001F3C1CDA0C340EDC04F11404C4F120028E
:1003100020FA04F001FA02F340EA030021FA04F3A0
:1003200045EA030130BDC4F10C04C4F1200220FAF7
:1003300002F001FA04F340EA0300294630BD21FA35
:1003400004F0294630BD94F0000F83F4801306BFFB
:1003500081F480110134013D4EE77FEA645C18BFEF
:100360007FEA655C29D094EA050F08BF90EA020F86
:1003700005D054EA000C04BF1946104630BD91EA7E
:10038000030F1EBF0021002030BD5FEA545C05D181
:100390004000494128BF41F0004130BD14F58004C0
:1003A0003CBF01F5801130BD01F0004545F0FE4134
:1003B00041F470014FF0000030BD7FEA645C1ABF69
:1003C000194610467FEA655C1CBF0B46024650EAA0
:1003D000013406BF52EA033591EA030F41F40021CC
:1003E00030BD00BF90F0000F04BF0021704730B552
:1003F0004FF4806404F132044FF000054FF0000127
:1004000050E700BF90F0000F04BF0021704730B5E7
:100410004FF4806404F1320410F0004548BF4042BC
:100420004FF000013EE700BF42004FEAE2014FEA11
:1004300031014FEA02701FBF12F07F4393F07F4FEC
:1004400081F06051704732F07F4208BF704793F0EF
:100450007F4F04BF41F40021704730B54FF4607402
:1004600001F0004521F000411CE700BF50EA010205
:1004700008BF704730B54FF000050AE050EA0102AE
:1004800008BF704730B511F0004502D5404261EB1E
:1004900041014FF4806404F132045FEA915C3FF45F
:1004A000D8AE4FF003025FEADC0C18BF03325FEAFC
:1004B000DC0C18BF033202EBDC02C2F1200300FAAD
:1004C00003FC20FA02F001FA03FE40EA0E0021FAD2
:1004D00002F11444BDE600BF70B54FF0FF0C4CF4C0
:1004E000E06C1CEA11541DBF1CEA135594EA0C0F72
:1004F00095EA0C0F00F0DEF82C4481EA030621EAAD
:100500004C5123EA4C5350EA013518BF52EA0335E7
:1005100041F4801143F4801338D0A0FB02CE4FF099
:100520000005E1FB02E506F00042E0FB03E54FF0C9
:100530000006E1FB03569CF0000F18BF4EF0010EC1
:10054000A4F1FF04B6F5007F64F5407404D25FEABD
:100550004E0E6D4146EB060642EAC62141EA555170
:100560004FEAC52040EA5E504FEACE2EB4F1FD0CB2
:1005700088BFBCF5E06F1ED8BEF1004F08BF5FEA30
:10058000500E50F1000041EB045170BD06F00046E2
:1005900046EA010140EA020081EA0301B4EB5C048F
:1005A000C2BFD4EB0C0541EA045170BD41F4801187
:1005B0004FF0000E013C00F3AB8014F1360FDEBFAC
:1005C000002001F0004170BDC4F10004203C35DA88
:1005D0000C341BDC04F11404C4F1200500FA05F30B
:1005E00020FA04F001FA05F240EA020001F00042AC
:1005F00021F0004110EBD37021FA04F642EB060122
:100600005EEA430E08BF20EAD37070BDC4F10C044B
:10061000C4F1200500FA04F320FA05F001FA04F20F
:1006200040EA020001F0004110EBD37041F10001FB
:100630005EEA430E08BF20EAD37070BDC4F1200506
:1006400000FA05F24EEA020E20FA04F301FA05F26E
:1006500043EA020321FA04F001F0004121FA04F216
:1006600020EA020000EBD3705EEA430E08BF20EAE6
:10067000D37070BD94F0000F0FD101F00046400020
:1006800041EB010111F4801F08BF013CF7D041EAA2
:10069000060195F0000F18BF704703F000465200A6
:1006A00043EB030313F4801F08BF013DF7D043EA77
:1006B0000603704794EA0C0F0CEA135518BF95EA2D
:1006C0000C0F0CD050EA410618BF52EA4306D1D1B4
:1006D00081EA030101F000414FF0000070BD50EAD3
:1006E000410606BF1046194652EA430619D094EA5D
:1006F0000C0F02D150EA013613D195EA0C0F05D147
:1007000052EA03361CBF104619460AD181EA03019A
:1007100001F0004141F0FE4141F470014FF0000052
:1007200070BD41F0FE4141F4780170BD70B54FF0ED
:10073000FF0C4CF4E06C1CEA11541DBF1CEA13556D
:1007400094EA0C0F95EA0C0F00F0A7F8A4EB05044F
:1007500081EA030E52EA03354FEA013100F0888046
:100760004FEA03334FF0805545EA131343EA12630F
:100770004FEA022245EA111545EA10654FEA0026C4
:100780000EF000419D4208BF964244F1FD0404F57D
:10079000407402D25B084FEA3202B61A65EB0305D9
:1007A0005B084FEA32024FF480104FF4002CB6EB96
:1007B000020E75EB030E22BFB61A754640EA0C0016
:1007C0005B084FEA3202B6EB020E75EB030E22BF56
:1007D000B61A754640EA5C005B084FEA3202B6EB97
:1007E000020E75EB030E22BFB61A754640EA9C0056
:1007F0005B084FEA3202B6EB020E75EB030E22BF26
:10080000B61A754640EADC0055EA060E18D04FEAE3
:10081000051545EA16754FEA06164FEAC30343EA83
:1008200052734FEAC2025FEA1C1CC0D111F4801F50
:100830000BD141EA00014FF000004FF0004CB6E749
:1008400011F4801F04BF01430020B4F1FD0C88BFE8
:10085000BCF5E06F3FF6AFAEB5EB030C04BFB6EBF3
:10086000020C5FEA500C50F1000041EB045170BDE6
:100870000EF0004E4EEA113114EB5C04C2BFD4EB13
:100880000C0541EA045170BD41F480114FF0000E97
:10089000013C90E645EA060E8DE60CEA135594EA13
:1008A0000C0F08BF95EA0C0F3FF43BAF94EA0C0F16
:1008B0000AD150EA01347FF434AF95EA0C0F7FF48B
:1008C00025AF104619462CE795EA0C0F06D152EADF
:1008D00003353FF4FDAE1046194622E750EA4106C3
:1008E00018BF52EA43067FF4C5AE50EA41047FF4D4
:1008F0000DAF52EA43057FF4EBAE12E74FF0FF3C39
:1009000006E000BF4FF0010C02E000BF4FF0010C09
:100910004DF804CD4FEA410C7FEA6C5C4FEA430C82
:1009200018BF7FEA6C5C1BD001B050EA410C0CBFD1
:1009300052EA430C91EA030F02BF90EA020F002033
:10094000704710F1000F91EA030F58BF994208BF9A
:1009500090422CBFD8176FEAE37040F00100704757
:100960004FEA410C7FEA6C5C02D150EA013C07D1AE
:100970004FEA430C7FEA6C5CD6D152EA033CD3D0F9
:100980005DF8040B704700BF8446104662468C46F3
:100990001946634600E000BF01B5FFF7B7FF002826
:1009A00048BF10F1000F01BD4DF808EDFFF7F4FF4F
:1009B0000CBF012000205DF808FB00BF4DF808EDDA
:1009C000FFF7EAFF34BF012000205DF808FB00BFFD
:1009D0004DF808EDFFF7E0FF94BF012000205DF81F
:1009E00008FB00BF4DF808EDFFF7CEFF94BF0120D4
:1009F00000205DF808FB00BF4DF808EDFFF7C4FFCD
:100A000034BF012000205DF808FB00BF4FEA410C15
:100A10007FEA6C5C02D150EA013C0AD14FEA430CF8
:100A20007FEA6C5C02D152EA033C02D14FF0000035
:100A300070474FF0010070474FEA410212F5001273
:100A400015D211D56FF47873B3EB625212D94FEA15
:100A5000C12343F0004343EA505311F0004F23FAFF
:100A600002F018BF404270474FF00000704750EA54
:100A7000013005D111F0004008BF6FF00040704711
:100A80004FF00000704700BF80F0004002E000BF60
:100A900081F0004142001FBF5FEA410392EA030F69
:100AA0007FEA226C7FEA236C6AD04FEA1262D2EBB3
:100AB0001363C1BFD218414048404140B8BF5B42B8
:100AC000192B88BF704710F0004F40F4000020F051
:100AD0007F4018BF404211F0004F41F4000121F067
:100AE0007F4118BF494292EA030F3FD0A2F10102B1
:100AF00041FA03FC10EB0C00C3F1200301FA03F1EF
:100B000000F0004302D5494260EB4000B0F5000F11
:100B100013D3B0F1807F06D340084FEA310102F1D0
:100B20000102FE2A51D2B1F1004F40EBC25008BF82
:100B300020F0010040EA03007047490040EB00004C
:100B400010F4000FA2F10102EDD1B0FA80FCACF17B
:100B5000080CB2EB0C0200FA0CF0AABF00EBC2507A
:100B600052421843BCBFD0401843704792F0000F68
:100B700081F4000106BF80F400000132013BB5E7BB
:100B80004FEA41037FEA226C18BF7FEA236C21D031
:100B900092EA030F04D092F0000F08BF0846704796
:100BA00090EA010F1CBF0020704712F07F4F04D164
:100BB000400028BF40F00040704712F100723CBF77
:100BC00000F50000704700F0004343F0FE4040F4A1
:100BD000000070477FEA226216BF08467FEA23635F
:100BE0000146420206BF5FEA412390EA010F40F44A
:100BF000800070474FF0000304E000BF10F0004396
:100C000048BF40425FEA000C08BF704743F096437C
:100C100001464FF000001CE050EA010208BF704797
:100C20004FF000030AE000BF50EA010208BF70471E
:100C300011F0004302D5404261EB41015FEA010C33
:100C400002BF84460146002043F0B64308BFA3F12B
:100C50008053A3F50003BCFA8CF2083AA3EBC2530D
:100C600010DB01FA02FC634400FA02FCC2F120022C
:100C7000BCF1004F20FA02F243EB020008BF20F063
:100C80000100704702F1200201FA02FCC2F12002C9
:100C900050EA4C0021FA02F243EB020008BF20EABE
:100CA000DC7070474FF0FF0C1CEAD0521EBF1CEAEC
:100CB000D15392EA0C0F93EA0C0F6FD01A4480EADA
:100CC000010C400218BF5FEA41211ED04FF00063C3
:100CD00043EA501043EA5111A0FB01310CF00040EF
:100CE000B1F5000F3EBF490041EAD3715B0040EA15
:100CF000010062F17F02FD2A1DD8B3F1004F40EBE5
:100D0000C25008BF20F00100704790F0000F0CF0B7
:100D1000004C08BF49024CEA502040EA51207F3A7B
:100D2000C2BFD2F1FF0340EAC250704740F4000056
:100D30004FF00003013A5DDC12F1190FDCBF00F047
:100D400000407047C2F10002410021FA02F1C2F1F5
:100D5000200200FA02FC5FEA310040F1000053EA91
:100D60004C0308BF20EADC70704792F0000F00F0DF
:100D7000004C02BF400010F4000F013AF9D040EAE5
:100D80000C0093F0000F01F0004C02BF490011F479
:100D9000000F013BF9D041EA0C018FE70CEAD15377
:100DA00092EA0C0F18BF93EA0C0F0AD030F0004CF7
:100DB00018BF31F0004CD8D180EA010000F00040AB
:100DC000704790F0000F17BF90F0004F084691F069
:100DD000000F91F0004F14D092EA0C0F01D14202A3
:100DE0000FD193EA0C0F03D14B0218BF084608D16C
:100DF00080EA010000F0004040F0FE4040F40000B6
:100E0000704740F0FE4040F4400070474FF0FF0C48
:100E10001CEAD0521EBF1CEAD15392EA0C0F93EA8F
:100E20000C0F69D0A2EB030280EA010C49024FEAE1
:100E3000402037D04FF0805343EA111143EA10139A
:100E40000CF000408B4238BF5B0042F17D024FF452
:100E5000000C8B4224BF5B1A40EA0C00B3EB510F2D
:100E600024BFA3EB510340EA5C00B3EB910F24BF16
:100E7000A3EB910340EA9C00B3EBD10F24BFA3EB9B
:100E8000D10340EADC001B0118BF5FEA1C1CE0D163
:100E9000FD2A3FF650AF8B4240EBC25008BF20F016
:100EA000010070470CF0004C4CEA50207F32C2BF6A
:100EB000D2F1FF0340EAC250704740F400004FF007
:100EC0000003013A37E792F0000F00F0004C02BF38
:100ED000400010F4000F013AF9D040EA0C0093F002
:100EE000000F01F0004C02BF490011F4000F013B5C
:100EF000F9D041EA0C0195E70CEAD15392EA0C0FC4
:100F000008D142027FF47DAF93EA0C0F7FF470AFFB
:100F1000084676E793EA0C0F04D14B023FF44CAF3E
:100F200008466EE730F0004C18BF31F0004CCAD1D3
:100F300030F000427FF45CAF31F000437FF43CAF0F
:100F40005FE700BF4FF0FF3C06E000BF4FF0010C31
:100F500002E000BF4FF0010C4DF804CD4FEA400213
:100F60004FEA41037FEA226C18BF7FEA236C11D05D
:100F700001B052EA530C18BF90EA010F58BFB2EB10
:100F8000030088BFC81738BF6FEAE17018BF40F090
:100F9000010070477FEA226C02D15FEA402C05D144
:100FA0007FEA236CE4D15FEA412CE1D05DF8040BC9
:100FB000704700BF844608466146FFE70FB5FFF75C
:100FC000C9FF002848BF10F1000F0FBD4DF808ED14
:100FD000FFF7F4FF0CBF012000205DF808FB00BF05
:100FE0004DF808EDFFF7EAFF34BF012000205DF85F
:100FF00008FB00BF4DF808EDFFF7E0FF94BF0120AC
:1010000000205DF808FB00BF4DF808EDFFF7D2FFA8
:1010100094BF012000205DF808FB00BF4DF808EDEB
:10102000FFF7C8FF34BF012000205DF808FB00BFB8
:101030004FEA4002B2F1FE4F0FD34FF09E03B3EBE5
:1010400012620DD94FEA002343F0004310F0004F25
:1010500023FA02F018BF404270474FF0000070477B
:1010600012F1610F01D1420205D110F0004008BF1A
:101070006FF0004070474FF00000704742000ED202
:10108000B2F1FE4F0BD34FF09E03B3EB126209D4C3
:101090004FEA002343F0004323FA02F070474FF079
:1010A0000000704712F1610F01D1420202D14FF0EE
:1010B000FF3070474FF00000704700BF7BB972B936
:1010C0000029BEBF00204FF0004106E008BF002805
:1010D0001CBF6FF000414FF0FF3000F0A7B9ADF139
:1010E000080C6DE904CE002909DB002B1ADB00F0A7
:1010F00035F8DDF804E0DDE9022304B07047404232
:1011000061EB4101002B1BDB00F028F8DDF804E067
:10111000DDE9022304B0404261EB4101524263EB3E
:1011200043037047524263EB430300F017F8DDF8C6
:1011300004E0DDE9022304B0404261EB4101704765
:10114000524263EB430300F009F8DDF804E0DDE907
:10115000022304B0524263EB430370472DE9F0478A
:101160008C460446089E002B4BD18A42154667D90F
:10117000B2FA82F24AB1C2F1200701FA02F320FA70
:1011800007F7954047EA030C94404FEA154EBCFB25
:10119000FEF71FFA85F80EFB17C307FB08F9210CB1
:1011A00041EA0343994509D9EB1807F1FF3180F073
:1011B0001C81994540F21981023F2B44A3EB09039E
:1011C000B3FBFEF00EFB103300FB08F1A4B244EABF
:1011D0000344A14209D92C1900F1FF3380F00781A3
:1011E000A14240F2048102382C4440EA0740002723
:1011F000641A1EB10023D440C6E900433946BDE855
:10120000F0878B4209D9002E00F0EC800027C6E958
:10121000000138463946BDE8F087B3FA83F7002F5E
:1012200048D18B4202D3824200F2FB80841A61EBE8
:10123000030301209C46002EE0D0C6E9004CDDE708
:1012400002B9FFDEB2FA82F2002A40F08F80012755
:10125000491B4FEA15481FFA85F9B1FBF8FE08FB58
:101260001E1109FB0EF04FEA144C4CEA0143984260
:1012700007D9EB180EF1FF3102D2984200F2CD806F
:101280008E461B1AB3FBF8F008FB103309FB00F97C
:10129000A4B244EA0344A14507D92C1900F1FF3355
:1012A00002D2A14500F2B6801846A4EB090440EA38
:1012B0000E409EE7C7F12005BB4022FA05FC4CEA30
:1012C000030C21FA05F44FEA1C4EB4FBFEF91FFA99
:1012D0008CF80EFB194420FA05F3B94009FB08FA13
:1012E00019430B0C43EA0444A24502FA07F200FA40
:1012F00007F30BD91CEB040409F1FF3080F0888060
:10130000A24540F28580A9F102096444A4EB0A04D5
:10131000B4FBFEF00EFB104400FB08FA89B241EA70
:101320000444A24508D91CEB040400F1FF316BD240
:10133000A24569D90238644440EA0940A0FB028909
:10134000A4EB0A044C454146CE4654D351D0002E5E
:1013500069D05A1A64EB0E0404FA05F522FA07F371
:10136000FC401D43C6E90054002747E79540C2F101
:10137000200321FA03F04FEA1548B0FBF8F71FFAF3
:1013800085F908FB170024FA03F3914007FB09FCD9
:101390000B43190C41EA00418C4504FA02F407D9C9
:1013A000691807F1FF3031D28C452FD9023F29440B
:1013B000A1EB0C01B1FBF8F008FB101C00FB09FECF
:1013C00099B241EA0C418E4507D9691800F1FF3303
:1013D00018D28E4516D902382944A1EB0E0140EAF5
:1013E00007473AE73746304608E70F46E6E618462D
:1013F000FBE64345ABD2B8EB020169EB0C020138C6
:101400009646A4E71846E8E7084695E70746CFE77B
:1014100081467BE702382C4447E7AEF1020E2B44AD
:101420002FE7384607E73746E8E600BF704700BFBA
:1014300070B586B021E01649B1F92020B1F9063027
:10144000B1F90800B1F90A50124CCE6905968E69BF
:1014500004964E69039609690291019500900E4920
:10146000204609F0F1F92046FEF772FE4FF47A7338
:1014700082B22146094805F05BFC00235022044952
:101480000748006807F0D2F90028D4D106B070BD33
:10149000442800209003002058CC0008B02D0020E4
:1014A000C42C002030B583B002F05CFE282002F08E
:1014B00025FF01250FE01A4C00231A461949206820
:1014C00007F0F6F8206807F083FA10B302F0B6FED2
:1014D000012006F07AFF4FF0FF3301AA19460020E1
:1014E00007F054FF0F4C21460F4802F075FE0F4BDA
:1014F0001B882384002DDED1094B186807F068FA99
:101500001F28E3D94FF48051094803F093F90125CE
:10151000DCE74FF48051064803F08CF90025D5E74D
:10152000C42C002030040020702800205C0400201F
:10153000000C014030B589B0244B9A6942F010028A
:101540009A619A6902F010020092009A9A6942F038
:1015500020029A619A6902F020020192019A9A6926
:1015600042F004029A619A6902F004020292029A1D
:101570009A6942F008029A619B6903F00803039399
:10158000039B134D01224FF48051284603F04CF980
:101590004FF480530493012305930024069407938A
:1015A00004A9284603F056F84FF400430493094B6E
:1015B0000593069404A9084803F04CF822460A2132
:1015C000282002F067FE09B030BD00BF00100240C5
:1015D000000C0140000011100008014008B5FFF7A1
:1015E00061FF08BD08B5FFF723FFFCE700B585B034
:1015F000002104AB43F8041D054A1170054A106828
:1016000000930B46012207F015FF05B05DF804FBBF
:10161000540400206C280020B0F5004F00D0704723
:1016200070B582B000F0FAFF041E32DB2D4B5C80F7
:10163000B4F5007F2BDC01F07DFFA04202DC294BDA
:101640001B7843B3284A138801339BB213804FF6AB
:10165000E85293423DD8234B5C6804F57A7402F05B
:10166000EDFD844215D2204B1B884FF47A7404FBA5
:1016700003F402F0E3FD1B4A5368C01AB4FBF0F414
:10168000148133B902F0DAFD164B586001E000F026
:10169000EBFF02B070BD01F04DFF054601F04AFFBF
:1016A00094FBF0F005FB00F5ADB201260D4B1E706A
:1016B00000F0CEFF044600F0D1FF04FA06F189B233
:1016C00001950A4B0093334682B2094803F0D4FDDA
:1016D000B8E7054B01221A8002F0B0FD014B5860BB
:1016E000D7E700BF54040020542D002070280020AC
:1016F000702C002010B50EE04FF48051074803F025
:1017000099F8642006F061FE0134032CF4DD4FF4F7
:10171000FA7006F05AFE0024F7E700BF000C014003
:1017200038B508F05DF908222349244800F05AFB37
:10173000B0F1FF3F3ED1FFF7DDFF2346002220211D
:10174000084600F09BFB0134072CF6DD1C4BB3F977
:101750000430002B0EDBA3F51C53103BDB00194DAE
:1017600085FB0325DB17A3EB65250735072D02DD78
:10177000072502E00725002D01DB002409E00025F4
:10178000FBE740200DE000212346002200F076FB1D
:101790000134A54209DB0A4BB3F90030002BF0D12C
:1017A0000020002BEFD14021EEE700F02BFB0420BE
:1017B00006F00BFE0024C7E7F02D0020582D002076
:1017C000842E0020D34D621008B50268034B9A4264
:1017D00000D008BD02F026FDFBE700BF0008004076
:1017E000FEE7000000B583B01D4B5A6942F00102CC
:1017F0005A615B6903F001030193019B19481A4B7D
:1018000003604FF480434360402383608023C360C0
:101810000023036143618361C36102F0B7FDD0B966
:10182000002207210B2002F035FD0B2002F066FD9F
:10183000002205210D2002F02DFD0D2002F05EFD9D
:1018400000220521112002F025FD112002F056FD95
:1018500003B05DF804FB4FF4B2710448FFF7C0FF1A
:1018600000100240102D00200800024078CC000833
:1018700008B50C480C4B03600C4B4360002383609D
:10188000C3604FF48042026143618361C3610362BC
:1018900003F000FA00B908BD40F21F110448FFF739
:1018A0009FFF00BF702C002000540040A086010064
:1018B00078CC000808B50F480F4B03604FF48273D3
:1018C000436000238360C360036143614FF400728F
:1018D00082611822C2610362436283620A23C36287
:1018E00004F048FF00B908BD40F237110348FFF784
:1018F00077FF00BF582D00200030014078CC000851
:1019000008B50B480B4B03604FF4E13343600023F1
:101910008360C36003610C2242618361C36105F08F
:10192000D8F900B908BD4FF4A5710348FFF758FF77
:10193000B02D00200044004078CC000800B595B0E0
:1019400001220A924FF480330B9300210C910E92E6
:101950000222119212934FF4801313930AA804F0F9
:101960004BFA58BB0F2305930223069300230793DA
:101970004FF4806208920993012105A804F062FCEB
:1019800000BB102301934FF48003049301A804F0DB
:1019900059FDD8B904F012FD0F4BA3FB00308009AC
:1019A00002F0B8FC042002F0CBFC00220F214FF023
:1019B000FF3002F06FFC15B05DF804FBEC21074826
:1019C000FFF70EFFFA210548FFF70AFF40F2011169
:1019D0000248FFF705FF00BFD34D621078CC000826
:1019E00000B593B002F00CFCFFF7A8FFFFF7A2FDD3
:1019F000FFF7F8FEFFF73CFFFFF75CFFFFF780FF04
:101A00001A4C0DAD26460FCE0FC533682B60002152
:101A10000DA806F0C0FC164B186008AD04F11406C2
:101A20000FCE0FC533682B60002108A806F0B3FC69
:101A3000104B186003AD04F128060FCE0FC53368B4
:101A40002B60002103A806F0A6FC0B4B186001AB2D
:101A50003C3494E8030083E803000021184606F0B4
:101A6000BDFC064B186006F091FCFEE750BF000875
:101A7000682800206C280020C82C0020C42C0020DE
:101A800000B583B0244B9A6942F001029A619A69C9
:101A900002F001020092009ADA6942F08052DA61A3
:101AA000DB6903F080530193019B032002F0E0FB0C
:101AB000002211466FF00B0002F0ECFB00221146F1
:101AC0006FF00A0002F0E6FB002211466FF00900F9
:101AD00002F0E0FB002211466FF0040002F0DAFB96
:101AE000002211466FF0030002F0D4FB00220F2108
:101AF0006FF0010002F0CEFB00220F214FF0FF300B
:101B000002F0C8FB054A536823F0E06343F000731A
:101B1000536003B05DF804FB001002400000014078
:101B200002681B4B9A4200D0704710B586B004463D
:101B3000C0230293122303930323059302A915489C
:101B400002F088FD144BDA6942F40012DA61DB69B5
:101B500003F400130193019B1048114B0360002311
:101B6000436083608022C2600361436120238361FC
:101B70004FF48053C36102F009FC20B9074BA36303
:101B80005C6206B010BD84210648FFF729FEF5E728
:101B900000540040000C014000100240CC2C0020FA
:101BA00080000240ACCC000802681C4B9A4200D076
:101BB000704710B586B0044603F560439A6942F455
:101BC00080529A619B6903F480530193019BA02387
:101BD0000293022303930323059302A9104802F002
:101BE00039FD1048104B03601023436000238360CD
:101BF0008022C2600361436183614FF40053C3617B
:101C000002F0C4FB20B9074BA3645C6206B010BDB0
:101C1000CB210648FFF7E4FDF5E700BF00300140A7
:101C200000080140F02D002030000240ACCC00083C
:101C30000268184B9A4200D0704730B587B003F560
:101C4000E633DA6942F40032DA61DB6903F4003327
:101C50000193019B0423029302230393032305931F
:101C60000D4D02A9284602F0F5FC0823029300243A
:101C7000039404940DEB0301284602F0EBFC22468A
:101C80000521262002F006FB262002F037FB07B0D4
:101C900030BD00BF004400400008014000B589B0DD
:101CA000002201461E2002F0F5FA1E2002F026FB5B
:101CB000154BDA6942F00402DA61DB6903F00403D0
:101CC0000193019B02A903A804F09EFB04F07CFB96
:101CD00043000E48A0FB03239B0C013B0C480D4A1C
:101CE000026040F2E732C260436000230361836018
:101CF00004F08AFE18B1012009B05DF804FB044825
:101D000004F07AFDF8E700BF0010024083DE1B43B9
:101D1000342E0020000800407047FEE7FEE7FEE793
:101D2000FEE7704708B506F060FB08BD08B502483D
:101D300002F0EEFB08BD00BF102D002008B50248E0
:101D400002F0E6FB08BD00BFF02D002008B50248F8
:101D500002F0DEFB08BD00BFCC2C002008B5024815
:101D600003F017FF08BD00BF283B002008B502485C
:101D700004F052FD08BD00BF342E002008B5024813
:101D800005F0A4F808BD00BFB02D002008B54FF441
:101D9000004002F053FD08BD0F4B1A6842F00102EB
:101DA0001A6059680D4A0A405A601A6822F0847213
:101DB00022F480321A601A6822F480221A605A686B
:101DC00022F4FE025A604FF41F029A60044B4FF057
:101DD00000629A60704700BF001002400000FFF8E8
:101DE00000ED00E038B5054602EBC202044C0A32B1
:101DF0000021204608F066F86565002038BD00BF68
:101E00006004002008B5034B52221946586D04F0B7
:101E100003FC08BD6004002000EBC0000130014B52
:101E2000184470476004002000231A4604E043F081
:101E300006034000C0B20132072A06DCDB0010F0C6
:101E4000800FF4D143F00403F3E7C3F307420A70B1
:101E5000C3F307224A708B70704770B50646084678
:101E600015461C461946FFF7DFFFE11C3046FFF719
:101E7000DBFFA11D2846FFF7D7FF70BD70B50446F4
:101E80000D4616461846FFF7C7FF03463246294659
:101E90002046FFF7E2FF70BD10B584B00A2402941B
:101EA0000192009301230A4600FA03F1024802F06E
:101EB000A5FF04B010BD00BF702C002010B584B089
:101EC0000A2402940192009301230A4600FA03F1C6
:101ED000024803F051F804B010BD00BF702C002080
:101EE000F0B583B006462A4B586801AB04220D2199
:101EF0000078FFF7E3FF002848D19DF80420D210B6
:101F000002F01C029DF80710C1F301131A438DF86B
:101F100000209DF80520D21002F01C02C1F38103BD
:101F20001A438DF801209DF80630DB1003F01C03E6
:101F300001F003010B438DF80230002414E000236C
:101F400046F824300EE013492868FEF7ABFE2860FF
:101F500002ABDA1912F8083C013BDBB202F8083C8C
:101F6000002BF0D10134E4B2022C0CD8274602AB8E
:101F7000234413F8083C002BE1D006EB8405064B04
:101F800046F82430E4E7002003B0F0BD0720FBE76B
:101F9000040000201D5A843F7B14AE3E2DE9F0431F
:101FA00085B080460F4601A8FFF79AFF0026344609
:101FB0000DE020494846FFF713F820B91E4948466E
:101FC000FFF72CF810B10123A3401E430134022C6B
:101FD0002CDCA50058F8240057F82430C01A00283B
:101FE000B8BF4042FEF70AFE4FF05E51FEF75AFEC0
:101FF000814604AB1D4455F80C5C00212846FEF7D1
:10200000E5FF0028D5D129464846FEF7FFFE4FF0F0
:102010007E51FEF73DFD20F000400849FEF7FEFF2F
:102020000028D3D00123A3401E43CFE7304605B09C
:10203000BDE8F0839A99993E3333733F295C0F3E94
:102040002DE9F04182B007468846364B586801AB0F
:1020500003220D210078FFF731FF00285CD19DF8A5
:10206000043003F01F038DF804309DF8053003F0B1
:102070001F038DF805309DF8063003F01F038DF81F
:10208000063000252C4624E02749FEF70BFE02AB64
:102090001A1912F8043C013BDBB202F8043C002B95
:1020A000F2D101463046FEF7B1FE4FF07E51FEF709
:1020B000EFFC20F000401D49FEF7B0FF40B10123C6
:1020C000A3401D4304E01A48E1E70123A3401D4358
:1020D0000134022C21DC57F8240058F82430C01AAF
:1020E0000028B8BF4042FEF789FD4FF05E51FEF771
:1020F000D9FD064602AB234413F8043C002BE2D181
:102100000C49FEF76DFF0028DFD10B493046FEF782
:1021100085FF0028DCD0D8E70725284602B0BDE8B7
:10212000F08100BF0400002054E3853F295C0F3E8E
:102130000000C841000020410000D24200B583B039
:10214000234B93F82430CBB1A0B102238DF8073094
:102150001F4B586819680DF107030122497C00786C
:10216000FFF79AFE48BB9DF80720194B5A7403B03D
:102170005DF804FB00238DF80730E9E7144B9B7AE8
:10218000F3B110B1124B5B7CEBB990B101238DF828
:1021900007300F4B586819680DF107030122497C7D
:1021A0000078FFF779FE80B99DF80720084B5A7434
:1021B000DDE700238DF80730EBE74FF0FF30D6E77F
:1021C0004FF0FF30D3E70020D1E74FF0FF30CEE7EC
:1021D000040000202DE9F04385B005460C46164664
:1021E00001238DF8043000238DF80530AB4B58687F
:1021F000196801AB0222497D0078FFF74DFE0028E7
:1022000040F0D981C82002F01FF804AB002203F887
:102210000C2DA24A506811680122497C0078FFF712
:102220003BFE002840F0CA819C4B5868196801ABFE
:10223000012249790078FFF72FFE002840F0C18184
:10224000964B5868196801AB0122497D0078FFF769
:1022500023FE002840F0B881904B5868196801AB04
:102260000122897E0078FFF717FE002840F0AF8139
:102270008A4B5868196801AB012209790078FFF789
:102280000BFE002840F0A68104AB0C2203F80C2DB5
:10229000824A50681168012209790078FFF7FCFD35
:1022A000002840F09A810F2001F0CEFF7B4A936A0C
:1022B000597A04AB03F80C1D506811680122897823
:1022C0000078FFF7E9FD002840F08A81734A936A9D
:1022D000197A04AB03F80C1D506811680122497883
:1022E0000078FFF7D9FD002840F07D81002E00F036
:1022F000C7806A4B9B6A9B7A63F01F038DF804309A
:10230000664B5868196801AB012289790078FFF79C
:10231000C3FD002840F06A81002E00F0B7805F4BBB
:102320009B6ADB7A63F01F038DF804305B4B5868BF
:10233000196801AB0122C9790078FFF7ADFD0028CB
:1023400040F05781002E40F0A58004AB402203F8F6
:102350000C2D524A50681168012209790078FFF764
:102360009BFD002840F0488104AB782203F80C2D37
:102370004A4A50681168012249790078FFF78CFDBC
:10238000002840F03C81322001F05EFF04AB0022C7
:1023900003F80C2D414A50681168012249790078F0
:1023A000FFF77AFD002840F02D813C4B58681968F2
:1023B00001AB0222097B0078FFF780FD002840F086
:1023C00024819DF804309DF8057047EA0327344BBB
:1023D000A3FB0737C7F3C7070026AE606E602E6009
:1023E000A66066602660BE425CD22C4B58681968B5
:1023F00001AB0C22497B0078FFF760FD002840F01C
:1024000007819DF804309DF8051041EA032109B2C7
:102410009DF806309DF8072042EA032212B29DF88B
:1024200008009DF8093043EA00231BB220680144EC
:10243000216061680A446260A2681344A3609DF849
:102440000A309DF80B2042EA032212B29DF80C30AC
:102450009DF80D1041EA032109B29DF80E009DF888
:102460000F3043EA00231BB2286802442A606A68DE
:1024700011446960AA681344AB600136F6B2B2E752
:10248000064B9B6A9B7A8DF8043039E718238DF848
:1024900004304BE7C82001F0D7FE56E704000020C7
:1024A000ABAAAAAA29688322002308040914FEF70C
:1024B00005FEFEB2002732463B46FEF7FFFD2860D0
:1024C00069688322002308040914FEF7F7FD3246E9
:1024D0003B46FEF7F3FD6860A968832200230804E9
:1024E0000914FEF7EBFD32463B46FEF7E7FDA86018
:1024F00023684FEA03484FEA2349B8F1000F79F106
:1025000000033BDB4FEAD82032463B4640EA4950C5
:102510004FEAE921FEF7D2FD206063684FEA0348E5
:102520004FEA2349B8F1000F79F100032EDB4FEA9F
:10253000D82032463B4640EA49504FEAE921FEF7AF
:10254000BDFD6060A3684FEA03484FEA2349B8F134
:10255000000F79F1000321DB4FEAD82032463B46D9
:1025600040EA49504FEAE921FEF7A8FDA0600028A3
:102570001CDDA0F58030A06000204BE040F2FF722F
:10258000002318EB020849EB0309BBE740F2FF7296
:10259000002318EB020849EB0309C8E740F2FF7279
:1025A000002318EB020849EB0309D5E700F580305A
:1025B000A06000202EE04FF0FF302BE04FF0FF3006
:1025C00028E04FF0FF3025E04FF0FF3022E04FF0E1
:1025D000FF301FE04FF0FF301CE04FF0FF3019E0FC
:1025E0004FF0FF3016E04FF0FF3013E04FF0FF30B8
:1025F00010E04FF0FF300DE04FF0FF300AE04FF0F9
:10260000FF3007E04FF0FF3004E04FF0FF3001E013
:102610004FF0FF3005B0BDE8F08300BF00B583B0D8
:102620000A4B5868196801AB0222097B0078FFF752
:1026300045FC40B99DF804309DF8050040EA0320B0
:1026400003B05DF804FB4FF0FF30F9E70400002011
:10265000014B5B681878704704000020014B1B6831
:10266000587B7047040000207B4B9B7A002B00F0C6
:10267000D48000B583B002AB002203F8012D764A66
:10268000506811680122497C0078FFF705FC00289A
:1026900040F0C680704B586819680DF1070301229D
:1026A00049790078FFF7F8FB002840F0BC806A4BBE
:1026B000586819680DF10703012209790078FFF7BE
:1026C000EBFB002840F0B280634B93F82430002BE2
:1026D00053D002AB0C2203F8012D5F4A50681168F9
:1026E000012209790078FFF7D7FB002840F0A1808C
:1026F000322001F0A9FDC0238DF80730564B9B7A9C
:1027000013F0010F02D0E0238DF80730524B5868C8
:1027100019680DF10703012209790078FFF7BCFB66
:10272000002840F089804C4B5B7CFBB102238DF884
:102730000730494B586819680DF107030122497C9D
:102740000078FFF7A9FB002879D102AB002203F83B
:10275000012D414A50681168012249790078FFF73C
:102760009BFB38B9002003B05DF804FB00238DF813
:102770000730DEE74FF0FF30F5E702AB042203F845
:10278000012D354A50681168012209790078FFF758
:1027900083FB002856D1304B9B7C23B92E4B9B7A70
:1027A00013F0010F2ED140238DF807302A4B5868C3
:1027B00019680DF10703012209790078FFF76CFB16
:1027C000002842D1322001F03FFD234B5B7CEBB16E
:1027D00001238DF80730204B586819680DF1070365
:1027E0000122497C0078FFF757FB88BB1A4B5868D9
:1027F00053F8101B012249790078FFF74DFB48B9C7
:102800000020B0E760238DF80730CFE700238DF874
:102810000730E0E74FF0FF30A5E74FF0FF3070479B
:102820004FF0FF309FE74FF0FF309CE74FF0FF3055
:1028300099E74FF0FF3096E74FF0FF3093E74FF006
:10284000FF3090E74FF0FF308DE74FF0FF308AE721
:102850004FF0FF3087E700BF040000200D4B1B7ACC
:10286000032B13D8DFE803F002060A0EFA230380D5
:10287000002070474FF4FA730380F9E74FF47A733E
:102880000380F5E74FF4FA630380F1E70023038048
:10289000EEE700BF04000020224B9B7A002B36D0CD
:1028A00000B583B0B0F5FA7F29D009D9B0F57A7FA9
:1028B00029D0B0F5FA6F2DD118238DF8073004E038
:1028C000FA2827D100238DF80730164B1B7A9DF884
:1028D0000720B3EBD20F20D0124B586819680DF1C6
:1028E0000703012289790078FFF7D6FAB8B99DF875
:1028F0000730DB080B4A137203B05DF804FB0823B2
:102900008DF80730E1E710238DF80730DDE74FF051
:10291000FF3070474FF0FF30EEE70020ECE74FF05C
:10292000FF30E9E7040000200F4B5B7A032B16D839
:10293000DFE803F0020C0F12022303700A4BDB7C6A
:1029400083B103785B000370002070470423037099
:10295000F4E708230370F1E710230370EEE74FF06C
:10296000FF3070470020704704000020234B9B7A03
:10297000002B37D000B583B002380E2835D8DFE8F9
:1029800000F00834253434342934343434343434C5
:102990002D0000238DF80730184B5B7A9DF8072037
:1029A000B3EBD20F24D0154B586819680DF107030B
:1029B0000122C9790078FFF76FFAD8B99DF807307E
:1029C000DB080E4A537203B05DF804FB08238DF850
:1029D0000730E1E710238DF80730DDE718238DF885
:1029E0000730D9E74FF0FF3070474FF0FF30EAE78C
:1029F0000020E8E74FF0FF30E5E700BF04000020CB
:102A00000F4BDB7A013B052B17D8DFE803F00307F8
:102A10000A0D1013BC23038000207047622303803B
:102A2000FAE72A230380F7E714230380F4E70A2355
:102A30000380F1E705230380EEE700230380EBE743
:102A400004000020234B9B7A002B3AD000B583B0C2
:102A5000BB281AD901238DF807301E4BDA7A9DF86E
:102A600007309A4230D01B4B586819680DF10703A4
:102A7000012289780078FFF70FFA38BB9DF807200C
:102A8000144BDA7203B05DF804FB612803D902230A
:102A90008DF80730E1E7292803D903238DF80730A3
:102AA000DBE7132803D904238DF80730D5E709287D
:102AB00003D905238DF80730CFE706238DF80730BB
:102AC000CBE74FF0FF3070470020DBE74FF0FF30DF
:102AD000D8E700BF04000020054B93F8243023B949
:102AE000034BDB890380002070474FF0FF307047B5
:102AF000040000200D4B1B7A032B13D8DFE803F0F2
:102B000002060A0E0A4B036000207047094B03605F
:102B100000207047084B036000207047074B03609C
:102B2000002070474FF0FF30704700BF04000020C6
:102B300000000343000083423333034233338341B5
:102B4000114B5B7A032B1AD8DFE803F0020D111545
:102B50004FF4804303800C4BDB7C9BB103885B0804
:102B600003800020704741F69C730380F3E74FF425
:102B700080530380EFE74FF400630380EBE74FF0EF
:102B8000FF3070470020704704000020024B1B7C80
:102B900003700020704700BF0400002070B5164B82
:102BA00093F8243013BB00F0FE04134B9B7A03B35D
:102BB000114A167C23401374A34211D04FF0FF3505
:102BC00014B90D4B1B7D6BB10120FFF7B7FA74B13F
:102BD000FFF74AFD58B1084B1E744FF0FF3506E071
:102BE0000025EDE70020FFF7A9FAF0E700252846C9
:102BF00070BD4FF0FF35FAE704000020584B9B7C76
:102C0000834200F09B8010B582B00446002843D078
:102C1000534B586819680DF10703012209790078B0
:102C2000FFF74CF9002840F08B809DF8072022F038
:102C3000200202AB03F8012D494A506811680122B5
:102C400009790078FFF728F900287CD1032001F0EA
:102C5000FBFA02238DF80730414B93F8223013B171
:102C600082238DF807303E4B93F823302BB19DF82B
:102C7000073043F030038DF80730394B5868196836
:102C80000DF107030122C97D0078FFF705F900283F
:102C900044D04FF0FF3044E0314B586819680DF1D3
:102CA0000703012209790078FFF708F900284DD1C0
:102CB0002B4B9B7A13F0010F35D09DF8073043F072
:102CC00020038DF80730264B586819680DF107036B
:102CD000012209790078FFF7DFF8002839D10320B5
:102CE00001F0B2FA1E4B93F822301BB380238DF80B
:102CF00007301B4B93F823302BB19DF8073043F07E
:102D000030038DF80730164B586819680DF107032A
:102D10000122C97D0078FFF7BFF8E8B9104B9C7419
:102D2000002002B010BD9DF8073023F020038DF87D
:102D30000730C8E700238DF80730DAE70020704736
:102D40004FF0FF30EDE74FF0FF30EAE74FF0FF3094
:102D5000E7E74FF0FF30E4E74FF0FF30E1E700BF77
:102D6000040000201B4B93F8233083422DD010B574
:102D700082B030B330238DF80730164B9B7C2BB1DB
:102D80009DF8073043F002038DF80730114B93F89C
:102D900022302BB19DF8073063F07F038DF80730A8
:102DA00004460C4B586819680DF107030122C97DD0
:102DB0000078FFF771F850B9064B83F8234002B052
:102DC00010BD00238DF80730D7E7002070474FF083
:102DD000FF30F4E70400002028285FD810B582B047
:102DE0000446B8B90020FFF7BDFF00238DF804307A
:102DF00007238DF805302E4B5868196801AB022265
:102E0000497D0078FFF748F800284AD1284B18750B
:102E100002B010BD0120FFF7A5FF20238DF804307C
:102E2000012C26D0052C2BD9142C30D802238DF858
:102E300005300A20FFF706FE9DF805309B0143F0A0
:102E400007038DF805301A4B5868196801AB022248
:102E5000497D0078FFF720F830BB154B08229A72A5
:102E600000241C7301221A752046FFF797FE2046A6
:102E7000CEE700238DF805300520FFF7E3FDDBE703
:102E800001238DF805300520FFF7DCFDD4E703238F
:102E90008DF805301420FFF7D5FDCDE74FF0FF305A
:102EA00070474FF0FF30B3E74FF0FF30B0E700BF9F
:102EB00004000020264B9B7A002B3FD010B582B037
:102EC0000446234B93F82430002B3AD1204B1B7D32
:102ED00033B1431E9BB2272B0AD90020FFF77CFF9A
:102EE000032C0AD9B4F57A7F08D94FF47A7405E037
:102EF000C0B2FFF771FF00201EE004244FF47A7087
:102F000090FBF4F0013802AB03F8010D104A506851
:102F10001168012249780078FEF7BEFFA0B99DF83C
:102F20000700431C4FF47A7090FBF3F0084BD881F4
:102F30004008FFF787FD002002B010BD4FF0FF30C2
:102F400070474FF0FF30F7E74FF0FF30F4E700BF76
:102F50000400002010B582B0044610F0700F50D06D
:102F600001238DF80730334B586819680DF10703BA
:102F70000122497D0078FEF78FFF00284AD19DF895
:102F8000073003F0BF032B4A137300238DF807307B
:102F900014F0400F02D104238DF8073014F0200FF5
:102FA00005D19DF8073043F002038DF8073014F087
:102FB000100F05D19DF8073043F001038DF807305D
:102FC00014F0080F05D19DF8073043F038038DF851
:102FD0000730184B586819680DF107030122897DE5
:102FE0000078FEF759FFD8B90CB1082C1ED1114B4F
:102FF0009C7200241C75322001F026F9204602B094
:1030000010BD18B100238DF80730ACE740238DF8D0
:103010000730A8E7074B00229A724FF0FF30EEE727
:10302000044B00229A724FF0FF30E8E70020FFF7D0
:1030300099FEDCE70400002010B582B002AB8022CC
:1030400003F8082D614A506811680122497D007813
:10305000FEF722FF002840F09480642001F0F4F88D
:1030600002AB002203F8082D584A5068116801226B
:10307000497D0078FEF710FF002840F08580534B13
:10308000586819686B460622497E0078FEF716FFDD
:1030900000287CD19DF805309B0003F004029DF8C8
:1030A00003305B0003F0020313439DF9012002F09B
:1030B000010213434CD0012B46D0022B6AD1434B63
:1030C0000022DA74414BFF229A721A725A72DA7233
:1030D0004FF6FF71D9811A749A7401221A7383F81A
:1030E0002220002283F823205A751A75C3F816206F
:1030F000C3F81A20C3F81E2083F8242083F8252063
:10310000DA844FF4FA60FFF7C7FB00284BD10420A4
:10311000FFF72CFC002849D12A20FFF793FC002858
:1031200047D1C820FFF7C6FE002845D1FFF736FD7E
:10313000002844D1FFF762FD0446002842D1FFF782
:1031400009FF204602B010BD204B0122DA74B9E716
:103150001E4B586819686B460122C9780078FEF743
:10316000ADFED0B99DF8003013F00F0318D0042B3A
:1031700003D0164B0022DA74A4E7144B0122DA7450
:10318000A0E74FF0FF34DCE74FF0FF34D9E74FF012
:10319000FF34D6E74FF0FF34D3E74FF0FF34D0E7EA
:1031A0004FF0FF34CDE74FF0FF34CAE74FF0FF3464
:1031B000C7E74FF0FF34C4E74FF0FF34C1E74FF0EB
:1031C000FF34BEE74FF0FF34BBE700BF0400002030
:1031D0005AB370B582B016461A4A927A42B3020ABE
:1031E0008DF80420C0B28DF805000844154A5568D2
:1031F0006A8990421FDC0C46124B196801AB02220F
:10320000C97E2878FEF748FEC0B90E4B5868196889
:103210003346E2B2097E0078FEF73EFE10B9002088
:1032200002B070BD4FF0FF30FAE74FF0FF3070474B
:103230004FF0FF30F4E74FF0FF30F1E74FF0FF3091
:10324000EEE700BF040000205AB370B582B0164606
:103250001A4A927A42B3020A8DF80420C0B28DF85D
:1032600005000844154A55686A8990421FDC0C46DF
:10327000124B196801AB0222C97E2878FEF70CFEBA
:10328000C0B90E4B586819683346E2B2097E00781F
:10329000FEF714FE10B9002002B070BD4FF0FF30F1
:1032A000FAE74FF0FF3070474FF0FF30F4E74FF090
:1032B000FF30F1E74FF0FF30EEE700BF04000020E1
:1032C0002DE9F04F87B02A4C94F82540002C3CD1D2
:1032D00000293DD09A46914688460746BC421BD2FB
:1032E0003E1B102EA8BF1026B5B208EB040B5A46A1
:1032F00029462046FFF76CFF68BB02AA29462046F4
:10330000FFF7A2FF50BB2A4602A9584606F0C0FDAF
:1033100038BB2C44A4B2E1E74FEA19238DF80430FE
:103320008DF80590124B5868196801AB0222497F4D
:103330000078FEF7B1FDB8B90D4B012283F82520C6
:10334000A3F826A007B0BDE8F08F4FF0FF30F9E7F3
:103350004FF0FF30F6E74FF0FF30F3E74FF0FF306C
:10336000F0E76FF00100EDE74FF0FF30EAE700BF54
:1033700004000020224B93F8243083423AD030B529
:1033800083B010B31E4B93F82530002B34D00020AF
:10339000FEF7D4FE0020FFF731FC194DE88CFFF753
:1033A00089FD002402AB03F8014D68680122232146
:1033B0000078FEF771FD012085F82400FEF7BEFEBF
:1033C000FFF752F9204603B030BD0020FEF7B6FEED
:1033D0000B4D2A7C02AB03F8012D686801222321E2
:1033E0000078FEF759FD002485F82440FFF73CF9EA
:1033F0002046E8E7002070474FF0FF30E3E700BFCA
:10340000040000202DE9F04188B005460E46394BF6
:1034100093F82470FFB901A8FFF720FA0DF1070017
:10342000FFF782FA6846FFF7EBFA0DF10200FFF7AB
:1034300053FB304B93F80A800DF10600FFF7A6FB13
:103440000024012C0CDC002231462846FEF7C2FE87
:1034500030B10134F5E70020FFF78CFF0127DAE7F0
:10346000022C0CD00024012C07DC012202A905A8A3
:10347000FEF7B0FE08B10134F5E7022C2CD1002292
:1034800031462846FEF7A6FE1A4BFF221A725A72E0
:10349000DA724FF6FF71D9819A721A7401221A7387
:1034A000BDF80400FFF7F8F99DF80700FFF75EFA92
:1034B000BDF80000FFF7C6FABDF80200FFF7FAFCFE
:1034C0004046FFF747FD9DF80600FFF767FB67B929
:1034D000072008B0BDE8F08102A93046FEF75EFD86
:1034E00005A92846FEF7ACFDC9E70120FFF742FF1A
:1034F000EEE700BF0400002038B50446C5784378E5
:1035000013F0010F09D005F03F00C00805F00701D6
:103510000131074B1B6803B19847637813F0080F1C
:1035200004D0034B5B680BB1A8099847002038BD55
:10353000B8040020014B987B704700BFB8040020FE
:1035400008B5C8234FF48062024940F6F630FFF711
:10355000B7FE08BD00C0000810B586B004464C4B4D
:10356000D3F8F82BADF80C20120C8DF80E20D3F800
:10357000FC2BADF80820120C8DF80A20D3F8002C93
:10358000ADF80420120C8DF80620D3F8043CADF8F9
:1035900000301B0C8DF8023000F0030106AB19441B
:1035A00011F80C3C8DF81430C0F3C10206AB1A447C
:1035B00012F80C3C8DF81530C0F3811306A80344B3
:1035C00013F80C0C8DF8160011F8101C8DF8101063
:1035D00012F8102C8DF8112013F8103C8DF81230D1
:1035E00005AA032140F22640FFF7F2FD002842D150
:1035F00004AA032140F22A40FFF7EAFD00283DD14A
:10360000019BADF814301B0C8DF81630009BADF803
:1036100010301B0C8DF8123014F0040F05D0372336
:103620008DF8143027238DF8103014F0200F05D0BA
:1036300057238DF8153047238DF8113014F4807F0F
:1036400005D077238DF8163067238DF8123005AA40
:1036500003214FF48860FFF7BBFD90B904AA032152
:1036600040F23140FFF7B4FD034668B9094A1481BE
:10367000184606B010BD4FF0FF33F9E74FF0FF33A7
:10368000F6E74FF0FF33F3E74FF0FF33F0E700BF0B
:1036900000C00008B80400202DE9F04385B0414B7C
:1036A0001B8903F0030250F82220019213F0040F4B
:1036B00001D052420192C3F3C10250F8222002927B
:1036C00013F0200F01D052420292C3F3811250F83E
:1036D0002220039213F4807F01D052420392019A78
:1036E000D117DFF8C4C0A2FB0C230CFB0133910FF0
:1036F00041EA8301029AD517A2FB0C670CFB057700
:10370000B20F42EA8704039AD717A2FB0C890CFB7D
:1037100007994FEA987242EA89050B0E8DF800303E
:10372000C1F307438DF80130C1F307238DF8023050
:103730008DF803106A4604214FF47470FFF748FDBA
:1037400048BB230E8DF80030C4F307438DF80130D9
:10375000C4F307238DF802308DF803406A46042134
:103760004FF47570FFF734FDC0B92B0E8DF80030A3
:10377000C5F307438DF80130C5F307238DF80230F8
:103780008DF803506A4604214FF47670FFF720FD50
:1037900005B0BDE8F0834FF0FF30F9E74FF0FF30A0
:1037A000F6E700BFB804002009E3CA022DE9F043A0
:1037B00089B004460DF10600FFF7C2F9BDF80620F6
:1037C000510CD3033A4A128902F0030054F8200046
:1037D000059012F0040F01D040420590C2F3C100E1
:1037E00054F82000069012F0200F01D040420690BD
:1037F000C2F3811054F82000079012F4807F01D0AA
:1038000040420790059CE71704FB01F203FB0722E7
:10381000A4FB03451544A60F46EA8506069C4FEA1D
:10382000E47904FB01F203FB0922A4FB03451544E0
:10383000A00F40EA8500079AD51702FB01F103FBB0
:103840000511A2FB03230B44910F41EA8301330EC0
:103850008DF80830C6F307438DF80930C6F3072307
:103860008DF80A308DF80B60030E8DF80C30C0F324
:1038700007438DF80D30C0F307238DF80E308DF817
:103880000F000B0E8DF81030C1F307438DF8113087
:10389000C1F307238DF812308DF8131002AA0C2102
:1038A0004FF42570FFF794FC09B0BDE8F08300BF2A
:1038B000B804002010B586B00446174A07CA06AB04
:1038C00003E90700C82C1DD8C82393FBF4F3013B80
:1038D0009BB21A0A8DF804208DF8053001AA022146
:1038E00040F21620FFF774FC78B903AA0C2140F6C9
:1038F000C120FFF76DFC034650B9084A9481184671
:1039000006B010BD4FF0FF33F9E74FF0FF33F6E795
:103910004FF0FF33F3E700BF08CC0008B8040020E5
:1039200010F0070F00F0B380B1F5C86F00F2B2805D
:1039300070B582B004460846FDF75CF95D49FDF7B5
:1039400065FA05460DF10300FEF7EEFF9DF8033022
:10395000023B0E2B00F2A280DFE803F008A02EA0AD
:10396000A0A03EA0A0A0A0A0A0A04E004FF08D411E
:103970002846FDF797F9FDF781FB86B24E492846A8
:10398000FDF790F9FDF77AFB80B2330A8DF8043029
:103990008DF80560030A8DF806308DF8070014F0E5
:1039A000010F39D114F0020F4AD114F0040F5AD18B
:1039B0000023184602B070BD4FF08C412846FDF739
:1039C00071F9FDF75BFB86B23C492846FDF76AF9C1
:1039D000FDF754FB80B2D8E74FF08B412846FDF746
:1039E00061F9FDF74BFB86B235492846FDF75AF9D8
:1039F000FDF744FB80B2C8E74FF08A412846FDF747
:103A000051F9FDF73BFB86B22E492846FDF74AF9EE
:103A1000FDF734FB80B2B8E701AA02214FF4EA7047
:103A2000FFF7D6FB00283CD10DF1060202214FF42E
:103A30009270FFF7CDFB0028B4D04FF0FF33B8E70A
:103A400001AA02214FF4EC70FFF7C2FB60BB0DF13D
:103A5000060202214FF49470FFF7BAFB0028A4D0AD
:103A60004FF0FF33A5E701AA02214FF4EE70FFF7F4
:103A7000AFFBE0B90DF1060202214FF49670FFF79B
:103A8000A7FB0346002894D04FF0FF3391E74FF097
:103A9000FF3301E04FF0FF33184670474FF0FF331C
:103AA00087E74FF0FF3384E74FF0FF3381E74FF0B4
:103AB000FF337EE700004843000040460000C04559
:103AC000000040450000C04400B583B000238DF8DD
:103AD000073010F0010F02D030238DF8073010F0BE
:103AE000020F05D09DF8073043F00C038DF8073026
:103AF00010F0040F05D09DF8073043F003038DF854
:103B000007300DF1070201214FF4A470FFF760FBAD
:103B100003B05DF804FB00B583B020B10346042870
:103B200002D9042300E00123013B02AA02F8013D6F
:103B3000012140F24F10FFF74BFB03B05DF804FB8F
:103B400000B583B0084BA3FB00308008030A8DF852
:103B500004308DF8050001AA02214FF4EF70FFF741
:103B600037FB03B05DF804FBCDCCCCCC00B583B003
:103B7000084BA3FB00308008030A8DF804308DF851
:103B8000050001AA02214FF4ED70FFF721FB03B0FD
:103B90005DF804FBCDCCCCCC00B583B00E4B83FBE1
:103BA0000023C017C0EBA31001FB00F10B0E8DF832
:103BB0000430C1F307438DF80530C1F307238DF8B6
:103BC00006308DF8071001AA04214FF4AE70FFF7FC
:103BD000FFFA03B05DF804FBD34D621000B583B06B
:103BE000084BA3FB00308008030A8DF804308DF8E1
:103BF000050001AA02214FF4AD70FFF7E9FA03B006
:103C00005DF804FBCDCCCCCC00B583B0084BA3FB56
:103C100000308008030A8DF804308DF8050001AAF1
:103C200002214FF4AC70FFF7D3FA03B05DF804FB48
:103C3000CDCCCCCC00B585B068B901AB0C4A07CA75
:103C400003C31A7001AA09214FF49760FFF7C0FA65
:103C500005B05DF804FB01AB064A07CA03C31A703E
:103C600001AA09214FF49760FFF7B2FAF0E700BF0D
:103C700020CC000814CC000800B583B0B0B1C0233C
:103C80008DF80430C2238DF80530C4238DF806303A
:103C9000C6238DF8073001AA042140F69820FFF7CB
:103CA00097FAFEF7E1FC03B05DF804FB4FF08B33AD
:103CB0000193F0E700B583B0B0B120238DF8043054
:103CC00028238DF8053030238DF8063038238DF801
:103CD000073001AA042140F69E20FFF779FAFEF78B
:103CE000C3FC03B05DF804FB4FF0A3330193F0E78E
:103CF0002DE9F04184B0044602238DF80430CA2334
:103D00008DF80530E3238DF8063009238DF8073050
:103D100001AA04216820FFF75BFAA3238DF8043081
:103D200014F0400800F0B080C0238DF80530C8239F
:103D30008DF80630C2238DF8073014F4C07500F0FA
:103D4000AB80C4238DF80830CC238DF80930C6230E
:103D50008DF80A30A3238DF80B308DF80C308DF8D8
:103D60000D3001AA0A2140F6A720FFF731FA14F01E
:103D7000030700F0998020238DF8043001AA012167
:103D800040F6B620FFF724FA14F0200F00F09080E0
:103D90000120FFF74FFFADB114F4807F00F08C805D
:103DA000B2238DF804308B238DF80530B6238DF8BF
:103DB00006309B238DF8073001AA042140F6A2208B
:103DC000FFF706FA14F0010F00F0838004AAF8232D
:103DD00002F80C3D01214FF40B60FFF7F9F9FA21CD
:103DE0000720FFF79DFD0720FFF76EFE0120FFF77C
:103DF00092FE6420FFF7A4FE4FF4FA70FFF7B6FEC0
:103E0000C8213F48FFF7C8FE2820FFF7E7FE0A2039
:103E1000FFF7FAFE14F0020F65D0D9238DF80430B5
:103E200001AA012140F23D70FFF7D2F914F0040F0E
:103E30005DD00120FFF720FF14F0100F5BD00120B0
:103E4000FFF738FF2F4E44F008037381FEF70CFC98
:103E50000023B373B8F1000F01D00622B2731DB175
:103E6000284A937B0633937314F0140F03D0254A2A
:103E7000937B103393731FB1224A937B0433937364
:103E8000002004B0BDE8F081A3238DF805308DF843
:103E900006308DF8073050E7A3238DF808308DF8F1
:103EA00009308DF80A3055E7D8238DF8043065E7DE
:103EB0000020FFF7BFFE6EE7B0238DF804308023AB
:103EC0008DF80530B4238DF8063090238DF8073037
:103ED00072E704AAD82302F80C3D01214FF40B60CD
:103EE000FFF776F996E7D8238DF8043098E700209D
:103EF000FFF7C2FEA0E70020FFF7DCFEA2E700BF4D
:103F000009E3CA02B80400202DE9F843DDF820C017
:103F10000A9C0025ACF80050524D6F8917F0140F21
:103F200058D0257894F801E04FEA0E4E4EEA056E1F
:103F3000A5784EEA052EE5784EEA050EC2F800E0B7
:103F4000257994F805804FEA084848EA0568A5797C
:103F500048EA0528E57948EA0508C2F80480257A88
:103F6000667A360446EA0566A57A46EA0526E57AC3
:103F70002E43966094F80C90657B2D0445EA096504
:103F800094F80E9045EA092594F80F9045EA090542
:103F9000D5604FEA2E4E4FEA284836142A1408FB03
:103FA00008F80EFB0E8E06FB06E602FB026202F12B
:103FB0007142B2F1007F07D8BCF8002042F4807251
:103FC000ACF80020102206E00023ACF800304FF0DF
:103FD000FF3040E0002217F0400F19D014F802E043
:103FE000A5186E7846EA0E260E8095F802E0EE7867
:103FF00046EA0E264E802E796D7945EA06258D809B
:104000000632D2B2BCF8001041F00801ACF8001042
:1040100017F4C07F17D0A65CA1184D7845EA062595
:1040200005808E78CD7845EA062545800D79497959
:1040300041EA052181800632D2B2BCF8001041F07D
:104040007001ACF800101D4617F0030F05D100F009
:10405000F5F828600020BDE8F883A018FFF74CFAB7
:10406000F5E700BFB804002090F90030002B01DD17
:10407000002070470FDB90F90130002B01DD01209B
:1040800070470ADB90F90230002B08DC01DB0720C7
:1040900070470620704704207047052070470220B3
:1040A000704738B50546FFF7DFFF0446E81CFFF709
:1040B000DBFF44EAC00424B2A81DFFF7D5FF44EAA1
:1040C000801080B238BD10B588B002A905A8FFF7EE
:1040D00099F9072801D008B010BD01A8FEF70AFD24
:1040E000019C0598FCF78AFD2146FCF7DBFDFCF7F7
:1040F0009FFF05900698FCF781FD2146FCF7D2FD55
:10410000FCF796FF06900798FCF778FD2146FCF730
:10411000C9FDFCF78DFF079005A8FFF7BDFA0DF16B
:104120000200FEF70DFDBDF80230029A03FB02F219
:104130000292039A03FB02F20392049A03FB02F336
:10414000049302A8FFF732FBC5E7000010B5044C4A
:104150002346012275216820FDF7B0FE207810BDAE
:10416000942E002008B5FFF7F1FF682804D1002045
:10417000FEF762FF68B108BDBFF34F8F1349CA68ED
:1041800002F4E062124B1343CB60BFF34F8F00BFCA
:10419000FDE77820FEF7DEFE7820FEF7FFFCC82062
:1041A000FEF788FEFFF7CCF90A48FFF77AFFFFF722
:1041B000D3F940F27310FFF79BFDC820FFF77AFB9D
:1041C000FFF781FF0120FFF7D5F8D4E700ED00E00D
:1041D0000400FA053000002010B586B00C460290AD
:1041E0000DF11303019301F10C03009305AB01F1F1
:1041F000100206312046FFF787FE06B010BD000012
:1042000008B5074A136843F010031360032000F059
:104210002FF80020FDF742FDFDF732FC002008BD1D
:1042200000200240034A1168034B1B780B441360C3
:10423000704700BF302F002040000020014B18685D
:10424000704700BF302F002038B50446FFF7F6FF57
:104250000546B4F1FF3F02D0044B1B781C44FFF726
:10426000EDFF401BA042FAD338BD00BF4000002044
:10427000074AD36823F4E0631B041B0C000200F41C
:10428000E060184340F0BF6040F40030D0607047F9
:1042900000ED00E030B4174BDB68C3F30223C3F139
:1042A0000704042C28BF04241D1D062D18D9033B28
:1042B0004FF0FF3505FA04F421EA0401994005FAAC
:1042C00003F322EA0303194300280BDB0901C9B2F7
:1042D00000F1604000F5614080F8001330BC704789
:1042E0000023E5E700F00F000901C9B2024B1954A1
:1042F000F4E700BF00ED00E014ED00E000F01F0265
:10430000400901239340024A42F82030704700BF21
:1043100000E100E00138B0F1807F0AD2064B58601E
:10432000064AF02182F823100020986007221A60C4
:1043300070470120704700BF10E000E000ED00E092
:10434000042805D0054A136823F00403136070475E
:10435000024A136843F004031360704710E000E062
:1043600070B4066CC56B0124B4406C600468636073
:104370004368102B05D0036899600368DA6070BC4D
:10438000704703689A600368D960F8E7002830D066
:1043900010B403460168184A0A441848A0FB0202F8
:1043A000120992001A64164ADA63022283F8212065
:1043B000086820F47F5020F030005A689C6822433F
:1043C000DC6822431C6922435C6922439C692243C6
:1043D000DC69224302430A6000209862D8621863B5
:1043E00058639863012283F8212083F8200010BCD1
:1043F00070470120704700BFF8FFFDBFCDCCCCCC8B
:104400000000024038B590F82040012C32D0012441
:1044100080F8204090F82140012C04D0002380F83F
:104420002030022038BD0446022084F821000020FC
:10443000A0632568286820F0010028602046FFF767
:104440008FFFE36A5BB12268136843F00E031360C9
:104450002268136843F0010313600020E2E722683A
:10446000136823F0040313602268136843F00A03FF
:104470001360EDE70220D5E708B590F82130022B54
:1044800003D004238363012008BD0268136823F06E
:104490000E0313600268136823F0010313600368BE
:1044A000194A934214D0143293421FD014329342CB
:1044B0001ED0143293421ED0143293421ED01432B6
:1044C000934202D04FF0807203E04FF4801200E07C
:1044D00001220E4B5A60012380F82130002380F81E
:1044E0002030436B6BB198470020CDE71022F0E7F6
:1044F0004FF48072EDE74FF48052EAE74FF48032D8
:10450000E7E70020C0E700BF0800024000000240CB
:1045100038B5C36B1A6804682568016C04238B40A6
:10452000134235D015F0040F32D0236813F0200F5A
:1045300003D1236823F0040323600368434A9342B2
:1045400014D01432934218D01432934217D014323C
:10455000934217D01432934217D01432934202D0B0
:104560004FF0806203E04FF4800200E00422384BF9
:104570005A60C36A03B1984738BD4022F7E74FF449
:104580008062F4E74FF48042F1E74FF48022EEE7D7
:1045900002238B4013423CD015F0020F39D0236820
:1045A00013F0200F06D1236823F00A0323600123B0
:1045B00080F821300368254A934214D01432934284
:1045C0001CD0143293421BD0143293421BD01432AD
:1045D00093421BD01432934202D04FF0007203E09A
:1045E0004FF4001200E00222194B5A60002380F8B9
:1045F0002030836A002BBFD09847BDE72022F3E725
:104600004FF40072F0E74FF40052EDE74FF4003240
:10461000EAE7082303FA01F11142ADD015F0080FC3
:10462000AAD0236823F00E032360026CC16B012320
:1046300003FA02F24A60836380F82130002380F895
:104640002030036B002B97D0984795E70800024075
:1046500000000240F0B482B000263546A1E0002CF4
:1046600059D0012C00D1CE68FF2B68D88446FF2B8F
:1046700068D8AC00DCF800200F27A74022EA070228
:1046800006FA04F42243CCF800204A6812F0805F56
:1046900000F086805E4A946944F001049461926956
:1046A00002F001020192019AAC08A71C594A52F883
:1046B000272005F00307BF004FF00F0C0CFA07FC92
:1046C00022EA0C0C544A904242D002F58062904299
:1046D0007FD002F5806290427DD002F580629042E8
:1046E00034D0042235E04D4FBC4214D00BD94C4F8E
:1046F000BC4210D007F58037BC420CD0A7F580171C
:10470000BC42B1D107E0A7F58017BC4203D007F542
:104710008037BC42A8D18C687CB1012C08D04261A2
:104720000826A1E7CE6808369EE7CE680C369BE7E0
:104730000261082698E7002696E7042694E700F130
:10474000040C94E7A5F10804A40093E7032200E019
:104750000022BA4042EA0C0202342E4F47F82420CD
:104760004A6812F4803F38D02E4C22681A432260E7
:104770004A6812F4003F36D02A4C62681A436260DD
:104780004A6812F4801F34D0264CA2681A43A260F3
:104790004A6812F4001F32D0224CE2681343E360EF
:1047A00001350F2D31D80122AA400B6813409A42DF
:1047B000F6D14C68122CB8D095D8022CB2D07FF626
:1047C0004EAF032CB7D0112C7FF44EAFCE68043619
:1047D0004AE70122BDE70222BBE7124C226822EA27
:1047E00003022260C4E70F4C626822EA030262609F
:1047F000C6E70C4CA26822EA0302A260C8E7094C93
:10480000E26822EA0303E360CAE702B0F0BC704743
:10481000001002400000014000080140000021108B
:10482000000031100004014012B909040161704711
:1048300001617047C3685940C160704708B5054BB6
:104840005B69034200D108BD024B5861FCF7E4FEEE
:10485000F9E700BF0004014003685A6912F4806F51
:104860000DD06FF480625A61042303640023036354
:10487000202280F83D2080F83C3001207047002045
:104880007047F8B506460C4617461D461EE02DB18A
:10489000FFF7D4FC069BC01AA84217D90023336344
:1048A000202286F83D2086F83E3086F83C300320F2
:1048B0001AE033685B6924EA03039BB2B3FA83F31B
:1048C0005B099F420FD1B5F1FF3FE0D1C4F307432D
:1048D000012BEED033689B6924EA03039BB2B3FA41
:1048E00083F35B09EDE70020F8BDF8B504460D46FB
:1048F00016461F4632E01A6842F400721A602368B6
:104900006FF480625A61042323640023236320220E
:1049100084F83D2084F83C3001202DE026B1FFF7DB
:104920008DFCC01BB04219D900232363202284F8D8
:104930003D2084F83C3003201EE023685B6925EAB3
:1049400003039BB2003318BF0123A3B123685A6944
:1049500012F4806FCFD1B6F1FF3FDFD1C5F307432B
:10496000012BEAD023689B6925EA03039BB200333D
:1049700018BF0123E9E70020F8BD70B504460D46D5
:10498000164623685B6913F0800F19D12046FFF7A4
:1049900063FFB8B9B5F1FF3FF3D025B1FFF74EFC87
:1049A000801BA842EDD9236C43F02003236400232D
:1049B0002363202284F83D2084F83C30032000E06B
:1049C000002070BD0120FCE72DE9F04184B00446D1
:1049D0000E46174698460B9D0268136843F4807391
:1049E000136000950A9B00224FF00111FFF749FF69
:1049F000002847D1236806F0FE061E612B460A9A5E
:104A000026492046FFF771FF20B1236C042B3ED1CD
:104A1000012338E00023039323685A6903929B69BA
:104A20000393039B2A460A992046FFF7A6FF0346F5
:104A300048B1236C042B2CD12268136843F4007313
:104A4000136001231FE0B8F1010F13D023683A0A65
:104A50001A612A460A992046FFF78FFF034668B17C
:104A6000236C042B17D12268136843F4007313607E
:104A7000012308E02268FFB2176104E02268FFB258
:104A8000176100E00323184604B0BDE8F08103235A
:104A9000F9E70323F7E70323F5E700BF020001006E
:104AA0002DE9F04184B004460E46174698460B9D0A
:104AB0000268136843F4806313600268136843F468
:104AC0008073136000950A9B00224FF00111FFF7DD
:104AD000D8FE002874D1F6B2236806F0FE021A61EF
:104AE0002B460A9A3F492046FFF7FFFE20B1236C70
:104AF000042B6AD1012364E00023039323685A69DD
:104B000003929B690393039B2A460A992046FFF769
:104B100034FF48B1236C042B59D12268136843F445
:104B20000073136001234CE0B8F1010F12D1236828
:104B3000FFB21F612A460A992046FFF71EFF00B305
:104B4000236C042B47D12268136843F4007313606D
:104B5000012336E023683A0A1A612A460A99204658
:104B6000FFF70BFF48B1236C042B32D12268136886
:104B700043F400731360012323E02368FFB21F6135
:104B8000D8E72268136843F48073136000950A9B8A
:104B900000224FF001112046FFF773FEE8B92368A9
:104BA00046F001061E612B460A9A0E492046FFF781
:104BB0009CFE034628B1236C042B10D1012300E096
:104BC0000323184604B0BDE8F0810323F9E703236B
:104BD000F7E70323F5E70323F3E70323F1E70323D1
:104BE000EFE700BF0200010070B504460D4616460F
:104BF00023685B6913F0040F19D12046FFF72CFEE0
:104C0000B8B9B5F1FF3FF3D025B1FFF717FB801B13
:104C1000A842EDD9236C43F02003236400232363CF
:104C2000202284F83D2084F83C30032000E000205E
:104C300070BD0120FCE770B505460C4616462B6892
:104C40005A6912F0400F22D15A6912F0100F11D197
:104C500024B1FFF7F3FA801BA042F0D92B6C43F08C
:104C600020032B64202385F83D30002385F83C3059
:104C7000032070BD6FF010025A6100232B642B6378
:104C8000202285F83D2085F83C300120F1E7002006
:104C9000EFE70000002800F0A28038B5044690F845
:104CA0003D30002B4FD0242384F83D302268136818
:104CB00023F00103136001F087FB62684A4B9A42BC
:104CC00046D84A4B98428CBF00230123002B40F06A
:104CD0008880474BA3FB00239B0C226853606168CC
:104CE000414A91423AD801332268136261683E4BCF
:104CF00099423DD8431E4900B3FBF1F30133C3F39E
:104D00000B03042B38BF04232268D361E369216AB3
:104D100022680B4313602369E16822680B439360A8
:104D20006369A16922680B43D3602268136843F06A
:104D30000103136000202064202384F83D302063A9
:104D400084F83E0038BD80F83C30FCF7E9FEAAE765
:104D5000284B98428CBF00230123B7E74FF496728B
:104D600002FB03F3244AA2FB03239B090133BBE7A5
:104D7000A368BBB9421E01EB4105B2FBF5F201325B
:104D8000C2F30B02B2FA82F2520932BBC3B9013844
:104D900001EB4103B0FBF3F30133C3F30B0343F423
:104DA0000043B1E7421E01EB810505EB8505B2FB2F
:104DB000F5F20132C2F30B02B2FA82F25209E4E7D1
:104DC000013801EB810303EB8303B0FBF3F3013301
:104DD000C3F30B0343F4404396E7012394E7012018
:104DE00070470120AEE700BFA08601007F841E004F
:104DF00083DE1B43FF083D00D34D62102DE9F041D7
:104E000082B004460E4617469846FFF717FA94F804
:104E10003D30DBB2202B04D00223184602B0BDE89F
:104E2000F081054600901923012251492046FFF7E1
:104E300028FD002840F0938094F83C30012B00F0CE
:104E40009080012384F83C3023681A6812F0010F27
:104E500003D11A6842F001021A602268136823F431
:104E600000631360212384F83D30402384F83E30F2
:104E700000232364089B6362BDF8243063853D4BA7
:104E8000E362638D238501950A9B009343463A466E
:104E900031462046FFF798FDB0B1236C042B04D1B6
:104EA000002384F83C300123B7E7002384F83C302A
:104EB0000323B2E7236C042B55D12268136843F413
:104EC000007313600123A8E7238D002B28D02A4606
:104ED0000A992046FFF751FD0028EBD1636A5A1C5E
:104EE000626222681B781361238D013B9BB223858C
:104EF000628D013A92B262852268516911F0040F05
:104F0000E2D0002BE0D0636A591C61621B78136108
:104F1000238D013B2385638D013B9BB26385D3E7E2
:104F20002A460A992046FFF75FFE034648B1236CE4
:104F3000042B1AD12268136843F400731360012311
:104F40006BE721680A6842F400720A60202284F844
:104F50003D20002284F83E2084F83C205DE70223B7
:104F60005BE7022359E7032357E7032355E700BF15
:104F7000020010000000FFFF2DE9F04186B004465A
:104F80000E4617469846FFF759F994F83D30DBB2C4
:104F9000202B04D00226304606B0BDE8F08105463D
:104FA00000901923012291492046FFF76AFC00284E
:104FB00040F0578194F83C30012B00F054810123DC
:104FC00084F83C3023681A6812F0010F03D11A6884
:104FD00042F001021A602268136823F40063136030
:104FE000222384F83D30402384F83E30002323649C
:104FF0000C9B6362BDF8343063857D4BE362638D47
:10500000238501950E9B009343463A463146204640
:10501000FFF746FD064660B1236C042B04D1002344
:1050200084F83C300126B6E7002384F83C300326A0
:10503000B1E7238D5BB9029323685A6902929A699A
:105040000292029A1A6842F400721A607FE0012B01
:105050000FD0022B21D02268136843F480631360C1
:105060000023059323685A6905929B690593059B64
:105070006DE02268136823F48063136072B6002326
:10508000039323685A6903929A690392039A1A68F0
:1050900042F400721A6062B659E02268136843F461
:1050A0000063136072B60023049323685A69049264
:1050B0009A690492049A1A6822F480621A6062B6AD
:1050C00045E02A460E992046FFF7B5FD68B92368EA
:1050D0001A69636A591C61621A70238D013B23852A
:1050E000638D013B9BB2638531E0236C202B01D0A3
:1050F000012650E703264EE700950E9B00223D490E
:105100002046FFF7BEFB002840F0AF8072B6226851
:10511000136843F40073136023681A69636A591CA7
:1051200061621A70238D013B2385638D013B9BB225
:10513000638562B623681A69636A591C61621A70D2
:10514000238D013B2385638D013B9BB26385238DBA
:10515000002B7DD0032B4FD8012BB2D0022BCBD00C
:1051600000950E9B002223492046FFF78AFB00286A
:105170007DD12268136823F48063136072B62368BC
:105180001A69636A591C61621A70238D013B238579
:10519000638D013B9BB2638500950E9B00221549F0
:1051A0002046FFF76EFB002863D12268136843F4A2
:1051B0000073136023681A69636A591C61621A706C
:1051C000238D013B2385638D013B9BB2638562B6D2
:1051D00023681A69636A591C61621A70238D013B46
:1051E0002385638D013B9BB26385B0E7020010000D
:1051F0000000FFFF040001002A460E992046FFF739
:105200001AFDF0B923681A69636A591C61621A7041
:10521000238D013B2385638D013B9BB2638523680E
:105220005A6912F0040F92D01A69636A591C6162BC
:105230001A70238D013B2385638D013B9BB26385EF
:1052400085E7236C202B01D00126A4E60326A2E6E5
:10525000202384F83D30002384F83E3084F83C302D
:1052600099E6022697E6022695E6032693E60326AC
:1052700091E603268FE600BF2DE9F04387B0044690
:105280000E4617469846BDF83C5000230593FEF79E
:10529000D5FF94F83D30DBB2202B40F0BB80814637
:1052A000604B1B68DB08604AA2FB03231B0A03EB6D
:1052B000830303EB83030593059B5A1E0592002B82
:1052C0004FD023689A6912F0020FF5D194F83C2070
:1052D000012A00F0A480012284F83C201A6812F010
:1052E000010F03D11A6842F001021A6022681368A4
:1052F00023F400631360222384F83D30402384F8B4
:105300003E30002323640E9B63626585474BE36256
:10531000638D9BB22385002B51D0A36B444A9A62C4
:10532000A36B444A1A63A36B00225A632168238D3E
:10533000626A1031A06BFFF765F8CDF80490232363
:10534000009343463A4631462046FFF7A9FB034601
:10535000A0B1236C042B0CD1002384F83C30012332
:1053600059E02363202284F83D2084F83C30032355
:1053700051E0002384F83C3003234CE0012D18D089
:1053800021684A6842F480524A60002103912268F1
:105390005069039090690390039884F83C10516819
:1053A00041F48071516021684A6842F400624A60A9
:1053B00031E021680A6822F480620A60E5E7CDF8EE
:1053C00004902323009343463A4631462046FFF794
:1053D00067FB034660B1236C042B04D1002384F8DF
:1053E0003C30012317E0002384F83C30032312E013
:1053F00000200490226851690491916904910499F4
:10540000116841F400711160202284F83D2084F875
:105410003C0000E00223184607B0BDE8F0830223F9
:10542000F9E700BF0000002089B5F8140000FFFF75
:10543000675400083D5400087047704708B5406A3B
:105440000268136823F480631360002343852022DD
:1054500080F83D2080F83E30036C43F01003036475
:10546000FFF7EBFF08BD08B5406A90F83D30DBB2AE
:1054700090F83E20212B2AD0D2B2222B25D00268D0
:10548000136823F4806313600268136843F40073A5
:1054900013600268536823F48053536002685368B2
:1054A00023F40063536000234385036CE3B9202396
:1054B00080F83D3090F83E30DBB2402B17D000230F
:1054C00080F83E30FFF7B8FF0DE0202AD7D1026800
:1054D000536823F4006353600023438502685368D4
:1054E00043F44073536008BDFFF7A7FFFBE70023B9
:1054F00080F83E30FCF77AF8F5E7002866D0F0B582
:1055000087B0044690F82934C3B1032384F82934C2
:10551000206801F082FD254655F8107B6E460FCDC0
:105520000FC62B683360231D0ECB384601F066FD95
:105530000021206801F07BFD002315E080F828346D
:1055400004F0F2FAE1E704EB4312012182F829109A
:1055500082F828309386002182F82B109163D16362
:105560009A1C5201A15001330E2BECD9002312E0FA
:1055700004EB4312002182F8291282F82832938624
:1055800082F82B12C2F83812C2F83C1203F1120250
:105590005201A15001330E2BEAD9254655F8107B54
:1055A0006E460FCD0FC62B683360231D0ECB3846D9
:1055B00001F03FFD002584F82450012384F82934AC
:1055C000206802F04AF8284607B0F0BD0120704775
:1055D00090F82834012B10D010B50446012180F832
:1055E000281404F0E0FB206802F035F8206801F090
:1055F0000CFD002084F8280410BD0220704790F8AC
:105600002834012B0DD010B50446012380F828342E
:1056100080F82410006802F018F8002084F82804AC
:1056200010BD0220704738B54DB2002D1CDB01F0D3
:105630007F04640104F50A74044401F07F012170C1
:10564000ED0F65702261E37090F82834012B11D0C2
:105650000546012380F828342146006801F0FFFC4C
:10566000002085F8280438BD01F07F046401283447
:105670000444E2E70220F6E74AB2002A1BDB01F00D
:105680007F035B0103F50A73034401F07F01197086
:10569000D20F5A7090F82824012A12D010B504466F
:1056A000012280F828241946006801F06CFE0020D1
:1056B00084F8280410BD01F07F035B012833034404
:1056C000E3E70220704770B501F07F056C0104F537
:1056D0000A7101440444C4F83C2205F1120252014B
:1056E000861883500023736084F8293284F8285286
:1056F00025B1006801F0CDFF002070BD006801F009
:10570000C8FFF9E701F00F01123100EB4111888861
:10571000704770B501F07F056C0104F12801014468
:105720000444E263AA1C520186188350002373606C
:10573000012384F8293084F8285025B1006801F04D
:10574000A8FF002070BD006801F0A3FFF9E770B565
:1057500082B004460023ADF80630ADF8043020686E
:10576000B0F844309BB2ADF8063013F4004F00F0AF
:105770000D82BDF8065015F00F0540F0C280BDF84F
:10578000063013F0100F50D003889BB2ADF80430F0
:10579000BDF8043013F4006F79D1BDF8043013F470
:1057A000004FDCD0038823F070031B051B0D038022
:1057B0002068B0F8503094F8282203EBC203063377
:1057C00000EB4303D3F80034C3F30903C4F84432B5
:1057D000002B7CD10021204604F0CEF92368B3F8D9
:1057E0005020063203EB4203D4F838123E297CD90C
:1057F000C1F34F1211F01F0F01D1013A92B26FEABB
:10580000C2626FEA524292B2C3F80024226813883F
:105810009BB223F4804323F0700383F4405343F49A
:10582000004343F08003138099E703889BB223F47D
:10583000E14323F070039BB203802268B2F850303A
:1058400094F8281003EBC103023302EB4303D3F8AF
:105850000034C3F309036364E26B1344E363002180
:10586000204604F093F994F82430002B3FF477AFEE
:10587000236C002B7FF473AF94F82430226843F03C
:105880008003A2F84C30002384F8243067E7B0F896
:10589000503094F8282203EBC203063300EB430395
:1058A000D3F80034C3F30903C4F84432B4F82C220B
:1058B00004F22C4102F04AF82268138823F07003A6
:1058C0001B051B0D1380204604F04EF947E7B4F882
:1058D0002C22D4F83C1202F039F8D4F84422D4F83F
:1058E0003C321344C4F83C3274E7C1F34F0211F068
:1058F000010F01D0013292B2920292B2C3F8002499
:1059000084E730F825309BB2ADF80430BDF80430A0
:1059100013F4004F35D1BDF8043013F0800F3FF47D
:105920001EAF226832F825309BB223F4E14323F006
:1059300070039BB222F8253004EB451393F8323004
:10594000002B40F0B2802068B0F8503004EB4512D4
:1059500092F8282003EBC203023300EB4303D3F891
:105960000034C3F30903AA1C04EB42125360002B5A
:1059700000F0C68004EB45118A8DC96B01F074FEFE
:10598000BEE030F8253023F070031B051B0D20F816
:10599000253004EB451393F83232D3B92068B0F8C0
:1059A000503004EB451292F8282203EBC203063371
:1059B00000EB4303B3F80064C6F3090686B304EBB7
:1059C00045113346B1F82C22D1F83C1201F0BEFF4C
:1059D00026E0206804EB451393F8282230F82230A3
:1059E00013F4804F42D0B0F8503003EBC2030233BF
:1059F00000EB4303B3F80064C6F3090666BB2268F4
:105A000004EB451393F8281232F8213023F0F00309
:105A10001B051B0D43F4004343F0C00322F8213063
:105A200005F112035B01E1184A6832444A6004EB55
:105A30004511D1F83C223244C1F83C22E3581BB155
:105A4000D1F838128E4228D204EB451393F828126D
:105A5000204604F091F85EE704EB45113346B1F8B7
:105A60002E22D1F83C1201F071FFC8E7B0F8503097
:105A700003EBC203063300EB4303B3F80064C6F341
:105A80000906002EBBD004EB45113346B1F8302295
:105A9000D1F83C1201F05AFFB1E704EB451191F83F
:105AA00028122046FFF70FFE35E7206804EB451368
:105AB00093F8282030F8223013F0400F46D0B0F889
:105AC000503003EBC203023300EB4303D3F800343E
:105AD000C3F30903AA1C04EB421253607BBB226888
