:020000040800F2
:1000000000500020FD520008ED0D0008EF0D000823
:10001000F10D0008F30D0008F50D000800000000C8
:10002000000000000000000000000000414B00083C
:10003000F70D000800000000E14B0008F90D000872
:100040004553000845530008455300084553000830
:100050004553000845530008455300084553000820
:100060004553000845530008455300084553000810
:100070004553000845530008455300084553000800
:1000800045530008455300084553000845530008F0
:10009000010E000845530008455300084553000869
:1000A00045530008455300084553000845530008D0
:1000B0004553000845530008110E00084553000839
:1000C00045530008455300084553000845530008B0
:1000D00045530008455300084553000845530008A0
:1000E000210E000845530008455300080000000099
:1000F0000000000000000000000000000000000000
:0C01000000000000000000005FF808F1A3
:1001100010B5054C237833B9044B13B10448AFF341
:1001200000800123237010BDD801002000000000D2
:10013000E067000808B5034B1BB103490348AFF360
:10014000008008BD00000000DC010020E06700081E
:10015000034613F8012B002AFBD1181A0138704707
:1001600080F0004002E000BF81F0004142001FBF6C
:100170005FEA410392EA030F7FEA226C7FEA236C75
:100180006AD04FEA1262D2EB1363C1BFD21841406A
:1001900048404140B8BF5B42192B88BF704710F000
:1001A000004F40F4000020F07F4018BF404211F0A3
:1001B000004F41F4000121F07F4118BF494292EA0B
:1001C000030F3FD0A2F1010241FA03FC10EB0C0037
:1001D000C3F1200301FA03F100F0004302D54942C4
:1001E00060EB4000B0F5000F13D3B0F1807F06D371
:1001F00040084FEA310102F10102FE2A51D2B1F169
:10020000004F40EBC25008BF20F0010040EA03005D
:100210007047490040EB000010F4000FA2F101020A
:10022000EDD1B0FA80FCACF1080CB2EB0C0200FA94
:100230000CF0AABF00EBC25052421843BCBFD040E2
:100240001843704792F0000F81F4000106BF80F45C
:1002500000000132013BB5E74FEA41037FEA226C1F
:1002600018BF7FEA236C21D092EA030F04D092F0EA
:10027000000F08BF0846704790EA010F1CBF00201E
:10028000704712F07F4F04D1400028BF40F000407B
:10029000704712F100723CBF00F50000704700F09B
:1002A000004343F0FE4040F4000070477FEA2262C2
:1002B00016BF08467FEA23630146420206BF5FEA93
:1002C000412390EA010F40F4800070474FF0000393
:1002D00004E000BF10F0004348BF40425FEA000C5A
:1002E00008BF704743F0964301464FF000001CE002
:1002F00050EA010208BF70474FF000030AE000BF58
:1003000050EA010208BF704711F0004302D5404295
:1003100061EB41015FEA010C02BF84460146002007
:1003200043F0B64308BFA3F18053A3F50003BCFA22
:100330008CF2083AA3EBC25310DB01FA02FC6344CF
:1003400000FA02FCC2F12002BCF1004F20FA02F2D6
:1003500043EB020008BF20F00100704702F12002C9
:1003600001FA02FCC2F1200250EA4C0021FA02F22A
:1003700043EB020008BF20EADC7070474FF0FF0C2F
:100380001CEAD0521EBF1CEAD15392EA0C0F93EA2A
:100390000C0F6FD01A4480EA010C400218BF5FEACC
:1003A00041211ED04FF0006343EA501043EA51113F
:1003B000A0FB01310CF00040B1F5000F3EBF490039
:1003C00041EAD3715B0040EA010062F17F02FD2A3D
:1003D0001DD8B3F1004F40EBC25008BF20F0010020
:1003E000704790F0000F0CF0004C08BF49024CEA37
:1003F000502040EA51207F3AC2BFD2F1FF0340EAC9
:10040000C250704740F400004FF00003013A5DDC39
:1004100012F1190FDCBF00F000407047C2F100027A
:10042000410021FA02F1C2F1200200FA02FC5FEA67
:10043000310040F1000053EA4C0308BF20EADC70B1
:10044000704792F0000F00F0004C02BF400010F423
:10045000000F013AF9D040EA0C0093F0000F01F0D0
:10046000004C02BF490011F4000F013BF9D041EAF2
:100470000C018FE70CEAD15392EA0C0F18BF93EAF4
:100480000C0F0AD030F0004C18BF31F0004CD8D11E
:1004900080EA010000F00040704790F0000F17BFA5
:1004A00090F0004F084691F0000F91F0004F14D0EB
:1004B00092EA0C0F01D142020FD193EA0C0F03D143
:1004C0004B0218BF084608D180EA010000F0004046
:1004D00040F0FE4040F40000704740F0FE4040F421
:1004E000400070474FF0FF0C1CEAD0521EBF1CEAC0
:1004F000D15392EA0C0F93EA0C0F69D0A2EB0302DE
:1005000080EA010C49024FEA402037D04FF0805377
:1005100043EA111143EA10130CF000408B4238BF3C
:100520005B0042F17D024FF4000C8B4224BF5B1A4A
:1005300040EA0C00B3EB510F24BFA3EB510340EA98
:100540005C00B3EB910F24BFA3EB910340EA9C0046
:10055000B3EBD10F24BFA3EBD10340EADC001B01B6
:1005600018BF5FEA1C1CE0D1FD2A3FF650AF8B425A
:1005700040EBC25008BF20F0010070470CF0004C67
:100580004CEA50207F32C2BFD2F1FF0340EAC25092
:10059000704740F400004FF00003013A37E792F053
:1005A000000F00F0004C02BF400010F4000F013AB1
:1005B000F9D040EA0C0093F0000F01F0004C02BFAC
:1005C000490011F4000F013BF9D041EA0C0195E715
:1005D0000CEAD15392EA0C0F08D142027FF47DAFAE
:1005E00093EA0C0F7FF470AF084676E793EA0C0F9E
:1005F00004D14B023FF44CAF08466EE730F0004C9C
:1006000018BF31F0004CCAD130F000427FF45CAF2B
:1006100031F000437FF43CAF5FE700BF30B589B0F5
:10062000254B9A6942F010029A619A6902F0100211
:100630000092009A9A6942F020029A619A6902F047
:1006400020020192019A9A6942F008029A619A691D
:1006500002F008020292029A9A6942F004029A6138
:100660009B6903F004030393039B144D01224FF491
:100670008051284600F086FD4FF4805304930123F7
:10068000059300240694079304A9284600F090FCE3
:100690004FF4004304930A4B0593069404A90948B8
:1006A00000F086FC22460A21282000F01BFC2820AE
:1006B00000F04CFC09B030BD00100240000C0140BD
:1006C000000011100008014008B504F033FC0B4B8A
:1006D00018681E3803F049FE094C00224FF480517F
:1006E000204600F04FFD1E2003F03FFE01224FF494
:1006F0008051204600F046FDE9E700BF00000020E1
:10070000000C014070B582B01F4805F0B1FA00221C
:10071000009213461D491E4800F0B6F920B91D4B42
:1007200041F288321A600DE01A4B28221A6002B09A
:1007300070BDB6F5007F02DD164BFA221A60142058
:1007400003F013FE114C124D2146284600F064FAC6
:100750002146284600F028FA2146284600F0EDF907
:10076000B4F90C50B4F910603346B4F90E202946A0
:10077000094805F009FAB5F5806FDADD054B4FF44D
:10078000FA721A60DBE700BF4C680008781200209C
:1007900024120020000000205868000808B50268F4
:1007A000034B9A4200D008BD00F078FBFBE700BF86
:1007B00000080040FEE7000008B50B480B4B036043
:1007C0000B4B436000238360C3604FF4804202619F
:1007D00043618361C361036200F0E6FE00B908BDB6
:1007E000F3210448FFF7E6FF2412002000540040E4
:1007F000A08601006468000800B595B001220A9245
:100800004FF480330B9300210C910E92022211922F
:1008100012934FF4801313930AA801F0FBFE58BB08
:100820000F23059302230693002307934FF480625E
:1008300008920993012105A802F012F900BB1023C8
:1008400001934FF48003049301A802F0F9F9D8B999
:1008500002F0C2F90E4BA3FB0030800900F082FBCE
:10086000042000F095FB00220F214FF0FF3000F034
:1008700039FB15B05DF804FBC0210648FFF79AFF6D
:10088000CE210448FFF796FFD5210248FFF792FFDB
:10089000D34D62106468000800B58BB004F0A4FF6B
:1008A00000F0EAFAFFF7A8FFFFF7B8FEFFF784FFB2
:1008B00004F040FB0F4805F0DBF90F4C05AD264670
:1008C0000FCE0FC533682B60002105A803F033FD60
:1008D0000A4B18606D4614340FCC0FC523682B608B
:1008E0000021684603F027FD054B186003F01EFD4C
:1008F000FEE700BF4C680008F86700081C120020E3
:100900002012002030B585B005460C7819238DF8EB
:100910000C308DF80D204FF47A730093022303AA54
:100920002146284600F0F4FE0028F4D105B030BD81
:100930002DE9F04184B005460F46164691F8008037
:100940001C238DF80E301FFA88F44FF47A7300934D
:1009500001230DF10E022146284600F0D9FE0028A1
:10096000F1D14FF47A73009301230DF10F02214668
:10097000284600F08FFF0028F3D19DF80F3023F0B8
:1009800018035BB243EAC6038DF80F304FF47A7355
:10099000009301230DF10F022146284600F0B8FE16
:1009A0000028F3D1032E06D8DFE806F002090D1166
:1009B0004FF06253BB60002004B0BDE8F0814FF0FF
:1009C0006453BB60F7E74FF06653BB60F3E74FF04B
:1009D0006853BB60EFE700002DE9F04184B00546A5
:1009E0000F46164691F800801B238DF80E301FFA33
:1009F00088F44FF47A73009301230DF10E0221461F
:100A0000284600F085FE0028F1D14FF47A73009358
:100A100001230DF10F022146284600F03BFF00287C
:100A2000F3D19DF80F3023F018035BB243EAC603FD
:100A30008DF80F304FF47A73009301230DF10F02FC
:100A40002146284600F064FE0028F3D1032E05D885
:100A5000DFE806F002080B0E074B7B60002004B0B5
:100A6000BDE8F081054B7B60F8E7054B7B60F5E75F
:100A7000044B7B60F2E700BF2D23FA3B2D237A3C29
:100A800090C1F93C90C1793DF0B585B006460D4660
:100A90001F4675238DF80F3042F0D0020A7094B2D1
:100AA00005230222214601F06FF810B1012005B0A4
:100AB000F0BD4FF47A73009301230DF10F0221462C
:100AC000304600F025FE08B10120F0E74FF47A73BC
:100AD000009301230DF10E022146304600F0DAFEAC
:100AE00048BB9DF80E30682B01D00320DFE76B2355
:100AF0008DF80C3000238DF80D304FF47A7300938D
:100B0000022303AA2146304600F002FE08B101206C
:100B1000CDE7072229463046FFF7F4FE3A4629463C
:100B20003046FFF705FF9DF8282029463046FFF79D
:100B300053FF0020BBE70120B9E7F0B587B00546B9
:100B40000F463B238DF80F300E78B4B24FF47A7312
:100B5000009301230DF10F022146284600F0D8FD35
:100B60000028F2D14FF47A730093062304AA214699
:100B7000284600F08FFE0028F4D19DF810209DF843
:100B8000113043EA0223BB819DF812209DF81330F7
:100B900043EA0223FB819DF814209DF8153043EAB7
:100BA00002233B8207B0F0BDF0B587B005460F4683
:100BB00043238DF80F300E78B4B24FF47A7300935C
:100BC00001230DF10F022146284600F0A1FD002867
:100BD000F2D14FF47A730093062304AA21462846E3
:100BE00000F058FE0028F4D19DF810209DF8113037
:100BF00043EA02237B829DF812209DF8133043EADA
:100C00000223BB829DF814209DF8153043EA02238D
:100C1000FB8207B0F0BD0000F0B585B005460F4679
:100C200041238DF80B300E78B4B24FF47A730093F1
:100C300001230DF10B022146284600F069FD002832
:100C4000F2D14FF47A730093022303AA2146284677
:100C500000F020FE0028F4D19DF80C301B021BB2DE
:100C60009DF80D001843FFF735FB0549FFF73AFCE7
:100C70000449FFF77BFAB861002005B0F0BD00BF62
:100C80000000AA43B81E124200B583B0244B9A69F3
:100C900042F001029A619A6902F001020092009A00
:100CA000DA6942F08052DA61DB6903F08053019324
:100CB000019B032000F004F9002211466FF00B00A5
:100CC00000F010F9002211466FF00A0000F00AF956
:100CD000002211466FF0090000F004F900221146CD
:100CE0006FF0040000F0FEF8002211466FF00300E0
:100CF00000F0F8F800220F216FF0010000F0F2F888
:100D000000220F214FF0FF3000F0ECF8054A536845
:100D100023F0E06343F00073536003B05DF804FB1D
:100D2000001002400000014002680E4B9A4200D0C1
:100D3000704700B587B0C0230293122303930323A7
:100D4000059302A9084800F033F9084BDA6942F428
:100D50000012DA61DB6903F400130193019B07B011
:100D60005DF804FB00540040000C014000100240FC
:100D700000B589B0002201461E2000F0B3F81E2005
:100D800000F0E4F8154BDA6942F00402DA61DB693D
:100D900003F004030193019B02A903A801F032FFB1
:100DA00001F020FF43000E48A0FB03239B0C013BF6
:100DB0000C480D4A026040F2E732C26043600023F3
:100DC0000361836002F0CEF818B1012009B05DF82C
:100DD00004FB044801F0BFFFF8E700BF0010024029
:100DE00083DE1B4394120020000800407047FEE79A
:100DF000FEE7FEE7FEE7704708B503F0BFFA08BD5F
:100E000008B5024801F0D2FA08BD00BFCC1C002092
:100E100008B5024801F0AFFF08BD00BF94120020E2
:100E200008B54FF4004000F0B5F908BD0F4B1A6843
:100E300042F001021A6059680D4A0A405A601A6865
:100E400022F0847222F480321A601A6822F480221E
:100E50001A605A6822F4FE025A604FF41F029A6028
:100E6000044B4FF000629A60704700BF00100240D0
:100E70000000FFF800ED00E008B5074A136843F0F2
:100E800010031360032000F01BF80020FFF770FF31
:100E9000FFF7FAFE002008BD00200240034A116857
:100EA000034B1B780B441360704700BFD412002023
:100EB00008000020014B1868704700BFD4120020C2
:100EC000074AD36823F4E0631B041B0C000200F400
:100ED000E060184340F0BF6040F40030D0607047DD
:100EE00000ED00E030B4174BDB68C3F30223C3F11D
:100EF0000704042C28BF04241D1D062D18D9033B0C
:100F00004FF0FF3505FA04F421EA0401994005FA8F
:100F100003F322EA0303194300280BDB0901C9B2DA
:100F200000F1604000F5614080F8001330BC70476C
:100F30000023E5E700F00F000901C9B2024B195484
:100F4000F4E700BF00ED00E014ED00E000F01F0248
:100F5000400901239340024A42F82030704700BF05
:100F600000E100E00138B0F1807F0AD2064B586002
:100F7000064AF02182F823100020986007221A60A8
:100F800070470120704700BF10E000E000ED00E076
:100F9000042805D0054A136823F004031360704742
:100FA000024A136843F004031360704710E000E046
:100FB000F0B482B000263546A1E0002C59D0012CB7
:100FC00000D1CE68FF2B68D88446FF2B68D8AC00D0
:100FD000DCF800200F27A74022EA070206FA04F4F3
:100FE0002243CCF800204A6812F0805F00F086802F
:100FF0005E4A946944F001049461926902F001022E
:101000000192019AAC08A71C594A52F8272005F012
:101010000307BF004FF00F0C0CFA07FC22EA0C0C80
:10102000544A904242D002F5806290427FD002F54D
:10103000806290427DD002F58062904234D00422DA
:1010400035E04D4FBC4214D00BD94C4FBC4210D0B0
:1010500007F58037BC420CD0A7F58017BC42B1D150
:1010600007E0A7F58017BC4203D007F58037BC42E4
:10107000A8D18C687CB1012C08D042610826A1E778
:10108000CE6808369EE7CE680C369BE702610826DC
:1010900098E7002696E7042694E700F1040C94E70D
:1010A000A5F10804A40093E7032200E00022BA405F
:1010B00042EA0C0202342E4F47F824204A6812F408
:1010C000803F38D02E4C22681A4322604A6812F4BE
:1010D000003F36D02A4C62681A4362604A6812F4B4
:1010E000801F34D0264CA2681A43A2604A6812F4CA
:1010F000001F32D0224CE2681343E36001350F2D0C
:1011000031D80122AA400B6813409A42F6D14C68AC
:10111000122CB8D095D8022CB2D07FF64EAF032C4B
:10112000B7D0112C7FF44EAFCE6804364AE70122C7
:10113000BDE70222BBE7124C226822EA03022260CA
:10114000C4E70F4C626822EA03026260C6E70C4CF7
:10115000A26822EA0302A260C8E7094CE26822EA18
:101160000303E360CAE702B0F0BC7047001002401E
:101170000000014000080140000021100000311073
:101180000004014012B90904016170470161704710
:101190007047000008B5054B5B69034200D108BDEC
:1011A000024B5861FFF7F4FFF9E700BF000401406C
:1011B00003685A6912F4806F0DD06FF480625A612F
:1011C0000423036400230363202280F83D2080F879
:1011D0003C300120704700207047F8B506460C46A9
:1011E00017461D461EE02DB1FFF764FE069BC01A90
:1011F000A84217D900233363202286F83D2086F8C1
:101200003E3086F83C3003201AE033685B6924EAFC
:1012100003039BB2B3FA83F35B099F420FD1B5F18D
:10122000FF3FE0D1C4F30743012BEED033689B6945
:1012300024EA03039BB2B3FA83F35B09EDE70020D2
:10124000F8BDF8B504460D4616461F4632E01A684A
:1012500042F400721A6023686FF480625A610423BA
:10126000236400232363202284F83D2084F83C304B
:1012700001202DE026B1FFF71DFEC01BB04219D999
:1012800000232363202284F83D2084F83C3003208F
:101290001EE023685B6925EA03039BB2003318BF95
:1012A0000123A3B123685A6912F4806FCFD1B6F13C
:1012B000FF3FDFD1C5F30743012BEAD023689B69C9
:1012C00025EA03039BB2003318BF0123E9E700209E
:1012D000F8BD0000F0B583B004460D4616461F4623
:1012E000C36A042B0DD0012B0BD013F5803F08D01F
:1012F000036B122B0AD10268136843F480731360E6
:1013000004E02268136843F4807313600097334647
:1013100000224FF001112046FFF75FFF58BB236901
:10132000B3F5804F10D1236805F0FE051D613B46E3
:10133000324615492046FFF784FF0346E0B1236C8F
:10134000042B1ED1012317E0EB11226803F00603E2
:1013500043F0F00313613B4632460C492046FFF749
:1013600070FF20B1236C042B09D1012304E0236812
:10137000EDB21D61DBE70323184603B0F0BD032384
:10138000FAE70323F8E700BF0200010008000100AC
:101390002DE9F04184B004460D4616461F46C26A48
:1013A00001680B6843F480630B60042A0DD0012AA6
:1013B0000BD012F5803F08D0036B112B0AD10268C5
:1013C000136843F48073136004E02268136843F4E5
:1013D000807313600097334600224FF001112046BE
:1013E000FFF7FBFE002852D12369B3F5804F12D1DD
:1013F000236845F00105EDB21D613B4632462A499E
:101400002046FFF71EFF0346002841D0236C042B23
:1014100048D101233CE04FEAE51808F006082368AC
:1014200048F0F0021A613B46324620492046FFF759
:1014300008FF20B1236C042B2ED1012328E0236860
:10144000EDB21D613B46324617492046FFF7F9FED3
:1014500020B1236C042B21D1012319E00022039237
:10146000236859690391996903910399196841F4B3
:1014700080711960009733464FF001112046FFF745
:10148000ACFE68B9226848F0F1031361B5E70323A5
:10149000184604B0BDE8F0810323F9E70323F7E71A
:1014A0000323F5E70323F3E702000100080001002E
:1014B00070B504460D46164623685B6913F0800F2D
:1014C00019D12046FFF774FEB8B9B5F1FF3FF3D04C
:1014D00025B1FFF7EFFC801BA842EDD9236C43F048
:1014E0002003236400232363202284F83D2084F812
:1014F0003C30032000E0002070BD0120FCE770B507
:1015000004460D46164623685B6913F0040F19D193
:101510002046FFF74DFEB8B9B5F1FF3FF3D025B136
:10152000FFF7C8FC801BA842EDD9236C43F02003D1
:10153000236400232363202284F83D2084F83C3078
:10154000032000E0002070BD0120FCE770B50546D7
:101550000C4616462B685A6912F0400F22D15A6980
:1015600012F0100F11D124B1FFF7A4FC801BA04290
:10157000F0D92B6C43F020032B64202385F83D30F9
:10158000002385F83C30032070BD6FF010025A61D3
:1015900000232B642B63202285F83D2085F83C3006
:1015A0000120F1E70020EFE7002800F0A28038B525
:1015B000044690F83D30002B4FD0242384F83D3072
:1015C0002268136823F00103136001F00BFB6268CB
:1015D0004A4B9A4246D84A4B98428CBF002301237B
:1015E000002B40F08880474BA3FB00239B0C226814
:1015F00053606168414A91423AD8013322681362CC
:1016000061683E4B99423DD8431E4900B3FBF1F35C
:101610000133C3F30B03042B38BF04232268D361C7
:10162000E369216A22680B4313602369E168226839
:101630000B4393606369A16922680B43D3602268FE
:10164000136843F00103136000202064202384F812
:101650003D30206384F83E0038BD80F83C30FFF711
:1016600063FBAAE7284B98428CBF00230123B7E70E
:101670004FF4967202FB03F3244AA2FB03239B0957
:101680000133BBE7A368BBB9421E01EB4105B2FBC6
:10169000F5F20132C2F30B02B2FA82F2520932BB06
:1016A000C3B9013801EB4103B0FBF3F30133C3F3DA
:1016B0000B0343F40043B1E7421E01EB810505EB48
:1016C0008505B2FBF5F20132C2F30B02B2FA82F2E7
:1016D0005209E4E7013801EB810303EB8303B0FB1C
:1016E000F3F30133C3F30B0343F4404396E70123C1
:1016F00094E7012070470120AEE700BFA0860100FB
:101700007F841E0083DE1B43FF083D00D34D621023
:101710002DE9F04184B004460E4690461F46FFF77F
:10172000C9FB94F83D30DBB2202B04D002263046B2
:1017300004B0BDE8F0810546009019230122544908
:101740002046FFF74AFD002840F0998094F83C308D
:10175000012B00F09680012384F83C3023681A683E
:1017600012F0010F03D11A6842F001021A602268D8
:10177000136823F400631360212384F83D301023A1
:1017800084F83E3000232364C4F824806785A3F5E1
:101790008033E362638D23852B460A9A31462046C7
:1017A000FFF798FD064660B1236C042B04D100239B
:1017B00084F83C300126BAE7002384F83C30032645
:1017C000B5E70023039323685A6903929B69039347
:1017D000039B10E0236C042B55D12268136843F45B
:1017E000007313600126A2E72A460A992046FFF7F4
:1017F00086FE00282BD1238D002B32D02A460A9951
:101800002046FFF755FE0028E4D1636A5A1C626245
:1018100022681B781361638D013B9BB26385238D26
:10182000013B9BB223852268516911F0040FDBD084
:10183000002BD9D0636A591C61621B781361638DD8
:10184000013B9BB26385238D013B2385CCE7236C51
:10185000042B1AD12268136843F400731360012625
:1018600065E72268136843F400731360202384F84B
:101870003D30002384F83E3084F83C3057E70226A0
:1018800055E7022653E7032651E703264FE700BF3B
:10189000020010002DE9F04186B004460E46904645
:1018A0001F46FFF707FB94F83D30DBB2202B04D036
:1018B0000226304606B0BDE8F081054600901923A7
:1018C00001228F492046FFF788FC002840F0518113
:1018D00094F83C30012B00F04E81012384F83C3019
:1018E00023681A6812F0010F03D11A6842F001024E
:1018F0001A602268136823F400631360222384F8BB
:101900003D30102384F83E3000232364C4F8248043
:101910006785A3F58033E362638D23852B460C9A9C
:1019200031462046FFF734FD064660B1236C042B98
:1019300004D1002384F83C300126BAE7002384F860
:101940003C300326B5E7238D5BB9029323685A69BF
:1019500002929A690292029A1A6842F400721A601C
:101960007FE0012B0FD0022B21D02268136843F4B3
:10197000806313600023059323685A6905929B696D
:101980000593059B6DE02268136823F48063136060
:1019900072B60023039323685A6903929A690392EB
:1019A000039A1A6842F400721A6062B659E022681B
:1019B000136843F40063136072B600230493236832
:1019C0005A6904929A690492049A1A6822F480620D
:1019D0001A6062B645E02A460C992046FFF7B6FD2C
:1019E00068B923681A69636A591C61621A70238D89
:1019F000013B2385638D013B9BB2638531E0236C02
:101A0000202B01D0012654E7032652E700950C9BBA
:101A100000223C492046FFF7E0FB002840F0AD8063
:101A200072B62268136843F40073136023681A695E
:101A3000636A591C61621A70238D013B2385638D93
:101A4000013B9BB2638562B623681A69636A591CBD
:101A500061621A70238D013B2385638D013B9BB22C
:101A60006385238D002B7BD0032B4DD8012BB2D067
:101A7000022BCBD000950C9B002222492046FFF779
:101A8000ACFB00287BD12268136823F480631360C9
:101A900072B623681A69636A591C61621A70238DD1
:101AA000013B2385638D013B9BB2638500950C9BB5
:101AB000002214492046FFF790FB002861D12268DC
:101AC000136843F40073136023681A69636A591C2E
:101AD00061621A70238D013B2385638D013B9BB2AC
:101AE000638562B623681A69636A591C61621A7059
:101AF000238D013B2385638D013B9BB26385B0E75A
:101B000002001000040001002A460C992046FFF74D
:101B10001DFDF0B923681A69636A591C61621A7065
:101B2000238D013B2385638D013B9BB26385236835
:101B30005A6912F0040F94D01A69636A591C6162E1
:101B40001A70238D013B2385638D013B9BB2638516
:101B500087E7236C202B01D00126AAE60326A8E6FE
:101B6000202384F83D30002384F83E3084F83C3054
:101B70009FE602269DE602269BE6032699E60326BB
:101B800097E6032695E600BF2DE9F04385B00446AD
:101B9000884691461D46FFF78DF994F83D30DBB23B
:101BA000202B04D00223184605B0BDE8F08306467A
:101BB00000901923012256492046FFF70EFB00280A
:101BC00040F09B8094F83C30012B00F0988001237A
:101BD00084F83C3023681A6812F0010F03D11A68A8
:101BE00042F001021A602268136823F40063136054
:101BF000242384F83D3000232364A3F58033E3627B
:101C0000012735E0A02384F83D3022685369C3F3EF
:101C100040035269C2F3802294F83D10C9B253B90F
:101C20004AB9A02907D0002DECD0FFF743F9801B5B
:101C3000A842EAD9E6E7202384F83D3023685A69B0
:101C400012F0020F35D11A6842F400721A6023684C
:101C50006FF480625A610096192301222C492046B4
:101C6000FFF7BBFA002850D17B1C4F453DD21F46E1
:101C70002268136843F48073136000962B46002299
:101C80004FF001112046FFF7A8FA002839D1236848
:101C900008F0FE021A61FFF70DF906462268536943
:101CA000C3F340035269C2F3802294F83D10C9B2D5
:101CB000B5E71A6842F400721A60002303932368A0
:101CC0005A6903929B690393039B0096192301228F
:101CD0000F492046FFF781FA0346A0B9202284F875
:101CE0003D20002284F83C205DE7202384F83D302D
:101CF000002384F83C30012355E7022353E70223F5
:101D000051E703234FE703234DE703234BE700BFCE
:101D100002001000002866D0F0B587B0044690F8A5
:101D20002934C3B1032384F82934206801F044F92D
:101D3000254655F8107B6E460FCD0FC62B683360D5
:101D4000231D0ECB384601F028F90021206801F050
:101D50003DF9002315E080F8283403F02DF9E1E780
:101D600004EB4312012182F8291082F8283093866F
:101D7000002182F82B109163D1639A1C5201A1506B
:101D800001330E2BECD9002312E004EB43120021A7
:101D900082F8291282F82832938682F82B12C2F830
:101DA0003812C2F83C1203F112025201A150013361
:101DB0000E2BEAD9254655F8107B6E460FCD0FC67F
:101DC0002B683360231D0ECB384601F001F9002546
:101DD00084F82450012384F82934206801F00CFC95
:101DE000284607B0F0BD0120704790F82834012B39
:101DF00010D010B50446012180F8281403F01BFA16
:101E0000206801F0F7FB206801F0CEF8002084F88C
:101E1000280410BD0220704790F82834012B0DD003
:101E200010B50446012380F8283480F82410006897
:101E300001F0DAFB002084F8280410BD022070476E
:101E400038B54DB2002D1CDB01F07F04640104F5B0
:101E50000A74044401F07F012170ED0F6570226166
:101E6000E37090F82834012B11D00546012380F847
:101E700028342146006801F0C1F8002085F82804C4
:101E800038BD01F07F04640128340444E2E70220F5
:101E9000F6E74AB2002A1BDB01F07F035B0103F582
:101EA0000A73034401F07F011970D20F5A7090F841
:101EB0002824012A12D010B50446012280F82824D3
:101EC0001946006801F02EFA002084F8280410BD9D
:101ED00001F07F035B0128330344E3E702207047EE
:101EE00070B501F07F056C0104F50A7101440444EA
:101EF000C4F83C2205F112025201861883500023D7
:101F0000736084F8293284F8285225B1006801F002
:101F10008FFB002070BD006801F08AFBF9E701F03B
:101F20000F01123100EB41118888704770B501F044
:101F30007F056C0104F1280101440444E263AA1CFA
:101F400052018618835000237360012384F82930DE
:101F500084F8285025B1006801F06AFB002070BDAC
:101F6000006801F065FBF9E770B582B00446002314
:101F7000ADF80630ADF804302068B0F844309BB2BC
:101F8000ADF8063013F4004F00F00D82BDF8065096
:101F900015F00F0540F0C280BDF8063013F0100FA9
:101FA00050D003889BB2ADF80430BDF8043013F470
:101FB000006F79D1BDF8043013F4004FDCD00388F2
:101FC00023F070031B051B0D03802068B0F8503010
:101FD00094F8282203EBC203063300EB4303D3F843
:101FE0000034C3F30903C4F84432002B7CD1002130
:101FF000204603F009F82368B3F85020063203EBBB
:102000004203D4F838123E297CD9C1F34F1211F0A3
:102010001F0F01D1013A92B26FEAC2626FEA5242D7
:1020200092B2C3F80024226813889BB223F4804341
:1020300023F0700383F4405343F4004343F08003E0
:10204000138099E703889BB223F4E14323F07003E4
:102050009BB203802268B2F8503094F8281003EB4A
:10206000C103023302EB4303D3F80034C3F3090383
:102070006364E26B1344E3630021204602F0CEFF69
:1020800094F82430002B3FF477AF236C002B7FF4BF
:1020900073AF94F82430226843F08003A2F84C30E8
:1020A000002384F8243067E7B0F8503094F82822F1
:1020B00003EBC203063300EB4303D3F80034C3F34E
:1020C0000903C4F84432B4F82C2204F22C4101F084
:1020D0000CFC2268138823F070031B051B0D138072
:1020E000204602F089FF47E7B4F82C22D4F83C12CE
:1020F00001F0FBFBD4F84422D4F83C321344C4F87A
:102100003C3274E7C1F34F0211F0010F01D00132EC
:1021100092B2920292B2C3F8002484E730F82530DC
:102120009BB2ADF80430BDF8043013F4004F35D144
:10213000BDF8043013F0800F3FF41EAF226832F870
:1021400025309BB223F4E14323F070039BB222F8C5
:10215000253004EB451393F83230002B40F0B28069
:102160002068B0F8503004EB451292F8282003EBB9
:10217000C203023300EB4303D3F80034C3F3090373
:10218000AA1C04EB42125360002B00F0C68004EB43
:1021900045118A8DC96B01F036FABEE030F8253062
:1021A00023F070031B051B0D20F8253004EB4513AD
:1021B00093F83232D3B92068B0F8503004EB4512AE
:1021C00092F8282203EBC203063300EB4303B3F873
:1021D0000064C6F3090686B304EB45113346B1F833
:1021E0002C22D1F83C1201F080FB26E0206804EBA1
:1021F000451393F8282230F8223013F4804F42D050
:10220000B0F8503003EBC203023300EB4303B3F8E2
:102210000064C6F3090666BB226804EB451393F815
:10222000281232F8213023F0F0031B051B0D43F474
:10223000004343F0C00322F8213005F112035B0193
:10224000E1184A6832444A6004EB4511D1F83C2257
:102250003244C1F83C22E3581BB1D1F838128E4207
:1022600028D204EB451393F82812204602F0CCFE46
:102270005EE704EB45113346B1F82E22D1F83C124B
:1022800001F033FBC8E7B0F8503003EBC20306336C
:1022900000EB4303B3F80064C6F30906002EBBD07D
:1022A00004EB45113346B1F83022D1F83C1201F06D
:1022B0001CFBB1E704EB451191F828122046FFF70B
:1022C0000FFE35E7206804EB451393F8282030F81B
:1022D000223013F0400F46D0B0F8503003EBC20369
:1022E000023300EB4303D3F80034C3F30903AA1C01
:1022F00004EB421253607BBB226804EB451393F856
:10230000281032F8213023F0F0031B051B0D43F495
:10231000404343F0800322F821302268B2F8503065
:1023200004EB451090F8281003EBC103023302EBD5
:102330004303D3F80024C2F30902AB1C5B01E1188C
:102340004A60C16B0A44C263E35823BB90F828106B
:10235000204602F063FE0FE604EB4511CA8DC96BFF
:1023600001F051F9C8E7B0F8503003EBC20306336F
:1023700000EB4303D3F80034C3F30903AA1C04EBB6
:1023800042125360002BB7D004EB45110A8EC96B83
:1023900001F039F9B0E704EB451595F8281020460F
:1023A000FFF7C4FDE8E5002002B070BD10B504469B
:1023B000006801F023F910F4004F45D1206801F0C6
:1023C0001DF910F4806F43D1206801F017F910F463
:1023D000804F08D02268B2F844309BB223F4804387
:1023E0009BB2A2F84430206801F008F910F4005FB5
:1023F00008D02268B2F844309BB223F400539BB259
:10240000A2F84430206801F0F9F810F4805F30D170
:10241000206801F0F3F810F4006F49D1206801F052
:10242000EDF810F4007F64D1206801F0E7F810F4B3
:10243000807F08D02268B2F844309BB223F48073C6
:102440009BB2A2F8443010BD2046FFF78DFDB5E7E2
:102450002268B2F844309BB223F480639BB2A2F8A6
:102460004430204602F0E9FD00212046FFF7D4FC6D
:10247000AAE72268B2F840309BB223F004039BB273
:10248000A2F840302268B2F840309BB223F0080333
:102490009BB2A2F84030204602F0ECFD2268B2F870
:1024A00044309BB223F480539BB2A2F84430AFE790
:1024B0002268B2F8403043F00803A2F840302268A6
:1024C000B2F844309BB223F400639BB2A2F84430CC
:1024D0002268B2F8403043F00403A2F8403020688C
:1024E00001F08CF810F4805F98D1204602F0B2FD24
:1024F00094E72268B2F844309BB223F400739BB295
:10250000A2F84430204602F092FD8DE738B54AB279
:10251000002A1BDB4B0103F50A73034401249C7062
:1025200001F07F051D70D20F5A7090F82824A24246
:1025300018D00446012280F828241946006800F0CB
:10254000D3FF4DB1002084F8280438BD01F07F038B
:102550005B0128330344E1E704F22C41206801F0D9
:1025600050F8EFE70220F0E710B54AB2002A1ADB74
:102570004B0103F50A73034400249C7001F07F01B2
:102580001970D20F5A7090F82824012A11D00446ED
:10259000012280F828241946006800F0DCFF0020A2
:1025A00084F8280410BD01F07F035B012833034445
:1025B000E2E70220F6E711F0800F0CD001F07F0176
:1025C0004901283101445AB101228A72CB801B0C87
:1025D0000B8100207047490101F50A710144F2E7BF
:1025E0008A728B80F5E7000082B0084B1B68084AAE
:1025F000A2FB03235B0A00FB03F0019000BF019BD9
:102600005A1E0192002BF9D102B07047040000203D
:10261000D34D621070B582B00446036813F0010F09
:102620002CD0AB4B5B6803F00C03042B1DD0A84BE4
:102630005B6803F00C03082B12D06368B3F5803F8E
:1026400041D0002B55D103F1804303F504331A68C0
:1026500022F480321A601A6822F480221A6037E06D
:102660009B4B5B6813F4803FE7D0994B1B6813F4D6
:10267000003F03D06368002B00F0AE81236813F0A5
:10268000020F76D0924B5B6813F00C0F5FD0904B2B
:102690005B6803F00C03082B54D02369002B00F077
:1026A0008A808C4B01221A60FEF704FC0546884B99
:1026B0001B6813F0020F75D1FEF7FCFB401B0228CC
:1026C000F5D903208BE1824A136843F48033136009
:1026D000636843B3FEF7EEFB05467D4B1B6813F4BE
:1026E000003FCBD1FEF7E6FB401B6428F5D9032061
:1026F00075E1B3F5A02F09D0754B1A6822F480322A
:102700001A601A6822F480221A60E1E703F180431C
:10271000A3F53C331A6842F480221A601A6842F426
:1027200080321A60D4E7FEF7C5FB0546684B1B688C
:1027300013F4003FA2D0FEF7BDFB401B6428F5D97F
:1027400003204CE1624B5B6813F4803FA5D1604BE2
:102750001B6813F0020F04D02369012B01D0012064
:102760003DE15B4A136823F0F803616943EAC10362
:102770001360236813F0080F32D0A369002B5BD0DD
:10278000554B01221A60FEF795FB0546504B5B6ADC
:1027900013F0020F21D1FEF78DFB401B0228F5D963
:1027A00003201CE14A4A136823F0F803616943EAF5
:1027B000C1031360DDE7474B00221A60FEF77AFB86
:1027C0000546434B1B6813F0020FD2D0FEF772FB95
:1027D000401B0228F5D9032001E10120FFF704FF87
:1027E000236813F0040F00F09780394BDB6913F076
:1027F000805F33D1364BDA6942F08052DA61DB69AF
:1028000003F080530193019B0125344B1B6813F4A3
:10281000807F25D0E368012B36D0002B4CD103F10B
:10282000804303F504331A6A22F001021A621A6A1D
:1028300022F004021A622CE0274B00221A60FEF7F5
:1028400039FB0546224B5B6A13F0020FC8D0FEF736
:1028500031FB401B0228F5D90320C0E00025D4E756
:102860001E4A136843F480731360FEF723FB064689
:102870001A4B1B6813F4807FCCD1FEF71BFB801B27
:102880006428F5D90320AAE0114A136A43F0010332
:102890001362E36873B3FEF70DFB06460C4B1B6A2D
:1028A00013F0020F37D1FEF705FB801B41F288338E
:1028B0009842F3D9032092E0052B11D0044B1A6AF9
:1028C00022F001021A621A6A22F004021A62E0E798
:1028D000001002400000424280044242007000406A
:1028E000414B1A6A42F004021A621A6A42F001026B
:1028F0001A62CEE7FEF7DEFA06463B4B1B6A13F080
:10290000020F08D0FEF7D6FA801B41F288339842B6
:10291000F3D9032063E0E5B9E369002B5ED0324AC6
:10292000526802F00C02082A5BD0022B17D02F4B02
:1029300000221A60FEF7BEFA04462B4B1B6813F008
:10294000007F47D0FEF7B6FA001B0228F5D9032016
:1029500045E0254AD36923F08053D361DCE7234B5C
:1029600000221A60FEF7A6FA05461F4B1B6813F0FB
:10297000007F06D0FEF79EFA401B0228F5D90320FF
:102980002DE0236AB3F5803F1AD017494B6823F432
:102990007413226A606A024313434B60134B012293
:1029A0001A60FEF787FA04460F4B1B6813F0007F8E
:1029B0000ED1FEF77FFA001B0228F5D903200EE0A6
:1029C000094A536823F40033A1680B435360DCE7E2
:1029D000002004E0002002E0012000E0002002B01E
:1029E00070BD0120FBE700BF0010024060004242C2
:1029F00010B487B0164C94E80F000DF1180C0CE9D8
:102A00000F00238AADF80430124B5B6803F00C0210
:102A1000082A1AD1C3F38342624412F8102C13F42B
:102A2000803F05D10C4800FB02F007B010BC704796
:102A3000084B5B68C3F34043634413F8143C0748F6
:102A400000FB02F0B0FBF3F0EFE70448EDE700BF56
:102A5000386800080010024000093D0000127A00AA
:102A6000594B1B6803F007038B420CD2564A13687C
:102A700023F007030B431360136803F007038B4233
:102A800001D00120704770B5036813F0020F06D023
:102A90004E4A536823F0F0038468234353600C4686
:102AA0000546036813F0010F52D04368012B23D071
:102AB000022B28D0454A126812F0020F00F08280E3
:102AC00042494A6822F0030213434B60FEF7F2F9D1
:102AD00006466B68012B1DD0022B2AD03B4B5B684E
:102AE00013F00C0F34D0FEF7E5F9801B41F2883368
:102AF0009842F3D9032064E0344A126812F4003F8C
:102B0000DED101205DE0314A126812F0007FD7D19A
:102B1000012056E02D4B5B6803F00C03042B17D00B
:102B2000FEF7C8F9801B41F288339842F2D903209E
:102B300047E0264B5B6803F00C03082B08D0FEF738
:102B4000B9F9801B41F288339842F2D9032038E06A
:102B50001D4B1B6803F00703A3420CD91A4A1368E4
:102B600023F0070323431360136803F00703A34212
:102B700001D0012025E02B6813F0040F06D0134A82
:102B8000536823F4E063E9680B4353602B6813F048
:102B9000080F07D00D4A536823F46053296943EAAC
:102BA000C1035360FFF724FF084B5B68C3F30313B3
:102BB000074AD35CD840074B18600020FEF7D8F8CE
:102BC000002070BD0120FCE7002002400010024000
:102BD0002068000804000020014B1868704700BFFF
:102BE0000400002008B5FFF7F7FF044B5B68C3F350
:102BF0000223034AD35CD84008BD00BF0010024046
:102C0000306800080F2303600B4B5A6802F0030280
:102C100042605A6802F0F00282605A6802F4E06290
:102C2000C2605B68DB0803F4E0630361034B1B686D
:102C300003F007030B6070470010024000200240C1
:102C400070B582B00446036813F0010F34D03E4BD8
:102C5000DB6913F0805F48D13B4BDA6942F0805268
:102C6000DA61DB6903F080530193019B0125374B47
:102C70001B6813F4807F3AD0334B1B6A13F4407304
:102C800011D0626802F440729A420CD02E4A136A44
:102C900023F440702E4901260E6000260E6010625B
:102CA00013F0010F37D1284A136A23F44073616887
:102CB0000B431362002D3FD1236813F0020F06D09F
:102CC000214A536823F44043A1680B4353602368AF
:102CD00013F0100F35D01C4A536823F48003E168C9
:102CE0000B435360002002B070BD0025BFE7174AB8
:102CF000136843F480731360FEF7DCF80646134B49
:102D00001B6813F4807FB7D1FEF7D4F8801B6428CA
:102D1000F5D90320E7E7FEF7CDF806460A4B1B6A14
:102D200013F0020FBFD1FEF7C5F8801B41F28833C4
:102D30009842F3D90320D6E7D36923F08053D361B7
:102D4000BAE70020CFE700BF00100240007000404B
:102D50004004424270470268D36843F00103D360E5
:102D60000268136843F00103136000207047704746
:102D700070477047704710B5044603681A6912F02F
:102D8000020F11D0DA6812F0020F0DD06FF00202BC
:102D90001A610123037703689B6913F0030F70D056
:102DA000FFF7E6FF0023237723681A6912F0040F68
:102DB00012D0DA6812F0040F0ED06FF004021A611C
:102DC0000223237723689B6913F4407F5FD020465A
:102DD000FFF7CEFF0023237723681A6912F0080F4C
:102DE00012D0DA6812F0080F0ED06FF008021A61E4
:102DF000042323772368DB6913F0030F4ED02046AA
:102E0000FFF7B6FF0023237723681A6912F0100F2B
:102E100012D0DA6812F0100F0ED06FF010021A61A3
:102E2000082323772368DB6913F4407F3DD02046D5
:102E3000FFF79EFF0023237723681A6912F0010F22
:102E400003D0DA6812F0010F36D123681A6912F044
:102E5000800F03D0DA6812F0800F34D123681A692A
:102E600012F0400F03D0DA6812F0400F32D123681D
:102E70001A6912F0200F03D0DA6812F0200F30D157
:102E800010BDFFF774FF2046FFF773FF8AE7204667
:102E9000FFF76DFF2046FFF76CFF9BE72046FFF72B
:102EA00066FF2046FFF765FFACE72046FFF75FFFB0
:102EB0002046FFF75EFFBDE76FF001021A61204672
:102EC000FDF76CFCC1E76FF080021A61204600F04C
:102ED00063F8C3E76FF040021A612046FFF74AFF2C
:102EE000C5E76FF020021A61204600F054F8C7E7EA
:102EF00003681B4A90420AD0B0F1804F07D0A2F578
:102F00009432904203D002F58062904203D123F0C4
:102F100070034A681343124A90420AD0B0F1804FBE
:102F200007D0A2F59432904203D002F5806290421D
:102F300003D123F44073CA68134323F080034A6922
:102F4000134303608B68C3620B688362044B98422F
:102F500002D00123436170470B690363F9E700BFA7
:102F6000002C0140A8B110B5044690F83D305BB18B
:102F7000022384F83D30211D2068FFF7B9FF0123AB
:102F800084F83D30002010BD80F83C30FFF7E2FEB1
:102F9000EEE7012070477047704784B001A880E8D1
:102FA0000E00002004B07047B0F8403043F43F43B7
:102FB000A0F8403000207047B0F8403023F474533C
:102FC0005B045B0CA0F84030002070470020704785
:102FD00084B038B505AC84E80E000123A0F8403079
:102FE0000024A0F84040A0F84440A0F85040FFF76B
:102FF000DBFF2046BDE8384004B0704710B4CB7802
:10300000032B0FD8DFE803F0026D54600A7830F824
:1030100022309BB223F4EC4323F0700343F400739B
:1030200020F822300A7830F8223023F0F0031B0514
:103030001B0D134343F4004343F0800320F8223078
:103040008B7A002B40F0AF804B78002B56D08A88CB
:103050005208B0F850300C7803EBC40300EB430384
:103060005200C3F800240A7830F8223013F0400FE1
:103070000BD030F8223023F0F0031B051B0D43F476
:10308000004343F0C00320F822300A7830F82230A1
:103090009BB223F4E04323F0400383F0200343F486
:1030A000004343F0800320F82230002010BC70471A
:1030B0000A7830F822309BB223F4EC4323F07003FB
:1030C0009BB220F82230ADE70A7830F822309BB26C
:1030D00023F4EC4323F0700343F4C06320F8223060
:1030E000A0E70A7830F822309BB223F4EC4323F0B7
:1030F000700343F4806320F8223093E78A885208F3
:10310000B0F850300C7803EBC403043300EB4303F6
:103110005200C3F80024B0F850300A7803EBC20321
:10312000063300EB43030C693E2C30D9C4F34F1235
:1031300014F01F0F01D1013A92B26FEAC2626FEA36
:10314000524292B2C3F800240A7830F8223013F4C5
:10315000804F0BD030F8223023F0F0031B051B0DFD
:1031600043F4404343F0800320F822300A7830F8DB
:1031700022309BB223F4804323F0700383F4405346
:1031800043F4004343F0800320F822308DE7C4F37A
:103190004F0214F0010F01D0013292B2920292B2AA
:1031A000C3F80024D0E70A7830F8223023F4F8730B
:1031B0001B051B0D43F4014343F0800320F822302C
:1031C000CA885208B0F850300C7803EBC40300EB07
:1031D00043035200C3F800240A895208B0F8503063
:1031E0000C7803EBC403043300EB43035200C3F831
:1031F00000244B78002B4BD10A7830F8223013F49E
:10320000804F0BD030F8223023F0F0031B051B0D4C
:1032100043F4404343F0800320F822300A7830F82A
:10322000223013F0400F0BD030F8223023F0F0039F
:103230001B051B0D43F4004343F0C00320F822306C
:103240000A7830F8223023F0F0031B051B0D43F4FD
:10325000004343F0C00320F822300A7830F82230CF
:103260009BB223F4804323F0700383F4405348F26D
:103270008004234320F822300A7830F822309BB2B1
:1032800023F4E04323F04003234320F822300CE7EB
:103290000A7830F8223013F4804F0BD030F8223007
:1032A00023F0F0031B051B0D43F4404343F0800360
:1032B00020F822300A7830F8223013F0400F0BD07B
:1032C00030F8223023F0F0031B051B0D43F40043BC
:1032D00043F0C00320F822300A7830F8223023F07F
:1032E000F0031B051B0D43F4404343F0800320F81B
:1032F00022300B7830F8232092B222F4E04222F000
:10330000400248F28004224320F823200A7830F853
:1033100022309BB223F4804323F07003234320F830
:103320002230C2E68B7A002B44D14B780BB30A785B
:1033300030F8223013F0400F0BD030F8223023F059
:10334000F0031B051B0D43F4004343F0C00320F8BA
:1033500022300A7830F822309BB223F4E04323F085
:10336000400343F4004343F0800320F82230002060
:1033700070470A7830F8223013F4804F0BD030F8C1
:10338000223023F0F0031B051B0D43F4404343F0B0
:10339000800320F822300A7830F822309BB223F4E0
:1033A000804323F0700343F4004343F0800320F88C
:1033B0002230DCE710B44B78002B4BD10A7830F880
:1033C000223013F4804F0BD030F8223023F0F0037A
:1033D0001B051B0D43F4404343F0800320F82230CB
:1033E0000A7830F8223013F0400F0BD030F822303A
:1033F00023F0F0031B051B0D43F4004343F0C0030F
:1034000020F822300A7830F8223023F0F0031B0530
:103410001B0D43F4004343F0C00320F822300B7827
:1034200030F8232092B222F4804222F0700248F257
:103430008004224320F823200A7830F822309BB2FF
:1034400023F4E04323F04003234320F822300020FC
:1034500010BC70470A7830F8223013F4804F0BD03C
:1034600030F8223023F0F0031B051B0D43F44043DA
:1034700043F0800320F822300A7830F8223013F02D
:10348000400F0BD030F8223023F0F0031B051B0D4A
:1034900043F4004343F0C00320F822300A7830F8A8
:1034A000223023F0F0031B051B0D43F4404343F08F
:1034B000800320F822300B7830F8232092B222F4D7
:1034C000E04222F0400248F28004224320F8232008
:1034D0000A7830F822309BB223F4804323F0700343
:1034E000234320F82230B2E70A788AB14B7813BB25
:1034F00030F822309BB223F4804323F0700383F42E
:10350000805343F4004343F0800320F8223010E05E
:1035100030F822309BB223F4804323F0400383F43D
:10352000805383F0100343F4004343F0800320F8FA
:1035300022300020704730F822309BB223F4E04361
:1035400023F0400383F0100343F4004343F080036F
:1035500020F82230EDE74B781BB30A7830F82230A0
:1035600013F0400F0BD030F8223023F0F0031B058E
:103570001B0D43F4004343F0C00320F822300A78C7
:1035800030F822309BB223F4E04323F0400383F071
:10359000300343F4004343F0800320F8223000203E
:1035A00070470A7830F8223013F4804F0BD030F88F
:1035B000223023F0F0031B051B0D43F4404343F07E
:1035C000800320F822300A7830F822309BB223F4AE
:1035D000804323F0700383F4405343F4004343F0EB
:1035E000800320F82230DAE711B98023A0F84C30AC
:1035F000002070470020704700207047B0F844005A
:1036000070470020704701335B1000EB420202F567
:10361000806263B110B40C78487844EA002422F840
:10362000044B0231013B002BF5D110BC70477047B1
:10363000F8B58A694D78012D34D00B69934280F03A
:10364000EA80D21A8A618A7A002A40F0F480B0F8BF
:1036500050200C7802EBC402063200EB42023E2BF3
:1036600040F2DD80C3F34F1413F01F0F01D1013C72
:10367000A4B26FEAC4646FEA5444A4B2C2F800442E
:103680000A7830F822309BB223F4804323F0700391
:1036900083F4405343F4004343F0800320F8223086
:1036A0000020F8BD0F69974225D2D21B8A610E46D1
:1036B00004468B7A1BB30B7830F8232012F0400FAE
:1036C00069D0002D37D1B0F8502002EBC303063388
:1036D00000EB43033E2F22D9C7F34F1217F01F0F01
:1036E00001D1013A92B26FEAC2626FEA524292B2DB
:1036F000C3F8002428E000238B611746D7E7BBB24C
:103700008A884969FFF77FFFB4F85030327803EBBD
:10371000C203023304EB4303C3F800742AE0C7F387
:103720004F0217F0010F01D0013292B2920292B211
:10373000C3F8002408E0B0F8502002EBC3030233C2
:1037400000EB4303C3F800743289BBB271692046B1
:10375000FFF759FF7378002B4DD1327834F82230BF
:1037600023F0F0031B051B0D43F4004343F0C0039B
:1037700024F82230327834F822309BB223F4E0432C
:1037800023F0400383F0300343F4004343F080030D
:1037900024F8223084E71DBBB0F8502002EBC303AD
:1037A000023300EB43033E2F0ED9C7F34F1217F03D
:1037B0001F0F01D1013A92B26FEAC2626FEA524220
:1037C00092B2C3F8002414E0C7F34F0217F0010FC0
:1037D00001D0013292B2920292B2C3F8002408E002
:1037E000B0F8502002EBC303023300EB4303C3F8ED
:1037F0000074F288A9E7012BBCD1327834F822306A
:1038000023F0F0031B051B0D43F4404343F08003FA
:1038100024F82230AEE700238B61134613E7C3F38D
:103820004F0413F0010F01D00134A4B2A402A4B2DA
:10383000C2F8004424E7BDB9B0F850200C7802EB80
:10384000C402023200EB42023E2B28D9C3F34F14CC
:1038500013F01F0F01D1013CA4B26FEAC4646FEAF8
:103860005444A4B2C2F800444A7882BBB0F8502055
:103870000C7802EBC402063200EB42023E2B1AD94E
:10388000C3F34F1413F01F0F01D1013CA4B26FEA30
:10389000C4646FEA5444A4B2C2F80044F0E6C3F32F
:1038A0004F0413F0010F01D00134A4B2A402A4B25A
:1038B000C2F80044D8E7C3F34F0413F0010F01D05E
:1038C0000134A4B2A402A4B2C2F80044D8E6012A8A
:1038D0007FF4D6AEB0F850200C7802EBC40202326E
:1038E00000EB4202C2F80034CAE601335B1000EB81
:1038F000420202F5806204E0106821F8020B013BED
:103900000432002BF8D17047D0F818321BB10020D8
:10391000C3F8140270470220704710B5D0F818425F
:10392000D0F81C325BB194F80002FF2807D09B68E6
:1039300094F8012221469847FF2384F800320020A2
:1039400010BD000043230380004870471000002092
:103950004323038000487047540000204323038022
:1039600000487047980000200A23038000487047F1
:10397000DC00002038B50446D0F8185201F050FCA5
:10398000C5F80C02D4F818324BB1D4F81C32DB68FD
:1039900005F50371D5F804029847002038BD0220D0
:1039A000FCE7000070B505460C46D0F818620B78AD
:1039B00013F0600225D0202A07D1CA883AB9D0F87E
:1039C0001C329B68002248789847002070BD13F095
:1039D000800F0BD0D0F81C329B6831466078984736
:1039E000E2883146284600F059FCEEE74B7886F82D
:1039F0000032CB8886F80132CA88314600F063FC79
:103A0000E3E74B780A2BE0D10122024900F046FCA3
:103A1000DBE700BFF401002010B50446812101F06E
:103A200098FB0121204601F094FB8221204601F001
:103A300090FBD4F8183253B1D4F81C325B68984725
:103A4000D4F8180201F0F6FB0023C4F81832002065
:103A500010BD38B50446037C73BB4FF400730222DB
:103A6000812101F065FB4FF4007302220121204601
:103A700001F05EFB082303228221204601F058FB5F
:103A80004FF4077001F0D2FB0546C4F8180248B3A2
:103A9000D4F81C321B6898470023C5F81432C5F8C7
:103AA0001832237CA3B14023D5F8042201212046FB
:103AB00001F0A8FB002038BD40230222812101F043
:103AC00037FB402302220121204601F031FBD1E7E0
:103AD0004FF40073D5F804220121204601F092FB37
:103AE0000020E8E70120E6E719B1C0F81C12002029
:103AF000704702207047D0F81832C3F80812C3F894
:103B0000102200207047D0F81832C3F804120020A9
:103B10007047D0F818229AB108B5037C3BB1402316
:103B2000D2F80422012101F06DFB002008BD4FF402
:103B30000073D2F80422012101F064FB0020F5E7B4
:103B40000220704798B108B50346D0F8140210B1AE
:103B50000020C3F8140209B1C3F81012184601235B
:103B600080F8FC31027001F08BFA002008BD0220C1
:103B7000704719B1C0F81412002070470220704736
:103B800008B501F0C7FA002008BD08B5D0F8143216
:103B900033B11B68984708B9002008BD0220FCE734
:103BA0000220FAE708B5D0F814325B689847002085
:103BB00008BD38B5044600F50275284600F00CF93A
:103BC0000123C4F8F431B4F80E32C4F8F83194F893
:103BD000081201F01F03012B0ED03BB1022B10D0B5
:103BE00001F08001204601F0C2FA03E02946204698
:103BF00000F06BFA002038BD2946204600F089FA13
:103C0000F8E72946204600F0A0FAF3E710B504468D
:103C100021BB1346D0F8F421032A01D0002010BDA7
:103C2000D0F80C11D0F8102191420CD8D0F81432F1
:103C30001B6923B190F8FC21032A00D19847204644
:103C400000F058FBEAE7891AC0F80C118A4228BF35
:103C50000A4692B2194600F045FBDFE70A46D0F863
:103C600014329B69002BD9D090F8FC110329D5D1CF
:103C700011469847D2E710B50446002946D11346AD
:103C8000D0F8F421022A05D094F80032012B39D063
:103C9000002010BDC169026A914219D88169B1FB47
:103CA000F2F302FB13132BB98A4203D8D0F8F83190
:103CB00099421AD3D4F81432DB682BB194F8FC2162
:103CC000032A01D120469847204600F01EFBDBE77F
:103CD0008A1AC26192B2194600F0EDFA00231A4620
:103CE0001946204601F08EFACEE70022114600F078
:103CF000E2FA0021C4F8F8110B460A46204601F00A
:103D000081FAC1E7002384F80032C1E70A46D0F8FF
:103D100014325B69002BBBD090F8FC110329B7D19A
:103D200011469847B4E738B50446402300221146AF
:103D300001F0FEF94025C4F810512B4600228021E5
:103D4000204601F0F5F92562012384F8FC31D4F80E
:103D500018322BB1D4F814325B6821792046984789
:103D6000002038BD01740020704790F8FC3180F8C5
:103D7000FD31042380F8FC310020704790F8FD31BC
:103D800080F8FC310020704708B590F8FC31032B17
:103D900001D0002008BDD0F81432DB69002BF8D028
:103DA0009847F6E7002302E00133DBB201300278E6
:103DB000002AF9D1184670474B88012B0BD110B55A
:103DC0000446C0F80432D0F814329B689847204665
:103DD00000F090FA10BD70470B7803704B78437079
:103DE0008B78CA7803EB022343800B794A7903EB83
:103DF000022383808B79CA7903EB0223C380704747
:103E000010B50446802101F0B2F90021204601F0EE
:103E1000AEF910BD30B583B004460D464A88130A8A
:103E2000013B062B00F28180DFE803F00413277FBB
:103E30007F637000D0F810321B680DF10601007C22
:103E40009847BDF8062012B1EB88002B71D103B062
:103E500030BD037C43B9D0F814329B6A0DF10600E3
:103E6000984702234370ECE7D0F81432DB6A0DF177
:103E70000600984702234370E3E7D2B2052A34D8FC
:103E8000DFE802F0030B131B232BD0F810325B6822
:103E90000DF10601007C9847D3E7D0F810329B68FB
:103EA0000DF10601007C9847CBE7D0F81032DB68B3
:103EB0000DF10601007C9847C3E7D0F810321B696A
:103EC0000DF10601007C9847BBE7D0F810325B6922
:103ED0000DF10601007C9847B3E7D0F810329B69DA
:103EE0000DF10601007C9847ABE72946FFF788FFF4
:103EF000ADE7037C33B9D0F814325B6B0DF10600EB
:103F000098479EE72946FFF77BFFA0E7037C43B96C
:103F1000D0F814321B6B0DF106009847072343704D
:103F20008FE72946FFF76CFF91E72946FFF768FF07
:103F30008DE79A4228BF1A46ADF806200146204672
:103F400000F0ACF983E738B504468B88E3B9CB8839
:103F5000D3B98D7805F07F0590F8FC31032B0CD098
:103F600080F8FE51294601F031F9204600F0C2F9EF
:103F700035B1022384F8FC3109E0FFF741FF06E088
:103F8000012384F8FC3102E02046FFF739FF38BDF9
:103F900038B504460D468978254B1970012909D892
:103FA00090F8FC31022B09D0032B1CD02946FFF7D7
:103FB00027FF02E02946FFF723FF38BD81B14160AA
:103FC000032380F8FC31FFF7E0FD022803D02046F0
:103FD00000F090F9F1E729462046FFF711FFECE7E2
:103FE00000F088F9E9E789B1436899421DD0D9B258
:103FF000FFF7D8FD0E4B197861602046FFF7C5FD2D
:1040000002280DD0204600F075F9D6E7022380F88B
:10401000FC314160FFF7C6FD204600F06BF9CCE7AC
:1040200029462046FFF7ECFEC7E700F063F9C4E736
:10403000F501002008B5CB88012B08D190F8FC31A0
:10404000022B07D0032B0DD0FFF7DAFE01E0FFF7BC
:10405000D7FE08BD0146002341F8083F012200F0C9
:104060001DF9F6E70122011D00F018F9F1E708B586
:1040700090F8FC31023B012B0CD80123C360D0F82F
:1040800004320BB10323C360022200F10C0100F0E3
:1040900005F908BDFFF7B4FEFBE710B5044690F83C
:1040A000FC31023B012B0DD84B88012B09D1002399
:1040B000C0F80432D0F814329B689847204600F0CC
:1040C00019F910BDFFF79CFEFBE708B54B78092BEB
:1040D0001CD8DFE803F012181B151B09051B0F0C79
:1040E000FFF798FE002008BDFFF72DFFFAE7FFF766
:1040F0004FFFF7E7FFF79EFFF4E7FFF7B8FFF1E7A1
:10410000FFF75AFEEEE7FFF7C8FFEBE7FFF778FE91
:10411000E8E738B504460D4690F8FC31032B11D181
:104120000B79012B0BD8D0F814329B689847EB8899
:104130000BB1002038BD204600F0DCF8F9E7FFF7AE
:104140005FFEF6E7FFF75CFEF3E738B505460C4681
:104150008A880B7803F06003202B05D1D0F8143245
:104160009B689847002038BDD1B26378012B25D0D9
:10417000002B47D0032BF5D190F8FC31022B05D052
:10418000032B0AD02146FFF73BFEEBE70029E9D0DD
:104190008029E7D000F0EBFFE4E7638823B919B189
:1041A000802901D000F0E3FFD5F814329B68214646
:1041B00028469847284600F09DF8D3E790F8FC3150
:1041C000022B05D0032B0AD02146FFF719FEC9E7C1
:1041D0000029C7D08029C5D000F0C9FFC2E7638895
:1041E000002BBFD111F07F0F03D1284600F082F8D9
:1041F000B8E700F0CAFFD5F814329B68214628467C
:104200009847F2E790F8FC31022B05D0032B09D038
:104210002146FFF7F5FDA5E711F07F0FA2D000F0D2
:10422000A6FF9FE712F0800F11D101F07F04103438
:1042300000EB04140434284600F0B5FF70B10123EC
:10424000236002222146284600F028F88AE701F080
:104250007F04013400EB04140434ECE700232360F2
:10426000EFE7D0B170B50D4616460446FFF79AFD4C
:104270000130400080B23080287003236B7002232D
:1042800007E001345A1CD2B2E9540233DBB20021F8
:10429000A95421780029F4D170BD704710B5134698
:1042A0000222C0F8F4218361C3610A46002100F0B4
:1042B0009BFF002010BD08B513460A46002100F000
:1042C00093FF002008BD10B513460322C0F8F42167
:1042D000C0F80831C0F80C310A46002100F092FF06
:1042E000002010BD08B513460A46002100F08AFFE1
:1042F000002008BD08B50423C0F8F43100231A4695
:10430000194600F071FF002008BD08B50523C0F86C
:10431000F43100231A46194600F074FF002008BD4E
:10432000842801D0033070470020704708B500F0A2
:10433000C9F9002008BDF0B585B00F46446805688E
:104340000669B0F90800FFF7EBFF03AB019300909B
:104350003B46B2B22946204600F082F9012802D13C
:10436000039805B0F0BD0020FBE708B5034600B98F
:104370000123184600F0E8FA002008BD08B500F057
:104380008FFB012801D000F04DFC08BD00F10803AF
:1043900043604FF0FF328260C3600361002303601B
:1043A000704700230361704743684B609A688A60D6
:1043B0009A6851609960086103680133036070472F
:1043C00030B40D68B5F1FF3F02D000F1080202E001
:1043D000026904E01A4653681C68AC42FAD9536873
:1043E0004B6099608A605160086103680133036023
:1043F00030BC704703694268816891608268416897
:1044000051605A68824205D0002202611868013862
:104410001860704782685A60F6E70000074B9B6A95
:104420001B6833B1054B9A6AD268D2685268DA6267
:104430007047024B4FF0FF32DA627047F8010020FC
:1044400010B50446006B00F03DFD204600F03AFD3B
:1044500010BD2DE9F04780469946089D099F0A9CAA
:10446000266B02F18042013A06EB820626F007062F
:1044700000230F2B07D8C85CE21882F83400CA5C0E
:104480000AB10133F5E7002384F84330062D00D943
:104490000625E56265644FF0000AC4F848A0201DB7
:1044A000FFF77FFF04F11800FFF77BFF2461C5F1E0
:1044B0000705A5616462C4F84CA084F850A04A4680
:1044C0004146304600F026FB206007B13C60BDE865
:1044D000F087000070B5002407E004EB840293002D
:1044E00010481844FFF752FF0134062CF5D90E4C42
:1044F00004F1BC063046FFF749FF04F1D005284619
:10450000FFF744FF04F11400FFF740FF04F1E4005B
:10451000FFF73CFF2046FFF739FFA662C4F8F850CA
:1045200070BD00BF28020020F801002038B5054604
:1045300000F018FB264BD3F8FC200132C3F8FC2016
:10454000D3F8003173B1224BD3F804318BB9204B2F
:10455000D3F80031DA6AEB6A9A420AD81C4BC3F8E6
:10456000005106E01A4BC3F80051D3F8FC30012B80
:104570002AD0174CD4F808310133C4F80831EB6A5B
:1045800001229A40D4F80C110A43C4F80C2104F11A
:10459000300003EB83039A00291D1044FFF704FF4A
:1045A00000F002FBD4F804316BB1D4F80031DA6AC0
:1045B000EB6A9A4207D2074B4FF080521A60BFF362
:1045C0004F8FBFF36F8F38BDFFF784FFD1E700BF78
:1045D000F801002004ED00E070B504460E461F4BC4
:1045E000D3F81051D3F800010430FFF703FF60B98E
:1045F0001A4BD3F80021D16A012202FA01F1D3F853
:104600000C2122EA0102C3F80C21B4F1FF3F12D0C1
:104610002C44124BD3F800315C60A54214D80F4DE6
:10462000A86AD5F800110431FFF7CAFEEB6AA3426D
:1046300012D9EC6210E0002EEAD00848D0F8001140
:104640000431FFF7B1FE07E0044BD3F8F800D3F8CC
:1046500000110431FFF7B4FE70BD00BFF801002067
:104660002DE9F04385B007468846154699469000E7
:1046700000F0A2FBF8B10646542000F09DFB044672
:10468000A8B10663D4B10023039302940D9B019358
:104690000C9B00934B462A4641463846FFF7D9FE0D
:1046A0002046FFF743FF012005B0BDE8F083304608
:1046B00000F008FCE6E74FF0FF30F5E74FF0FF3081
:1046C000F2E7000000B583B0174B0193002300937D
:1046D000802216491648FFF7C3FF012805D0B0F124
:1046E000FF3F17D003B05DF804FB4FF0500383F396
:1046F0001188BFF36F8FBFF34F8F0E4B4FF0FF3218
:10470000DA620122C3F804210022C3F8102100F06C
:10471000B5FAE7E74FF0500383F31188BFF36F8FCB
:10472000BFF34F8FFEE700BF14030020906800081E
:10473000E9490008F8010020034AD2F81831013392
:10474000C2F81831704700BFF80100202DE9F04190
:10475000404BD3F81831002B6CD13E4BD3F810519D
:104760000135C3F81051CDB99B6A1B6843B14FF0B6
:10477000500383F31188BFF36F8FBFF34F8FFEE7B2
:10478000344B9A6AD3F8F8109962C3F8F820D3F83A
:1047900020210132C3F82021FFF740FE2D4BDB6AB8
:1047A000AB423DD900242B4AD2F80031DB6A03EB3F
:1047B000830399000A44136B012B42D9012440E082
:1047C0000124244B9B6A1B6863B3224B9B6ADB6802
:1047D000DE6873689D422AD306F104084046FFF75D
:1047E00009FEB36A1BB106F11800FFF703FEF36A76
:1047F00001229A40174FD7F80C110A43C7F80C2131
:1048000007F1300003EB83039A0041461044FFF7A1
:10481000CBFDF26AD7F80031DB6A9A42D0D2D0E7FA
:104820000024CEE70B4B4FF0FF32DA62BBE7094AB8
:10483000D362B8E7074AD2F824310133C2F82431F1
:104840000024044BD3F8283103B101242046BDE8ED
:10485000F08100BFF8010020394BD3F8183143B97B
:104860004FF0500383F31188BFF36F8FBFF34F8F67
:10487000FEE770B500F076F9314BD3F81821013A14
:10488000C3F81821D3F81831002B54D12C4BD3F88E
:10489000FC3023B9002400F087F9204670BD0024C5
:1048A000274B5B692BB3264D2B6ADC6804F118009B
:1048B000FFF7A0FD261D3046FFF79CFDE36A0122AD
:1048C0009A40D5F80C110A43C5F80C2105F13000C7
:1048D00003EB83039A0031461044FFF765FDE26A5B
:1048E000D5F80031DB6A9A42DAD30122C5F82821D3
:1048F000D6E70CB1FFF792FD114BD3F8244164B118
:10490000FFF724FF18B10E4B0122C3F82821013C08
:10491000F6D10B4B0022C3F82421094BD3F82831E0
:104920005BB1084B4FF080521A60BFF34F8FBFF35B
:104930006F8F0124AFE70024ADE70024ABE700BF91
:10494000F801002004ED00E010B5B0B104460F4BB3
:10495000D3F8183143B14FF0500383F31188BFF3FC
:104960006F8FBFF34F8FFEE7FFF7E6FE0021204673
:10497000FFF732FEFFF770FF38B9054B4FF080525A
:104980001A60BFF34F8FBFF36F8F10BDF801002087
:1049900004ED00E038B5134BD3F814310BB3FFF737
:1049A000CBFE104BD3F8E440FFF756FF002CF2D0BB
:1049B00000F0D8F80B4CD4F8F030DD68281DFFF774
:1049C00019FDD4F8FC30013BC4F8FC30D4F81431A4
:1049D000013BC4F8143100F0E7F82846FFF730FD3A
:1049E000D9E738BDF801002008B5FFF7D3FF064B23
:1049F0001B6B012BF9D9054B4FF080521A60BFF3A6
:104A00004F8FBFF36F8FF0E7F801002004ED00E057
:104A1000224BD3F8183123B1204B0122C3F82821AF
:104A200070471E4A0023C2F82831D2F80C31B3FA7D
:104A300083F3DBB2C3F11F0303EB830081000A445D
:104A4000126B42B94FF0500383F31188BFF36F8F9D
:104A5000BFF34F8FFEE710B4104A9900CC18A000A6
:104A60001044446B64684463303219448800083051
:104A7000024494420AD0094903EB83039A000A4492
:104A8000536BDB68C1F8003110BC704761680348A4
:104A9000142202FB03025163EDE700BFF80100207E
:104AA000064BD3F804313BB1044BD3F818310BB1AA
:104AB000002070470220704701207047F801002055
:104AC0000B4B1B68B3F1FF3F08D04FF0500383F34B
:104AD0001188BFF36F8FBFF34F8FFEE74FF0500386
:104AE00083F31188BFF36F8FBFF34F8FFEE700BFD3
:104AF0002001002006480068006880F3088862B63C
:104B000061B6BFF34F8FBFF36F8F00DF00BF0000B0
:104B100008ED00E04FF0807340F8043C21F0010103
:104B200040F8081C034B40F80C3C40F8202C40385F
:104B3000704700BFC14A00080000000000000000EC
:104B4000074B19680868B0E8F00F80F30988BFF3D5
:104B50006F8F4FF0000080F311884EF00D0E7047FC
:104B6000F80200204FF0500383F31188BFF36F8FDA
:104B7000BFF34F8F0A4A136801331360012B00D033
:104B80007047084B1B6813F0FF0FF9D04FF050032C
:104B900083F31188BFF36F8FBFF34F8FFEE700BF22
:104BA0002001002004ED00E0094B1B6843B94FF0E1
:104BB000500383F31188BFF36F8FBFF34F8FFEE76E
:104BC000013B034A13600BB983F31188704700BFA0
:104BD0002001002000000000000000000000000094
:104BE000EFF30980BFF36F8F0D4B1A6820E9F00FC8
:104BF00010602DE908404FF0500080F31188FFF756
:104C000007FF4FF0000080F31188BDE808401968E5
:104C10000868B0E8F00F80F30988BFF36F8F704722
:104C2000F802002008B54FF0500383F31188BFF35A
:104C30006F8FBFF34F8FFFF789FD18B1034B4FF014
:104C400080521A60002383F3118808BD04ED00E050
:104C5000064B1B68064AA2FB03239B09013B054A3E
:104C60001360054B07221A60704700BF0400002044
:104C7000D34D621014E000E010E000E000B583B016
:104C80001E4B1A78D2B20192FF221A701B78DBB247
:104C90008DF803309DF8033003F05003184A137069
:104CA0000723536009E0164A5368013B53609DF89F
:104CB00003305B00DBB28DF803309DF8033013F056
:104CC000800FF0D10E4A53681B0203F4E063536077
:104CD000019BDBB2094A13700A4B1A6842F4700256
:104CE0001A601A6842F070421A60FFF7B1FF064B73
:104CF00000221A60FFF7FEFEFFF7E2FE00E400E08C
:104D00002403002020ED00E020010020134A12F0CF
:104D1000070F20D0D11D21F00701C1F540631344D6
:104D20000A460E49C1F8002C0020C1F8040C1344B7
:104D3000083B23F00703C1F8083C58601860981A34
:104D400050601360C1F80C0CC1F8100C4FF0004318
:104D5000C1F8143C70474FF44063E2E72C03002095
:104D600010B4134B1A6882421BD359685C188442F2
:104D700003D1406801445960184641684418A24272
:104D800013D10C4CD4F8084CA2420CD052681144F8
:104D900041601A6812680260984200D0186010BC26
:104DA00070471346DEE70460F6E70260F4E700BFF1
:104DB0002C0F00202C03002070B50446FFF7BCFC2C
:104DC0003F4BD3F8083CC3B13D4BD3F8143C1C42D5
:104DD0006CD1ACB1083414F0070F11D024F00704E3
:104DE000083404F007035BB14FF0500383F31188DC
:104DF000BFF36F8FBFF34F8FFEE7FFF787FFE3E748
:104E0000002C55D02E4BD3F8103CA34252D32C4B40
:104E1000D3F8005C03F5406301E02B4615466A6851
:104E2000A24202D22A68002AF7D1254AD2F8082CD9
:104E3000AA4241D01E6808362A681A606B681B1B9C
:104E4000102B10D9281910F0070F08D04FF050037D
:104E500083F31188BFF36F8FBFF34F8FFEE743607B
:104E60006C60FFF77DFF6968154AD2F8103C5B1A49
:104E7000C2F8103CD2F80C2C934202D2104AC2F86D
:104E80000C3C0F4BD3F8143C0B436B6000232B609E
:104E9000FFF7E2FC16F0070F10D04FF0500383F33A
:104EA0001188BFF36F8FBFF34F8FFEE70026EFE748
:104EB0000026EDE70026EBE70026E9E7304670BD67
:104EC0002C03002098B338B50446A0F1080550F82B
:104ED000042C1749D1F8141C0A4208D14FF0500392
:104EE00083F31188BFF36F8FBFF34F8FFEE750F846
:104EF000080C40B14FF0500383F31188BFF36F8F5C
:104F0000BFF34F8FFEE722EA010244F8042CFFF7BB
:104F100013FC54F8041C064AD2F8103C0B44C2F8A7
:104F2000103C2846FFF71CFFFFF796FC38BD704782
:104F30002C03002010B5094C002209492046FEF739
:104F400001FE08492046FEF714FE07492046FEF7F9
:104F5000CBFD2046FEF714FE10BD00BFD812002086
:104F60004C010020E80000202401002000207047B0
:104F70000020704710B5054C01462046FEF7C3FDE2
:104F80002046FEF7C6FD002010BD00BFD81200204D
:104F900010B5064C002206492046FEF7ACFD054937
:104FA0002046FEF7B0FD002010BD00BFD812002043
:104FB000E4180020FC14002002680E4B9A4200D036
:104FC000704700B583B003F5DA33DA6942F40002C2
:104FD000DA61DB6903F400030193019B00220521E0
:104FE0001420FBF77FFF1420FBF7B0FF03B05DF840
:104FF00004FB00BF005C004008B500F22C41D0F873
:105000005C04FEF7D6FD08BD08B500EB4113D3F8EC
:105010003C22D0F85C04FEF7F9FD08BD08B500EBB2
:105020004113DA6BD0F85C04FEF725FE08BD08B525
:10503000D0F85C04FEF7A8FE08BD10B504460121B7
:10504000D0F85C04FEF78EFED4F85C04FEF76BFE2D
:1050500010BD000010B50446D0F85C04FEF785FED4
:10506000A36923B1024A136943F00603136110BD1B
:1050700000ED00E008B5D0F85C04FEF77FFE08BD47
:1050800010B504462048C0F85C44C4F820021F4B09
:10509000036008234360022383600123C36000236D
:1050A0008361C3610362FCF735FE30BB1823002225
:1050B0001146D4F82002FDF77EFA58230022802101
:1050C000D4F82002FDF777FAC02300228121D4F81A
:1050D0002002FDF770FA4FF4887300220121D4F802
:1050E0002002FDF768FA4FF4807300228221D4F881
:1050F0002002FDF760FA002010BD4FF497710448BC
:10510000FBF758FBD2E700BFCC1C0020005C00403E
:105110009868000808B5D0F82002FCF766FE18B1C0
:10512000022803D0022008BD0020FCE70120FAE796
:1051300010B51C4613462246D0F82002FCF780FE2C
:1051400018B1022803D0022010BD0020FCE7012086
:10515000FAE708B5D0F82002FCF79BFE18B1022848
:1051600003D0022008BD0020FCE70120FAE708B5C3
:10517000D0F82002FDF7CAF918B1022803D00220A6
:1051800008BD0020FCE70120FAE708B5D0F82002AE
:10519000FDF7EAF918B1022803D0022008BD00206B
:1051A000FCE70120FAE7D0F8203211F0800F06D199
:1051B00001F07F0103EB411191F82A02704701F0E1
:1051C0007F0103EB411191F82A00704708B5D0F830
:1051D0002002FCF721FE18B1022803D0022008BDEE
:1051E0000020FCE70120FAE708B5D0F82002FCF720
:1051F0009DFE18B1022803D0022008BD0020FCE764
:105200000120FAE708B5D0F82002FCF769FE18B1D2
:10521000022803D0022008BD0020FCE70120FAE7A5
:1052200008B5D0F82002FCF77AFE08BD00487047A8
:10523000440F00207047704712230B8000487047CE
:105240003401002004230B800048704748010020EF
:1052500008B50A4628B105490548FFF702F8034892
:1052600008BD02490248FEF7FCFFF8E72C210020A8
:10527000B468000810B5044C0A4621460348FEF7FE
:10528000F0FF204610BD00BF2C210020CC68000894
:1052900008B50A4628B105490548FEF7E2FF03486C
:1052A00008BD02490248FEF7DCFFF8E72C21002088
:1052B000E068000808B50A4628B105490548FEF728
:1052C000D0FF034808BD02490248FEF7CAFFF8E7CD
:1052D0002C210020F068000808B50A4628B10549CD
:1052E0000548FEF7BEFF034808BD02490248FEF725
:1052F000B8FFF8E72C210020FC680008002103E03B
:105300000B4B5B58435004310A480B4B42189A42EE
:10531000F6D30A4A02E0002342F8043B084B9A42C3
:10532000F9D3FBF783FD00F0A9FBFBF7B5FA704753
:10533000C869000800000020D8010020D801002022
:1053400030230020FEE700000A4B10B50446186821
:1053500018B183690BB900F007FB132C07D8064876
:1053600050F83430013302D000EBC40010BD0020EF
:10537000FCE700BF7401002074110020F8B5431C45
:10538000054609D100F0AAFA132406460027204654
:105390003946ABBE044634602846F8BDF8B505462C
:1053A00000F09CFA13240646002720463946ABBE7F
:1053B000044634602846F8BD30B585B0CDE901011A
:1053C0000392062401AD20462946ABBE0446204682
:1053D000FFF7D4FF05B030BD70B50E461546FFF798
:1053E000B3FF044630B900F079FA092303604FF0A7
:1053F000FF3070BD2A4631460068FFF7DDFF431CD1
:105400001FBF6368281A1B186360F2E7F7B50C46E4
:105410001646FFF799FF054640B900F05FFA0923E9
:1054200003604FF0FF34204603B0F0BD022E03D9D5
:1054300000F054FA1623F3E7012E12D14368E41862
:10544000F6D42B680A26CDE900346F46304639463B
:10545000ABBE06463046FFF791FF0028E1DB6C60EB
:10546000E1E7022EEDD1036802AF47F8083D0C26B4
:1054700030463946ABBE06463046FFF77FFF431C39
:10548000CFD00444DDE7FFF7C1BF30B585B0CDE92B
:1054900001010392052401AD20462946ABBE044616
:1054A0002046FFF76BFF05B030BD70B50E461546C0
:1054B000FFF74AFF044630B900F010FA09230360F1
:1054C0004FF0FF3070BD2A4631460068FFF7DDFF20
:1054D000021EF5DB6368A81A034495426360F1D1AC
:1054E000BDE870400020FFF759BF37B502AD45F861
:1054F000040D022420462946ABBE04462046FFF791
:105500003DFF03B030BD000038B50546FFF71CFF76
:10551000044630B900F0E2F9092303604FF0FF3090
:1055200038BD013D012D09D8094B9A681B699A4283
:1055300004D14FF0FF3303600020F1E72068FFF74C
:10554000D4FF0028ECD14FF0FF332360E8E700BF21
:10555000741100200D4B10B51968024609B90C49A9
:1055600019606946186802448A4206D809490A4CFB
:105570000968A14208D08A4206D900F0AFF90C238D
:1055800003604FF0FF3010BD1A60FCE7641100208B
:105590003023002068010020ADDEFECA70B50C4645
:1055A000FFF7D2FE064630B900F098F909230360F0
:1055B0004FF0FF3070BD63680C2543F40053636007
:1055C0004FF48063636428463146ABBE05462846E7
:1055D000FFF7D4FE431C1CBF20610020EAE70B4606
:1055E00010B5002104465822184600F06BFA014617
:1055F0002046BDE81040FFF7D1BF38B50D46044640
:1056000058220021284600F05DFA2046002100F0D3
:1056100011F8431C04460BD06B68294643F4014340
:105620006B60FFF7BBFF05462046FFF76DFF2C467A
:10563000204638BD2B4B2DE9F04782460E4600250B
:10564000984696B053F83540EF00611C36D00135CE
:10565000142DF7D100F042F918234FF0FF34036006
:105660003CE040F20163C6F30044B20748BF44F097
:1056700002041E4218BF44F00404330748BF24F05C
:105680000404504648BF44F00804CDF800A0FAF7DF
:105690005FFDCDE90140012420464946ABBE0446EA
:1056A000002C06DB0023474448F835407B602C463D
:1056B00014E02046FFF772FE04460FE006F4206374
:1056C000B3F5206FE946CCD149465046FFF795FF28
:1056D0000130C6D000F002F911230360204616B055
:1056E000BDE8F087741100202DE9F743074688468E
:1056F000294800211546FFF79DFF04462A46002150
:10570000384600F0DFF9631C15D02046FFF71CFE79
:105710000C26814630464946ABBE06463046FFF76A
:105720002DFE032802DD0338A84208DC2046FFF7DF
:10573000EBFE4FF0FF34204603B0BDE8F0830422B7
:1057400020460DEB0201FFF747FE0328EEDD9DF832
:105750000430532BEAD19DF80530482BE6D19DF853
:105760000630462BE2D19DF80730422BDED10122D4
:1057700041462046FFF74AFE0028D7DB2A46394635
:105780002046FFF729FE05462046FFF7BDFE2846C6
:10579000FFF7F4FD0446CEE70C69000837B5002199
:1057A0000122094D094C01A829602260FFF79CFFE6
:1057B000002807DD9DF8043003F0010203F0020326
:1057C0002A60236003B030BD6C010020700100200E
:1057D00010B5044C2268002A01DAFFF7DFFF2068C9
:1057E00010BD00BF700100202DE9F04F03230024FD
:1057F000DFF8AC9085B0CDF804900DF10408039368
:105800000125029428464146ABBE0546204A234660
:105810004FF0FF3114461F4E356042F8331001330C
:10582000142BFAD1FFF7D4FF1B4DD0B14FF0030A70
:105830000423CDF804900127CDF80CA0029338463C
:105840004146ABBE8346154BCDF80490C3F800B07B
:105850000823CDF80CA0029338464146ABBE07465C
:105860002F602B68013302BF0C4B1B682B60336821
:10587000002623606660FFF7ABFF30B1074B1B6863
:10588000C4E902362B68C4E9043605B0BDE8F08FE0
:10589000741100206C11002068110020701100208C
:1058A0002269000870B5FFF74FFD0925044620B9AD
:1058B00000F014F80560204670BD28462146ABBEB6
:1058C0000446012CF7D000F009F800240646132501
:1058D00028462146ABBE05463560ECE7014B18680B
:1058E000704700BF74010020002310B50446C0E9D2
:1058F0000033836081814366C281C0E904338361E0
:10590000194608225C3000F0DDF8054B2462636222
:10591000044BA362044BE362044B236310BD00BF3E
:10592000A15C0008C35C0008FB5C00081F5D000868
:10593000014900F085B800BFF95F000870B568251F
:105940004A1E55430E4605F1740100F0C3F80446A3
:1059500040B10021C0E900160C30A06005F16802DA
:1059600000F0B0F8204670BD836910B5044633BB23
:10597000C0E912330365124B124A1B6882629842D7
:1059800004BF0123836100F01FF86060204600F02F
:105990001BF8A060204600F017F80022E060042108
:1059A0006068FFF7A1FF01220921A068FFF79CFFB3
:1059B00002221221E068FFF797FF0123A36110BDC7
:1059C0008869000831590008F8B51B4B07461E6866
:1059D000B36913B93046FFF7C7FF4836D6E901343B
:1059E000013B03D5336833B13668F7E7B4F90C509F
:1059F0006DB16834F4E704213846FFF79FFF30604B
:105A00000028F1D10C2304463B602046F8BD0B4B27
:105A10006566C4E90055A560C4E90335C4E90555C8
:105A20000822294604F15C0000F04CF8C4E90D5549
:105A3000C4E91255E9E700BF886900080100FFFFCB
:105A40002DE9F84380468946002600F1480414B940
:105A50003046BDE8F883D4E90175013F01D52468DB
:105A6000F5E7AB89012B07D9B5F90E30013303D027
:105A700029464046C84706436835EEE770B500251D
:105A80000C4E0D4CA41BA410A54209D100F0A8FE99
:105A900000250A4E0A4CA41BA410A54205D170BDD6
:105AA00056F8253098470135EEE756F825309847E7
:105AB0000135F2E7C0690008C0690008C069000844
:105AC000C469000803460244934200D1704703F8BA
:105AD000011BF9E770B5CD1C25F0030508350C2D29
