:020000040800F2
:1000000000500020C9720008E9260008EB2600080D
:10001000ED260008EF260008F12600080000000089
:10002000000000000000000000000000E16A00087D
:10003000F326000800000000816B0008F526000888
:100040001173000811730008117300081173000880
:100050001173000811730008117300081173000870
:10006000117300081173000811730008FD260008C1
:10007000117300080D2700081173000811730008A0
:10008000117300081D270008117300081173000880
:100090002D27000811730008117300081173000860
:1000A0001173000811730008117300081173000820
:1000B00011730008117300083D2700081173000830
:1000C0001173000811730008117300081173000800
:1000D00011730008117300081173000811730008F0
:1000E0004D2700081173000811730008000000007C
:1000F0000000000000000000000000000000000000
:0C01000000000000000000005FF808F1A3
:1001100010B5054C237833B9044B13B10448AFF341
:1001200000800123237010BD140200200000000095
:10013000508B000808B5034B1BB103490348AFF3CC
:10014000008008BD0000000018020020508B00084D
:10015000034613F8012B002AFBD1181A0138704707
:1001600080F0004002E000BF81F0004142001FBF6C
:100170005FEA410392EA030F7FEA226C7FEA236C75
:100180006AD04FEA1262D2EB1363C1BFD21841406A
:1001900048404140B8BF5B42192B88BF704710F000
:1001A000004F40F4000020F07F4018BF404211F0A3
:1001B000004F41F4000121F07F4118BF494292EA0B
:1001C000030F3FD0A2F1010241FA03FC10EB0C0037
:1001D000C3F1200301FA03F100F0004302D54942C4
:1001E00060EB4000B0F5000F13D3B0F1807F06D371
:1001F00040084FEA310102F10102FE2A51D2B1F169
:10020000004F40EBC25008BF20F0010040EA03005D
:100210007047490040EB000010F4000FA2F101020A
:10022000EDD1B0FA80FCACF1080CB2EB0C0200FA94
:100230000CF0AABF00EBC25052421843BCBFD040E2
:100240001843704792F0000F81F4000106BF80F45C
:1002500000000132013BB5E74FEA41037FEA226C1F
:1002600018BF7FEA236C21D092EA030F04D092F0EA
:10027000000F08BF0846704790EA010F1CBF00201E
:10028000704712F07F4F04D1400028BF40F000407B
:10029000704712F100723CBF00F50000704700F09B
:1002A000004343F0FE4040F4000070477FEA2262C2
:1002B00016BF08467FEA23630146420206BF5FEA93
:1002C000412390EA010F40F4800070474FF0000393
:1002D00004E000BF10F0004348BF40425FEA000C5A
:1002E00008BF704743F0964301464FF000001CE002
:1002F00050EA010208BF70474FF000030AE000BF58
:1003000050EA010208BF704711F0004302D5404295
:1003100061EB41015FEA010C02BF84460146002007
:1003200043F0B64308BFA3F18053A3F50003BCFA22
:100330008CF2083AA3EBC25310DB01FA02FC6344CF
:1003400000FA02FCC2F12002BCF1004F20FA02F2D6
:1003500043EB020008BF20F00100704702F12002C9
:1003600001FA02FCC2F1200250EA4C0021FA02F22A
:1003700043EB020008BF20EADC7070474FF0FF0C2F
:100380001CEAD0521EBF1CEAD15392EA0C0F93EA2A
:100390000C0F6FD01A4480EA010C400218BF5FEACC
:1003A00041211ED04FF0006343EA501043EA51113F
:1003B000A0FB01310CF00040B1F5000F3EBF490039
:1003C00041EAD3715B0040EA010062F17F02FD2A3D
:1003D0001DD8B3F1004F40EBC25008BF20F0010020
:1003E000704790F0000F0CF0004C08BF49024CEA37
:1003F000502040EA51207F3AC2BFD2F1FF0340EAC9
:10040000C250704740F400004FF00003013A5DDC39
:1004100012F1190FDCBF00F000407047C2F100027A
:10042000410021FA02F1C2F1200200FA02FC5FEA67
:10043000310040F1000053EA4C0308BF20EADC70B1
:10044000704792F0000F00F0004C02BF400010F423
:10045000000F013AF9D040EA0C0093F0000F01F0D0
:10046000004C02BF490011F4000F013BF9D041EAF2
:100470000C018FE70CEAD15392EA0C0F18BF93EAF4
:100480000C0F0AD030F0004C18BF31F0004CD8D11E
:1004900080EA010000F00040704790F0000F17BFA5
:1004A00090F0004F084691F0000F91F0004F14D0EB
:1004B00092EA0C0F01D142020FD193EA0C0F03D143
:1004C0004B0218BF084608D180EA010000F0004046
:1004D00040F0FE4040F40000704740F0FE4040F421
:1004E000400070474FF0FF0C1CEAD0521EBF1CEAC0
:1004F000D15392EA0C0F93EA0C0F69D0A2EB0302DE
:1005000080EA010C49024FEA402037D04FF0805377
:1005100043EA111143EA10130CF000408B4238BF3C
:100520005B0042F17D024FF4000C8B4224BF5B1A4A
:1005300040EA0C00B3EB510F24BFA3EB510340EA98
:100540005C00B3EB910F24BFA3EB910340EA9C0046
:10055000B3EBD10F24BFA3EBD10340EADC001B01B6
:1005600018BF5FEA1C1CE0D1FD2A3FF650AF8B425A
:1005700040EBC25008BF20F0010070470CF0004C67
:100580004CEA50207F32C2BFD2F1FF0340EAC25092
:10059000704740F400004FF00003013A37E792F053
:1005A000000F00F0004C02BF400010F4000F013AB1
:1005B000F9D040EA0C0093F0000F01F0004C02BFAC
:1005C000490011F4000F013BF9D041EA0C0195E715
:1005D0000CEAD15392EA0C0F08D142027FF47DAFAE
:1005E00093EA0C0F7FF470AF084676E793EA0C0F9E
:1005F00004D14B023FF44CAF08466EE730F0004C9C
:1006000018BF31F0004CCAD130F000427FF45CAF2B
:1006100031F000437FF43CAF5FE700BF42000ED2F1
:10062000B2F1FE4F0BD34FF09E03B3EB126209D42D
:100630004FEA002343F0004323FA02F070474FF0E3
:100640000000704712F1610F01D1420202D14FF058
:10065000FF3070474FF00000704700BF00B583B017
:10066000234B93F82430CBB1A0B102238DF807308F
:100670001F4B586819680DF107030122497C007867
:1006800001F094FB48BB9DF80720194B5A7403B046
:100690005DF804FB00238DF80730E9E7144B9B7AE3
:1006A000F3B110B1124B5B7CEBB990B101238DF823
:1006B00007300F4B586819680DF107030122497C78
:1006C000007801F073FB80B99DF80720084B5A743D
:1006D000DDE700238DF80730EBE74FF0FF30D6E77A
:1006E0004FF0FF30D3E70020D1E74FF0FF30CEE7E7
:1006F000000000207B4B9B7A002B00F0D48000B5DB
:1007000083B002AB002203F8012D764A50681168CD
:100710000122497C007801F049FB002840F0C680A6
:10072000704B586819680DF1070301224979007868
:1007300001F03CFB002840F0BC806A4B5868196807
:100740000DF1070301220979007801F02FFB002841
:1007500040F0B280634B93F82430002B53D002ABAF
:100760000C2203F8012D5F4A5068116801220979B3
:10077000007801F01BFB002840F0A180322002F03D
:100780009DF8C0238DF80730564B9B7A13F0010F6C
:1007900002D0E0238DF80730524B586819680DF1EC
:1007A000070301220979007801F000FB002840F0DE
:1007B00089804C4B5B7CFBB102238DF80730494BA1
:1007C000586819680DF107030122497C007801F08F
:1007D000EDFA002879D102AB002203F8012D414A3D
:1007E0005068116801224979007801F0DFFA38B9C0
:1007F000002003B05DF804FB00238DF80730DEE72E
:100800004FF0FF30F5E702AB042203F8012D354A23
:100810005068116801220979007801F0C7FA0028B0
:1008200056D1304B9B7C23B92E4B9B7A13F0010F92
:100830002ED140238DF807302A4B586819680DF1E6
:10084000070301220979007801F0B0FA002842D1AB
:10085000322002F033F8234B5B7CEBB101238DF89F
:100860000730204B586819680DF107030122497CB5
:10087000007801F09BFA88BB1A4B586853F8101B9C
:1008800001224979007801F091FA48B90020B0E7D7
:1008900060238DF80730CFE700238DF80730E0E7BD
:1008A0004FF0FF30A5E74FF0FF3070474FF0FF30BB
:1008B0009FE74FF0FF309CE74FF0FF3099E74FF094
:1008C000FF3096E74FF0FF3093E74FF0FF3090E7AF
:1008D0004FF0FF308DE74FF0FF308AE74FF0FF30E9
:1008E00087E700BF000000200D4B1B7A032B13D8B5
:1008F000DFE803F002060A0EFA23038000207047A7
:100900004FF4FA730380F9E74FF47A730380F5E745
:100910004FF4FA630380F1E700230380EEE700BFA2
:1009200000000020224B9B7A002B36D000B583B00C
:10093000B0F5FA7F29D009D9B0F57A7F29D0B0F582
:10094000FA6F2DD118238DF8073004E0FA2827D14B
:1009500000238DF80730164B1B7A9DF80720B3EB68
:10096000D20F20D0124B586819680DF107030122ED
:100970008979007801F01AFAB8B99DF80730DB08D8
:100980000B4A137203B05DF804FB08238DF807309F
:10099000E1E710238DF80730DDE74FF0FF307047B7
:1009A0004FF0FF30EEE70020ECE74FF0FF30E9E7D3
:1009B000000000200F4B5B7A032B16D8DFE803F012
:1009C000020C0F12022303700A4BDB7C83B1037805
:1009D0005B0003700020704704230370F4E70823D2
:1009E0000370F1E710230370EEE74FF0FF3070471C
:1009F0000020704700000020234B9B7A002B37D04B
:100A000000B583B002380E2835D8DFE800F008348E
:100A10002534343429343434343434342D00002330
:100A20008DF80730184B5B7A9DF80720B3EBD20F97
:100A300024D0154B586819680DF107030122C979B4
:100A4000007801F0B3F9D8B99DF80730DB080E4AF9
:100A5000537203B05DF804FB08238DF80730E1E71B
:100A600010238DF80730DDE718238DF80730D9E71C
:100A70004FF0FF3070474FF0FF30EAE70020E8E723
:100A80004FF0FF30E5E700BF00000020234B9B7ACA
:100A9000002B3AD000B583B0BB281AD901238DF8BA
:100AA00007301E4BDA7A9DF807309A4230D01B4B44
:100AB000586819680DF1070301228978007801F060
:100AC00075F938BB9DF80720144BDA7203B05DF856
:100AD00004FB612803D902238DF80730E1E72928B8
:100AE00003D903238DF80730DBE7132803D9042348
:100AF0008DF80730D5E7092803D905238DF807308D
:100B0000CFE706238DF80730CBE74FF0FF30704773
:100B10000020DBE74FF0FF30D8E700BF00000020E7
:100B2000054B93F8243023B9034BDB890380002065
:100B300070474FF0FF3070470000002070B5164B33
:100B400093F8243013BB00F0FE04134B9B7A03B3DD
:100B5000114A167C23401374A34211D04FF0FF3585
:100B600014B90D4B1B7D6BB10120FFF777FD74B1FC
:100B7000FFF7C0FD58B1084B1E744FF0FF3506E07B
:100B80000025EDE70020FFF769FDF0E70025284686
:100B900070BD4FF0FF35FAE700000020F0B583B0DC
:100BA0002D4F97F82470002F47D02B4FBF7A002F7E
:100BB00046D016460F460546274B5868196801ABC4
:100BC0000222097B007801F005F900283BD19DF84D
:100BD00004009DF8054044EA0024AC4223D31E4B98
:100BE00058684388B4EB530F0DD91B4B196801AB00
:100BF0000122C97C007801F0EDF838BB9DF8043083
:100C000013F0100F14D1144B586819683B46EAB220
:100C1000497B007801F0DEF8D8B9B4FBF5F4013C6B
:100C2000347003B0F0BD002333704FF0FF30F8E7AD
:100C3000FFF760FD6FF00100F3E74FF0FF30F0E7E2
:100C40004FF0FF30EDE74FF0FF30EAE74FF0FF30B5
:100C5000E7E74FF0FF30E4E700000020584B9B7CB3
:100C6000834200F09B8010B582B00446002843D038
:100C7000534B586819680DF1070301220979007870
:100C800001F0A8F8002840F08B809DF8072022F0A2
:100C9000200202AB03F8012D494A50681168012275
:100CA0000979007801F082F800287CD1032001F056
:100CB00005FE02238DF80730414B93F8223013B123
:100CC00082238DF807303E4B93F823302BB19DF8EB
:100CD000073043F030038DF80730394B58681968F6
:100CE0000DF107030122C97D007801F05FF80028AB
:100CF00044D04FF0FF3044E0314B586819680DF193
:100D0000070301220979007801F064F800284DD129
:100D10002B4B9B7A13F0010F35D09DF8073043F031
:100D200020038DF80730264B586819680DF107032A
:100D300001220979007801F039F8002839D103201F
:100D400001F0BCFD1E4B93F822301BB380238DF8BD
:100D500007301B4B93F823302BB19DF8073043F03D
:100D600030038DF80730164B586819680DF10703EA
:100D70000122C97D007801F019F8E8B9104B9C7484
:100D8000002002B010BD9DF8073023F020038DF83D
:100D90000730C8E700238DF80730DAE700207047F6
:100DA0004FF0FF30EDE74FF0FF30EAE74FF0FF3054
:100DB000E7E74FF0FF30E4E74FF0FF30E1E700BF37
:100DC000000000201B4B93F8233083422DD010B538
:100DD00082B030B330238DF80730164B9B7C2BB19B
:100DE0009DF8073043F002038DF80730114B93F85C
:100DF00022302BB19DF8073063F07F038DF8073068
:100E000004460C4B586819680DF107030122C97D8F
:100E1000007800F0CBFF50B9064B83F8234002B0B6
:100E200010BD00238DF80730D7E7002070474FF042
:100E3000FF30F4E70000002028285FD810B582B00A
:100E40000446B8B90020FFF7BDFF00238DF8043039
:100E500007238DF805302E4B5868196801AB022224
:100E6000497D007800F0A2FF00284AD1284B187570
:100E700002B010BD0120FFF7A5FF20238DF804303C
:100E8000012C26D0052C2BD9142C30D802238DF818
:100E900005300A20FFF7FAFD9DF805309B0143F06D
:100EA00007038DF805301A4B5868196801AB022208
:100EB000497D007800F07AFF30BB154B08229A720A
:100EC00000241C7301221A752046FFF737FE2046C6
:100ED000CEE700238DF805300520FFF7D7FDDBE7CF
:100EE00001238DF805300520FFF7D0FDD4E703235B
:100EF0008DF805301420FFF7C9FDCDE74FF0FF3026
:100F000070474FF0FF30B3E74FF0FF30B0E700BF5E
:100F100000000020254B9B7A002B3ED010B582B0FC
:100F20000446224B93F82430002B39D11F4B1B7DF4
:100F300033B1431E9BB2272B0AD90020FFF77CFF59
:100F4000032C09D9B4F57A7F07D94FF47A7404E0F9
:100F5000FFF772FF00201EE004244FF47A7090FB2C
:100F6000F4F0013802AB03F8010D104A5068116823
:100F700001224978007800F019FFA0B99DF8070018
:100F8000431C4FF47A7090FBF3F0084BD881400873
:100F9000FFF77CFD002002B010BD4FF0FF3070471E
:100FA0004FF0FF30F7E74FF0FF30F4E7000000208C
:100FB00010B582B0044610F0700F50D001238DF8A8
:100FC0000730334B586819680DF107030122497D3A
:100FD000007800F0EBFE00284AD19DF8073003F0BE
:100FE000BF032B4A137300238DF8073014F0400F12
:100FF00002D104238DF8073014F0200F05D19DF89D
:10100000073043F002038DF8073014F0100F05D1BC
:101010009DF8073043F001038DF8073014F0080FF6
:1010200005D19DF8073043F038038DF80730184B91
:10103000586819680DF107030122897D007800F0D6
:10104000B5FED8B90CB1082C1ED1114B9C720024EE
:101050001C75322001F032FC204602B010BD18B1E0
:1010600000238DF80730ACE740238DF80730A8E760
:10107000074B00229A724FF0FF30EEE7044B00223C
:101080009A724FF0FF30E8E70020FFF79BFEDCE7A5
:101090000000002010B582B0044602AB802203F8A5
:1010A000082D3A4A506811680122497D007800F005
:1010B0007DFE002852D1642001F000FC02AB00222A
:1010C00003F8082D314A506811680122497D0078E3
:1010D00000F06CFE002844D12C4B0022DA74FF2172
:1010E000997219725972D9724FF6FF70D8811974BA
:1010F00099740121197383F8221083F823205A75FB
:101100001A75C3F81620C3F81A20C3F81E2083F8F6
:10111000242083F82520DA844FF4FA60FFF702FCDC
:1011200010BB0220FFF768FC08BB2A20FFF7AEFCCB
:1011300000BB3220FFF7EEFEF8B9FFF7FFFCF8B96D
:1011400014B1204600F060FE0020FFF787FD044642
:10115000C8B9FFF72DFF204602B010BD4FF0FF3495
:10116000F9E74FF0FF34F6E74FF0FF34F3E74FF0C5
:10117000FF34F0E74FF0FF34EDE74FF0FF34EAE7DC
:101180004FF0FF34E7E74FF0FF34E4E700000020C2
:101190005AB370B582B016461A4A927A42B3020A1E
:1011A0008DF80420C0B28DF805000844154A556832
:1011B0006A8990421FDC0C46124B196801AB02226F
:1011C000C97E287800F0F2FDC0B90E4B5868196846
:1011D0003346E2B2097E007800F0E8FD10B9002045
:1011E00002B070BD4FF0FF30FAE74FF0FF307047AC
:1011F0004FF0FF30F4E74FF0FF30F1E74FF0FF30F2
:10120000EEE700BF000000205AB370B582B016466A
:101210001A4A927A42B3020A8DF80420C0B28DF8BD
:1012200005000844154A55686A8990421FDC0C463F
:10123000124B196801AB0222C97E287800F0B6FD76
:10124000C0B90E4B586819683346E2B2097E00787F
:1012500000F0C0FD10B9002002B070BD4FF0FF30AB
:10126000FAE74FF0FF3070474FF0FF30F4E74FF0F0
:10127000FF30F1E74FF0FF30EEE700BF0000002045
:101280002DE9F04F87B02A4C94F82540002C3CD132
:1012900000293DD09A46914688460746BC421BD25B
:1012A0003E1B102EA8BF1026B5B208EB040B5A4601
:1012B00029462046FFF76CFF68BB02AA2946204654
:1012C000FFF7A2FF50BB2A4602A9584606F0E0FBF2
:1012D00038BB2C44A4B2E1E74FEA19238DF804305F
:1012E0008DF80590124B5868196801AB0222497FAE
:1012F000007800F05BFDB8B90D4B012283F8252082
:10130000A3F826A007B0BDE8F08F4FF0FF30F9E753
:101310004FF0FF30F6E74FF0FF30F3E74FF0FF30CC
:10132000F0E76FF00100EDE74FF0FF30EAE700BFB4
:1013300000000020224B93F8243083423AD030B58D
:1013400083B010B31E4B93F82530002B34D000200F
:10135000FFF784F90020FFF781FC194DE88CFFF7B7
:10136000D9FD002402AB03F8014D68680122232156
:10137000007800F01BFD012085F82400FFF76EF9CE
:10138000FFF7B8F9204603B030BD0020FFF766F93B
:101390000B4D2A7C02AB03F8012D68680122232142
:1013A000007800F003FD002485F82440FFF7A2F93F
:1013B0002046E8E7002070474FF0FF30E3E700BF2A
:1013C0000000002038B50446C578437813F0010FBB
:1013D00009D005F03F00C00805F007010131074BB7
:1013E0001B6803B19847637813F0080F04D0034BD0
:1013F0005B680BB1A8099847002038BD3002002077
:1014000008B5C8234FF48062024940F6F630FFF772
:1014100037FF08BDBC8B000810B586B004464C4BA6
:10142000D3F8F82BADF80C20120C8DF80E20D3F861
:10143000FC2BADF80820120C8DF80A20D3F8002CF4
:10144000ADF80420120C8DF80620D3F8043CADF85A
:1014500000301B0C8DF8023000F0030106AB19447C
:1014600011F80C3C8DF81430C0F3C10206AB1A44DD
:1014700012F80C3C8DF81530C0F3811306A8034414
:1014800013F80C0C8DF8160011F8101C8DF81010C4
:1014900012F8102C8DF8112013F8103C8DF8123032
:1014A00005AA032140F22640FFF772FE002842D130
:1014B00004AA032140F22A40FFF76AFE00283DD12A
:1014C000019BADF814301B0C8DF81630009BADF865
:1014D00010301B0C8DF8123014F0040F05D0372398
:1014E0008DF8143027238DF8103014F0200F05D01C
:1014F00057238DF8153047238DF8113014F4807F71
:1015000005D077238DF8163067238DF8123005AAA1
:1015100003214FF48860FFF73BFE90B904AA032132
:1015200040F23140FFF734FE034668B9094A14819E
:10153000184606B010BD4FF0FF33F9E74FF0FF3308
:10154000F6E74FF0FF33F3E74FF0FF33F0E700BF6C
:10155000BC8B00083002002010B586B00446174A44
:1015600007CA06AB03E90700C82C1DD8C82393FBA4
:10157000F4F3013B9BB21A0A8DF804208DF8053074
:1015800001AA022140F21620FFF702FE78B903AA51
:101590000C2140F6C120FFF7FBFD034650B9084A75
:1015A0009481184606B010BD4FF0FF33F9E74FF0B5
:1015B000FF33F6E74FF0FF33F3E700BFC4970008AF
:1015C0003002002010F0070F00F0B380B1F5C86FB3
:1015D00000F2B28070B582B004460846FEF776FE8F
:1015E0005D49FEF77FFF05460DF10300FFF7E2F9C5
:1015F0009DF80330023B0E2B00F2A280DFE803F0DF
:1016000008A02EA0A0A03EA0A0A0A0A0A0A04E0038
:101610004FF08D412846FEF7B1FEFEF7FFFF86B280
:101620004E492846FEF7AAFEFEF7F8FF80B2330ABD
:101630008DF804308DF80560030A8DF806308DF8BA
:10164000070014F0010F39D114F0020F4AD114F041
:10165000040F5AD10023184602B070BD4FF08C41E0
:101660002846FEF78BFEFEF7D9FF86B23C49284696
:10167000FEF784FEFEF7D2FF80B2D8E74FF08B4131
:101680002846FEF77BFEFEF7C9FF86B2354928469D
:10169000FEF774FEFEF7C2FF80B2C8E74FF08A4142
:1016A0002846FEF76BFEFEF7B9FF86B22E492846A4
:1016B000FEF764FEFEF7B2FF80B2B8E701AA02218E
:1016C0004FF4EA70FFF764FD00283CD10DF10602EB
:1016D00002214FF49270FFF75BFD0028B4D04FF069
:1016E000FF33B8E701AA02214FF4EC70FFF750FD79
:1016F00060BB0DF1060202214FF49470FFF748FD24
:101700000028A4D04FF0FF33A5E701AA02214FF42F
:10171000EE70FFF73DFDE0B90DF1060202214FF436
:101720009670FFF735FD0346002894D04FF0FF3345
:1017300091E74FF0FF3301E04FF0FF331846704759
:101740004FF0FF3387E74FF0FF3384E74FF0FF336D
:1017500081E74FF0FF337EE700004843000040463A
:101760000000C045000040450000C04400B583B003
:1017700000238DF8073010F0010F02D030238DF8D0
:10178000073010F0020F05D09DF8073043F00C032E
:101790008DF8073010F0040F05D09DF8073043F0A6
:1017A00003038DF807300DF1070201214FF4A470F7
:1017B000FFF7EEFC03B05DF804FB00B583B020B189
:1017C0000346042802D9042300E00123013B02AAB6
:1017D00002F8013D012140F24F10FFF7D9FC03B0A0
:1017E0005DF804FB00B583B0084BA3FB0030800814
:1017F000030A8DF804308DF8050001AA02214FF488
:10180000EF70FFF7C5FC03B05DF804FBCDCCCCCC8A
:1018100000B583B0084BA3FB00308008030A8DF8A5
:1018200004308DF8050001AA02214FF4ED70FFF796
:10183000AFFC03B05DF804FBCDCCCCCC00B583B0DD
:101840000E4B83FB0023C017C0EBA31001FB00F17C
:101850000B0E8DF80430C1F307438DF80530C1F34A
:1018600007238DF806308DF8071001AA04214FF4E4
:10187000AE70FFF78DFC03B05DF804FBD34D621032
:1018800000B583B0084BA3FB00308008030A8DF835
:1018900004308DF8050001AA02214FF4AD70FFF766
:1018A00077FC03B05DF804FBCDCCCCCC00B583B0A5
:1018B000084BA3FB00308008030A8DF804308DF834
:1018C000050001AA02214FF4AC70FFF761FC03B0E0
:1018D0005DF804FBCDCCCCCC00B585B068B901ABCC
:1018E0000C4A07CA03C31A7001AA09214FF4976072
:1018F000FFF74EFC05B05DF804FB01AB064A07CAD2
:1019000003C31A7001AA09214FF49760FFF740FC46
:10191000F0E700BFDC970008D097000800B583B05F
:10192000B0B1C0238DF80430C2238DF80530C42334
:101930008DF80630C6238DF8073001AA042140F641
:101940009820FFF725FCFEF7D5FE03B05DF804FBF9
:101950004FF08B330193F0E700B583B0B0B1202393
:101960008DF8043028238DF8053030238DF80630AB
:1019700038238DF8073001AA042140F69E20FFF796
:1019800007FCFEF7B7FE03B05DF804FB4FF0A3338E
:101990000193F0E72DE9F04184B0044602238DF86D
:1019A0000430CA238DF80530E3238DF8063009236F
:1019B0008DF8073001AA04216820FFF7E9FBA32373
:1019C0008DF8043014F0400800F0B080C0238DF88A
:1019D0000530C8238DF80630C2238DF8073014F483
:1019E000C07500F0AB80C4238DF80830CC238DF88F
:1019F0000930C6238DF80A30A3238DF80B308DF8FB
:101A00000C308DF80D3001AA0A2140F6A720FFF70F
:101A1000BFFB14F0030700F0998020238DF80430F9
:101A200001AA012140F6B620FFF7B2FB14F0200F07
:101A300000F090800120FFF74FFFADB114F4807FDC
:101A400000F08C80B2238DF804308B238DF80530A4
:101A5000B6238DF806309B238DF8073001AA0421A8
:101A600040F6A220FFF794FB14F0010F00F08380F2
:101A700004AAF82302F80C3D01214FF40B60FFF794
:101A800087FBFA210720FFF79DFD0720FFF76EFE79
:101A90000120FFF792FE6420FFF7A4FE4FF4FA70D6
:101AA000FFF7B6FEC8213F48FFF7C8FE2820FFF722
:101AB000E7FE0A20FFF7FAFE14F0020F65D0D923E3
:101AC0008DF8043001AA012140F23D70FFF760FB60
:101AD00014F0040F5DD00120FFF720FF14F0100F69
:101AE0005BD00120FFF738FF2F4E44F008037381CD
:101AF000FEF700FE0023B373B8F1000F01D00622F9
:101B0000B2731DB1284A937B0633937314F0140FFC
:101B100003D0254A937B103393731FB1224A937BE2
:101B200004339373002004B0BDE8F081A3238DF843
:101B300005308DF806308DF8073050E7A3238DF877
:101B400008308DF809308DF80A3055E7D8238DF824
:101B5000043065E70020FFF7BFFE6EE7B0238DF885
:101B6000043080238DF80530B4238DF8063090239F
:101B70008DF8073072E704AAD82302F80C3D012142
:101B80004FF40B60FFF704FB96E7D8238DF8043081
:101B900098E70020FFF7C2FEA0E70020FFF7DCFE79
:101BA000A2E700BF09E3CA02300200202DE9F0439A
:101BB00089B005460E4691469846109C0023238026
:101BC000119A69466F4B987BFEF7E8FF002840F0BA
:101BD000D58007466B4B5A8912F0140F61D09DF8DF
:101BE00000309DF80100000440EA03609DF80230D7
:101BF00040EA03209DF803301843C9F800009DF81F
:101C000004309DF805C04FEA0C4C4CEA036C9DF87B
:101C100006304CEA032C9DF807304CEA030CC9F857
:101C200004C09DF808309DF80910090441EA0361D9
:101C30009DF80A3041EA03219DF80B301943C9F899
:101C400008109DF80CE09DF80D301B0443EA0E636C
:101C50009DF80EE043EA0E239DF80FE043EA0E03E1
:101C6000C9F80C3000144FEA2C4C09141B140CFB5F
:101C70000CFC00FB00C001FB010103FB031303F19B
:101C80007143B3F1007F05D8238843F48073238028
:101C9000102007E0FEF72EFD002323804FF0FF37D2
:101CA00064E0002012F0400F2BD008AB034413F87F
:101CB00020CC411C08AB194411F8203C43EA0C230A
:101CC0003380831C08A90B4413F820CCC11C08AB3B
:101CD000194411F8203C43EA0C237380031D08A922
:101CE0000B4413F820CC411D08AB194411F8203CDB
:101CF00043EA0C23B3800630C0B2238843F00803C4
:101D0000238012F4C07F2BD008AB034413F8206C5F
:101D1000411C08AB194411F8203C43EA06232B80F0
:101D2000831C08A90B4413F8206CC11C08AB194490
:101D300011F8203C43EA06236B80031D08A90B44DD
:101D400013F8206C411D08AB194411F8203C43EAFC
:101D50000623AB800630C0B2238843F07003238093
:101D600012F0030F06D1404600F048F8384609B09B
:101D7000BDE8F0836844FFF725FBF4E74FF0FF3739
:101D8000F4E700BF30020020014B186000207047CC
:101D900030020020014B58600020704730020020C4
:101DA000014B1860704700BF0819002030B585B09E
:101DB000074C24680A2502950192009301230A46E4
:101DC00000FA03F1204601F007FB05B030BD00BF6B
:101DD0000819002030B585B0074C24680A25029503
:101DE0000192009301230A4600FA03F1204601F014
:101DF000B1FB05B030BD00BF0819002010B5044686
:101E000000F056FD206010BD002070470CB470B586
:101E1000C8B0041E03DB062C08DD082C06D0002603
:101E2000304648B0BDE8704002B070474DAA4792B6
:101E30004C9907A805F0A8FF061EF1DD0025CDF896
:101E40000650CDF80A50CDF80E50CDF81250CDF80E
:101E5000155024238DF8043001238DF805308DF8BA
:101E600006400D238DF819300A238DF81A301DE035
:101E700000BF4FF060421268002AF9D04FF0604274
:101E800011700133162B10DC01AAD15C4FF06042B7
:101E9000D2F8802E12F0010FF3D04FF06042D2F84A
:101EA000002E12F0010FECD0E3E71235B54217DA3D
:101EB000721B122AA8BF12220024CDF80740CDF8C9
:101EC0000B40CDF80F40CDF81340ADF81740D2B21B
:101ED00007AB59190DF1070005F0E9FD2346D1E7DD
:101EE00000269DE77047704730B589B0244B9A694A
:101EF00042F010029A619A6902F010020092009A70
:101F00009A6942F020029A619A6902F020020192D5
:101F1000019A9A6942F004029A619A6902F00402F5
:101F20000292029A9A6942F008029A619B6903F050
:101F300008030393039B134D01224FF4805128465D
:101F400000F060FF4FF480530493012305930024B5
:101F50000694079304A9284600F06AFE4FF4004354
:101F60000493094B0593069404A9084800F060FE09
:101F700022460A21282000F0C7FC09B030BD00BF6E
:101F800000100240000C0140000011100008014048
:101F900010B588B0314805F085FE3148FFF700FFE5
:101FA00007A8FFF777F8FFF72BFA2E4800F00BFA97
:101FB00080B2FFF731FA2C48FFF7E6FE2B48FFF717
:101FC000E9FE00F013FA00F035FA7820FEF7F0FF92
:101FD0007820FEF7B3FD6420FEF79CFF0DF11A0098
:101FE000FEF79EFD06A8FEF77FFC0DF11600FEF73A
:101FF000E1FC40F27310FFF7CDFC6420FFF7ACFA70
:102000000120FFF797F9282000F0B2FC4FF0FF33D2
:1020100004AA1946002004F043FC154C04F13C03CB
:10202000019304F1400300932346221D04F124018F
:1020300004F13000FFF7BAFDB4F92410B4F92620FA
:10204000B4F9283020690390E0680290A0680190FC
:1020500060680090074805F0B1FDD7E78898000850
:10206000141900202C000020E51E0008E71E0008BF
:102070004002002094980008B0F5004F00D070474F
:1020800030B585B0002404AD45F8044D4FF48051BF
:10209000064800F0BDFE064B186800952346012255
:1020A000214604F051FC05B030BD00BF000C0140DA
:1020B0001019002010B50EE04FF48051074800F0D1
:1020C000A7FE642004F041F80134032CF4DD4FF442
:1020D000FA7004F03AF80024F7E700BF000C014062
:1020E00010B504F00DFF08221349144800F068FBF6
:1020F000B0F1FF3F1DD1124805F0D4FDFFF7DAFF24
:10210000234600222021084600F0A6FB0134072CBC
:10211000F6DD002406E0234600221146402000F0B0
:102120009BFB0134072CF6DD00F05AFB282004F05D
:102130000CF80024EBE700BF481A0020F01900203B
:10214000B898000808B50268034B9A4200D008BD51
:1021500000F0A2FBFBE700BF00080040FEE7000024
:1021600000B583B01D4B5A6942F001025A615B69A8
:1021700003F001030193019B19481A4B03604FF4CC
:1021800080434360402383608023C3600023036156
:1021900043618361C36100F033FCD0B900220721A1
:1021A0000B2000F0B1FB0B2000F0E2FB0022062127
:1021B0000D2000F0A9FB0D2000F0DAFB0022052124
:1021C000112000F0A1FB112000F0D2FB03B05DF85C
:1021D00004FB4FF49F710448FFF7C0FF001002405A
:1021E000AC19002008000240D098000808B50C483F
:1021F0000C4B03600C4B436000238360C3604FF4BF
:102200008042026143618361C361036201F030F87F
:1022100000B908BD4FF486710448FFF79FFF00BF67
:102220001419002000540040A0860100D098000836
:1022300008B50F480F4B03604FF4827343600023CF
:102240008360C360036143614FF4007282611822AE
:10225000C2610362436283620A23C36202F028FC04
:1022600000B908BD4FF492710348FFF777FF00BF34
:10227000F019002000300140D098000800B595B05A
:1022800001220A924FF480330B9300210C910E929D
:102290000222119212934FF4801313930AA801F0B3
:1022A00059FF58BB0F23059302230693002307937E
:1022B0004FF4806208920993012105A802F070F999
:1022C00000BB102301934FF48003049301A802F094
:1022D00057FAD8B902F020FA0E4BA3FB0030800960
:1022E00000F052FB042000F065FB00220F214FF0AC
:1022F000FF3000F009FB15B05DF804FBD92106485A
:10230000FFF72CFFE7210448FFF728FFEE210248E2
:10231000FFF724FFD34D6210D098000800B58BB0B2
:1023200005F048FA00F0A6FAFFF7A8FFFFF7DCFD7A
:10233000FFF716FFFFF75AFFFFF77AFF0F4805F088
:10234000B1FC0F4C05AD26460FCE0FC533682B6090
:10235000002105A803F0DFFE0A4B18606D46143417
:102360000FCC0FC523682B600021684603F0D3FE15
:10237000054B186003F0CAFEFEE700BFE4980008B2
:10238000009800080C1900201019002090F9003066
:10239000002B01DD002070470FDB90F90130002B8E
:1023A00001DD012070470ADB90F90230002B08DCC8
:1023B00001DB072070470620704704207047052086
:1023C00070470220704738B50546FFF7DFFF044627
:1023D000E81CFFF7DBFF44EAC00424B2A81DFFF7A6
:1023E000D5FF44EA801080B238BD000000B585B04A
:1023F00000F0B2F900F040F8034618B9184605B0ED
:102400005DF804FB00F038F8029022230193064B9C
:102410000093064B064A00210620FFF7F7FC00F068
:102420002BF80346EAE700BF289800081499000833
:102430002899000800B585B000F028F8034618B9BF
:10244000184605B05DF804FB00F020F80290432325
:102450000193064B0093064B064A00210620FFF726
:10246000D5FC00F013F80346EAE700BF4C980008DB
:10247000149900082899000808B554220021024840
:1024800005F039FB002008BD9C02002038B500246F
:10249000254600E00134084B1B68A3420ADD064BC9
:1024A00003EB84035B6898470028F3D0002DF1D13B
:1024B0000546EFE7284638BD9C02002000B583B0F2
:1024C000244B9A6942F001029A619A6902F0010272
:1024D0000092009ADA6942F08052DA61DB6903F017
:1024E00080530193019B032000F0FCF90022114668
:1024F0006FF00B0000F008FA002211466FF00A009E
:1025000000F002FA002211466FF0090000F0FCF919
:10251000002211466FF0040000F0F6F90022114687
:102520006FF0030000F0F0F900220F216FF00100BE
:1025300000F0EAF900220F214FF0FF3000F0E4F93B
:10254000054A536823F0E06343F00073536003B01F
:102550005DF804FB001002400000014002681B4BC4
:102560009A4200D0704710B586B00446C02302934B
:10257000122303930323059302A9154800F058FB87
:10258000144BDA6942F40012DA61DB6903F40013D8
:102590000193019B1048114B03600023436083604B
:1025A0008022C26003614361202383614FF4805322
:1025B000C36100F025FA20B9074BA3635C6206B043
:1025C00010BD85210648FFF7C9FDF5E7005400401E
:1025D000000C0140001002406819002080000240F9
:1025E0004099000802681C4B9A4200D0704710B511
:1025F00086B0044603F560439A6942F480529A61BA
:102600009B6903F480530193019BA023029302234F
:1026100003930323059302A9104800F009FB104817
:10262000104B036010234360002383608022C2604C
:102630000361436183614FF40053C36100F0E0F92B
:1026400020B9074BA3645C6206B010BDCC210648DC
:10265000FFF784FDF5E700BF0030014000080140AE
:10266000481A0020300002404099000800B589B0A7
:10267000002201461E2000F047F91E2000F078F9E4
:10268000154BDA6942F00402DA61DB6903F00403F6
:102690000193019B02A903A802F054F802F042F84A
:1026A00043000E48A0FB03239B0C013B0C480D4A42
:1026B000026040F2E732C26043600023036183603E
:1026C00002F040FB18B1012009B05DF804FB04489A
:1026D00002F030FAF8E700BF0010024083DE1B432F
:1026E0008C1A0020000800407047FEE7FEE7FEE776
:1026F000FEE7704708B503F031FD08BD08B5024894
:1027000000F0F4F908BD00BFAC19002008B502487C
:1027100000F0ECF908BD00BF481A002008B50248D7
:1027200000F0E4F908BD00BF6819002008B50248B0
:1027300001F0DCFB08BD00BFC424002008B502483E
:1027400002F008FA08BD00BF8C1A002008B54FF44B
:10275000004000F061FB08BD10B5054C4FF4CC7291
:102760000021204605F0C7F90C23636010BD00BFAF
:10277000F00200200F4B1A6842F001021A605968FB
:102780000D4A0A405A601A6822F0847222F480329C
:102790001A601A6822F480221A605A6822F4FE0233
:1027A0005A604FF41F029A60044B4FF000629A6027
:1027B000704700BF001002400000FFF800ED00E08D
:1027C00038B5054602EBC202044C0A32002120460D
:1027D00005F091F96565002038BD00BF8804002030
:1027E00008B5034B52221946586D02F0B3F808BDE4
:1027F0008804002000EBC0000130014B18447047F2
:102800008804002000231A4604E043F00603400039
:10281000C0B20132072A06DCDB0010F0800FF4D1D1
:1028200043F00403F3E7C3F307420A70C3F307223C
:102830004A708B70704770B50646084615461C46B0
:102840001946FFF7DFFFE11C3046FFF7DBFFA11D54
:102850002846FFF7D7FF70BD70B504460D461646F3
:102860001846FFF7C7FF0346324629462046FFF7C2
:10287000E2FF70BD08B5074A136843F01003136008
:10288000032000F02FF80020FFF7F0FEFFF716FE00
:10289000002008BD00200240034A1168034B1B784A
:1028A0000B441360704700BFCC1A00204400002086
:1028B000014B1868704700BFCC1A002038B5044699
:1028C000FFF7F6FF0546B4F1FF3F02D0044B1B783B
:1028D0001C44FFF7EDFF401BA042FAD338BD00BFF8
:1028E00044000020074AD36823F4E0631B041B0C58
:1028F000000200F4E060184340F0BF6040F4003094
:10290000D060704700ED00E030B4174BDB68C3F3D4
:102910000223C3F10704042C28BF04241D1D062D27
:1029200018D9033B4FF0FF3505FA04F421EA0401FE
:10293000994005FA03F322EA0303194300280BDB4D
:102940000901C9B200F1604000F5614080F8001350
:1029500030BC70470023E5E700F00F000901C9B261
:10296000024B1954F4E700BF00ED00E014ED00E065
:1029700000F01F02400901239340024A42F8203030
:10298000704700BF00E100E00138B0F1807F0AD25B
:10299000064B5860064AF02182F823100020986008
:1029A00007221A6070470120704700BF10E000E066
:1029B00000ED00E0042805D0054A136823F0040365
:1029C00013607047024A136843F0040313607047B2
:1029D00010E000E070B4066CC56B0124B4406C607C
:1029E000046863604368102B05D00368996003682E
:1029F000DA6070BC704703689A600368D960F8E7D2
:102A0000002830D010B403460168184A0A44184818
:102A1000A0FB0202120992001A64164ADA6302222B
:102A200083F82120086820F47F5020F030005A6895
:102A30009C682243DC6822431C6922435C69224370
:102A40009C692243DC69224302430A6000209862A9
:102A5000D862186358639863012283F8212083F8B1
:102A6000200010BC70470120704700BFF8FFFDBF79
:102A7000CDCCCCCC0000024038B590F82040012CE1
:102A800032D0012480F8204090F82140012C04D05D
:102A9000002380F82030022038BD0446022084F84C
:102AA00021000020A0632568286820F0010028602C
:102AB0002046FFF78FFFE36A5BB12268136843F09B
:102AC0000E0313602268136843F0010313600020B3
:102AD000E2E72268136823F0040313602268136896
:102AE00043F00A031360EDE70220D5E738B5C36B66
:102AF0001A6804682568016C04238B40134235D0A2
:102B000015F0040F32D0236813F0200F03D123688F
:102B100023F0040323600368434A934214D0143221
:102B2000934218D01432934217D01432934217D0E4
:102B30001432934217D01432934202D04FF0806285
:102B400003E04FF4800200E00422384B5A60C36A6D
:102B500003B1984738BD4022F7E74FF48062F4E7AD
:102B60004FF48042F1E74FF48022EEE702238B40DE
:102B700013423CD015F0020F39D0236813F0200F18
:102B800006D1236823F00A032360012380F8213053
:102B90000368254A934214D0143293421CD0143255
:102BA00093421BD0143293421BD0143293421BD059
:102BB0001432934202D04FF0007203E04FF400123F
:102BC00000E00222194B5A60002380F82030836A0B
:102BD000002BBFD09847BDE72022F3E74FF40072E7
:102BE000F0E74FF40052EDE74FF40032EAE7082334
:102BF00003FA01F11142ADD015F0080FAAD02368F5
:102C000023F00E032360026CC16B012303FA02F26E
:102C10004A60836380F82130002380F82030036B02
:102C2000002B97D0984795E708000240000002402B
:102C3000F0B482B000263546A1E0002C59D0012C1A
:102C400000D1CE68FF2B68D88446FF2B68D8AC0033
:102C5000DCF800200F27A74022EA070206FA04F456
:102C60002243CCF800204A6812F0805F00F0868092
:102C70005E4A946944F001049461926902F0010291
:102C80000192019AAC08A71C594A52F8272005F076
:102C90000307BF004FF00F0C0CFA07FC22EA0C0CE4
:102CA000544A904242D002F5806290427FD002F5B1
:102CB000806290427DD002F58062904234D004223E
:102CC00035E04D4FBC4214D00BD94C4FBC4210D014
:102CD00007F58037BC420CD0A7F58017BC42B1D1B4
:102CE00007E0A7F58017BC4203D007F58037BC4248
:102CF000A8D18C687CB1012C08D042610826A1E7DC
:102D0000CE6808369EE7CE680C369BE7026108263F
:102D100098E7002696E7042694E700F1040C94E770
:102D2000A5F10804A40093E7032200E00022BA40C2
:102D300042EA0C0202342E4F47F824204A6812F46B
:102D4000803F38D02E4C22681A4322604A6812F421
:102D5000003F36D02A4C62681A4362604A6812F417
:102D6000801F34D0264CA2681A43A2604A6812F42D
:102D7000001F32D0224CE2681343E36001350F2D6F
:102D800031D80122AA400B6813409A42F6D14C6810
:102D9000122CB8D095D8022CB2D07FF64EAF032CAF
:102DA000B7D0112C7FF44EAFCE6804364AE701222B
:102DB000BDE70222BBE7124C226822EA030222602E
:102DC000C4E70F4C626822EA03026260C6E70C4C5B
:102DD000A26822EA0302A260C8E7094CE26822EA7C
:102DE0000303E360CAE702B0F0BC70470010024082
:102DF00000000140000801400000211000003110D7
:102E00000004014012B90904016170470161704773
:102E1000C3685940C160704708B5054B5B69034200
:102E200000D108BD024B5861FFF726F9F9E700BF52
:102E30000004014003685A6912F4806F0DD06FF4EA
:102E400080625A610423036400230363202280F814
:102E50003D2080F83C300120704700207047F8B5D5
:102E600006460C4617461D461EE02DB1FFF720FD15
:102E7000069BC01AA84217D900233363202286F884
:102E80003D2086F83E3086F83C3003201AE0336857
:102E90005B6924EA03039BB2B3FA83F35B099F42A5
:102EA0000FD1B5F1FF3FE0D1C4F30743012BEED0C2
:102EB00033689B6924EA03039BB2B3FA83F35B098B
:102EC000EDE70020F8BDF8B504460D4616461F464E
:102ED00032E01A6842F400721A6023686FF480626C
:102EE0005A610423236400232363202284F83D20B5
:102EF00084F83C3001202DE026B1FFF7D9FCC01B3F
:102F0000B04219D900232363202284F83D2084F89D
:102F10003C3003201EE023685B6925EA03039BB273
:102F2000003318BF0123A3B123685A6912F4806FDC
:102F3000CFD1B6F1FF3FDFD1C5F30743012BEAD074
:102F400023689B6925EA03039BB2003318BF012362
:102F5000E9E70020F8BD70B504460D461646236823
:102F60005B6913F0800F19D12046FFF763FFB8B9F2
:102F7000B5F1FF3FF3D025B1FFF79AFC801BA842C3
:102F8000EDD9236C43F02003236400232363202224
:102F900084F83D2084F83C30032000E0002070BD20
:102FA0000120FCE72DE9F04184B004460E461746A7
:102FB00098460B9D0268136843F480731360009574
:102FC0000A9B00224FF00111FFF749FF002847D16B
:102FD000236806F0FE061E612B460A9A2649204603
:102FE000FFF771FF20B1236C042B3ED1012338E0A1
:102FF0000023039323685A6903929B690393039BFD
:103000002A460A992046FFF7A6FF034648B1236CDB
:10301000042B2CD12268136843F40073136001233E
:103020001FE0B8F1010F13D023683A0A1A612A464B
:103030000A992046FFF78FFF034668B1236C042BE3
:1030400017D12268136843F400731360012308E06A
:103050002268FFB2176104E02268FFB2176100E046
:103060000323184604B0BDE8F0810323F9E70323E6
:10307000F7E70323F5E700BF020001002DE9F04167
:1030800084B004460E46174698460B9D02681368A6
:1030900043F4806313600268136843F48073136021
:1030A00000950A9B00224FF00111FFF7D8FE00287F
:1030B00074D1F6B2236806F0FE021A612B460A9A12
:1030C0003F492046FFF7FFFE20B1236C042B6AD155
:1030D000012364E00023039323685A6903929B69E8
:1030E0000393039B2A460A992046FFF734FF48B111
:1030F000236C042B59D12268136843F400731360C6
:1031000001234CE0B8F1010F12D12368FFB21F6117
:103110002A460A992046FFF71EFF00B3236C042BB2
:1031200047D12268136843F400731360012336E02B
:1031300023683A0A1A612A460A992046FFF70BFFCC
:1031400048B1236C042B32D12268136843F4007316
:103150001360012323E02368FFB21F61D8E72268D0
:10316000136843F48073136000950A9B00224FF0AC
:1031700001112046FFF773FEE8B9236846F0010607
:103180001E612B460A9A0E492046FFF79CFE034615
:1031900028B1236C042B10D1012300E0032318462F
:1031A00004B0BDE8F0810323F9E70323F7E7032325
:1031B000F5E70323F3E70323F1E70323EFE700BF7A
:1031C0000200010070B504460D46164623685B698F
:1031D00013F0040F19D12046FFF72CFEB8B9B5F152
:1031E000FF3FF3D025B1FFF763FB801BA842EDD969
:1031F000236C43F02003236400232363202284F8FC
:103200003D2084F83C30032000E0002070BD012008
:10321000FCE770B505460C4616462B685A6912F055
:10322000400F22D15A6912F0100F11D124B1FFF7CB
:103230003FFB801BA042F0D92B6C43F020032B6492
:10324000202385F83D30002385F83C30032070BDF5
:103250006FF010025A6100232B642B63202285F843
:103260003D2085F83C300120F1E70020EFE7000029
:10327000002800F0A28038B5044690F83D30002BBD
:103280004FD0242384F83D302268136823F00103D3
:10329000136001F047FA62684A4B9A4246D84A4B9B
:1032A00098428CBF00230123002B40F08880474BBD
:1032B000A3FB00239B0C226853606168414A914242
:1032C0003AD801332268136261683E4B99423DD877
:1032D000431E4900B3FBF1F30133C3F30B03042B8B
:1032E00038BF04232268D361E369216A22680B4353
:1032F00013602369E16822680B4393606369A169E5
:1033000022680B43D3602268136843F00103136003
:1033100000202064202384F83D30206384F83E00A0
:1033200038BD80F83C30FFF719F9AAE7284B9842DE
:103330008CBF00230123B7E74FF4967202FB03F31F
:10334000244AA2FB03239B090133BBE7A368BBB953
:10335000421E01EB4105B2FBF5F20132C2F30B0252
:10336000B2FA82F2520932BBC3B9013801EB410310
:10337000B0FBF3F30133C3F30B0343F40043B1E7B2
:10338000421E01EB810505EB8505B2FBF5F201322A
:10339000C2F30B02B2FA82F25209E4E7013801EB00
:1033A000810303EB8303B0FBF3F30133C3F30B039C
:1033B00043F4404396E7012394E70120704701203E
:1033C000AEE700BFA08601007F841E0083DE1B43A2
:1033D000FF083D00D34D62102DE9F04182B0044654
:1033E0000E4617469846FFF763FA94F83D30DBB275
:1033F000202B04D00223184602B0BDE8F081054618
:1034000000901923012251492046FFF728FD00288A
:1034100040F0938094F83C30012B00F09080012321
:1034200084F83C3023681A6812F0010F03D11A683F
:1034300042F001021A602268136823F400631360EB
:10344000212384F83D30402384F83E300023236458
:10345000089B6362BDF8243063853D4BE362638D56
:10346000238501950A9B009343463A463146204600
:10347000FFF798FDB0B1236C042B04D1002384F82E
:103480003C300123B7E7002384F83C300323B2E744
:10349000236C042B55D12268136843F40073136026
:1034A0000123A8E7238D002B28D02A460A9920461D
:1034B000FFF751FD0028EBD1636A5A1C6262226853
:1034C0001B781361238D013B9BB22385628D013AEA
:1034D00092B262852268516911F0040FE2D0002B8C
:1034E000E0D0636A591C61621B781361238D013B34
:1034F0002385638D013B9BB26385D3E72A460A99F6
:103500002046FFF75FFE034648B1236C042B1AD117
:103510002268136843F40073136001236BE721688A
:103520000A6842F400720A60202284F83D200022DA
:1035300084F83E2084F83C205DE702235BE7022309
:1035400059E7032357E7032355E700BF02001000A4
:103550000000FFFF2DE9F04186B004460E461746F5
:103560009846FFF7A5F994F83D30DBB2202B04D044
:103570000226304606B0BDE8F081054600901923CA
:10358000012291492046FFF76AFC002840F057814C
:1035900094F83C30012B00F05481012384F83C3036
:1035A00023681A6812F0010F03D11A6842F0010271
:1035B0001A602268136823F400631360222384F8DE
:1035C0003D30402384F83E30002323640C9B63622B
:1035D000BDF8343063857D4BE362638D23850195AF
:1035E0000E9B009343463A4631462046FFF746FD80
:1035F000064660B1236C042B04D1002384F83C30D0
:103600000126B6E7002384F83C300326B1E7238D7A
:103610005BB9029323685A6902929A690292029AEC
:103620001A6842F400721A607FE0012B0FD0022B5F
:1036300021D02268136843F480631360002305934C
:1036400023685A6905929B690593059B6DE0226882
:10365000136823F48063136072B600230393236816
:103660005A6903929A690392039A1A6842F40072A3
:103670001A6062B659E02268136843F4006313606D
:1036800072B60023049323685A6904929A690492DB
:10369000049A1A6822F480621A6062B645E02A46EB
:1036A0000E992046FFF7B5FD68B923681A69636A69
:1036B000591C61621A70238D013B2385638D013B88
:1036C0009BB2638531E0236C202B01D0012650E7AB
:1036D00003264EE700950E9B00223D492046FFF74A
:1036E000BEFB002840F0AF8072B62268136843F436
:1036F0000073136023681A69636A591C61621A7047
:10370000238D013B2385638D013B9BB2638562B6AC
:1037100023681A69636A591C61621A70238D013B20
:103720002385638D013B9BB26385238D002B7DD068
:10373000032B4FD8012BB2D0022BCBD000950E9B80
:10374000002223492046FFF78AFB00287DD122680A
:10375000136823F48063136072B623681A69636A7E
:10376000591C61621A70238D013B2385638D013BD7
:103770009BB2638500950E9B002215492046FFF7FA
:103780006EFB002863D12268136843F40073136052
:1037900023681A69636A591C61621A70238D013BA0
:1037A0002385638D013B9BB2638562B623681A69EA
:1037B000636A591C61621A70238D013B2385638DF6
:1037C000013B9BB26385B0E7020010000000FFFFE1
:1037D000040001002A460E992046FFF71AFDF0B9B1
:1037E00023681A69636A591C61621A70238D013B50
:1037F0002385638D013B9BB2638523685A6912F070
:10380000040F92D01A69636A591C61621A70238D81
:10381000013B2385638D013B9BB2638585E7236C68
:10382000202B01D00126A4E60326A2E6202384F85B
:103830003D30002384F83E3084F83C3099E602267F
:1038400097E6022695E6032693E6032691E60326ED
:103850008FE600BF002866D0F0B587B0044690F828
:103860002934C3B1032384F82934206801F094FA81
:10387000254655F8107B6E460FCD0FC62B6833607A
:10388000231D0ECB384601F078FA0021206801F0A4
:103890008DFA002315E080F8283403F073FBE1E78C
:1038A00004EB4312012182F8291082F82830938614
:1038B000002182F82B109163D1639A1C5201A15010
:1038C00001330E2BECD9002312E004EB431200214C
:1038D00082F8291282F82832938682F82B12C2F8D5
:1038E0003812C2F83C1203F112025201A150013306
:1038F0000E2BEAD9254655F8107B6E460FCD0FC624
:103900002B683360231D0ECB384601F051FA002599
:1039100084F82450012384F82934206801F05CFDE8
:10392000284607B0F0BD0120704790F82834012BDD
:1039300010D010B50446012180F8281403F061FC72
:10394000206801F047FD206801F01EFA002084F88D
:10395000280410BD0220704790F82834012B0DD0A8
:1039600010B50446012380F8283480F8241000683C
:1039700001F02AFD002084F8280410BD02207047C1
:1039800038B54DB2002D1CDB01F07F04640104F555
:103990000A74044401F07F012170ED0F657022610B
:1039A000E37090F82834012B11D00546012380F8EC
:1039B00028342146006801F011FA002085F8280417
:1039C00038BD01F07F04640128340444E2E702209A
:1039D000F6E74AB2002A1BDB01F07F035B0103F527
:1039E0000A73034401F07F011970D20F5A7090F8E6
:1039F0002824012A12D010B50446012280F8282478
:103A00001946006801F07EFB002084F8280410BDF0
:103A100001F07F035B0128330344E3E70220704792
:103A200070B501F07F056C0104F50A71014404448E
:103A3000C4F83C2205F1120252018618835000237B
:103A4000736084F8293284F8285225B1006801F0A7
:103A5000DFFC002070BD006801F0DAFCF9E701F03E
:103A60000F01123100EB41118888704770B501F0E9
:103A70007F056C0104F1280101440444E263AA1C9F
:103A800052018618835000237360012384F8293083
:103A900084F8285025B1006801F0BAFC002070BD00
:103AA000006801F0B5FCF9E770B582B00446002368
:103AB000ADF80630ADF804302068B0F844309BB261
:103AC000ADF8063013F4004F00F00D82BDF806503B
:103AD00015F00F0540F0C280BDF8063013F0100F4E
:103AE00050D003889BB2ADF80430BDF8043013F415
:103AF000006F79D1BDF8043013F4004FDCD0038897
:103B000023F070031B051B0D03802068B0F85030B4
:103B100094F8282203EBC203063300EB4303D3F8E7
:103B20000034C3F30903C4F84432002B7CD10021D4
:103B3000204603F04FFA2368B3F85020063203EB17
:103B40004203D4F838123E297CD9C1F34F1211F048
:103B50001F0F01D1013A92B26FEAC2626FEA52427C
:103B600092B2C3F80024226813889BB223F48043E6
:103B700023F0700383F4405343F4004343F0800385
:103B8000138099E703889BB223F4E14323F0700389
:103B90009BB203802268B2F8503094F8281003EBEF
:103BA000C103023302EB4303D3F80034C3F3090328
:103BB0006364E26B1344E3630021204603F014FACC
:103BC00094F82430002B3FF477AF236C002B7FF464
:103BD00073AF94F82430226843F08003A2F84C308D
:103BE000002384F8243067E7B0F8503094F8282296
:103BF00003EBC203063300EB4303D3F80034C3F3F3
:103C00000903C4F84432B4F82C2204F22C4101F028
:103C10005CFD2268138823F070031B051B0D1380C5
:103C2000204603F0CFF947E7B4F82C22D4F83C1231
:103C300001F04BFDD4F84422D4F83C321344C4F8CC
:103C40003C3274E7C1F34F0211F0010F01D0013291
:103C500092B2920292B2C3F8002484E730F8253081
:103C60009BB2ADF80430BDF8043013F4004F35D1E9
:103C7000BDF8043013F0800F3FF41EAF226832F815
:103C800025309BB223F4E14323F070039BB222F86A
:103C9000253004EB451393F83230002B40F0B2800E
:103CA0002068B0F8503004EB451292F8282003EB5E
:103CB000C203023300EB4303D3F80034C3F3090318
:103CC000AA1C04EB42125360002B00F0C68004EBE8
:103CD00045118A8DC96B01F086FBBEE030F82530B6
:103CE00023F070031B051B0D20F8253004EB451352
:103CF00093F83232D3B92068B0F8503004EB451253
:103D000092F8282203EBC203063300EB4303B3F817
:103D10000064C6F3090686B304EB45113346B1F8D7
:103D20002C22D1F83C1201F0D0FC26E0206804EBF4
:103D3000451393F8282230F8223013F4804F42D0F4
:103D4000B0F8503003EBC203023300EB4303B3F887
:103D50000064C6F3090666BB226804EB451393F8BA
:103D6000281232F8213023F0F0031B051B0D43F419
:103D7000004343F0C00322F8213005F112035B0138
:103D8000E1184A6832444A6004EB4511D1F83C22FC
:103D90003244C1F83C22E3581BB1D1F838128E42AC
:103DA00028D204EB451393F82812204603F012F9A9
:103DB0005EE704EB45113346B1F82E22D1F83C12F0
:103DC00001F083FCC8E7B0F8503003EBC2030633C0
:103DD00000EB4303B3F80064C6F30906002EBBD022
:103DE00004EB45113346B1F83022D1F83C1201F012
:103DF0006CFCB1E704EB451191F828122046FFF75F
:103E00000FFE35E7206804EB451393F8282030F8BF
:103E1000223013F0400F46D0B0F8503003EBC2030D
:103E2000023300EB4303D3F80034C3F30903AA1CA5
:103E300004EB421253607BBB226804EB451393F8FA
:103E4000281032F8213023F0F0031B051B0D43F43A
:103E5000404343F0800322F821302268B2F850300A
:103E600004EB451090F8281003EBC103023302EB7A
:103E70004303D3F80024C2F30902AB1C5B01E11831
:103E80004A60C16B0A44C263E35823BB90F8281010
:103E9000204603F0A9F80FE604EB4511CA8DC96B63
:103EA00001F0A1FAC8E7B0F8503003EBC2030633C3
:103EB00000EB4303D3F80034C3F30903AA1C04EB5B
:103EC00042125360002BB7D004EB45110A8EC96B28
:103ED00001F089FAB0E704EB451595F82810204663
:103EE000FFF7C4FDE8E5002002B070BD10B5044640
:103EF000006801F073FA10F4004F45D1206801F01A
:103F00006DFA10F4806F43D1206801F067FA10F465
:103F1000804F08D02268B2F844309BB223F480432B
:103F20009BB2A2F84430206801F058FA10F4005F08
:103F300008D02268B2F844309BB223F400539BB2FD
:103F4000A2F84430206801F049FA10F4805F30D1C3
:103F5000206801F043FA10F4006F49D1206801F0A5
:103F60003DFA10F4007F64D1206801F037FA10F4B4
:103F7000807F08D02268B2F844309BB223F480736B
:103F80009BB2A2F8443010BD2046FFF78DFDB5E787
:103F90002268B2F844309BB223F480639BB2A2F84B
:103FA0004430204603F02FF800212046FFF7D4FCD0
:103FB000AAE72268B2F840309BB223F004039BB218
:103FC000A2F840302268B2F840309BB223F00803D8
:103FD0009BB2A2F84030204603F032F82268B2F8D3
:103FE00044309BB223F480539BB2A2F84430AFE735
:103FF0002268B2F8403043F00803A2F8403022684B
:10400000B2F844309BB223F400639BB2A2F8443070
:104010002268B2F8403043F00403A2F84030206830
:1040200001F0DCF910F4805F98D1204602F0F8FF2F
:1040300094E72268B2F844309BB223F400739BB239
:10404000A2F84430204602F0D8FF8DE738B54AB2D6
:10405000002A1BDB4B0103F50A73034401249C7007
:1040600001F07F051D70D20F5A7090F82824A242EB
:1040700018D00446012280F828241946006801F06F
:1040800023F94DB1002084F8280438BD01F07F03E6
:104090005B0128330344E1E704F22C41206801F07E
:1040A000A0F9EFE70220F0E710B54AB2002A1ADBC8
:1040B0004B0103F50A73034400249C7001F07F0157
:1040C0001970D20F5A7090F82824012A11D0044692
:1040D000012280F828241946006801F02CF90020FC
:1040E00084F8280410BD01F07F035B0128330344EA
:1040F000E2E70220F6E711F0800F0CD001F07F011B
:104100004901283101445AB101228A72CB801B0C2B
:104110000B8100207047490101F50A710144F2E763
:104120008A728B80F5E7000082B0084B1B68084A52
:10413000A2FB03235B0A00FB03F0019000BF019B7D
:104140005A1E0192002BF9D102B0704740000020A6
:10415000D34D621070B582B00446036813F0010FAE
:104160002CD0AB4B5B6803F00C03042B1DD0A84B89
:104170005B6803F00C03082B12D06368B3F5803F33
:1041800041D0002B55D103F1804303F504331A6865
:1041900022F480321A601A6822F480221A6037E012
:1041A0009B4B5B6813F4803FE7D0994B1B6813F47B
:1041B000003F03D06368002B00F0AE81236813F04A
:1041C000020F76D0924B5B6813F00C0F5FD0904BD0
:1041D0005B6803F00C03082B54D02369002B00F01C
:1041E0008A808C4B01221A60FEF762FB0546884BE1
:1041F0001B6813F0020F75D1FEF75AFB401B022813
:10420000F5D903208BE1824A136843F480331360AD
:10421000636843B3FEF74CFB05467D4B1B6813F404
:10422000003FCBD1FEF744FB401B6428F5D90320A7
:1042300075E1B3F5A02F09D0754B1A6822F48032CE
:104240001A601A6822F480221A60E1E703F18043C1
:10425000A3F53C331A6842F480221A601A6842F4CB
:1042600080321A60D4E7FEF723FB0546684B1B68D3
:1042700013F4003FA2D0FEF71BFB401B6428F5D9C6
:1042800003204CE1624B5B6813F4803FA5D1604B87
:104290001B6813F0020F04D02369012B01D0012009
:1042A0003DE15B4A136823F0F803616943EAC10307
:1042B0001360236813F0080F32D0A369002B5BD082
:1042C000554B01221A60FEF7F3FA0546504B5B6A24
:1042D00013F0020F21D1FEF7EBFA401B0228F5D9AB
:1042E00003201CE14A4A136823F0F803616943EA9A
:1042F000C1031360DDE7474B00221A60FEF7D8FACE
:104300000546434B1B6813F0020FD2D0FEF7D0FADC
:10431000401B0228F5D9032001E10120FFF704FF2B
:10432000236813F0040F00F09780394BDB6913F01A
:10433000805F33D1364BDA6942F08052DA61DB6953
:1043400003F080530193019B0125344B1B6813F448
:10435000807F25D0E368012B36D0002B4CD103F1B0
:10436000804303F504331A6A22F001021A621A6AC2
:1043700022F004021A622CE0274B00221A60FEF79A
:1043800097FA0546224B5B6A13F0020FC8D0FEF77E
:104390008FFA401B0228F5D90320C0E00025D4E79E
:1043A0001E4A136843F480731360FEF781FA0646D1
:1043B0001A4B1B6813F4807FCCD1FEF779FA801B6F
:1043C0006428F5D90320AAE0114A136A43F00103D7
:1043D0001362E36873B3FEF76BFA06460C4B1B6A75
:1043E00013F0020F37D1FEF763FA801B41F28833D6
:1043F0009842F3D9032092E0052B11D0044B1A6A9E
:1044000022F001021A621A6A22F004021A62E0E73C
:10441000001002400000424280044242007000400E
:10442000414B1A6A42F004021A621A6A42F001020F
:104430001A62CEE7FEF73CFA06463B4B1B6A13F0C6
:10444000020F08D0FEF734FA801B41F288339842FD
:10445000F3D9032063E0E5B9E369002B5ED0324A6B
:10446000526802F00C02082A5BD0022B17D02F4BA7
:1044700000221A60FEF71CFA04462B4B1B6813F04F
:10448000007F47D0FEF714FA001B0228F5D903205D
:1044900045E0254AD36923F08053D361DCE7234B01
:1044A00000221A60FEF704FA05461F4B1B6813F042
:1044B000007F06D0FEF7FCF9401B0228F5D9032047
:1044C0002DE0236AB3F5803F1AD017494B6823F4D7
:1044D0007413226A606A024313434B60134B012238
:1044E0001A60FEF7E5F904460F4B1B6813F0007FD6
:1044F0000ED1FEF7DDF9001B0228F5D903200EE0EE
:10450000094A536823F40033A1680B435360DCE786
:10451000002004E0002002E0012000E0002002B0C2
:1045200070BD0120FBE700BF001002406000424266
:1045300010B487B0164C94E80F000DF1180C0CE97C
:104540000F00238AADF80430124B5B6803F00C02B5
:10455000082A1AD1C3F38342624412F8102C13F4D0
:10456000803F05D10C4800FB02F007B010BC70473B
:10457000084B5B68C3F34043634413F8143C07489B
:1045800000FB02F0B0FBF3F0EFE70448EDE700BFFB
:10459000749800080010024000093D0000127A00E3
:1045A000594B1B6803F007038B420CD2564A136821
:1045B00023F007030B431360136803F007038B42D8
:1045C00001D00120704770B5036813F0020F06D0C8
:1045D0004E4A536823F0F0038468234353600C462B
:1045E0000546036813F0010F52D04368012B23D016
:1045F000022B28D0454A126812F0020F00F0828088
:1046000042494A6822F0030213434B60FEF750F917
:1046100006466B68012B1DD0022B2AD03B4B5B68F2
:1046200013F00C0F34D0FEF743F9801B41F28833AE
:104630009842F3D9032064E0344A126812F4003F30
:10464000DED101205DE0314A126812F0007FD7D13F
:10465000012056E02D4B5B6803F00C03042B17D0B0
:10466000FEF726F9801B41F288339842F2D90320E5
:1046700047E0264B5B6803F00C03082B08D0FEF7DD
:1046800017F9801B41F288339842F2D9032038E0B1
:104690001D4B1B6803F00703A3420CD91A4A136889
:1046A00023F0070323431360136803F00703A342B7
:1046B00001D0012025E02B6813F0040F06D0134A27
:1046C000536823F4E063E9680B4353602B6813F0ED
:1046D000080F07D00D4A536823F46053296943EA51
:1046E000C1035360FFF724FF084B5B68C3F3031358
:1046F000074AD35CD840074B18600020FDF7B6FF8F
:10470000002070BD0120FCE70020024000100240A4
:104710005C98000840000020014B1868704700BFFB
:104720004000002008B5FFF7F7FF044B5B68C3F3B8
:104730000223034AD35CD84008BD00BF00100240EA
:104740006C9800080F2303600B4B5A6802F00302B9
:1047500042605A6802F0F00282605A6802F4E06235
:10476000C2605B68DB0803F4E0630361034B1B6812
:1047700003F007030B607047001002400020024066
:1047800070B582B00446036813F0010F34D03E4B7D
:10479000DB6913F0805F48D13B4BDA6942F080520D
:1047A000DA61DB6903F080530193019B0125374BEC
:1047B0001B6813F4807F3AD0334B1B6A13F44073A9
:1047C00011D0626802F440729A420CD02E4A136AE9
:1047D00023F440702E4901260E6000260E60106200
:1047E00013F0010F37D1284A136A23F4407361682C
:1047F0000B431362002D3FD1236813F0020F06D044
:10480000214A536823F44043A1680B435360236853
:1048100013F0100F35D01C4A536823F48003E1686D
:104820000B435360002002B070BD0025BFE7174A5C
:10483000136843F480731360FEF73AF80646134B8F
:104840001B6813F4807FB7D1FEF732F8801B642811
:10485000F5D90320E7E7FEF72BF806460A4B1B6A5B
:1048600013F0020FBFD1FEF723F8801B41F288330B
:104870009842F3D90320D6E7D36923F08053D3615C
:10488000BAE70020CFE700BF0010024000700040F0
:1048900040044242F8B505460F4616461C463BE02A
:1048A0002CB1FEF705F8069BC01AA04234D32A6843
:1048B000536823F0E00353606B68B3F5827F0BD03D
:1048C000AB6AB3F5005F14D0012385F851300023A3
:1048D00085F85030032027E0AB68B3F5004F02D0D5
:1048E000B3F5806FECD12A68136823F0400313609E
:1048F000E6E72A68136823F400531B041B0C1360BB
:104900002A68136843F400531360DDE70123B342C0
:1049100009D0B4F1FF3FC3D12B689B6837EA03038A
:10492000F4D00023F3E70020F8BD10B582B00446B0
:1049300000920B4600228021FFF7ACFF034610B91E
:10494000184602B010BD636D43F020036365032376
:10495000F6E7000090F85030012B55D010B5044612
:10496000012380F8503090F85130DBB2012B04D095
:104970000220002384F8503010BD002940D0002AC6
:1049800040D0032380F851300023436501638286C1
:10499000C2868363436403648387C3878368B3F5F4
:1049A000004F27D0A36C194ADA62A36C184A9A62A6
:1049B000A36C184A1A63A36C00225A632268E38E20
:1049C0000C32216BA06CFEF757F823681A6812F0BE
:1049D000400F03D11A6842F040021A6022685368FF
:1049E00043F0200353602268536843F0020353608E
:1049F0000020BEE70268136843F480431360D1E7E8
:104A00000120B6E70120B4E7022070471D4A0008E4
:104A10004B4A0008294A00087047704708B5406AA9
:104A2000FFF7FBFF08BD704708B5406A026853688E
:104A300023F003035360436D43F0100343650123E8
:104A400080F85130FFF7EFFF08BD30B583B0054661
:104A5000446AFDF72DFF2B681B6813F0200F1ED151
:104A60002268536823F00203536002466421204603
:104A7000FFF75BFF18B1636D43F020036365A36824
:104A800033B901932368DA6801929B680193019B13
:104A90000023E386012384F85130636D23B9204657
:104AA000FFF7BAFF03B030BD2046FFF7BCFFF9E7C0
:104AB00000283CD010B504460023836290F85130A2
:104AC000002B31D0022384F851302268136823F080
:104AD000400313606368A2681343E26813432269CA
:104AE000134362691343A26902F400721343E2693B
:104AF0001343226A1343A16A22680B431360638B3A
:104B000003F00403616A22680B4353602368E26A7E
:104B10001A612268D36923F40063D36100206065C1
:104B2000012384F8513010BDFDF75CFDCAE7012078
:104B3000704770470268D36843F00103D36002688E
:104B4000136843F0010313600020704770477047FB
:104B50007047704710B5044603681A6912F0020FD7
:104B600011D0DA6812F0020F0DD06FF002021A6154
:104B70000123037703689B6913F0030F70D0FFF7DD
:104B8000E6FF0023237723681A6912F0040F12D07E
:104B9000DA6812F0040F0ED06FF004021A610223DB
:104BA000237723689B6913F4407F5FD02046FFF78B
:104BB000CEFF0023237723681A6912F0080F12D062
:104BC000DA6812F0080F0ED06FF008021A610423A1
:104BD00023772368DB6913F0030F4ED02046FFF7DD
:104BE000B6FF0023237723681A6912F0100F12D042
:104BF000DA6812F0100F0ED06FF010021A6108235D
:104C000023772368DB6913F4407F3DD02046FFF70C
:104C10009EFF0023237723681A6912F0010F03D047
:104C2000DA6812F0010F36D123681A6912F0800F8A
:104C300003D0DA6812F0800F34D123681A6912F0B9
:104C4000400F03D0DA6812F0400F32D123681A699E
:104C500012F0200F03D0DA6812F0200F30D110BD0F
:104C6000FFF774FF2046FFF773FF8AE72046FFF740
:104C70006DFF2046FFF76CFF9BE72046FFF766FFBE
:104C80002046FFF765FFACE72046FFF75FFF2046B1
:104C9000FFF75EFFBDE76FF001021A612046FDF7E6
:104CA00051FAC1E76FF080021A61204600F064F803
:104CB000C3E76FF040021A612046FFF74AFFC5E7DD
:104CC0006FF020021A61204600F055F8C7E7000097
:104CD00003681B4A90420AD0B0F1804F07D0A2F57A
:104CE0009432904203D002F58062904203D123F0C7
:104CF00070034A681343124A90420AD0B0F1804FC1
:104D000007D0A2F59432904203D002F5806290421F
:104D100003D123F44073CA68134323F080034A6924
:104D2000134303608B68C3620B688362044B984231
:104D300002D00123436170470B690363F9E700BFA9
:104D4000002C0140A8B110B5044690F83D305BB18D
:104D5000022384F83D30211D2068FFF7B9FF0123AD
:104D600084F83D30002010BD80F83C30FFF7E1FEB4
:104D7000EEE7012070477047704784B001A880E8D3
:104D80000E00002004B07047B0F8403043F43F43B9
:104D9000A0F8403000207047B0F8403023F474533E
:104DA0005B045B0CA0F84030002070470020704787
:104DB00084B038B505AC84E80E000123A0F840307B
:104DC0000024A0F84040A0F84440A0F85040FFF76D
:104DD000DBFF2046BDE8384004B0704710B4CB7804
:104DE000032B0FD8DFE803F0026D54600A7830F827
:104DF00022309BB223F4EC4323F0700343F400739E
:104E000020F822300A7830F8223023F0F0031B0516
:104E10001B0D134343F4004343F0800320F822307A
:104E20008B7A002B40F0AF804B78002B56D08A88CD
:104E30005208B0F850300C7803EBC40300EB430386
:104E40005200C3F800240A7830F8223013F0400FE3
:104E50000BD030F8223023F0F0031B051B0D43F478
:104E6000004343F0C00320F822300A7830F82230A3
:104E70009BB223F4E04323F0400383F0200343F488
:104E8000004343F0800320F82230002010BC70471C
:104E90000A7830F822309BB223F4EC4323F07003FD
:104EA0009BB220F82230ADE70A7830F822309BB26E
:104EB00023F4EC4323F0700343F4C06320F8223062
:104EC000A0E70A7830F822309BB223F4EC4323F0B9
:104ED000700343F4806320F8223093E78A885208F5
:104EE000B0F850300C7803EBC403043300EB4303F9
:104EF0005200C3F80024B0F850300A7803EBC20324
:104F0000063300EB43030C693E2C30D9C4F34F1237
:104F100014F01F0F01D1013A92B26FEAC2626FEA38
:104F2000524292B2C3F800240A7830F8223013F4C7
:104F3000804F0BD030F8223023F0F0031B051B0DFF
:104F400043F4404343F0800320F822300A7830F8DD
:104F500022309BB223F4804323F0700383F4405348
:104F600043F4004343F0800320F822308DE7C4F37C
:104F70004F0214F0010F01D0013292B2920292B2AC
:104F8000C3F80024D0E70A7830F8223023F4F8730D
:104F90001B051B0D43F4014343F0800320F822302E
:104FA000CA885208B0F850300C7803EBC40300EB09
:104FB00043035200C3F800240A895208B0F8503065
:104FC0000C7803EBC403043300EB43035200C3F833
:104FD00000244B78002B4BD10A7830F8223013F4A0
:104FE000804F0BD030F8223023F0F0031B051B0D4F
:104FF00043F4404343F0800320F822300A7830F82D
:10500000223013F0400F0BD030F8223023F0F003A1
:105010001B051B0D43F4004343F0C00320F822306E
:105020000A7830F8223023F0F0031B051B0D43F4FF
:10503000004343F0C00320F822300A7830F82230D1
:105040009BB223F4804323F0700383F4405348F26F
:105050008004234320F822300A7830F822309BB2B3
:1050600023F4E04323F04003234320F822300CE7ED
:105070000A7830F8223013F4804F0BD030F8223009
:1050800023F0F0031B051B0D43F4404343F0800362
:1050900020F822300A7830F8223013F0400F0BD07D
:1050A00030F8223023F0F0031B051B0D43F40043BE
:1050B00043F0C00320F822300A7830F8223023F081
:1050C000F0031B051B0D43F4404343F0800320F81D
:1050D00022300B7830F8232092B222F4E04222F002
:1050E000400248F28004224320F823200A7830F856
:1050F00022309BB223F4804323F07003234320F833
:105100002230C2E68B7A002B44D14B780BB30A785D
:1051100030F8223013F0400F0BD030F8223023F05B
:10512000F0031B051B0D43F4004343F0C00320F8BC
:1051300022300A7830F822309BB223F4E04323F087
:10514000400343F4004343F0800320F82230002062
:1051500070470A7830F8223013F4804F0BD030F8C3
:10516000223023F0F0031B051B0D43F4404343F0B2
:10517000800320F822300A7830F822309BB223F4E2
:10518000804323F0700343F4004343F0800320F88E
:105190002230DCE710B44B78002B4BD10A7830F882
:1051A000223013F4804F0BD030F8223023F0F0037C
:1051B0001B051B0D43F4404343F0800320F82230CD
:1051C0000A7830F8223013F0400F0BD030F822303C
:1051D00023F0F0031B051B0D43F4004343F0C00311
:1051E00020F822300A7830F8223023F0F0031B0533
:1051F0001B0D43F4004343F0C00320F822300B782A
:1052000030F8232092B222F4804222F0700248F259
:105210008004224320F823200A7830F822309BB201
:1052200023F4E04323F04003234320F822300020FE
:1052300010BC70470A7830F8223013F4804F0BD03E
:1052400030F8223023F0F0031B051B0D43F44043DC
:1052500043F0800320F822300A7830F8223013F02F
:10526000400F0BD030F8223023F0F0031B051B0D4C
:1052700043F4004343F0C00320F822300A7830F8AA
:10528000223023F0F0031B051B0D43F4404343F091
:10529000800320F822300B7830F8232092B222F4D9
:1052A000E04222F0400248F28004224320F823200A
:1052B0000A7830F822309BB223F4804323F0700345
:1052C000234320F82230B2E70A788AB14B7813BB27
:1052D00030F822309BB223F4804323F0700383F430
:1052E000805343F4004343F0800320F8223010E061
:1052F00030F822309BB223F4804323F0400383F440
:10530000805383F0100343F4004343F0800320F8FC
:1053100022300020704730F822309BB223F4E04363
:1053200023F0400383F0100343F4004343F0800371
:1053300020F82230EDE74B781BB30A7830F82230A2
:1053400013F0400F0BD030F8223023F0F0031B0590
:105350001B0D43F4004343F0C00320F822300A78C9
:1053600030F822309BB223F4E04323F0400383F073
:10537000300343F4004343F0800320F82230002040
:1053800070470A7830F8223013F4804F0BD030F891
:10539000223023F0F0031B051B0D43F4404343F080
:1053A000800320F822300A7830F822309BB223F4B0
:1053B000804323F0700383F4405343F4004343F0ED
:1053C000800320F82230DAE711B98023A0F84C30AE
:1053D000002070470020704700207047B0F844005C
:1053E00070470020704701335B1000EB420202F56A
:1053F000806263B110B40C78487844EA002422F843
:10540000044B0231013B002BF5D110BC70477047B3
:10541000F8B58A694D78012D34D00B69934280F03C
:10542000EA80D21A8A618A7A002A40F0F480B0F8C1
:1054300050200C7802EBC402063200EB42023E2BF5
:1054400040F2DD80C3F34F1413F01F0F01D1013C74
:10545000A4B26FEAC4646FEA5444A4B2C2F8004430
:105460000A7830F822309BB223F4804323F0700393
:1054700083F4405343F4004343F0800320F8223088
:105480000020F8BD0F69974225D2D21B8A610E46D3
:1054900004468B7A1BB30B7830F8232012F0400FB0
:1054A00069D0002D37D1B0F8502002EBC30306338A
:1054B00000EB43033E2F22D9C7F34F1217F01F0F03
:1054C00001D1013A92B26FEAC2626FEA524292B2DD
:1054D000C3F8002428E000238B611746D7E7BBB24E
:1054E0008A884969FFF77FFFB4F85030327803EBC0
:1054F000C203023304EB4303C3F800742AE0C7F38A
:105500004F0217F0010F01D0013292B2920292B213
:10551000C3F8002408E0B0F8502002EBC3030233C4
:1055200000EB4303C3F800743289BBB271692046B3
:10553000FFF759FF7378002B4DD1327834F82230C1
:1055400023F0F0031B051B0D43F4004343F0C0039D
:1055500024F82230327834F822309BB223F4E0432E
:1055600023F0400383F0300343F4004343F080030F
:1055700024F8223084E71DBBB0F8502002EBC303AF
:10558000023300EB43033E2F0ED9C7F34F1217F03F
:105590001F0F01D1013A92B26FEAC2626FEA524222
:1055A00092B2C3F8002414E0C7F34F0217F0010FC2
:1055B00001D0013292B2920292B2C3F8002408E004
:1055C000B0F8502002EBC303023300EB4303C3F8EF
:1055D0000074F288A9E7012BBCD1327834F822306C
:1055E00023F0F0031B051B0D43F4404343F08003FD
:1055F00024F82230AEE700238B61134613E7C3F390
:105600004F0413F0010F01D00134A4B2A402A4B2DC
:10561000C2F8004424E7BDB9B0F850200C7802EB82
:10562000C402023200EB42023E2B28D9C3F34F14CE
:1056300013F01F0F01D1013CA4B26FEAC4646FEAFA
:105640005444A4B2C2F800444A7882BBB0F8502057
:105650000C7802EBC402063200EB42023E2B1AD950
:10566000C3F34F1413F01F0F01D1013CA4B26FEA32
:10567000C4646FEA5444A4B2C2F80044F0E6C3F331
:105680004F0413F0010F01D00134A4B2A402A4B25C
:10569000C2F80044D8E7C3F34F0413F0010F01D060
:1056A0000134A4B2A402A4B2C2F80044D8E6012A8C
:1056B0007FF4D6AEB0F850200C7802EBC402023270
:1056C00000EB4202C2F80034CAE601335B1000EB83
:1056D000420202F5806204E0106821F8020B013BEF
:1056E0000432002BF8D17047D0F818321BB10020DB
:1056F000C3F8140270470220704710B5D0F8184262
:10570000D0F81C325BB194F80002FF2807D09B68E8
:1057100094F8012221469847FF2384F800320020A4
:1057200010BD000043230380004870474C00002058
:1057300043230380004870479000002043230380E8
:1057400000487047D40000200A23038000487047B7
:105750001801002038B50446D0F8185201F046FD73
:10576000C5F80C02D4F818324BB1D4F81C32DB68FF
:1057700005F50371D5F804029847002038BD0220D2
:10578000FCE7000070B505460C46D0F818620B78AF
:1057900013F0600225D0202A07D1CA883AB9D0F880
:1057A0001C329B68002248789847002070BD13F097
:1057B000800F0BD0D0F81C329B6831466078984738
:1057C000E2883146284600F059FCEEE74B7886F82F
:1057D0000032CB8886F80132CA88314600F063FC7B
:1057E000E3E74B780A2BE0D10122024900F046FCA6
:1057F000DBE700BFE004002010B50446812101F082
:105800008EFC0121204601F08AFC8221204601F015
:1058100086FCD4F8183253B1D4F81C325B68984730
:10582000D4F8180201F0ECFC0023C4F81832002070
:1058300010BD38B50446037C73BB4FF400730222DD
:10584000812101F05BFC4FF400730222012120460C
:1058500001F054FC082303228221204601F04EFC73
:105860004FF4077001F0C8FC0546C4F8180248B3AD
:10587000D4F81C321B6898470023C5F81432C5F8C9
:105880001832237CA3B14023D5F8042201212046FD
:1058900001F09EFC002038BD40230222812101F04E
:1058A0002DFC402302220121204601F027FCD1E7F4
:1058B0004FF40073D5F804220121204601F088FC42
:1058C0000020E8E70120E6E719B1C0F81C1200202B
:1058D000704702207047D0F81832C3F80812C3F896
:1058E000102200207047D0F81832C3F804120020AC
:1058F0007047D0F818229AB108B5037C3BB1402319
:10590000D2F80422012101F063FC002008BD4FF40D
:105910000073D2F80422012101F05AFC0020F5E7BF
:105920000220704798B108B50346D0F8140210B1B0
:105930000020C3F8140209B1C3F81012184601235D
:1059400080F8FC31027001F081FB002008BD0220CC
:10595000704719B1C0F81412002070470220704738
:1059600008B501F0BDFB002008BD08B5D0F8143221
:1059700033B11B68984708B9002008BD0220FCE736
:105980000220FAE708B5D0F814325B689847002087
:1059900008BD38B5044600F50275284600F00CF93C
:1059A0000123C4F8F431B4F80E32C4F8F83194F895
:1059B000081201F01F03012B0ED03BB1022B10D0B7
:1059C00001F08001204601F0B8FB03E029462046A3
:1059D00000F06BFA002038BD2946204600F089FA15
:1059E000F8E72946204600F0A0FAF3E710B5044690
:1059F00021BB1346D0F8F421032A01D0002010BDAA
:105A0000D0F80C11D0F8102191420CD8D0F81432F3
:105A10001B6923B190F8FC21032A00D19847204646
:105A200000F058FBEAE7891AC0F80C118A4228BF37
:105A30000A4692B2194600F045FBDFE70A46D0F865
:105A400014329B69002BD9D090F8FC110329D5D1D1
:105A500011469847D2E710B50446002946D11346AF
:105A6000D0F8F421022A05D094F80032012B39D065
:105A7000002010BDC169026A914219D88169B1FB49
:105A8000F2F302FB13132BB98A4203D8D0F8F83192
:105A900099421AD3D4F81432DB682BB194F8FC2164
:105AA000032A01D120469847204600F01EFBDBE781
:105AB0008A1AC26192B2194600F0EDFA00231A4622
:105AC0001946204601F084FBCEE70022114600F083
:105AD000E2FA0021C4F8F8110B460A46204601F00C
