:020000040800F2
:1000000000500020F9560008C90E0008CD0E000867
:10001000D10E0008D50E0008D90E0008000000001F
:10002000000000000000000000000000814F0008F8
:10003000DD0E00080000000011500008E10E00086D
:100040004157000841570008415700084157000830
:100050004157000841570008415700084157000820
:100060004157000841570008415700084157000810
:100070004157000841570008415700084157000800
:1000800041570008E50E0008415700084157000895
:10009000F10E000841570008415700084157000879
:1000A00041570008415700084157000841570008D0
:1000B0004157000841570008FD0E0008415700084D
:1000C00041570008415700084157000841570008B0
:1000D00041570008415700084157000841570008A0
:1000E000090F0008415700084157000800000000B0
:1000F0000000000000000000000000000000000000
:0C01000000000000000000005FF808F1A3
:1001100010B5054C237833B9044B13B10448AFF341
:1001200000800123237010BDD401002000000000D6
:10013000106C000808B5034B1BB103490348AFF32B
:10014000008008BD00000000D8010020106C0008ED
:10015000034613F8012B002AFBD1181A0138704707
:1001600080F0004002E000BF81F0004142001FBF6C
:100170005FEA410392EA030F7FEA226C7FEA236C75
:100180006AD04FEA1262D2EB1363C1BFD21841406A
:1001900048404140B8BF5B42192B88BF704710F000
:1001A000004F40F4000020F07F4018BF404211F0A3
:1001B000004F41F4000121F07F4118BF494292EA0B
:1001C000030F3FD0A2F1010241FA03FC10EB0C0037
:1001D000C3F1200301FA03F100F0004302D54942C4
:1001E00060EB4000B0F5000F13D3B0F1807F06D371
:1001F00040084FEA310102F10102FE2A51D2B1F169
:10020000004F40EBC25008BF20F0010040EA03005D
:100210007047490040EB000010F4000FA2F101020A
:10022000EDD1B0FA80FCACF1080CB2EB0C0200FA94
:100230000CF0AABF00EBC25052421843BCBFD040E2
:100240001843704792F0000F81F4000106BF80F45C
:1002500000000132013BB5E74FEA41037FEA226C1F
:1002600018BF7FEA236C21D092EA030F04D092F0EA
:10027000000F08BF0846704790EA010F1CBF00201E
:10028000704712F07F4F04D1400028BF40F000407B
:10029000704712F100723CBF00F50000704700F09B
:1002A000004343F0FE4040F4000070477FEA2262C2
:1002B00016BF08467FEA23630146420206BF5FEA93
:1002C000412390EA010F40F4800070474FF0000393
:1002D00004E000BF10F0004348BF40425FEA000C5A
:1002E00008BF704743F0964301464FF000001CE002
:1002F00050EA010208BF70474FF000030AE000BF58
:1003000050EA010208BF704711F0004302D5404295
:1003100061EB41015FEA010C02BF84460146002007
:1003200043F0B64308BFA3F18053A3F50003BCFA22
:100330008CF2083AA3EBC25310DB01FA02FC6344CF
:1003400000FA02FCC2F12002BCF1004F20FA02F2D6
:1003500043EB020008BF20F00100704702F12002C9
:1003600001FA02FCC2F1200250EA4C0021FA02F22A
:1003700043EB020008BF20EADC7070474FF0FF0C2F
:100380001CEAD0521EBF1CEAD15392EA0C0F93EA2A
:100390000C0F6FD01A4480EA010C400218BF5FEACC
:1003A00041211ED04FF0006343EA501043EA51113F
:1003B000A0FB01310CF00040B1F5000F3EBF490039
:1003C00041EAD3715B0040EA010062F17F02FD2A3D
:1003D0001DD8B3F1004F40EBC25008BF20F0010020
:1003E000704790F0000F0CF0004C08BF49024CEA37
:1003F000502040EA51207F3AC2BFD2F1FF0340EAC9
:10040000C250704740F400004FF00003013A5DDC39
:1004100012F1190FDCBF00F000407047C2F100027A
:10042000410021FA02F1C2F1200200FA02FC5FEA67
:10043000310040F1000053EA4C0308BF20EADC70B1
:10044000704792F0000F00F0004C02BF400010F423
:10045000000F013AF9D040EA0C0093F0000F01F0D0
:10046000004C02BF490011F4000F013BF9D041EAF2
:100470000C018FE70CEAD15392EA0C0F18BF93EAF4
:100480000C0F0AD030F0004C18BF31F0004CD8D11E
:1004900080EA010000F00040704790F0000F17BFA5
:1004A00090F0004F084691F0000F91F0004F14D0EB
:1004B00092EA0C0F01D142020FD193EA0C0F03D143
:1004C0004B0218BF084608D180EA010000F0004046
:1004D00040F0FE4040F40000704740F0FE4040F421
:1004E000400070474FF0FF0C1CEAD0521EBF1CEAC0
:1004F000D15392EA0C0F93EA0C0F69D0A2EB0302DE
:1005000080EA010C49024FEA402037D04FF0805377
:1005100043EA111143EA10130CF000408B4238BF3C
:100520005B0042F17D024FF4000C8B4224BF5B1A4A
:1005300040EA0C00B3EB510F24BFA3EB510340EA98
:100540005C00B3EB910F24BFA3EB910340EA9C0046
:10055000B3EBD10F24BFA3EBD10340EADC001B01B6
:1005600018BF5FEA1C1CE0D1FD2A3FF650AF8B425A
:1005700040EBC25008BF20F0010070470CF0004C67
:100580004CEA50207F32C2BFD2F1FF0340EAC25092
:10059000704740F400004FF00003013A37E792F053
:1005A000000F00F0004C02BF400010F4000F013AB1
:1005B000F9D040EA0C0093F0000F01F0004C02BFAC
:1005C000490011F4000F013BF9D041EA0C0195E715
:1005D0000CEAD15392EA0C0F08D142027FF47DAFAE
:1005E00093EA0C0F7FF470AF084676E793EA0C0F9E
:1005F00004D14B023FF44CAF08466EE730F0004C9C
:1006000018BF31F0004CCAD130F000427FF45CAF2B
:1006100031F000437FF43CAF5FE700BF08B504F062
:10062000A1FEFEE72DE9F041304884B005F038FD29
:1006300000232F4C00931A4621462E4800F046FA1C
:1006400080B12D4D04244FF48051284600F0F8FE6F
:10065000642003F055FF013CF5D14FF4FA7003F02C
:100660004FFFEFE72146234800F010FBA046224D44
:10067000204F04F128064FF0FF3303AA194600204B
:1006800004F050FB4FF48051284600F0D9FE41465B
:10069000384600F095FAB4221849304605F010FCAF
:1006A000D4F8DC30E268218A0F2BE261218403F167
:1006B0000102B4F90C1003DC022AC4F8DC20DADDF4
:1006C0000029D8DBB4F92830002BD4DA00F066FC1E
:1006D000B4F928300146B4F91C20094805F06CFC37
:1006E0004FF48051284600F0ABFEC4E7806C000850
:1006F000F001002000130020000C01400C0200203B
:100700008C6C000870B54FF4803301240021022660
:100710004FF4801294B00AA80A940E940B9312938B
:100720000C911196139202F08DF900B1FEE7034689
:100730000F254FF48062214605A8CDE90663099391
:100740000595089202F066FB00B1FEE710224FF417
:10075000800301A80192049302F068FC044600B1F2
:10076000FEE702F02DFC4FF47A73B0FBF3F000F0DB
:1007700081FC042000F096FC224629464FF0FF3011
:1007800000F036FC14B070BD80B5524C90B005F04E
:1007900029FA00F0E5FBFFF7B5FFA369012243F05A
:1007A0001003A361A3694FF4805103F01003029377
:1007B000029BA369484843F02003A361A369002575
:1007C00003F020030393039BA3694FF4804643F097
:1007D0000803A361A369402703F008030493049B63
:1007E000A36943F00403A361A36903F00403059321
:1007F000059B00F021FE01234FF480520BA93648DF
:10080000CDE90B23CDE90D5300F026FD4FF4004256
:10081000324B0BA93248CDE90B230D9500F01CFD9E
:100820002A460A21282000F0E3FB282000F016FCCD
:100830008021636943F0010363616269294B02F01F
:1008400001020192284A01981846C3E90455C3E9F8
:1008500006551A60C3E902715E6000F02FFC00B11A
:10086000FEE7044602460521112000F0C1FB1120DD
:1008700000F0F4FB1D4B1E491E4A1846C3E90464F0
:10088000C3E90244C3E906441C62C3E9001200F054
:10089000E7FD064600B1FEE7174C184806AD05F027
:1008A000FFFB0FCC0FC554F8043B314606A82B6064
:1008B00003F00CFE124B0BAD18600FCC0FC5236874
:1008C00031460BA82B6003F001FE0E4B186003F0BD
:1008D000F7FDFEE700100240000C0140000011107F
:1008E0000008014098130020080002400013002077
:1008F00000540040A0860100286C0008806C0008AD
:10090000F8120020FC120020B0F5004F00D0704714
:10091000002300B585B004AA054942F8043D0868E3
:1009200000921946012204F06FFA05B05DF804FB4D
:10093000FC1200200268034B9A4200D0704700F07E
:1009400021BB00BF00080040FEE700BF1C232DE9CB
:10095000F0438946054690464FF47A7785B00C7887
:1009600004AE06F8013DA4B20097012332462146A9
:10097000284600F001FE0028F6D14FF47A76009662
:1009800001230DF10E022146284600F061FF0028E8
:10099000F5D14FF47A769DF80E3023F0180343EA30
:1009A000C8038DF80E30009601230DF10E0221468A
:1009B000284600F0E1FD0028F5D1B8F1030F07D873
:1009C000DFE808F0021A120A4FF06253C9F8083043
:1009D000002005B0BDE8F0834FF068530020C9F84F
:1009E000083005B0BDE8F0834FF066530020C9F829
:1009F000083005B0BDE8F0834FF064530020C9F81B
:100A0000083005B0BDE8F0831B232DE9F04389468B
:100A1000054690464FF47A7785B00C7804AE06F818
:100A2000013DA4B20097012332462146284600F03A
:100A3000A3FD0028F6D14FF47A76009601230DF13C
:100A40000E022146284600F003FF0028F5D14FF49E
:100A50007A769DF80E3023F0180343EAC8038DF828
:100A60000E30009601230DF10E022146284600F0BB
:100A700083FD0028F5D1B8F1030F06D8DFE808F0B0
:100A8000021710090D4BC9F80430002005B0BDE86D
:100A9000F08300200A4BC9F8043005B0BDE8F083AC
:100AA0000020084BC9F8043005B0BDE8F0830020F1
:100AB000054BC9F8043005B0BDE8F0832D23FA3B9F
:100AC00090C1793D90C1F93C2D237A3C2DE9F04F3E
:100AD000752642F0D00294B287B00A700D4698464F
:100AE0002146052302228DF80E609DF840700646CF
:100AF00001F022F918B1012007B0BDE8F08F4FF4E2
:100B00007A790123CDF800900DF10E02214630468E
:100B100000F032FD0028EED1CDF8009001230DF158
:100B20000F022146304600F093FE0028E3D19DF8E5
:100B30000F30682B01D00320DEE748F26B030DF184
:100B4000180A2AF8083D5246CDF8009002232146A3
:100B5000304600F011FD0028CDD1322000F024FAFB
:100B60004FF06B0CCDF800905246214602233046E0
:100B7000ADF810C000F000FD0028BCD140F21973A0
:100B800095F800A00DF1180B2BF8043D1FFA8AFA16
:100B9000CDF8009002235A465146304600F0ECFC56
:100BA00004460028F4D1424629463046FFF7CEFEDF
:100BB0003A4629463046FFF727FF20469CE700BF0C
:100BC0003B232DE9F0410F4606464FF47A7888B072
:100BD00008AC0D7804F8113DCDF8008001232246C1
:100BE0002946304600F0C8FC0028F5D14FF47A7849
:100BF000CDF800800E2304AA2946304600F028FED6
:100C000004460028F4D19DF810009DF812309DF89C
:100C100011109DF8132041EA002142EA03229DF8B9
:100C200014009DF815309DF8165043EA00239DF8F6
:100C30001700FA8140EA05203B82B98100B2FFF734
:100C400049FB1049FFF74EFC0F49FFF78FFAB861D7
:100C500020469DF818209DF819109DF81A3041EA99
:100C600002219DF81B209DF81C5042EA03229DF8AA
:100C70001D30798243EA0523BA82FB8208B0BDE8C1
:100C8000F08100BF0000AA43B81E12422DE9F041D6
:100C900005464FF47A77224B84B01B8804AE0C785B
:100CA00026F8043D0097022332462146284600F0EC
:100CB00063FC0028F6D137234FF47A7804AF07F8A5
:100CC000053DCDF8008001233A462146284600F034
:100CD00053FC0028F5D14FF47A77009701230DF1EA
:100CE0000A022146284600F0B3FD0028F5D137223C
:100CF0004FF47A779DF80A308DF80C2043F01003FA
:100D00008DF80A308DF80D300097022332462146C7
:100D1000284600F031FC0028F6D104B0BDE8F0818F
:100D2000506C0008254B00B59A6983B042F001026F
:100D30009A619A69032002F001020092009ADA692E
:100D400042F08052DA61DB6903F080530193019B2A
:100D500000F03CF900226FF00B00114600F048F95A
:100D600000226FF00A00114600F042F900226FF0F5
:100D70000900114600F03CF900226FF00400114612
:100D800000F036F900226FF00300114600F030F950
:100D900000220F216FF0010000F02AF900220F213C
:100DA0004FF0FF3000F024F9054A536823F0E06368
:100DB00043F00073536003B05DF804FB0010024081
:100DC000000001401B4B02689A4200D07047F0B50A
:100DD00012220323C02487B002A905461648CDE994
:100DE0000242059300F038FA0023802020274FF4B8
:100DF0000056124A124CD16941F40011D161D269F6
:100E0000C4E9013302F40012C4E904330D4B01922A
:100E1000E0602046019A2360C4E9067600F04EF9AE
:100E200018B9AC63656207B0F0BD83210648FFF7CF
:100E30008BFDF6E700540040000C0140001002401A
:100E40005413002080000240BC6C000830B50146FD
:100E500089B000221E2000F0CBF81E2000F0FEF822
:100E6000154B01A9DA6903A842F00402DA61DB69D3
:100E7000124D03F004030293029B02F0B7F802F054
:100E8000A5F8002240F2E7314300A5FB03030C4C18
:100E90000C4D9B0C013B2046C4E90053C4E90312EE
:100EA000A26002F047F910B1012009B030BD204620
:100EB00002F08EF909B030BD0010024083DE1B4302
:100EC000DC13002000080040704700BFFEE700BFB1
:100ED000FEE700BFFEE700BFFEE700BF704700BFB0
:100EE00003F016BB014800F021B900BF54130020E5
:100EF000014801F0E5B900BF141E0020014802F0CE
:100F00007BB900BFDC1300204FF4004000F09CBA16
:100F100030B44FF41F054FF000640E4B0E4A1968B1
:100F20000E4841F00101196059680A405A601A6878
:100F300022F0847222F480321A601A6822F480222D
:100F40001A605A6822F4FE025A609D60846030BCC8
:100F5000704700BF001002400000FFF800ED00E005
:100F6000074A08B51368032043F01003136000F02C
:100F70002DF80020FFF76AFFFFF7D4FE002008BD20
:100F800000200240034A044B11681B780B44136095
:100F9000704700BF1C14002004000020014B18689B
:100FA000704700BF1C14002038B50446FFF7F6FF59
:100FB000631C054602D0044B1B781C44FFF7EEFF70
:100FC000401BA042FAD338BD040000204FF6FF01B9
:100FD000064A0002D36800F4E0600B4043F0BF63B0
:100FE00043F400330343D360704700BF00ED00E0DB
:100FF000184B30B4DB68C3F30223C3F10705042D9B
:1010000003F1040428BF0425062C19D94FF0FF343E
:10101000033B9C4022EA04044FF0FF32AA4021EA3D
:10102000020101FA03F2224312010028D2B20ADBC4
:1010300000F1604000F5614080F8002330BC70474B
:1010400000242346E8E7044B00F00F0003441A761F
:1010500030BC704700ED00E0FCEC00E0012300F044
:101060001F01034A40098B4042F82030704700BFFF
:1010700000E100E00138B0F1807F0DD230B4F025FE
:1010800000220721054B064C586084F82350104677
:1010900030BC9A60196070470120704710E000E092
:1010A00000ED00E0044A042813680CBF43F0040379
:1010B00023F004031360704710E000E070B30346B0
:1010C000F0B4D0E90126002401253243DE6800682F
:1010D000324313491E69134F014432435E69A7FB33
:1010E000017132439E69DF6932430668090989004C
:1010F00026F47F563A4326F0300619640A493243F3
:10110000D96302602046C3E90A44C3E90C449C63E6
:1011100083F8204083F82150F0BC704701207047CD
:10112000F8FFFDBFCDCCCCCC00000240042270B44F
:10113000D0E90F61346803688A4022421D681FD0DD
:101140006A071DD51A68910603D41A6822F00402B2
:101150001A603F4A93425CD01432934261D01432F9
:10116000934268D0143293426BD0143293425DD0D4
:10117000143293420CBF4FF480034FF0806349E078
:1011800002228A40224222D0AA0720D51A6891065C
:1011900006D401211A6822F00A021A6080F8211090
:1011A0002B4A93422BD01432934242D014329342B2
:1011B00044D01432934236D01432934244D0143285
:1011C00093420CBF4FF400134FF0007318E0082255
:1011D0008A4022421BD02A0719D5012200251C680B
:1011E00002FA01F124F00E041C60036B716082634B
:1011F00080F8212080F820504BB170BC18470223A2
:101200000021144C826A636080F820103AB970BCE7
:10121000704704230F49C26A4B60002AF7D070BCA4
:1012200010474023F6E74FF40053E9E74FF48023DB
:10123000F0E72023E4E74FF48063EBE74FF400731B
:10124000DEE74FF48043E5E74FF40033D8E700BF13
:1012500008000240000002402DE9F04F4FF0000866
:1012600083B04446DFF8C0C1694EDFF8C0E102E058
:101270000134102C78D001230A68A3401A4093420D
:10128000F6D14D68122D00F09C807ED8022D00F022
:10129000948074D9032D00F08D80112D02D1CB687C
:1012A00003F10408FF2A62D882460368A5004FF0C4
:1012B0000F0909FA05FB23EA0B0308FA05F52B438E
:1012C000CAF80030D1F804A01AF0805FD0D0514F96
:1012D00024F00305BB6905F1804543F00103BB61C0
:1012E000BB6905F5803503F00103019304F0030B9E
:1012F000019B4FEA8B0BAB6809FA0BF9604523EAB7
:1013000009030FD0704560D0434FB84278D0434FA7
:10131000B8420CBF4FF003094FF0040909FA0BFB68
:1013200043EA0B03AB6033681AF4803F14BF1343E6
:101330009343336073681AF4003F14BF134393431D
:101340007360B3681AF4801F14BF13439343B360F0
:10135000F3681AF4001F04F1010414BF1A4323EACE
:101360000202102CF26086D103B0BDE8F08F04F1C8
:101370008045083D4368AD0000F1040A97E7A5B138
:10138000012D8FD1D1F80C808CE7254FBD420CD0B8
:1013900029D9244FBD4208D007F58037BD4204D07B
:1013A000DFF88C904D457FF47DAF8D68A5B94FF087
:1013B000040877E74FF0000874E7CB6803F10808EA
:1013C00070E7CB6803F10C086CE74FF0010909FAEC
:1013D0000BFB43EA0B03A5E7012D0CBF036143613F
:1013E0004FF008085EE7DFF84C904D45DDD009F579
:1013F00080394D457FF456AF8D68002DD7D0EBE78F
:101400004FF0020909FA0BFB43EA0B038AE700BF1E
:10141000000401400010024000100140001401408F
:10142000000021100000311000080140000C0140B4
:10143000000022100000111002B909040161704778
:10144000C3685940C1607047044A5169014200D1E4
:10145000704708B55061FFF757FA08BD0004014016
:1014600000286CD090F83D3070B503F0FF020446C0
:10147000002B5DD02423226884F83D30136823F0CC
:101480000103136001F0A2FD6268364B9A422FD827
:10149000354B984251D95300421EB2FBF3F2334907
:1014A0000132A1FB0030810CC2F30B00042838BFCD
:1014B000042023684A1C59601A620022D4E90716E6
:1014C00020253143D861D4E9036019603043D4E961
:1014D000051631439860D9601968104641F0010142
:1014E0001960226484F83D50226384F83E2070BD68
:1014F0001F4B984221D94FF496711C4D1D4BA5FBF3
:101500000065AD0C01FB05F1A3FB0131A668236862
:10151000890901315D600138196296B902EB420216
:10152000B0FBF2F00130C0F30B00C0B90120C4E7FA
:1015300080F83C20FFF746FC9CE7012070BD0120AD
:10154000704702EB820202EB8202B0FBF2F0013044
:10155000C0F30B000028E9D040F44040ADE740F470
:101560000040AAE7A08601007F841E0083DE1B43A3
:10157000FF083D00D34D62102DE9F047044682B0CC
:1015800099460F4690460A9DFFF708FD94F83D30B6
:10159000202B03D0022002B0BDE8F087064605E00C
:1015A000FFF7FCFC801B192800F2C98023689A69A8
:1015B000D24312F0020AF3D094F83C20012AE9D079
:1015C00001211A6884F83C10D00702D41A680A4333
:1015D0001A6000214FF0210C10201A6822F40062DA
:1015E0001A609A4A84F83DC084F83E002164A4F849
:1015F0002A90E262618DE26AC4F82480042A21857F
:101600006DD0012A6BD012F5803F68D0226B122A70
:1016100065D0691C40F086805A69D207FCD52269E2
:10162000B2F5804F40F0BD8007F0FE071F61691CD6
:1016300004D091E05A69570500F195805A699207E4
:10164000F8D5002201925A6901929A690192019A91
:10165000228D002A00F0D6806A1C03D044E05A692B
:10166000500525D45A691706F9D5606A278D421CA2
:1016700062620278791E1A61628D89B2013A92B271
:1016800062855A69218552070AD549B1821C626276
:101690004278023F1A61628D2785013A92B26285D3
:1016A0006F1C30D15A695007D2D45A695105F9D507
:1016B00000226FF48065042020215D61206484F89D
:1016C0003C20226384F83D10236C042B40F08D8075
:1016D00022680120136843F4007313605BE71A6803
:1016E00042F480721A6094E75A691106BDD45A69AF
:1016F0005105DDD4002D7AD0FFF750FC801B8542C8
:1017000075D32368A8E75A695207A1D45A695205CC
:10171000CED4002D6BD0FFF741FC801B854266D3F1
:101720002368BDE75A69D0073FF579AF002D4AD04D
:10173000FFF734FC801B854245D3236869E72023EB
:101740000220C4F830A084F83CA084F83D3084F82E
:101750003EA002B0BDE8F0875A6990073FF571AF2F
:101760005A69500539D500216FF480660425202080
:101770001A6842F400721A605E61256484F83C10B5
:10178000216384F83D00236C236C042B08BF0120E7
:101790004FF0000318BF032084F83C3002B0BDE8CE
:1017A000F087FA1102F0060242F0F0021A616A1C98
:1017B00003D034E05A695105D5D45A691007F9D5D8
:1017C000FFB21F6133E700232022236384F83C30FB
:1017D00084F83D2084F83E30D6E775B3FFF7DEFB92
:1017E000801B854229D3236821E70320D3E62021EB
:1017F0000022236C84F83C200B432364226384F88A
:101800003D1061E720251968104641F40071196008
:1018100084F83D5084F83C2084F83E20BBE65A69A9
:101820001207CDD45A6951059DD435B1FFF7B6FBE7
:10183000801B854201D32368B9E70023202223635C
:1018400084F83C3084F83D209DE700BF0000FFFF96
:101850002DE9F047044686B099460F4690460E9D06
:10186000FFF79CFB94F83D30202B03D0022006B0FC
:10187000BDE8F087064604E0FFF790FB801B1928BF
:1018800075D822689369DB4313F0020AF4D094F808
:101890003C30012BEAD00121136884F83C10D807B2
:1018A00002D413680B431360102000214FF0220C68
:1018B000136823F4006313609E4B84F83DC084F8E2
:1018C0003E002164A4F82A90E362608DE16A136807
:1018D000042943F48063C4F824802085136035D044
:1018E000012933D011F5803F30D0236B112B2DD03F
:1018F0006B1C30D15369D807FCD52369B3F5804FF1
:1019000060D147F00103DBB213616B1C03D0B5E17A
:101910005369580538D453699F07F9D5238D002B97
:1019200040F08A8001935369019393690193019B6D
:10193000136843F40073136000232022184684F8D0
:101940003D2084F83C3084F83E3090E7136843F43F
:1019500080731360CCE75369D907CED4002D61D0D2
:10196000FFF71CFB801B85425CD32268C0E7202365
:101970000220C4F830A084F83CA084F83D3084F8FC
:101980003EA006B0BDE8F08700216FF48066042514
:101990002020136843F4007313605661256484F8B3
:1019A0003C10216384F83D00236C236C042B08BF9A
:1019B00001204FF0000318BF032084F83C3006B02C
:1019C000BDE8F0874FEAE71808F0060848F0F00392
:1019D0001361681C03D062E153695B05D4D4536979
:1019E0001907F9D5FFB217616B1C03D068E1536981
:1019F0005805C9D453699F07F9D500230593536946
:101A0000059393690593059B136843F480731360F2
:101A10006B1C40F079815369DF07FCD548F0F10376
:101A2000136172E700232022236384F83C3084F89A
:101A30003D2084F83E30B8E7012B7DD0022B00F02A
:101A40004F810020116841F4806111600490516958
:101A5000049192690492049A002B3FF46DAF032B1A
:101A60007ED8012B00F0E580022B49D0681C22684B
:101A700040F0A48053695907FCD5136823F48063B0
:101A8000136072B62268636A1269591C61621A7027
:101A9000638D228D013B013A9BB2228563856F1CC9
:101AA000226840F0A38053695807FCD51368616A27
:101AB00043F40073136013694A1C62620B70638DF8
:101AC000228D013B9BB2013A6385228562B6226872
:101AD000636A1269591C61621A70628D238D013A22
:101AE000013B92B29BB262852385B5E753695F07DC
:101AF0000CD4002D6DD0FFF751FA801B854268D3BE
:101B0000691C2268F2D153695B07FCD572B6236861
:101B1000616A1A68481C42F400721A601B696062AC
:101B20000B70638D228D013B013A9BB22285638548
:101B3000CCE700BF0000FFFF136823F4806313604D
:101B400072B60022236802925A6902929A6902923E
:101B5000029A1A6842F400721A6062B6238D7BE71B
:101B600045B950E05A69D00677D4FFF717FA801BC1
:101B7000A8424FD823685A695706F3D5626A1B6991
:101B8000511C61621370628D2168013A92B2238DFB
:101B900062854A69013B9BB2520723857FF55CAFA2
:101BA000636A0A69591C61621A70238D628D013B58
:101BB000013A9BB292B2238562854DE753695B0778
:101BC0003FF55BAF2DB1FFF7E9F9801B8542BFF40C
:101BD0004DAF002320220320236384F83C3084F897
:101BE0003D2084F83E3006B0BDE8F08753695907C0
:101BF0003FF55CAF002DECD0FFF7D0F9801B85429C
:101C0000BFF44DAFE5E723685A695106B6D45A6967
:101C1000D20622D420220021236C84F83C101343E6
:101C2000236484F83D20236C202B0CBF032001206B
:101C30001DE645B91DE05A69D7060ED4FFF7AEF987
:101C4000801B8542E6D323685A695206F3D5626A3F
:101C50001B69511C61621370A7E700226FF010002E
:101C600020215861226484F83C20226384F83D10CE
:101C7000D9E723685A695006C9D5E8E75369990737
:101C80003FF54CAE536959053FF57EAE002D4AD065
:101C9000FFF784F9801B854245D3226835E65369F6
:101CA00018073FF59FAE53695B053FF56DAE002DFC
:101CB00039D0FFF773F9801B854234D3226888E658
:101CC000536999073FF599AE536959053FF55CAEE5
:101CD0004DB3FFF763F9801B854224D3226883E666
:101CE000136843F40063136072B600222368039202
:101CF0005A6903929A690392039A1A6822F48062DD
:101D00001A6062B6238DA7E65369D8073FF586AE01
:101D1000002D3FF487AEFFF741F9801B8542FFF4A9
:101D200081AE226874E600232022236384F83C30CD
:101D300084F83D2038E600BF2DE9F04F054683B01A
:101D40001F468A469346FFF729F995F83D30202B28
:101D500003D0022003B0BDE8F08F064605E0FFF790
:101D60001DF9801B192800F2A2802B689A69D243C2
:101D700012F00204F3D095F83C20012AE9D00121A9
:101D80001A6885F83C10D00740F18D80002124208E
:101D900089464FF0A0081A680AF0FE0A22F4006291
:101DA0001A605E4A85F83D002964EA621A6842F4C6
:101DB00080721A607A1C5FD15A69D607FCD5C3F8C5
:101DC00010A0FFF7EBF82B68064658695A6995F89A
:101DD0003D10800702F48062C9B212D48AB9A029EA
:101DE0000FD01FB136E062B9A0290AD085F83D8036
:101DF00058695A6995F83D10800702F48062C9B2AB
:101E0000F1D5202285F83D205A69920768D46FF4F5
:101E100080611A6842F400721A60596105E0FFF7A8
:101E2000BDF8801B192832D82B689C69E44314F054
:101E30000204F4D009F10109D945B7D320220023C7
:101E4000012085F83D2085F83C3083E7002AD8D171
:101E5000A029D6D0FFF7A2F8801B87422B6838BF95
:101E600085F83D8058695A6995F83D10840702F459
:101E70008062C9B2C5D4E9E75A69D4079FD417B3C1
:101E8000FFF78CF8801B87421DD32B6892E7202335
:101E900003202C6385F83C4085F83D3085F83E40B2
:101EA00003B0BDE8F08F1A680A431A606EE720237A
:101EB00002202C6385F83C4085F83D3085F83E4093
:101EC00003B0BDE8F08F0023202203202B6385F8A8
:101ED0003C3085F83D2085F83E3003B0BDE8F08FFA
:101EE00000211A6842F400721A6001915A69019245
:101EF0009A690192019A05E0FFF750F8801B1928B2
:101F0000C5D82B689B69DB4313F00204F4D020236F
:101F1000002085F83D3085F83C001BE70000FFFFFE
:101F2000002800F0B2812DE9F04F90F8293487B0F5
:101F3000044603F0FF02002B00F0A2814FF00309DA
:101F400026466D4684F82994206801F015FA56F863
:101F5000107B04F1040A0FCE0FC5336838462B609E
:101F60009AE80E0001F0F6F90021206801F00EFA5F
:101F70004FF48073238540F20113A4F848304FF4E6
:101F80008173A4F8683040F20313A4F888304FF44A
:101F90008273A4F8A83040F20513A4F8C8304FF4B7
:101FA00083730025A4F8E83040F2071384F82B501F
:101FB000C4E90E55256484F84B50C4E916552566CE
:101FC00084F86B50C4E91E55C4F8805084F88B50D7
:101FD000C4E92655C4F8A05084F8AB50C4E92E5586
:101FE000C4F8C05084F8CB50C4E93655C4F8E0506A
:101FF00084F8EB50C4E93E55A4F808314FF48473DB
:10200000A4F8283140F20913A4F848314FF485733D
:10201000A4F8683140F20B13A4F888314FF48673AA
:10202000A4F8A83140F20D13C4F8005184F80B5104
:10203000C4F81851C4F81C51C4F8205184F82B512D
:10204000C4F83851C4F83C51C4F8405184F84B519D
:10205000C4F85851C4F85C51C4F8605184F86B510D
:10206000C4F87851C4F87C51C4F8805184F88B517D
:10207000C4F89851C4F89C51C4F8A05184F8AB51ED
:10208000C4F8B851C4F8BC51C4F8C051A4F8C83160
:10209000A4F88892A4F894904FF002094FF0010838
:1020A000A4F86892A4F874904FF487734FF0040971
:1020B000A4F8E83184F8CB51C4F8D851C4F8DC5105
:1020C000C4F8E05184F8EB51C4F8F851C4F8FC515D
:1020D000C4F80052A4F82852A58684F82B52C4F8FC
:1020E0003852C4F83C52C4F8405284F84B52C4F8F9
:1020F0005852C4F85C52C4F8605284F86B52C4F869
:102100007852C4F87C52C4F8805284F88B52C4F8D8
:102110009852C4F89C52A4F84882A4F85480C4F899
:10212000A052A4F8A892A4F8B4904FF00509A4F81E
:10213000C892A4F8D4904FF00609A4F8E892A4F845
:10214000F4904FF007094FF0090B4FF00A0E0B20E7
:102150000C210D222746A4F80893A4F814914FF0FF
:102160000E034FF00809EC4684F8AB52C4F8B8529D
:10217000C4F8BC52C4F8C05284F8CB52C4F8D85248
:10218000C4F8DC52C4F8E05284F8EB52C4F8F852B8
:10219000C4F8FC52C4F8005384F80B53C4F8185325
:1021A000C4F81C53C4F8205384F82B53C4F8385394
:1021B000C4F83C53C4F84053A4F82893A4F83491CD
:1021C000A4F848B3A4F854B184F84B53A4F868E3D6
:1021D000A4F874E1A4F88803A4F89401A4F8A8135F
:1021E000A4F8B411A4F8C823A4F8D421A4F8E833BF
:1021F000A4F8F431C4F85853C4F85C53C4F86053DD
:1022000084F86B53C4F87853C4F87C53C4F88053F3
:1022100084F88B53C4F89853C4F89C53C4F8A05363
:1022200084F8AB53C4F8B853C4F8BC53C4F8C053D3
:1022300084F8CB53C4F8D853C4F8DC53C4F8E05343
:1022400084F8EB53C4F8F853C4F8FC53C4F80054B2
:1022500057F810EB0FCFACE80F0033687046CCF89E
:1022600000309AE80E0001F093F884F824502068BA
:1022700084F8298401F05CFC284607B0BDE8F08FA3
:1022800080F8282403F0B0F858E60120704700BF1A
:1022900090F82834012B10D0012110B5044680F8A5
:1022A000281403F0D5F9206801F040FC206801F003
:1022B00059F8002084F8280410BD0220704700BFA0
:1022C0002DE9F04F044683B0006801F033FC0204AE
:1022D00045D42268104601F02DFC460500F18481AA
:1022E000206801F027FC10F4804F206807D0B0F878
:1022F000443023F480431B041B0CA0F8443001F04D
:1023000019FC10F4005F206807D0B0F8443023F4C3
:1023100000531B041B0CA0F8443001F00BFCC50457
:1023200000F14481206801F005FC000500F11F81E7
:10233000206801F0FFFB820500F10C81206801F0AC
:10234000F9FBC30508D52268B2F8443023F4807342
:102350001B041B0CA2F8443003B0BDE8F08F00232F
:102360002268DFF8DC94DFF8DCA4DFF8DCB4ADF839
:102370000430ADF80630B2F844309BB21F04ADF81B
:102380000430A7D5BDF8045015F00F054FD1BDF8A6
:102390000410138811F0100100F044819BB2ADF8D5
:1023A0000630BDF806301B0500F1A081BDF80630EF
:1023B0001F04E0D540F68F7311880B401380B2F8EC
:1023C000503094F8281203EBC10302EB4303D3F817
:1023D0000C34C3F30903C4F84432002B40F01282DA
:1023E0002046002103F026F82268D4F83802B2F81B
:1023F00050303E2802F5806503F1060340F2E0818B
:10240000C0F34F11C60604BF01F1FF3189B24BEA98
:10241000812189B245F8131013880AEA030383F473
:10242000405343F4004343F080031380A3E732F8A2
:1024300025309BB2ADF80630BDF8063019043CD407
:10244000BDF806301B0696D532F825306E0109EA34
:10245000030322F82530A11991F8323002F580608B
:10246000002B40F01E81B2F8503091F8287003EB39
:10247000C703023350F81330C3F309034B64002B36
:1024800040F07C812644B2F8503096F82850F16B29
:1024900003EBC503023350F81330356CC3F3090363
:1024A00019447364F163002D40F0E38096F828101E
:1024B000204602F0C7FF22685DE740F68F7332F8CE
:1024C00025106E010B4022F8253004EB060898F821
:1024D000323202F58060002B00F0288198F8283213
:1024E00032F8237002EB830117F4804FB2F850707A
:1024F0004FEAC3033B4400F04D81023350F81370A0
:10250000C7F30907002F40F0958140F60F730A8842
:10251000134043F4004343F0C0030B802644D6F835
:102520004432D6F83C22D6F840023B443A44C6F83E
:102530004432C6F83C22002800F02981D6F838320F
:1025400096F828129F4280F04681204602F072FFE2
:10255000226875E722682046B2F8443023F40073FD
:102560001B041B0CA2F8443002F074FFE6E623685B
:10257000B3F84020184642F00802A3F84020B3F810
:10258000442022F400621204120CA3F84420B3F891
:10259000402042F00402A3F8402001F0CBFAC1042D
:1025A0003FF5C6AE204602F067FFC1E6226820462E
:1025B000B2F8403023F004031B041B0CA2F8403097
:1025C000B2F8403023F008031B041B0CA2F8403083
:1025D00002F062FF2068B0F8443023F480531B04FB
:1025E0001B0CA0F844309EE622682046B2F8443026
:1025F00023F480631B041B0CA2F8443002F02EFF6E
:1026000094F82834012B3FF46BAE0025012384F8A5
:10261000245084F828342946206801F081FA84F88F
:1026200028545DE609EA03031380B2F8500094F8D9
:102630002850E36B00EBC50002EB4002D2F8042403
:102640002046C2F309021344E363626402F0FAFE17
:1026500094F824301BB3236C2268002B7FF48BAEDC
:1026600094F8241041F08001A2F84C1084F8243032
:1026700081E64FF0000C012796F82860104606F01E
:102680007F067201A3182832C3E90F1583F828606A
:10269000A118C3F844C083F8297001F0CDF822686E
:1026A00069E691F8283004EB451532F82370DB0019
:1026B00017F0400FB2F850703B444ED1063350F83B
:1026C0001330C3F309036B64002B40F0AA8040F67B
:1026D0000F73A11991F8281032F821502B4043F4C0
:1026E000404343F0800322F82130CBE6B2F850306B
:1026F00094F82812104603EBC10302EB4302D2F810
:102700000C3404F22C41C3F30903B4F82C22C4F8AE
:10271000443201F023FA40F68F7322682046118874
:102720000B40138002F080FE226824E6B2F850309D
:1027300098F8281203EBC103063350F81370C7F35F
:102740000907002F3FF4EAAE10463B46B8F82C22AA
:10275000D8F83C1201F002FAE0E6023350F81330E8
:10276000C3F309036B64002BB1D01046CA8DC96B4B
:1027700001F0E6F9226802F58060A8E710468A8D2C
:10278000C96B01F0DDF9226802F580607AE696F8FF
:102790002812DAE6063350F81370C7F30907002F42
:1027A0003FF4B3AE3B461046B8F83022D8F83C129E
:1027B00001F0D4F998F82832216801EB8301A4E6EE
:1027C000C0F34F01C00744BF013189B2890289B209
:1027D00045F8131020E6002701F07F014E01A319F0
:1027E00006F50A7683F82812C3F83C22C3F84002A3
:1027F000A119C3F8447283F82972206801F01CF80B
:1028000022681DE61046D4F83C12B4F82C2201F0E0
:10281000A5F9D4F83C32D4F844221344C4F83C322D
:10282000DEE510460A8EC96B01F08AF9226802F5CE
:1028300080604CE710463B46B8F82E22B6E700BF52
:102840000F8FFFFF8FBFFFFF0080FFFF90F828244E
:10285000012A0DD010B50446012284F8241080F816
:102860002824006801F05CF9002084F8280410BDD9
:102870000220704738B54CB2002C01F07F05B5BF7F
:1028800000EB451100EB4111283101F50A71E40F0D
:102890004C700D70CB7090F828340A61012B0AD06F
:1028A0000123044680F82834006800F08BFD0020E6
:1028B00084F8280438BD022038BD00BF4BB2002B7D
:1028C00001F07F02B5BF00EB421100EB411128314E
:1028D00001F50A71DB0F4B700A7090F82834012B58
:1028E0000BD0012310B5044680F82834006800F0AE
:1028F000D5FE002084F8280410BD0220704700BFD8
:1029000070B5002601F07F014D01441905F50A75E7
:1029100084F82812C4F83C224119C4F840320068F7
:10292000C4F8446284F8296200F086FF304670BD26
:1029300001F00F0100EB4111B1F84402704700BFF4
:10294000F8B50026012701F07F014D014419283513
:1029500084F82810C4E90F234119006884F829700D
:10296000666400F069FF3046F8BD00BF012238B54B
:102970004BB2002B01F07F05B5BF00EB451100EB1A
:102980004111283101F50A71DB0F4B700D708A700F
:1029900090F82834934213D0044680F82824006825
:1029A00001F044F81DB1002084F8280438BD04F279
:1029B0002C41206801F0C2F8002084F82804F5E7D3
:1029C000022038BD38B500254BB2002B01F07F0244
:1029D000B5BF00EB421100EB4111283101F50A713E
:1029E000DB0F4B700A708D7090F82834012B0AD0E1
:1029F0000123044680F82834006801F049F884F87F
:102A00002854284638BD022038BD00BF11F0800F81
:102A10000DD001F07F0100EB4110283099B26AB16E
:102A200001221B0C0381C18082720020704700EBE1
:102A3000411000F50A7099B2002AF1D181808272AA
:102A4000002070472DE9F041036882B0DD0704469D
:102A500030D5AB494A6802F00C02042A00F0DA8053
:102A60004A6802F00C02082A00F0D0806368B3F5CF
:102A7000803F00F00F81002B00F02781B3F5A02FDD
:102A800000F0B5819E4B1A6822F480321A601A68F1
:102A900022F480221A60FEF781FA994D064605E07D
:102AA000FEF77CFA801B642800F20B812B689A03E6
:102AB000F6D523689F0728D5914A516811F00C0F6D
:102AC00000F0B680516801F00C01082900F0AC80DC
:102AD0002369002B00F0418101228A4B884D1A6046
:102AE000FEF75CFA064605E0FEF758FA801B02285E
:102AF00000F2E7802B689807F6D52B68626923F00F
:102B0000F80343EAC2032B6023681A0722D5A3699E
:102B1000002B00F0988001227B4B794D1A60FEF764
:102B20003DFA064605E0FEF739FA801B022800F25E
:102B3000C8806B6A9B07F6D5744B754A1B68A2FB6D
:102B400003235B0A019300BF019B5A1E0192002BD5
:102B5000F9D123685D0739D5694BDA69D00040F1B6
:102B6000828000256B4B1A68D10540F19980E3689B
:102B7000012B0FD0002B00F0D180052B604B1A6A7F
:102B800000F0FC8022F001021A621A6A22F00402AC
:102B90001A6204E05A4A136A43F001031362FEF713
:102BA000FDF9574E804641F2883706E0FEF7F6F908
:102BB000A0EB0800B84200F28480336A9B07F5D589
:102BC00025B14F4AD36923F08053D361E269CAB17A
:102BD0004B4D696801F00C01082930D0022A4FF0F2
:102BE00000014D4A00F0D2801160FEF7D7F92C4663
:102BF000054604E0FEF7D2F9401B022861D823689D
:102C00009B01F7D4002002B0BDE8F0814A68D003F0
:102C10007FF52CAF3A4A126891037FF54BAF62689B
:102C2000002A7FF447AF0AE05268D6033FF550AF61
:102C3000334A1268950721D52269012A1ED0012046
:102C400002B0BDE8F081304A2D4D1360FEF7A6F9C1
:102C5000064604E0FEF7A2F9801B022831D86B6A11
:102C60009F07F7D475E7DA69012542F08052DA61EF
:102C7000DB6903F080530093009B73E72049606990
:102C80000A6822F0F80242EAC0020A601A077FF5D9
:102C900061AF3CE71A4A136843F480331360FAE6E5
:102CA0001A681E4642F480721A60FEF777F90746EA
:102CB0003368DA053FF55BAFFEF770F9C01B642897
:102CC000F6D9032002B0BDE8F08103F1804303F59B
:102CD00004331A681D4622F480321A601A6822F4FE
:102CE00080221A60FEF75AF9064604E0FEF756F90C
:102CF000801B6428E5D82B689B03F7D4D9E600BF76
:102D000000100240000042428004424200000020C5
:102D1000D34D6210007000406000424203F18043D6
:102D200003F504331A6A1E4622F001021A621A6A77
:102D300041F2883822F004021A62FEF72FF90746A2
:102D400004E0FEF72BF9C01B4045BAD8336A980758
:102D5000F7D4002D3FF43AAF33E72B4A2B4D1360E5
:102D6000FEF71CF9064604E0FEF718F9801B02285E
:102D7000A7D82B689907F7D42368C6E642F0040267
:102D80001A621A6A42F001021A6208E71160FEF73D
:102D900005F9064604E0FEF701F9801B022890D8E9
:102DA0002B689901F7D4226AB2F5803F05D16B6890
:102DB000A16823F400330B436B600125134B606A59
:102DC0005968024321F4741111480A435A6005609E
:102DD0001C46FEF7E3F8054605E0FEF7DFF8401B6A
:102DE00002283FF66EAF23689A01F6D50AE703F191
:102DF0008043A3F53C331A6842F480221A601A68B3
:102E000042F480321A6046E600004242001002405E
:102E100060004242634A136803F007038B420BD2FF
:102E2000136823F007030B431360136803F00703D1
:102E30008B4201D0012070472DE9F041036886B034
:102E40009A0706D5584C8568626822F0F0022A433A
:102E50006260DB0704460E4625D54268524B012AC4
:102E60001B6800F09980022A00F0928098072AD50A
:102E70004D4D41F288386B6823F0030313436B60B8
:102E8000FEF78CF863680746012B64D0022B06D14D
:102E90006CE0FEF783F8C01B404500F281806B6850
:102EA00013F00C0FF5D13F4A136803F00703B34248
:102EB0000DD9136823F0070333431360136803F03D
:102EC0000703B34203D0012006B0BDE8F0812368B8
:102ED000590706D53449E0684A6822F4E0620243A3
:102EE0004A601A0707D5304A2169536823F46053B2
:102EF00043EAC103536040F201222C4B06ACADF80B
:102F000004200FCB04E90F0027494A6802F00C03A4
:102F1000082B10D0264B244A264852682649C2F373
:102F20000312825C0020D3400B60FDF78FFF00206E
:102F300006B0BDE8F081C2F38343234413F8100CBC
:102F4000D30319D41D4B03FB00F3E4E7FEF726F887
:102F5000C01B404524D86B6803F00C03042BF5D14B
:102F6000A1E7FEF71BF8C01B404519D86B6803F0BA
:102F70000C03082BF5D196E74A680D4BC2F340428B
:102F800003FB00F3224412F8142CB3FBF2F3C2E764
:102F90009D013FF56DAF96E79F033FF569AF92E75F
:102FA000032091E700200240001002406C6C0008F2
:102FB00000127A00546C00080000002000093D0057
:102FC000014B1868704700BF00000020044B054902
:102FD0005B68054AC3F30223CB5C1068D840704796
:102FE00000100240646C0008000000200F220D4B0E
:102FF00002605A6810B402F0030242605A680A4C38
:1030000002F0F00282605A6802F4E062C2605B681B
:10301000DB0803F4E0630361236810BC03F00703DB
:103020000B60704700100240002002402DE9F04183
:103030000446006882B0C5072AD53A4BDA69D10048
:103040003DD5394B00251A68D20546D5354960680B
:103050000A6A12F440720FD000F4407393420BD00E
:10306000012700260B6A314A23F44070176016606E
:103070000862D80745D460682A4A136A23F440736B
:10308000034313621DB1D36923F08053D3612068D9
:10309000830706D5234AA168536823F440430B43B2
:1030A000536010F0100007D000201E4AE1685368FA
:1030B00023F480030B43536002B0BDE8F081DA696A
:1030C000012542F08052DA61DB6903F080530193FD
:1030D000019B154B1A68D205B8D41A681E4642F4F3
:1030E00080721A60FDF75AFF07463368DB05ADD4DE
:1030F000FDF754FFC01B6428F7D9032002B0BDE8D8
:10310000F0810E46FDF74AFF41F288378046336A68
:103110009A07B0D4FDF742FFA0EB0800B842F6D9F9
:10312000EBE700BF00100240007000404004424244
:10313000704700BF002836D090F83D3070B503F0DE
:10314000FF0204460BB302232268204E84F83D3070
:10315000B2421368A569E068616826D0B2F1804F79
:1031600018D0A6F59436B24214D006F58066B24265
:1031700010D023F080032B431360D06291620123AF
:103180000020536184F83D3070BD80F83C20FFF78B
:10319000CFFFD8E7A66823F070033343266923F4F2
:1031A00040733343E5E701207047A66823F07003BE
:1031B0003343266923F44073334323F080032B43C6
:1031C0001360D062916263691363D8E7002C0140F9
:1031D00003680020DA6842F00102DA601A6842F0FF
:1031E00001021A60704700BF704700BF704700BF00
:1031F000704700BF704700BF036810B51A690446E6
:10320000910702D5DA6892075FD41A69500702D590
:10321000DA68510746D41A69120702D5DA6810072E
:103220002ED41A69D20602D5DA68D00618D41A69E3
:10323000D10702D5DA68D2075DD41A69100602D523
:10324000DA6811065FD41A69520602D5DA685006A8
:1032500061D41A69910602D5DA68920643D410BD8A
:103260006FF0100108221961DB69204613F4407FDA
:10327000227764D0FFF7BAFF002223682277D6E7CF
:103280006FF0080104221961DB6920469907227753
:1032900052D1FFF7A9FF2046FFF7AAFF00222368BB
:1032A0002277BEE76FF00401022219619B69204674
:1032B00013F4407F22773CD1FFF796FF2046FFF7BB
:1032C00097FF002223682277A5E76FF00201012211
:1032D00019619B6902779B0725D0FFF787FF0022C2
:1032E0002368227791E76FF020022046BDE8104066
:1032F0001A6100F02BB86FF0010220461A61FDF749
:1033000019FB236899E76FF0800220461A6100F0EC
:103310001FF8236897E76FF0400220461A61FFF715
:1033200069FF236895E7FFF75FFF2046FFF760FF1F
:10333000D5E7FFF75BFFC4E7FFF758FFAEE7FFF7FE
:1033400053FF2046FFF754FF96E700BF704700BFCA
:10335000704700BF84B001A880E80E0004B00020D0
:10336000704700BF0246B0F84030002043F43F43AE
:10337000A2F84030704700BF44F2FF230246B0F885
:10338000401000200B40A2F84030704700207047EA
:1033900084B070B4044601250020A4F84050A4F87D
:1033A0004000A4F84400A4F85000B4F8406004AD14
:1033B00046F43F46A4F8406085E80E0070BC04B0B7
:1033C000704700BF70B40B78CA7800EB8304032AFF
:1033D00010D8DFE812F00400290135011D0130F892
:1033E0002340AA4A224042F4007220F823200B789E
:1033F00000EB830440F60F75228800F580662A40B2
:10340000134343F4004343F0800323808B7A6BBB68
:103410008A880B784C7852085200DB00002C00F0B0
:10342000BC80B0F85040234446F813200C7830F8A4
:10343000243000EB84025E060BD530F824301D40AA
:1034400045F4004545F0C00520F824500A7800EB0B
:10345000820211888E4B002070BC0B4083F0200349
:1034600043F4004343F080031380704740F60F633A
:103470000A7830F82240234043F4014343F08003AC
:1034800020F82230CB88B0F850200C785B0802EB93
:10349000C4025B0046F81230B0F850300A890C784C
:1034A0000433520803EBC403520046F813200A7891
:1034B0004B7830F82240002B3ED1660400EB8203AB
:1034C0000BD530F822301D4045F4404545F08005CD
:1034D00020F822500B7800EB83031A8855060BD591
:1034E00040F60F721C88224042F4004242F0C002B3
:1034F0001A800B7800EB830340F60F7248F28004C9
:103500001D882A4042F4004242F0C0021A800A7824
:10351000604B30F822502B4083F44053234320F873
:1035200022300A785A4B30F822100B401C4320F806
:103530002240002070BC7047640400EB82030BD56E
:1035400030F822301D4045F4404545F0800520F814
:1035500022500B7800EB83031A8852067AD440F687
:103560000F7248F280041D882A4042F4404242F023
:1035700080021A800A78464B30F822502B402343B1
:1035800020F822300A78434B30F822100B401C43BD
:1035900020F82240002070BC7047B0F85050B0F8BE
:1035A00050402B44043346F813200A690D78A31DBC
:1035B0003E2A03EBC5035AD8C2F34F04D20744BFD7
:1035C0000134A4B2A402A4B246F813400C7830F837
:1035D000243000EB84025B040DD540F60F7330F805
:1035E0002420134043F4404343F0800320F8243068
:1035F0000A7800EB82021188264B002070BC0B4039
:1036000083F4405343F4004343F080031380704736
:1036100030F823401D4A224042F4C06220F82320A3
:103620000B7800EB8304E5E630F82340174A22408C
:1036300042F4806220F823200B7800EB8304D9E663
:1036400030F82340114A224020F823200B7800EB69
:103650008304CFE640F60F721C88224042F40042F9
:1036600042F0C0021A800B7800EB830377E7C2F3C5
:103670004F14D50604BF04F1FF3294B2064A42EA61
:10368000842292B246F81320A0E700BF8F89FFFF83
:10369000BF8FFFFF8FBFFFFF0080FFFF30B40A78AE
:1036A0008D7A00EB82034C780DBB002C00F09380E8
:1036B00030F8224064060DD540F60F7330F82240F2
:1036C000234043F4004343F0C00320F822300B783A
:1036D00000EB83031A88002030BC22F0C0021205E0
:1036E000120D42F4004242F080021A807047002C12
:1036F0003ED130F8224064040DD540F60F7330F807
:103700002240234043F4404343F0800320F822301A
:103710000B7800EB83031A8855060BD540F60F7221
:103720001C88224042F4004242F0C0021A800B780A
:1037300000EB830340F60F7248F280041D882A4094
:1037400042F4004242F0C0021A800A78384B30F846
:1037500022502B40234320F822300A78354B30F892
:1037600022100B401C4320F82240002030BC704740
:1037700030F8224064040DD540F60F7330F8224033
:10378000234043F4404343F0800320F822300B7879
:1037900000EB83031A8852063CD440F60F7248F2BD
:1037A00080041D882A4042F4404242F080021A8080
:1037B0000A78204B30F822502B40234320F8223047
:1037C0000A781B4B30F822100B401C4320F8224093
:1037D000002030BC704730F8224065040DD540F61B
:1037E0000F7330F82240234043F4404343F08003FA
:1037F00020F822300B7800EB83031A88002030BCBD
:1038000022F0F0029204920C42F4004242F0800254
:103810001A80704740F60F721C88224042F4004222
:1038200042F0C0021A800B7800EB8303B5E700BFBB
:103830008FBFFFFFBF8FFFFFF0B44C788D69012C65
:103840000B6958D09D4292BF0022EA1A1D468B7A1E
:103850008A610A783BBBB0F850303E2D03F1060375
:1038600000F5806403EBC20240F2A180C5F34F165D
:10387000EF0604BF06F1FF339EB2694B43EA86238D
:103880009BB244F812300A7830F82210654BF0BC35
:103890000B4083F4405343F4004343F0800320F88B
:1038A000223000207047002CEED1B0F850303E2D71
:1038B00003F1020300F5806403EBC20240F294803E
:1038C000C5F34F16EF0604BF06F1FF339EB2544B0B
:1038D00043EA86239BB244F812304E78002E40F023
:1038E0009180B0F850200D78063202EBC50244F802
:1038F00012300A78C8E79D4286BFEA1A1D460022A8
:10390000ABB28C7A01338A615B104E6900F580623C
:10391000ACB98C8802EB44042BB136F8027B013B36
:1039200024F8047BF9D1B0F850300C78023303EB63
:10393000C40342F813500A7800EB82022AE00C78A4
:1039400030F82470B0F850C07F064FEAC4044CBF72
:103950000F89CF886444023442F8145002EB4702C6
:103960002BB136F8024B013B22F8044BF9D10C780D
:103970004B7800EB840233BB40F60F7330F8242001
:10398000134043F4004343F0C00320F824300A7886
:1039900000EB82021188244B0020F0BC0B4083F026
:1039A000300343F4004343F0800313807047C5F3B2
:1039B0004F03ED0744BF01339BB29B029BB244F817
:1039C00012300A7860E7012BE4D140F60F7330F82B
:1039D0002420134043F4404343F0800320F8243074
:1039E0000A7800EB8202D5E7C5F34F03EE0744BF28
:1039F00001339BB29B029BB244F812304E78002EEA
:103A00003FF46FAF012E0A787FF43EAFB0F850302C
:103A1000023303EBC20244F812500A7834E700BFC5
:103A20000080FFFF8FBFFFFFBF8FFFFF0B78DBB171
:103A30004A7830F823105AB9124A0A4082F4805268
:103A400042F4004242F0800220F823200020704718
:103A50000D4A0A4082F0100242F4004242F0800215
:103A600020F82320002070470288084B134083F47D
:103A7000805383F0100343F4004343F0800303803A
:103A8000002070478FBFFFFFBF8FFFFFBFBFFFFF4B
:103A900010B40B784C7800EB8302F4B130F823407B
:103AA00064060DD540F60F7230F82340224042F4F0
:103AB000004242F0C00220F823200A7800EB820284
:103AC0001188154B00200B4083F0300343F4004372
:103AD00043F08003138010BC704730F82340640427
:103AE0000DD540F60F7230F82340224042F4404298
:103AF00042F0800220F823200A7800EB820211882D
:103B0000064B00200B4083F4405343F4004343F042
:103B10008003138010BC7047BF8FFFFF8FBFFFFF74
:103B200011B98023A0F84C30002070470020704766
:103B300000207047B0F84400704700BF0020704775
:103B4000013300F580605B1000EB420205D031F8D4
:103B5000020B013B22F8040BF9D17047013300F549
:103B600080605B1000EB420206D01068013B02F15E
:103B7000040221F8020BF8D1704700BFD0F81832C8
:103B80001BB10020C3F8140270470220704700BF29
:103B9000D0F81C3283B110B5D0F8184294F8000266
:103BA000FF2807D09B6894F8012221469847FF23FD
:103BB00084F80032002010BD0020704743230380AA
:103BC000004870470C0000204323038000487047E2
:103BD00050000020432303800048704794000020D9
:103BE0000A23038000487047D800002038B50446F7
:103BF000D0F8185201F020FDD4F81832C5F80C02A4
:103C00004BB1D4F81C3205F50371DB68D5F804021A
:103C10009847002038BD022038BD00BFF8B50B78AA
:103C20000C4613F060020CD0202A08D1CA88054641
:103C30004E787AB9D0F81C3230469B6898470020FD
:103C4000F8BD4B780A2BFAD101220E4900F0F2FBA5
:103C50000020F8BD1B06D0F818720BD5D0F81C3226
:103C6000394630469B689847E2883946284600F036
:103C7000E1FBE4E787F8006287F80122394600F0AB
:103C8000EFFBDCE7D002002010B50446812101F0F3
:103C90006FFC0121204601F06BFC2046822101F0DF
:103CA00067FCD4F8183253B1D4F81C325B689847DB
:103CB000D4F8180201F0CAFC0023C4F8183200201E
:103CC00010BD00BFF8B5037C044673BB4FF400730E
:103CD0000222812101F03CFC4FF4007302220121F9
:103CE000204601F035FC082303228221204601F002
:103CF0002FFC4FF4077001F0A5FC0546C4F818022C
:103D000030B30026D4F81C321B689847277CD5F8BE
:103D10000422C5F814622046C5F818628FB140230A
:103D2000012101F07BFC3046F8BD402302228121B5
:103D300001F00EFC402302220121204601F008FC84
:103D4000D1E74FF40073012101F068FC3846F8BD5B
:103D50000120F8BD19B1C0F81C12002070470220E4
:103D6000704700BFD0F818320020C3F80812C3F81B
:103D700010227047D0F818320020C3F804127047A0
:103D8000D0F818228AB110B5047CD2F804222CB1E4
:103D90004023012101F042FC002010BD4FF40073CC
:103DA000012101F03BFC204610BD0220704700BFFE
:103DB00088B108B5D0F8143213B10023C0F814321A
:103DC00009B1C0F810120123027080F8FC3101F033
:103DD00067FB002008BD0220704700BF19B1C0F882
:103DE0001412002070470220704700BF08B501F090
:103DF000A1FB002008BD00BF08B5D0F814321BB1EC
:103E00001B68984700B908BD022008BD08B5D0F866
:103E100014325B689847002008BD00BF38B50446DF
:103E200000F50275284600F0C9FA012094F808123E
:103E3000B4F80E2201F01F038342C4F8F401C4F861
:103E4000F82115D00ED3022B06D001F080012046B8
:103E500001F09CFB002038BD2946204600F048FABE
:103E6000002038BD2946204600F0D8F8002038BD93
:103E70002946204600F01CFA002038BD10B5044643
:103E800031B91346D0F8F421032A0DD0002010BD1B
:103E9000D0F814329B69002BF8D090F8FC21032A4B
:103EA000F4D19847002010BDD0F80C11D0F81021A3
:103EB00091420DD8D0F814321B6923B190F8FC213F
:103EC000032A00D19847204600F0E2FA002010BDF6
:103ED000891A8A4228BF0A46C0F80C1192B21946C4
:103EE00000F0CEFAD2E700BF70B5044651B91346D0
:103EF000D0F8F421022A16D094F80032012B0DD00C
:103F0000002070BDD0F814325B69002BF8D090F817
:103F1000FC21032AF4D19847002070BD002384F8C7
:103F20000032002070BDD0E90762964219D883693B
:103F3000B3FBF2F502FB15350DB99A421FD9D4F83F
:103F40001432DB682BB194F8FC21032A01D12046FE
:103F50009847204600F0A8FA94F80032012BCFD100
:103F6000DCE7B21A0D46C261194692B200F070FA4F
:103F70002B462A462946204601F050FBBCE7D0F8E4
:103F8000F8219342DBD22A4600F062FAC4F8F851D5
:103F9000EEE700BF38B500224025044611462B4607
:103FA00001F0D6FA2B460022C4F810512046802199
:103FB00001F0CEFA0122D4F81832256284F8FC21EF
:103FC0002BB1D4F8143221795B6820469847002041
:103FD00038BD00BF01740020704700BF03460422B3
:103FE00090F8FC11002083F8FD1183F8FC21704744
:103FF000034690F8FD21002083F8FC21704700BFA4
:1040000090F8FC21032A01D00020704708B5D0F8B1
:104010001432DB6903B19847002008BD30B54B78F6
:1040200083B00D460446092B0BD8DFE803F0324578
:104030000A580A05650A7B158B8813B9CB88002BB3
:104040007DD08021204601F0A1FA2046002101F018
:104050009DFA002003B030BD8978944D0129297064
:10406000EFD890F8FC31022B00F08080032BE8D1D0
:10407000002900F01181416801292CD0C9B2FFF755
:10408000C5FE297820466160FFF7B6FE022822D1DE
:10409000D7E7012290F8FC310321023B9342D0D8AC
:1040A000D0F80432C26003B1C160022204F10C01F5
:1040B000204600F0BFF9CCE790F8FC31023B012B21
:1040C000BFD84B88012BC4D10022D0F81432C0F8DD
:1040D00004229B689847204600F0DAF9B9E74B883C
:1040E000012BB6D1D0F81422C0F804329368984757
:1040F000204600F0CDF9ACE74A88130A013B062BB5
:104100009FD801A151F823F013420008FB41000899
:10411000E94100084340000843400008D34100083B
:1041200093410008CA88012A8BD190F8FC31022BF8
:1041300028D0032B85D1011D00F07CF989E790F888
:10414000FC31032B3FF47DAF8D7805F07F0580F8BF
:10415000FE51294601F046FA204600F099F9002D5B
:1041600000F08F80022384F8FC3172E70029B2D07E
:1041700001210323416080F8FC31FFF73DFE022856
:10418000A9D15EE70023014641F8083F00F052F94B
:104190005FE7037C002B7FF454AFD0F814320DF1AD
:1041A00006001B6B984707234370BDF80630002BB1
:1041B0003FF44FAFEA88002A3FF44BAF934228BF49
:1041C000134601461A462046ADF8063000F032F993
:1041D0003FE7037C002B7FF434AFD0F814320DF1AD
:1041E00006005B6B9847E0E7D2B2052A3FF629AF9D
:1041F000DFE802F03F372F271F17027CD0F8143278
:10420000002A42D19B6A0DF10600984702234370B1
:10421000CBE7D0F810320DF106011B68007C9847FF
:10422000C3E7D0F810320DF106019B69007C984776
:10423000BBE7D0F810320DF106015B69007C9847AE
:10424000B3E7D0F810320DF106011B69007C9847E6
:10425000ABE7D0F810320DF10601DB68007C98471F
:10426000A3E7D0F810320DF106019B68007C984757
:104270009BE7D0F810320DF106015B68007C98478F
:1042800093E7012384F8FC31E3E6DB6A0DF10600D5
:1042900098470223437088E70223416080F8FC318D
:1042A000FFF7B4FD204600F0F3F8D2E6D10200207B
:1042B00038B590F8FC310446032B0BD10B790D4631
:1042C000012B07D8D0F814329B689847EB8853B17C
:1042D000002038BD802101F059F92046002101F06D
:1042E00055F9002038BD204600F0D2F8002038BD36
:1042F00038B50B78054603F06003202B05D1D0F8C4
:1043000014329B689847002038BD4B788A88012B6F
:104310000C46D1B231D014D3032BF4D190F8FC3138
:10432000022B2ED0032B3CD163881BB94A0601D047
:1043300001F02CF9D5F8143221469B68284698479D
:104340002BE090F8FC31022B1BD0032B29D101F07C
:104350007F03120600EB03134CBF03F1140403F5B3
:10436000827401F02FF9003018BF0120214620602F
:104370000222284600F05EF8C5E790F8FC31022BD7
:1043800004D14C06BFD001F001F9BCE7032B08D1E2
:104390006388002BB7D14B060CD1284600F078F883
:1043A000B1E78021284601F0F1F82846002101F00C
:1043B000EDF8A8E701F0F8F8BCE700BF0B78037050
:1043C0004B784370CA788B7803EB022343804A7999
:1043D0000B7903EB02238380CA798B7903EB0223E9
:1043E000C380704708B3037830B4FBB104460023A0
:1043F00014F8015F0133DBB2002DF9D15B00023309
:10440000DCB2032513800C704D7004785CB102237C
:1044100000255A1CD2B2CC548D5410F8014F0233EF
:10442000DBB2002CF5D130BC704770470224234624
:10443000E7E700BF38B5134602250A46C0E9063350
:10444000C0F8F451002101F0DBF8002038BD00BFB6
:1044500008B513460A46002101F0D2F8002008BD35
:1044600038B5134603250A46C0F80831C0F80C31A8
:10447000C0F8F451002101F0D1F8002038BD00BF90
:1044800008B513460A46002101F0C8F8002008BD0F
:1044900008B504220023C0F8F42119461A4601F099
:1044A000AFF8002008BD00BF08B505220023C0F802
:1044B000F42119461A4601F0B1F8002008BD00BFEA
:1044C00008B500F0C3F9002008BD00BF30B5B0F951
:1044D00008400246842C08BF002485B018BF03346E
:1044E00003AD0B4640681168128ACDE9004500F023
:1044F00099F8012814BF0020039805B030BD00BF13
:1045000008B5002808BF012000F068FB002008BDA6
:1045100008B500F0F7FB012803D0BDE8084000F023
:1045200099BD08BD4FF0FF31002200F10803816002
:10453000C0E90023C0E90333704700BF00230361D3
:10454000704700BFD0E9002310B49C6801328C6032
:104550009C684B606160996010BC086102607047A4
:1045600030B40D686B1C11D000F1080200E01A464F
:1045700053681C68AC42FAD904684B6001349960F6
:104580008A6051600861046030BC704702695368FA
:10459000F2E700BF026910B4D0E9013154689960B4
:1045A000816884424B6008BF51600021136801613B
:1045B000581E106010BC7047F8B5184C06462568A8
:1045C00060680F460430FFF7E5FF38B901226168E3
:1045D000A368C96A8A4023EA0203A360731C14D04B
:1045E0006368AD195D6009D2606A61680431FFF7E4
:1045F000B7FFA36AAB4288BFA562F8BD206A6168B5
:10460000BDE8F8400431FFF7ABBF002FE8D0616888
:1046100003480431BDE8F840FFF794BFD4020020FE
:10462000E00200202DE9F84F4FEA820A804650460A
:104630000D4699460B9F00F0D7FD002800F0FC8046
:104640000646542000F0D0FD0446002800F0C88043
:1046500006632B78AAF1040A80F834302B7856448C
:1046600026F0070A002B4DD06B7880F835306B7838
:10467000002B47D0AB7880F83630AB78002B41D098
:10468000EB7880F83730EB78002B3BD02B7980F833
:1046900038302B79002B35D06B7980F839306B7935
:1046A000002B2FD0AB7980F83A30AB7953B3EB794C
:1046B00080F83B30EB792BB32B7A80F83C302B7AA7
:1046C00003B36B7A80F83D306B7ADBB1AB7A80F85C
:1046D0003E30AB7AB3B1EB7A80F83F30EB7A8BB1F6
:1046E0002B7B80F840302B7B63B16B7B80F84130B3
:1046F0006B7B3BB1AB7B80F84230AB7B13B1EB7B88
:1047000080F843300A9D4FF0000B062D28BF062588
:10471000261DE5626564304684F843B0C4F848B0AD
:10472000FFF70CFFC5F1070504F11800FFF706FFBE
:10473000C4F84CB0A561246184F850B064624A4664
:104740004146504600F008FC206007B13C603C4DFB
:1047500000F028FCEB6A0133EB626B68002B37D06A
:10476000D5F80C21E36A6AB305F13008012707FA8E
:1047700003F203EB8303D5F808C008EB8300D5F8F8
:10478000103142EA0C023B443146C5F81031AA60B0
:10479000FFF7D8FE00F028FCD5F80C317BB16A6831
:1047A000E36AD26A9A420AD24FF08052254B1A60CD
:1047B000BFF34F8FBFF36F8F3846BDE8F88F384691
:1047C000BDE8F88F6A68D26A9A4298BF6C60CBE7FE
:1047D0006C60EB6A012B0AD0E36A05F13008C5E78B
:1047E000304600F087FD4FF0FF30BDE8F88F05F14F
:1047F0003008474605F1BC0938461437FFF792FEEA
:104800004F45F9D1DFF84090A9F11400FFF78AFE77
:104810004846FFF787FE09F11400FFF783FE09F110
:104820002800FFF77FFEA9F1C400FFF77BFE6F624F
:10483000E36AC5F8209099E74FF0FF30C0E700BF6A
:10484000D402002004ED00E0A40300202DE9F84389
:104850004FF4007000F0C8FC002800F08580064688
:10486000542000F0C1FC054600287AD00024564BA5
:10487000071D4363066380F8384080F84340C462F4
:10488000C0E911443846FFF759FE05F11800FFF75B
:1048900055FE072306F5FE7626F00706EC64224651
:1048A000AB6185F85040494930462D616D6200F09A
:1048B00053FB474C2860C4F8205100F073FBE36AB7
:1048C0000133E3626368002B43D0D4F80C31E86A0B
:1048D00023B96368DB6A834298BF656004F13006E0
:1048E0000123D4F808C0D4F81021834000EB8000E5
:1048F00043EA0C030132394606EB8000A360C4F89A
:104900001021FFF71FFE00F06FFBD4F80C3163B1EC
:104910006268EB6AD26A9A4207D24FF080522D4BFE
:104920001A60BFF34F8FBFF36F8F4FF0500383F3C5
:104930001188BFF36F8FBFF34F8F00234FF0FF310C
:104940000122A162C4F80C212360BDE8F84300F005
:10495000ADBB6560E36A012B0FD0E86A04F1300655
:10496000BEE7304600F0C6FC4FF0500383F31188D9
:10497000BFF36F8FBFF34F8FFEE704F13006B046F1
:1049800004F1BC09404608F11408FFF7CBFDC1450E
:10499000F8D1DFF84480A8F11400FFF7C3FD4046CA
:1049A000FFF7C0FD08F11400FFF7BCFD08F1280077
:1049B000FFF7B8FDA8F1C400FFF7B4FDC4F82490D8
:1049C000E86AC4F820808BE749444C45294C00082C
:1049D000D402002004ED00E0A4030020034AD2F832
:1049E00018310133C2F81831704700BFD4020020DB
:1049F0002DE9F0473D4CD4F81831002B43D12668FF
:104A000001362660002E4CD0A36A0025B3422FD871
:104A10004FF0010ADFF8D89023E0636ADB68DF68B3
:104A20007B6807F104089E4257D34046FFF7B2FD6A
:104A3000BB6A07F118000BB1FFF7ACFDF86AA2687A
:104A40000AFA00F300EB80001343414609EB8000B3
:104A5000A360FFF777FD6368FA6ADB6A9A4228BFB2
:104A60000125636A1B68002BD7D14FF0FF33A36287
:104A70006368DB6A03EB830304EB83031B6B022B8A
:104A800028BF012505E00025D4F828310133C4F8FA
:104A90002831D4F81C31002B0CBF28460120BDE87A
:104AA000F087636A1B6843B14FF0500383F31188AA
:104AB000BFF36F8FBFF34F8FFEE7636A226A6262B4
:104AC0002362D4F824310133C4F82431636A1B68AB
:104AD0002BB94FF0FF33A36296E7A362C8E7636A7E
:104AE000DB68DB685B68A3628EE700BFD40200204E
:104AF000040300202DE9F041364CD4F8183143B9B5
:104B00004FF0500383F31188BFF36F8FBFF34F8FC4
:104B1000FEE700F047FAD4F81831013BC4F8183129
:104B2000D4F8185145BBE36A33B3012604F13007CA
:104B3000D4F8E43033B3D4F8F030DD6805F104087C
:104B400005F11800FFF726FD4046FFF723FDE86A50
:104B5000A26806FA00F300EB80001343414607EB1E
:104B60008000A360FFF7EEFC6368EA6ADB6A9A42A2
:104B7000DED3C4F81C61DBE7002400F035FA2046E0
:104B8000BDE8F0812DB1636A1B68EBB94FF0FF33CC
:104B9000A362D4F828514DB10126FFF729FF08B1CF
:104BA000C4F81C61013DF8D1C4F82851D4F81C3177
:104BB000002BE1D04FF08052074B1A60BFF34F8FAC
:104BC000BFF36F8F0124D8E7636ADB68DB685B683B
:104BD000A362DEE7D402002004ED00E008B5B0B126
:104BE0000F4BD3F8181141B14FF0500383F31188E4
:104BF000BFF36F8FBFF34F8FFEE7D3F81821013259
:104C0000C3F81821FFF7D8FCFFF774FF38B94FF04D
:104C10008052044B1A60BFF34F8FBFF36F8F08BDF4
:104C2000D402002004ED00E080B51A4C1A4F4FF07A
:104C3000805609E0D4F81831D4F8F8500133C4F89C
:104C40001831FFF757FF65B9D4F81431002BF1D1B3
:104C5000236B012BF8D93E60BFF34F8FBFF36F8FEB
:104C6000F2E700F09FF9D4F80431DD68281DFFF762
:104C700091FCE36A013BE362D4F81431013BC4F8D0
:104C8000143100F0B1F9286B00F034FB284600F035
:104C900031FBD9E7D402002004ED00E0184AD2F835
:104CA0001831CBB910B4C2F81C319368B3FA83F34E
:104CB000DBB2C3F11F0303EB830189005418206B9F
:104CC00070B1606B1144406838318842606310D025
:104CD000C36810BC536070470123C2F81C31704791
:104CE0004FF0500383F31188BFF36F8FBFF34F8FE3
:104CF000FEE7142101FB032340685863E8E700BF87
:104D0000D4020020064BD3F80C2132B1D3F818316D
:104D1000002B0CBF0220002070470120704700BF0D
:104D2000D40200202DE9F843344C1D4680460F463E
:104D3000164600F037F9636893F85030022B0AD01A
:104D40004FF001096268D36C23EA0803D3646368F7
:104D500083F85090DDB900F047F900F023F916B15F
:104D60006368DB6C3360636893F85030012B36D096
:104D700001256368D96C21EA0701D96400226368C0
:104D800083F8502000F030F92846BDE8F883D4F8C5
:104D9000008060680430FFF7FDFB38B96268A368E3
:104DA000D26A09FA02F923EA0903A3606B1C18D03E
:104DB000636815EB08055D6019D2606A61680431AB
:104DC000FFF7CEFBA36A9D4238BFA5624FF0805229
:104DD0000B4B1A60BFF34F8FBFF36F8FBBE70025FC
:104DE000CCE7616807480431FFF7ACFBEEE7206AC7
:104DF00061680431FFF7B4FBE8E700BFD40200208C
:104E000004ED00E0E00200202DE9F843DDF8208009
:104E1000F8B104461D461646894600F093F9EFF3B3
:104E200011874FF0500383F31188BFF36F8FBFF3E7
:104E30004F8F0DB1E36C2B60022294F85050731E1B
:104E400084F85020EDB2032B10D8DFE803F04B4775
:104E50000D0B4FF0500383F31188BFF36F8FBFF337
:104E60004F8FFEE7022D08D0C4F84C90012D06D0DC
:104E7000012087F31188BDE8F8830020F9E7A36AD1
:104E800043B14FF0500383F31188BFF36F8FBFF32B
:104E90004F8FFEE71B4ED6F818315BBB04F10409B7
:104EA0004846FFF777FB4FF0140CE26AB06805FA4A
:104EB00002F3034306F1300049460CFB0200B360E5
:104EC000FFF740FB7368E26ADB6A9A42D0D901209F
:104ED000B8F1000F0BD0C8F80000CAE7E36C01334B
:104EE000E364C3E7E36C43EA0903E364BEE7C6F89F
:104EF0001C01BEE704F1180106F1E400FFF722FBF4
:104F0000E0E700BFD40200200A4B1B68013308D041
:104F10004FF0500383F31188BFF36F8FBFF34F8FB0
:104F2000FEE74FF0500383F31188BFF36F8FBFF399
:104F30004F8FFEE71C01002006480068006880F3E0
:104F4000088862B661B6BFF34F8FBFF36F8F00DF83
:104F500000BF000008ED00E010B44FF08074064B75
:104F600021F0010140F8202C40E9021440F80C3CEB
:104F700010BC4038704700BF094F00080000000017
:104F8000074B19680868B0E8F00F80F30988BFF391
:104F90006F8F4FF0000080F311884EF00D0E7047B8
:104FA000D80200204FF0500383F31188BFF36F8FB6
:104FB000BFF34F8F0A4A13680133012B136000D0EF
:104FC0007047084B1B6813F0FF0FF9D04FF05003E8
:104FD00083F31188BFF36F8FBFF34F8FFEE700BFDE
:104FE0001C01002004ED00E0084A136843B94FF0AB
:104FF000500383F31188BFF36F8FBFF34F8FFEE72A
:10500000013B13600BB983F3118870471C0100202A
:10501000EFF30980BFF36F8F0D4B1A6820E9F00F93
:1050200010602DE908404FF0500080F31188FFF721
:1050300035FE4FF0000080F31188BDE80840196884
:105040000868B0E8F00F80F30988BFF36F8F7047EE
:10505000D802002008B54FF0500383F31188BFF346
:105060006F8FBFF34F8FFFF7C3FC18B14FF0805223
:10507000024B1A60002383F3118808BD04ED00E0A1
:105080000721064B064A1B680648A2FB0323064A73
:105090009B09013B03601160704700BF00000020C6
:1050A000D34D621014E000E010E000E010B5FF21E5
:1050B0000724204B20481A7882B0D2B20192446073
:1050C00019701B78DBB28DF803309DF803309DF822
:1050D000032003F050031206037011D5062200E0EE
:1050E0000A469DF80330511E5B00DBB28DF8033099
:1050F0009DF803301B06F3D4130203F4E06301E0D0
:105100004FF4E06301990B4C0C4AC9B2217011684D
:10511000436041F470011160136843F07043136001
:10512000FFF7AEFF0022064B1A60FFF705FFFFF7FF
:10513000EBFE00BF00E400E00004002020ED00E0F2
:105140001C010020EFF305820F2A11D8104B1149E2
:105150005A680B6803F4E063934208D94FF0500398
:1051600083F31188BFF36F8FBFF34F8FFEE7704754
:105170000949074B525C19789142E8D94FF0500326
:1051800083F31188BFF36F8FBFF34F8FFEE700BF2C
:10519000000400200CED00E0F0E300E0114B30B41F
:1051A0001D461A68824201D21346FAE75C68191953
:1051B000884203D141681846214459604468011966
:1051C0008A4208D1A9688A4205D0D2E90051214417
:1051D000C0E9005100E00260984218BF186030BC7E
:1051E000704700BF08040020F8B5414D0446FFF7A2
:1051F000F5FBAA68002A57D0D5F80C6C34424ED182
:10520000002C4CD004F1080358071CBF23F00703FF
:105210000833002B43D0D5F8147C9F423FD32C6831
:10522000DFF8CCC003E0206820B1A44604466168E2
:105230009942F8D3944232D02068CA1A102ACCF886
:10524000000010D9E018410708D04FF0500383F355
:105250001188BFF36F8FBFF34F8FFEE7426063602B
:10526000FFF79CFF61680023D5F8102C7F1A3143AB
:105270009742C4E9003104F1080438BFC5F8107C36
:10528000C5F8147CFFF736FC63070BD04FF05003D2
:1052900083F31188BFF36F8FBFF34F8FFEE7FFF7E4
:1052A00029FC00242046F8BD05F10C02560705D064
:1052B00005F1130323F00703194601E013461146D5
:1052C0004FF00047002002F6F83222F00702D31A0E
:1052D000C5E900103E46C2E90000C5F8103CC5F81B
:1052E000143CAA60C5F80C7CC1E9002386E700BF26
:1052F00008040020E0B138B5194D50F8043CD5F849
:105300000C2C134208D14FF0500383F31188BFF3E4
:105310006F8FBFF34F8FFEE750F8081C49B14FF075
:10532000500383F31188BFF36F8FBFF34F8FFEE7F6
:105330007047044623EA020340F8043CFFF74EFBA3
:10534000D5F8142C54F8043CA4F108001344C5F813
:10535000143CFFF723FFBDE83840FFF7CBBB00BF8D
:105360000804002010B5094C002220460849FEF729
:105370001FFD20460749FEF731FD20460649FEF78E
:10538000E9FC2046BDE81040FEF730BD20140020A7
:1053900048010020E4000020200100200020704788
:1053A0000020704710B5054C01462046FEF7E2FC90
:1053B0002046FEF7E5FC002010BD00BF20140020B1
:1053C00010B5064C002220460549FEF7CBFC2046CE
:1053D0000449FEF7CFFC002010BD00BF20140020C0
:1053E0002C1A00204416002002680E4B9A4200D06E
:1053F000704703F5DA33D86900B540F40000D8618E
:10540000DB6983B003F4000301930022052114201B
:10541000019BFBF7EDFD142003B05DF804EBFBF7F7
:105420001DBE00BF005C004000F22C41D0F85C04BF
:10543000FEF7F4BC00EB4113D3F83C22D0F85C0437
:10544000FEF71CBD00EB4113DA6BD0F85C04FEF7ED
:105450004BBD00BFD0F85C04FEF7D2BD10B50446CA
:105460000121D0F85C04FEF7B5FDD4F85C04BDE87A
:105470001040FEF78FBD00BF10B50446D0F85C04A5
:10548000FEF7ACFDA36923B1024A136943F006039A
:10549000136110BD00ED00E0D0F85C04FEF7A8BD7C
:1054A00070B5044608200022022501211E4B1F4E24
:1054B000C3F85C44C3E90060C4F820321846C3E96D
:1054C0000251C3E906221A62FCF72AFD20B14FF40B
:1054D00097711748FBF738FA002218231146D4F8C1
:1054E0002002FDF793FA582300228021D4F82002ED
:1054F000FDF78CFAC02300228121D4F82002FDF7A9
:1055000085FA4FF4887300220121D4F82002FDF7B8
:105510007DFAD4F820024FF4807300228221FDF737
:1055200075FA002070BD00BF141E0020005C004012
:10553000DC6C000808B5D0F82002FCF7A9FE0328AF
:1055400096BF024B0220185C08BD00BF7C6C0008AF
:1055500010B51C46D0F8200213462246FDF78AF902
:10556000032896BF014B0220185C10BD7C6C00081C
:1055700008B5D0F82002FDF7A1F9032896BF024B29
:105580000220185C08BD00BF7C6C000808B5D0F88C
:105590002002FDF7EBF9032896BF024B0220185CAE
:1055A00008BD00BF7C6C000808B5D0F82002FDF7EC
:1055B00009FA032896BF024B0220185C08BD00BF01
:1055C0007C6C00080A06D0F8203204D403EB4113A7
:1055D00093F82A02704701F07F0103EB411393F81F
:1055E0002A00704708B5D0F82002FDF72FF90328EC
:1055F00096BF024B0220185C08BD00BF7C6C0008FF
:1056000008B5D0F82002FDF79BF9032896BF024B9E
:105610000220185C08BD00BF7C6C000808B5D0F8FB
:105620002002FDF76DF9032896BF024B0220185C9B
:1056300008BD00BF7C6C000808B5D0F82002FDF75B
:1056400077F908BD0048704720100020704700BF60
:10565000704700BF122301480B80704730010020C3
:10566000042301480B8070474401002010B5044C0E
:105670000A4604482146FEF7B5FE204610BD00BF8D
:1056800074220020F86C000810B5044C0A46044847
:105690002146FEF7A7FE204610BD00BF7422002061
:1056A0000C6D000810B5044C0A4604482146FEF76C
:1056B00099FE204610BD00BF74220020246D000812
:1056C00010B5044C0A4604482146FEF78BFE2046DE
:1056D00010BD00BF74220020346D000810B5044CCA
:1056E0000A4604482146FEF77DFE204610BD00BF55
:1056F00074220020406D0008002103E00B4B5B5832
:10570000435004310A480B4B42189A42F6D30A4AD6
:1057100002E0002342F8043B084B9A42F9D3FBF71E
:10572000F7FB00F0A9FBFBF72FF870470C6E0008A1
:1057300000000020D4010020D401002078240020A3
:10574000FEE700000A4B10B50446186818B18369DB
:105750000BB900F007FB132C07D8064850F834307B
:10576000013302D000EBC40010BD0020FCE700BFF5
:105770007001002050120020F8B5431C054609D1E5
:1057800000F0AAFA13240646002720463946ABBE8D
:10579000044634602846F8BDF8B5054600F09CFA8A
:1057A00013240646002720463946ABBE0446346023
:1057B0002846F8BD30B585B0CDE901010392062435
:1057C00001AD20462946ABBE04462046FFF7D4FF74
:1057D00005B030BD70B50E461546FFF7B3FF044661
:1057E00030B900F079FA092303604FF0FF3070BD43
:1057F0002A4631460068FFF7DDFF431C1FBF636880
:10580000281A1B186360F2E7F7B50C461646FFF737
:1058100099FF054640B900F05FFA092303604FF095
:10582000FF34204603B0F0BD022E03D900F054FA35
:105830001623F3E7012E12D14368E418F6D42B683F
:105840000A26CDE900346F4630463946ABBE0646DF
:105850003046FFF791FF0028E1DB6C60E1E7022EA4
:10586000EDD1036802AF47F8083D0C2630463946B3
:10587000ABBE06463046FFF77FFF431CCFD0044443
:10588000DDE7FFF7C1BF30B585B0CDE90101039277
:10589000052401AD20462946ABBE04462046FFF74D
:1058A0006BFF05B030BD70B50E461546FFF74AFFD9
:1058B000044630B900F010FA092303604FF0FF30BE
:1058C00070BD2A4631460068FFF7DDFF021EF5DB9A
:1058D0006368A81A034495426360F1D1BDE8704043
:1058E0000020FFF759BF37B502AD45F8040D02247B
:1058F00020462946ABBE04462046FFF73DFF03B0D5
:1059000030BD000038B50546FFF71CFF044630B92E
:1059100000F0E2F9092303604FF0FF3038BD013D8C
:10592000012D09D8094B9A681B699A4204D14FF09E
:10593000FF3303600020F1E72068FFF7D4FF002861
:10594000ECD14FF0FF332360E8E700BF5012002096
:105950000D4B10B51968024609B90C491960694622
:10596000186802448A4206D809490A4C0968A142CB
:1059700008D08A4206D900F0AFF90C2303604FF03B
:10598000FF3010BD1A60FCE7401200207824002090
:1059900064010020ADDEFECA70B50C46FFF7D2FEF2
:1059A000064630B900F098F9092303604FF0FF3044
:1059B00070BD63680C2543F4005363604FF480634B
:1059C000636428463146ABBE05462846FFF7D4FE41
:1059D000431C1CBF20610020EAE70B4610B50021E4
:1059E00004465822184600F084FA01462046BDE8D5
:1059F0001040FFF7D1BF38B50D46044658220021AC
:105A0000284600F076FA2046002100F011F8431CE9
:105A100004460BD06B68294643F401436B60FFF7E3
:105A2000BBFF05462046FFF76DFF2C46204638BDDC
:105A30002B4B2DE9F04782460E460025984696B03E
:105A400053F83540EF00611C36D00135142DF7D1E5
:105A500000F042F918234FF0FF3403603CE040F2BD
:105A60000163C6F30044B20748BF44F002041E427B
:105A700018BF44F00404330748BF24F00404504620
:105A800048BF44F00804CDF800A0FAF761FBCDE967
:105A90000140012420464946ABBE0446002C06DBEB
:105AA0000023474448F835407B602C4614E02046EC
:105AB000FFF772FE04460FE006F42063B3F5206F93
:105AC000E946CCD149465046FFF795FF0130C6D094
:105AD00000F002F911230360204616B0BDE8F087FC
